:020000021000EC
:10F000000000012031250200592502005B25020085
:10F010005D2502005F25020061250200000000005E
:10F020000000000000000000000000006325020056
:10F030006525020000000000672502006925020026
:10F040008D0D02006B250200811F0200E1240200E9
:10F050006B2502006B2502009D110200BD290200F4
:10F060006B2502006B2502006B2502006B25020058
:10F070006B2502006B2502006B2502006B25020048
:10F080006B250200D1F601006B2502006B25020002
:10F0900071F701006B2502008D2902006B2502002B
:10F0A0006B2502006B2502006B2502006B25020018
:10F0B0006B2502006B25020000000000000000002C
:10F0C0006B2502006B2502006B2502006B250200F8
:10F0D0006B2502006B2502006B250200000000007A
:10F0E0000000000000000000000000000000000020
:10F0F0000000000000000000000000000000000010
:10F1000000000000000000000000000000000000FF
:10F1100000000000000000000000000000000000EF
:10F1200000000000000000000000000000000000DF
:10F1300000000000000000000000000000000000CF
:10F1400000000000000000000000000000000000BF
:10F1500000000000000000000000000000000000AF
:10F16000000000000000000000000000000000009F
:10F17000000000000000000000000000000000008F
:10F18000000000000000000000000000000000007F
:10F19000000000000000000000000000000000006F
:10F1A000000000000000000000000000000000005F
:10F1B000000000000000000000000000000000004F
:10F1C000000000000000000000000000000000003F
:10F1D000000000000000000000000000000000002F
:10F1E000000000000000000000000000000000001F
:10F1F000000000000000000000000000000000000F
:10F2000010B5054C237833B9044B13B10448AFF360
:10F2100000800123237010BD402800200000000062
:10F22000604E02000C4B43B10C480D4910B5AFF3D2
:10F2300000800C48036823B910BD0A48036833B93D
:10F240007047094B002BF7D0BDE810401847064B1C
:10F25000002BF5D0184700BF00000000604E0200F0
:10F26000442800202C28002000000000154B002B13
:10F2700008BF134B9D46A3F5803A00218B460F46ED
:10F280001348144A121A00F063F80F4B002B00D0F9
:10F2900098470E4B002B00D0984700200021040017
:10F2A0000D000D48002802D00C48AFF3008000F09C
:10F2B0002BF82000290003F051FE00F011F800BFE8
:10F2C0000000080000000120000000000000000015
:10F2D00040280020686000200000000000000000BE
:10F2E00008B5074B044613B10021AFF30080054B6E
:10F2F0001868836A03B19847204600F031F800BFD0
:10F3000000000000784C020070B50D4E0D4CA41B9F
:10F31000A4100025A54209D10B4E0C4C05F0A0FC11
:10F32000A41BA4100025A54205D170BD56F82530B8
:10F3300098470135EEE756F8253098470135F2E752
:10F34000182800201828002018280020282800202D
:10F3500002440346934200D1704703F8011BF9E7CA
:10F36000FEE700BF0378012B04BF014A137070470A
:10F370005E280020F0B5174F3B7889B01BB1164BC3
:10F380001B78834222D0154D06460FCD6C460FC424
:10F3900095E80F00062584E80F00082105220723C1
:10F3A0000F48019103920095029302F06FFB002E2B
:10F3B0000C4A0B4818BF0022694602F07BFA18B9C4
:10F3C000054A012316703B7009B0F0BD002009B05A
:10F3D000F0BD00BF5D2800205C2800207C4C0200AE
:10F3E000F427002065F301000120FFF7C3BF00BF31
:10F3F0002DE9F04383B002AB4FF0000803F8018D14
:10F40000254C074618460E46A56800F09DFDA268EB
:10F410006368D4F8009013440133A3EB0903012B74
:10F4200007D80BBB9DF8070000F0B4FD03B0BDE8A2
:10F43000F08309F101039DF80700236000F0AAFDA5
:10F440000122002362F3010368F3820305EA090540
:10F4500067F3C50304EB850468F3891366F39F2300
:10F46000E36003B0BDE8F0830121434661F301038B
:10F4700068F38203052161F3C50309EA0202074923
:10F4800004EB820268F3891309F1010561F39F23FC
:10F490002560D360C6E700BF602800209C4C0200B6
:10F4A0002DE9F0434F4E716832688A428BB078D0B4
:10F4B000B76807EA0105023506EB85020131546899
:10F4C00014F003030ED1C4F3891303EB94530B44DC
:10F4D00007EA0305023506EB8502591C546814F04F
:10F4E0000303F0D0022B2CD0C4F38313C4F3952272
:10F4F000002B73D00DF1100C604601EB030E07EAF0
:10F50000010506EB850501F10108F045E96840F8C1
:10F51000041B4146F3D10093C4F3C2006346D6F8FE
:10F5200010440021A04748B1C6F804803068B0EB11
:10F53000080018BF01200BB0BDE8F083D6F80480A6
:10F54000F4E701F1010827EA080001EA07030130A6
:10F5500006EB830380004FEA94598145DA68C4F3CF
:10F56000891322D988B307EA0801C7B20331A9EB8E
:10F570000700DFF874E006EB8101C0B28DE882403D
:10F580000390D6F814740021C4F3C200B84748456C
:10F5900020D006EB850560F38F146C60D6F80480EC
:10F5A000C4E700200BB0BDE8F08307EA0800033091
:10F5B00006EB800000218DE8010203910291D6F84C
:10F5C0001474C4F3C200B847E1E786465FFA89F7CE
:10F5D0000549D3E7033008EB9008A5E788460DF10D
:10F5E000100C98E7602800206C28002000B585B03A
:10F5F00000230390194601AA44F20100ADF804303B
:10F60000029300F003F805B05DF804FB08B50D495E
:10F610000120FFF7EDFEFFF7E7FEFFF741FF0028AF
:10F62000FBD109490320FFF7E3FEBFF34F8F0749E2
:10F63000074BCA6802F4E0621343CB60BFF34F8FFD
:10F6400000BFFDE7A84C0200B84C020000ED00E04E
:10F650000400FA0559B10AB909207047531E1A402F
:10F66000FAD1826001608380C260104670470E202C
:10F67000704700BF10B48468C26803468088121BBC
:10F68000904203D204205DF8044B7047DA681C688E
:10F6900002400020A154DA680132DA605DF8044BC0
:10F6A000704700BF03468068DA6890420DD010B4FE
:10F6B00098689A881C6802400020A25C0A709A68C8
:10F6C00001329A605DF8044B70470520704700BF17
:10F6D000F8B5204A204B0025C2F84051C2F84451E9
:10F6E000C2F84851C2F84C51C2F80051C2F8045156
:10F6F0001B6813B31949D2F804450A68A41A1A689A
:10F7000024F07F44A2422F4609D8197CDE69A41A4E
:10F71000154499B91EB133461A68A242F5D9104969
:10F72000104A0B7812789A420DD00F490F4A41F8CF
:10F7300023504FF48013C2F80031F8BD1F745A698A
:10F7400098699047E6E7531CDBB2022B08BF002301
:10F750000B70EAE700100140982D0020942D002046
:10F76000912D0020902D0020882D002000E100E048
:10F770002DE9F04F7D4A7E491378097899428BB084
:10F780003BD00133DBB27B490491022B0D687A49EF
:10F79000069108BF00231370784A084652F82310D8
:10F7A000D0F80090049A6B18002423F07F434E4653
:10F7B000AC461360204627462546AEB133688B42DF
:10F7C00000F2ED81F4683760C91A1844F3693CB15E
:10F7D0000CEB000E2EF07F42F561B460726035468E
:10F7E0001E460124002EE9D12A46B146002C40F0E5
:10F7F000DB8201230793069B07E05F4B5D4A04927F
:10F80000D3F80090069300220792D3F800A05C4B37
:10F81000DFF874C11B780593049B186800234946E0
:10F82000CE460893D146099303934FF0010B174638
:10F830009A46804637B37C68BD683B46FF695148AD
:10F84000A4EB080222F07F42824258D815441D6082
:10F85000002283F810B05A609A60DA6100296ED0F5
:10F860000868854263D90C4603E01068A8424FD26D
:10F870001446E2692D1A002AF7D11D60DA61E361AE
:10F88000002FD8D10297CDF804E09CF801709CF8C5
:10F8900000200025974200F08680104600EB4000D3
:10F8A0000CEBC000541C9CF80230E2B204798CF8D6
:10F8B0000020934204BF8CF800500022022C836881
:10F8C0004ED0032C40D0012CE4D11E7C002EE1D17F
:10F8D000C4685C6005699D604269DA6082699A610A
:10F8E000059A029FDDF804E0002AA8D03446A4EB74
:10F8F000080224485E6022F07F428242A6D9A8EB2B
:10F90000040424F07F44AC4208D22D1B1D609FE705
:10F91000401B10601D60DA61E361B1E7002583F8E8
:10F9200010B01D605D609D60DD6141B10868451BE0
:10F930000D609946D9614FF0010A19467AE7994658
:10F9400019464FF0010A75E70029A3D00022CB69C0
:10F950000A741946002BFAD199464FF0010A94E730
:10F96000D9B19942084615D110E100BF902D002071
:10F97000912D0020942D0020982D0020882D00200E
:10F98000842D0020FEFF7F00782C0020A34200F091
:10F99000E8802046C469002CF8D10E4697421D74B9
:10F9A00031467FF47AAF4046D046CA46DDF804902F
:10F9B000B8F1000F40F0F481099B002B40F0ED817D
:10F9C000089B1BB17B4B9DF814201A70039B13B945
:10F9D000494500F04C81002900F04E81764C049B93
:10F9E000D4F804051B68754D0F682978C21A22F0F7
:10F9F0007F420332002951D17149DFF8C8C1DFF8D5
:10FA0000C8E14FF48036C4F84463C4F804634FF48B
:10FA10000036C1F880610E60012626602F21DCF8D7
:10FA2000004000BF00BF00BF00BF00BF00BF00BF5D
:10FA300000BF74452FD000BF00BF00BF00BF00BF94
:10FA400000BF00BF00BF00BF00BF00BF00BF00BFBE
:10FA500000BF00BF00BF00BF00BF00BF00BF00BFAE
:10FA600000BF00BF00BF00BF00BF00BF00BF00BF9E
:10FA700000BF00BF00BF00BF00BF00BF00BF00BF8E
:10FA800000BF00BF00BF00BF00BF00BF00BF00BF7E
:10FA900000BF00BF00BF0139C3D12E7097422CBFF9
:10FAA000DB199B18444923F07F43C1F84035D1F856
:10FAB0000425121A1B1A22F07F4223F07F430332DF
:10FAC0009A4248D9D1F804353E4AC1F84035126807
:10FAD0003D492F2300BF00BF00BF00BF00BF00BFD4
:10FAE00000BF00BF8A422FD000BF00BF00BF00BFD1
:10FAF00000BF00BF00BF00BF00BF00BF00BF00BF0E
:10FB000000BF00BF00BF00BF00BF00BF00BF00BFFD
:10FB100000BF00BF00BF00BF00BF00BF00BF00BFED
:10FB200000BF00BF00BF00BF00BF00BF00BF00BFDD
:10FB300000BF00BF00BF00BF00BF00BF00BF00BFCD
:10FB400000BF00BF00BF00BF013BC3D11C4B4FF43F
:10FB50000032C3F80021174A002313700BB0BDE830
:10FB6000F08F834212D00E46DC69D3F800E0C46106
:10FB700034B12268724422609CF800209CF8017025
:10FB80000398B14218BF0120039007E7D1F81C90F9
:10FB9000B9F1000F1AD04E464FF0010AE4E72A46A9
:10FBA000B146002C60D15B1AC9F8003001230793DD
:10FBB000069B2AE6842D002000100140852D0020A0
:10FBC00000E100E0042800200024F400784E794C85
:10FBD000C6F808B0784E4FF02F0E366800BF00BF51
:10FBE00000BF00BF00BF00BF00BF00BFA6422FD0B4
:10FBF00000BF00BF00BF00BF00BF00BF00BF00BF0D
:10FC000000BF00BF00BF00BF00BF00BF00BF00BFFC
:10FC100000BF00BF00BF00BF00BF00BF00BF00BFEC
:10FC200000BF00BF00BF00BF00BF00BF00BF00BFDC
:10FC300000BF00BF00BF00BF00BF00BF00BF00BFCC
:10FC400000BF00BF00BF00BF00BF00BF00BF00BFBC
:10FC5000BEF1010EC2D1012634460896C8464E4672
:10FC600005940994A2467FE7069806609BE7079BE8
:10FC7000002B3FF470AFAEE64D4A504B4E4E4D4C0C
:10FC80004FF480304FF400370125C3F88070C2F87C
:10FC900048032F23C2F80803556030681E4600BF92
:10FCA00000BF00BF00BF00BF00BF00BF00BFA04239
:10FCB0002FD000BF00BF00BF00BF00BF00BF00BF0C
:10FCC00000BF00BF00BF00BF00BF00BF00BF00BF3C
:10FCD00000BF00BF00BF00BF00BF00BF00BF00BF2C
:10FCE00000BF00BF00BF00BF00BF00BF00BF00BF1C
:10FCF00000BF00BF00BF00BF00BF00BF00BF00BF0C
:10FD000000BF00BF00BF00BF00BF00BF00BF00BFFB
:10FD100000BF013EC3D19560049A116000BF00BFCF
:10FD200000BF00BF00BF00BF00BF00BFA0422FD078
:10FD300000BF00BF00BF00BF00BF00BF00BF00BFCB
:10FD400000BF00BF00BF00BF00BF00BF00BF00BFBB
:10FD500000BF00BF00BF00BF00BF00BF00BF00BFAB
:10FD600000BF00BF00BF00BF00BF00BF00BF00BF9B
:10FD700000BF00BF00BF00BF00BF00BF00BF00BF8B
:10FD800000BF00BF00BF00BF00BF00BF00BF00BF7B
:10FD9000013BC3D10A4B1970DDE6049B18600FE6E6
:10FDA000069BC3F800A007E6069B1E6021E500BF86
:10FDB000001001400024F4000428002000E100E0CD
:10FDC000852D0020F0B4564B564A574E574C4FF4F1
:10FDD00080304FF400310125C2F88010C3F8480389
:10FDE0002F21C3F808035D6030680E4600BF00BFD6
:10FDF00000BF00BF00BF00BF00BF00BFA0422FD0A8
:10FE000000BF00BF00BF00BF00BF00BF00BF00BFFA
:10FE100000BF00BF00BF00BF00BF00BF00BF00BFEA
:10FE200000BF00BF00BF00BF00BF00BF00BF00BFDA
:10FE300000BF00BF00BF00BF00BF00BF00BF00BFCA
:10FE400000BF00BF00BF00BF00BF00BF00BF00BFBA
:10FE500000BF00BF00BF00BF00BF00BF00BF00BFAA
:10FE6000013EC3D19D6000BF00BF00BF00BF00BF07
:10FE700000BF00BF00BFA0422FD000BF00BF00BF27
:10FE800000BF00BF00BF00BF00BF00BF00BF00BF7A
:10FE900000BF00BF00BF00BF00BF00BF00BF00BF6A
:10FEA00000BF00BF00BF00BF00BF00BF00BF00BF5A
:10FEB00000BF00BF00BF00BF00BF00BF00BF00BF4A
:10FEC00000BF00BF00BF00BF00BF00BF00BF00BF3A
:10FED00000BF00BF00BF00BF00BF0139C3D1144E37
:10FEE000144D154C1549164F0020307028602070B5
:10FEF0004FF48015E0240B26087048708E7038701F
:10FF00001049C2F8805182F814431560C3F80805FF
:10FF100082F81143D3F804350B60F0BC704700BF82
:10FF20000010014000E100E0042800200024F4005B
:10FF3000852D0020982D0020902D0020782C002069
:10FF4000912D0020942D002070B4EFF3108472B630
:10FF50000D4B9A68AAB90D490D4E01259D60D1F847
:10FF6000805035401D60C1F88060D1F884505D60DC
:10FF70004FF0FF33C1F88430027004B962B670BC30
:10FF8000704701230370F8E75860002000E100E0AB
:10FF9000FC06FFBD094B9A6872B168B910B4EFF363
:10FFA000108272B606491C680C605C684C609860F0
:10FFB00002B962B65DF8044B704700BF586000207C
:10FFC00000E100E0F0B52B4C2B4F6268668883B0EF
:10FFD000002A48D036015388B9190333496802EB27
:10FFE000830201F58050824225D21368013318BF85
:10FFF0004FF6FF751FD09388AB4213D013888BB197
:020000022000DC
:1000000062601E485388868801681D4800250333B6
:1000100000959BB201EB86010325257000F09EFD43
:1000200003B0F0BD5388033302EB8302824202D255
:1000300013680133DFD13E44B38963B10F4D1048DB
:1000400029680227052600230122AF80267000F0D0
:10005000DBFD03B0F0BD0122094800F0D5FD04230B
:10006000237003B0F0BD3601BB19596801F10802D5
:10007000B7E700BF142E00209C2E0020BC2E0020CD
:1000800030280020F0B543688E464BB1324A1468E0
:10009000A34205D35268934202D813F003023AD028
:1000A00000232E4EAEF800304FF0010C4FF6FF75D6
:1000B0007768002307F5805453B35A88033203EB63
:1000C00082039C4217D91A68013214D09A88AA4236
:1000D0000BD01A884AB1026899689142ECD1204A43
:1000E0004360138903810120F0BD5A88033203EB7A
:1000F0008203A342E7D30CF10103AEF800C01FFA5C
:1001000083FCBCF1030F06F11006D1D10020F0BD35
:1001100007F10803D5E7124C05892489A542BFD110
:1001200005689C68A542BBD10C4C6068834205D928
:1001300000F58050834201D2134608E06269934281
:10014000E4D902F58052934238BF0123DED2AEF8E3
:1001500000300120F0BD00BF302800209C2E002080
:10016000142E0020B3F804C0BCF1010F53D82DE9C0
:10017000F0419046294A4FF6FF7702EB0C1E002211
:100180009EF80040002C33D11C68002C3ED06588BE
:10019000DEF80460033504EB850406F58056B442AE
:1001A00025D22568013522D0A588BD4219D02588E1
:1001B000BDB11C6018B1A6880588AE42E5D119B161
:1001C00026880D88AE42E0D1A268C8F800201A68DF
:1001D000134BC8F804201B89A8F808300020BDE89C
:1001E000F0816588033504EB8504B442D9D31A60E5
:1001F0000CF1010C1FFA8CFCBCF1020FA3F804C037
:100200000EF1100EBCD10A20BDE8F081DEF80460CA
:1002100006F10804C1E70A20704700BF9C2E0020A9
:10022000142E00202DE9F04FA94C256FEF007E1B06
:10023000B6008BB0A25D013A824604EB0609052A9E
:1002400031D8DFE802F05D3E3E1D1D03002840F07E
:10025000D680DFF8908298F80C30002B00F01283E3
:1002600098F8003088F80C00013B062B1BD8DFE81B
:1002700013F00701C302CE01AF011A00F502E50237
:10028000002840F0BC80A7EB050B04EB8B0B9BF820
:100290000480B8F1010F00F05083C0F03983B8F149
:1002A000020F00F012810F23A15D06938B1E012B1C
:1002B00040F2AC80052A34D8DFE802F030816A5E73
:1002C00094907B1B04EB8303DFF814B2B3F8128025
:1002D0000BEB0818002840F0AA80B8F808A0D8F85E
:1002E00004101B7C01EB8A0A062B00F29A83DFE8DC
:1002F00013F0A601E901D201360220020602030230
:10030000002840F08D8099F80430032B00F205811D
:10031000DFE813F03E014B012E010A0100238DF8A6
:1003200014306C4D05F1200655F8043F0BB105A8BB
:100330009847B542F8D1206FC0EBC00004EB8000B5
:100340001C220021FFF704F8636F3BB1226F0132DA
:10035000013B02F00302636722673BB95E4A1378F0
:1003600023F0040313700BB0BDE8F08F0020FFF7FB
:1003700059FF0BB0BDE8F08F7B1B04EB8303032216
:10038000D3F80610DB68089107938DF81420C8E7AE
:100390007B1B04EB830302211A7C1E899D88D8688D
:1003A000ADF82060A2F10603B3FA83F35B098DF880
:1003B0002430ADF8225007908DF81410B1E77B1B64
:1003C00004EB8303012218899988DB68ADF82000CB
:1003D000ADF8221007938DF81420A2E705238DF8BD
:1003E00014309EE77B1B04EB83030422DB88ADF80B
:1003F000203000238DF81420ADF8223091E7A15D64
:10040000012306938B1E012B3FF654AF334B99F813
:100410001660186C596C3044891B1864596449E79C
:100420002D490B7823F001030B7001233CE7DB8897
:10043000B8F80AE0B8F80800C3F57F41FD3103338E
:1004400003447144A8F80830A8F80A1001232BE7E8
:10045000234BB8F808101A781B7CB2FA82F2B3FA70
:1004600083F352095B09013188F80A2088F80B30C0
:1004700000220123A8F8081088F80C2088F8003022
:1004800098F80A304BB1164A9389002188F80A106F
:100490001BB9927B002A40F0A48298F80B304BB134
:1004A0000F4B9A8B002188F80B101AB99B7F002BF9
:1004B00040F096827A1B002314F8222088F800303E
:1004C000013AA8F80230C8F8043000230693F1E698
:1004D000242E0020A42D0020102E0020C82D002046
:1004E0009C2E0020142E00204FF001084FEA08181F
:1004F0000BEB08034FF0000A5968C54ACDF800A07D
:100500000223C44800F02AFB0BF808A000283FF49F
:100510002AAF7B1B14F82320013ABF490B7823F044
:1005200001030B700E23BFE6DFF8F882B84AD8F853
:100530000010B8484FF0000A0223CDF800A000F0E8
:100540000DFBB64BB6495B88D8F800E089F804A0EB
:100550001B01CA1801F803A05368B8F80410C8F8C2
:1005600000300223C2F804E01181A8F80430CDE77E
:10057000DFF8B082A748D8F800100023012200F06D
:1005800043FB02220023A8F8042089F80430BDE7C9
:10059000A44BA54A19689F4800230093022300F04A
:1005A000DDFA012389F80430B0E7DFF874B29BF874
:1005B0000030022B00F022829BF81030022B93D0E7
:1005C00095490B7843F0020323F001030B707CE79D
:1005D000B8F80230924A02EB03129389002B00F024
:1005E000DB81904B8B48196802229A8005220023F8
:1005F00088F80020012200F007FB0346002B3FF49F
:10060000B2AE1C2202FB05F2A25C013A4CE6854820
:10061000D8F80420D0F800E0818853887D480EEB9C
:1006200081014FF0000ECDF800E003334FF0030ED0
:100630009BB288F800E000F091FA0346DEE7002361
:10064000321D5146224400937248012300F086FA7D
:100650007B1B9B00E2180221117400283FF483AE3B
:10066000E25C0E23013A791B04EB8101B8F80AC061
:10067000C988B8F808E0C1F57F40FD300331604417
:100680007144A8F80A00A8F8081041F61D518B42E1
:100690003FF41BAF08E6002306F10C020AF1080143
:1006A000224400935B48012300F058FA7B1B9B0017
:1006B000E218917D00290CBF01210321117400284B
:1006C000CED150E6002306F108020AF104012244CB
:1006D00000935048012300F041FA7B1B9B00E11876
:1006E000E25C032A0CBF052306230B7400283FF4A9
:1006F0003AAE013A0E23B6E741F61D53B3E74B4B32
:100700004B4AB3F800A0516842484A4A002300937C
:10071000012300F023FA002840F035817D1B04EB13
:1007200085040BEB0A1A0622012322748AF80E3084
:1007300019E6A7EB050B4FEA8B0B04EB0B033C48C8
:100740009B690360394900234360FFF79BFC002845
:100750007FF475AF14F80B200A23013AA4E5DFF803
:10076000D8E0DEF844C0BCF1000F00F0F180DEF804
:10077000401028485EF83120A7EB050B04EB8B0BEB
:100780000EEBC103013101F00701CEF840100CF16E
:10079000FF3CBBF81410CEF844C04FF0000E03939A
:1007A0000AEB81019B88CDF800E000F0D7F9039AAD
:1007B0009BF816309188BBF81420013B0A44DBB249
:1007C000ABF814208BF8163013B901238BF81030D6
:1007D00000283FF4C8AD7A1B0E2314F82220013AFA
:1007E00041E7104AD8F804109388498803330B4432
:1007F0000221938088F80010FFF7E4FB0346002BEA
:100800003FF4B1AD1C2202FB05F2A25C013A3CE7C9
:10081000D84C020030280020102E0020142E00207A
:100820009C2E0020BC2E0020E04C0200C42E002094
:100830009C2D0020D44C0200C82D00207A4B7B4A0E
:1008400019687B4800230093C8F80430072388F810
:100850000030022300F082F90346CFE6B8F80230F8
:10086000DFF8E0B11B019B4406200023DBF80410F5
:10087000704A0093022388F800006D4800F06EF97A
:100880000346BBE698F80030072B2CD801A151F89D
:1008900023F000BF51040200E7080200E70802004D
:1008A000E3070200BD0802003D0802003D08020007
:1008B000B5080200012388F80030E1E5B8F80230FD
:1008C000DFF880B1584A1B010BEB03011068D1F827
:1008D00004C0B2F804E048600220C2F800C0A1F8E9
:1008E00008E09080BFE7013B062B3FF6DCAC01A19E
:1008F00051F823F081040200F90702000F060200FC
:10090000D1050200A70202005D0802003D080200B6
:10091000DBF80C30CDF818A005A80DF11201CDF8C8
:100920001CA00593FFF7AEFB00283FD10A237A1BDA
:1009300004EB82020221117160E63F4B1B789B079A
:1009400009D4014608223D48FEF702FD022359E77B
:10095000DCF80030FFDEDFF8E4B0B01D5B46204479
:1009600005AA5146FFF7FEFB00284AD1CDF800A0AA
:100970000699334A2E48BBF804A0434600F0EEF82F
:1009800040B30E233EE77B1B9B00E118E25C06238D
:100990000B74013A0E2366E651682548012200F0E7
:1009A00033F90422034688F8002027E60699244AF2
:1009B0008B88ABF80630B1F800E01D48CDF800A0F8
:1009C0000123ABF808E0BDF8128000F0C7F870B161
:1009D0000E23ACE71B4B03EB0A1383F80E80C2E433
:1009E0000123A8F80230FFF7EDFA034607E7154A9E
:1009F00002EB081201215346917398E74FF000086B
:100A000074E50390514658460822FEF7A1FC039B6B
:100A10000A2B7FF4F7AE1C2303FB05F3E25C013ADB
:100A200053E50F231FE600BFBC2E0020E04C020060
:100A300030280020D84C0200102E0020C82E0020A4
:100A4000D44C02009C2E00200846FFF7EBBB00BFF1
:100A500029DF704728DF704770B50C4D696E042997
:100A600011D02B6E0B44032B88BF043B182202FBD2
:100A7000035406464B1C204600216B66FEF768FCBB
:100A80003460012070BD002070BD00BFD42E002056
:100A900070B5304C636E84B07BB1266E7500AB19B7
:100AA00004EBC3031A7A012A09D0022A26D19889B5
:100AB000FFF7D0FF112818D000BB04B070BDA819F3
:100AC0009A8ADB8A04EBC000D21AC1680069B2F5C9
:100AD000806F4FEA8303B4BF92B24FF4806219442F
:100AE0001844FFF7B5FF1128E6D11B4A137823F00D
:100AF000020343F00403137004B070BD1022684673
:100B00000021FEF725FCAB1904EBC3031A7A012A76
:100B100017D0022A09D19A89DB89ADF80A20D21AA6
:100B20000123ADF808208DF800303544ED0062193E
:100B300063595268019268469B680921984704B03E
:100B400070BD1A699B8A029200218DF80010ADF8E1
:100B50000C30EAE7D42E0020D02E00202DE9F04101
:100B6000264D2C78E60782B012D510B1244CA04255
:100B700003D2022002B0BDE8F081224CA042F8D29C
:100B800052B149B142EA0104A40707D00620F1E7B7
:100B9000012002B0BDE8F0810320EBE70468A14228
:100BA00001D20520E6E7466801EB8304A642F8D3AC
:100BB0000BB90420DEE7804601A81E4614460F4606
:100BC000FFF74AFF08B90720D4E701992B78C1F84D
:100BD0000080019A089848600121D46013F006044F
:100BE00017619682117201D00020C3E743F002031F
:100BF0002B70FFF74DFF2046BCE700BFD02E002032
:100C000030280020402800202DE9F041244D2C7888
:100C1000E40782B010D510B1224CA04203D20220CA
:100C200002B0BDE8F081204CA042F8D241B1C1F33E
:100C30000B043CB10620F3E7012002B0BDE8F081CF
:100C40000320EDE70468A14201D20520E8E74668E9
:100C500001EB0234A642F8D30AB90420E0E780464B
:100C600001A81E4614460F46FFF7F6FE08B90720F6
:100C7000D6E701992B78C1F80080019A4E600220D6
:100C8000390B148213F006049181107201D00020F8
:100C9000C6E703432B70FFF7FBFE2046C0E700BF0B
:100CA000D02E0020302800204028002010B50F4C06
:100CB00023780BB1852010BD0D4A6360E360106896
:100CC000A36010F0010023610BD001F059FE20B9A0
:100CD0004FF080430122C3F8182501232370002020
:100CE00010BD072100F09EF8EFE700BF3C2F002069
:100CF00000E100E030B5224DAB7883B0044693B1FB
:100D000010B143680120984702A8002300F8043D71
:100D1000FFF71AF9EB689DF804000133EB60FFF769
:100D200039F903B030BD02A803F0FF0200F8052D29
:100D3000FFF70AF964B12A6942B1944208D0134618
:100D400001E09C4204D01B68002BFAD122602C6188
:100D5000EB6863B90B4A0C491360136801934FF0B9
:100D6000804202200123019CC2F804030B60EB685F
:100D70009DF803000133EB60FFF70CF903B030BDC1
:100D80003C2F0020040100400800004010B51A4B21
:100D90001A6882B0A2B100221A601B6800934FF05B
:100DA00080430122154C0099C3F80823A3686270A0
:100DB00033B10CCB0020A2609847A368002BF8D178
:100DC0000F4B1A68AAB100221A601B6801934FF0FA
:100DD00080430222094C0199C3F8082323690122A8
:100DE000A27033B10CCB0120226198472369002BFC
:100DF000F8D102B010BD00BF000100403C2F002020
:100E00000401004058B910B5054CA36833B10CCBB0
:100E10000020A2609847A368002BF8D110BD70474E
:100E20003C2F0020002810B418DB00F1604303F5CC
:100E300061434901C9B283F80013C3B2400980007D
:100E400000F1604000F5614003F01F020123934070
:100E5000C0F8803103605DF8044B7047C3B2044AA8
:100E600003F00F0449012244C9B21176E6E700BF3E
:100E7000FCEC00E030B51D4C94F8545083B015B133
:100E8000082003B030BD4FF0FF33FF2207210620BA
:100E900023636363A363E36323646364A364E3641E
:100EA00023606360A360E36023616361A361E36126
:100EB000236284F850306362A36284F85230E362A4
:100EC00084F8533084F85120FFF7ACFF084B094AEF
:100ED0001D601B68019301984FF0004301212846D3
:100EE00084F85410C2F8043303B030BD502F0020F2
:100EF0007C61004000600040F0B55E4C251895F91B
:100F00003030002B01DB0820F0BD91F803E0BEF18A
:100F1000000F50D02368013300F0A6800826012579
:100F200054F8253001334CD06B1C54F82370013732
:100F300048D0AB1CB3423CD254F82370013741D0A7
:100F4000EB1CB34235D254F8237001373AD02B1D35
:100F5000B3422ED254F82370013733D06B1DB34205
:100F600027D254F8237001372CD0AB1DB34220D2C6
:100F700054F82370013725D0EB1DB34219D254F831
:100F8000237001371ED005F10803B34211D254F883
:100F90002370013716D005F10903B34209D254F882
:100FA000237001370ED00A35B54202D2E36A01330D
:100FB00058D00420F0BD236A01332DD00C2609251A
:100FC000AEE72B4626185DB244F8232086F8305051
:100FD000BEF1000F26D08B78A3B94A784FF0A04617
:100FE00000F5E073920046F82320CB78F3B9083D72
:100FF0002C44097894F8502042EA811284F8502059
:101000001846F0BD830003F1A043D3F8002722F077
:101010000202C3F80027E8E7082685F83060334667
:1010200022623546234483F84800D4E7AB0003F13D
:10103000804303F5C0430978D3F8104524F44734BE
:1010400024F44074C3F8104502020904D3F81005D3
:1010500001F4403102F4F8520A430243C3F8102568
:101060000020F0BD0B23ADE7002385F8303022606F
:101070001D46B0E7502F0020F0B42E4D2E1882B040
:1010800096F93030072B1CDD2B4493F848309B0930
:10109000032B41D0012B14BF4FF440314FF40031EA
:1010A000800000F1A040D0F8002722F44032C0F8C0
:1010B0000027D0F800370B43C0F8003702B0F0BC6F
:1010C0007047DAB2072AF9D8980000F1804000F59D
:1010D000C04003F140029200D0F8104592B202F1F4
:1010E0008042002744F0010402F5C042C0F81045D8
:1010F0000197019817600029E0D096F9302055F843
:101100002220002ADAD001220B4902FA03F3C1F8A7
:10111000043302B0F0BC70474FF0A043D3F8103551
:10112000C34013F0010F0CBF4FF400314FF44031B6
:10113000B6E700BF502F002000600040154B03446D
:1011400093F93030072B17DCDAB2072A13D810B422
:101150009A0002F1804202F5C0420F4CD2F810050D
:10116000012120F0010001FA03F3C2F81005C4F8D0
:1011700008335DF8044B7047800000F1A040D0F8C0
:10118000003723F44033C0F80037D0F80037C0F8F8
:1011900000377047502F0020006000402DE9F04FCD
:1011A00087B00023CC4A01931168012900F00A821C
:1011B0001E46CA4B1A68012A00F0F681C84B1A680D
:1011C000012A00F0E381C74B1A68012A00F0D081A0
:1011D000C54B1A68012A00F0BD81C44B1A68012A68
:1011E00000F0AA81C24B1A68012A00F09781C14B16
:1011F0001A68012A00F08481BF4B1A68012A00F0A6
:101200005E8116F0FF0F1AD0BC4F01250024A30009
:1012100003F180432E4203F5C0434FEA45050BD04E
:10122000D3F8100557F82420D3F81015C0F3042084
:10123000C1F3014102B190470134082CE7D1002EDF
:1012400002DB07B0BDE8F08F00224FF0FF33AB4C5C
:1012500002920393012502AE94F950104F1C2DD039
:10126000C9B221F0C00006AB4FEAD00E03EB0E0767
:1012700001F0070317F80C2C05FA03F31A421DD0EE
:101280002218890992F9302054F82220002A00F00F
:10129000F080032900F0F0804FEA800E0EF1A04E9E
:1012A00017F814CCDEF800771CEA0303C7F30149F2
:1012B00040F0B880B9F1030F00F0D7814FF0030A76
:1012C0004FF002094FF00108002794F95110481C13
:1012D0002DD0C9B221F0C00006AB4FEAD00C03EB11
:1012E0000C0E01F007031EF80C2C05FA03F31A424A
:1012F0001DD02218890992F9302054F82220002AA2
:1013000000F0CA80032900F0CA804FEA800C0CF17B
:10131000A04C1EF814BCDCF800E71BEA030FCEF368
:10132000014E40F09080BEF1030F00F08A8194F9E5
:1013300052104A1C2CD0C9B221F0C00006AB4FEAB3
:10134000D00C03EB0C0E01F007031EF80C2C05FA71
:1013500003F31A421CD02218890992F9302054F85C
:101360002220002A00F08F80032900F08E804FEAAF
:10137000800C0CF1A04C1EF814ACDCF800E71AEA63
:10138000030FCEF3014E6AD1BEF1030F00F0468188
:1013900094F953104B1C2CD0C9B221F0C00006ABFD
:1013A0004FEAD00E03EB0E0201F0070312F80CCC4B
:1013B00005FA03F31CEA030F1BD004EB000C8909A8
:1013C0009CF930C054F82C90B9F1000F6ED003296D
:1013D0006ED04FEA800E0EF1A04E12F814CCDEF85B
:1013E00000271CEA030FC2F3014211D1032A00F0C7
:1013F000F580002F3FF425AF4FF0A043019AD3F8BA
:1014000010359A423FF41DAF029A0193039223E7ED
:10141000022AEED1032900F04681B9F1000FE8D08D
:10142000C847E6E7B9F1020F7FF448AF032900F09F
:1014300043814FF0030A4FF001080027002A3FF4D0
:1014400044AF904741E7BEF1020F7FF470AF03292C
:1014500000F02C81002A3FF46AAF904767E7BEF1A5
:10146000020F95D1032900F02481002A90D09047E3
:101470008EE703297FF422AF16F80EC04CEA030C66
:1014800006F80EC008E7032982D116F80CA04AEA34
:10149000030A06F80CA06AE703297FF448AF16F8A0
:1014A0000CB04BEA030B06F80CB02EE70329A0D1D1
:1014B00016F80EC04CEA030C06F80EC089E70022AD
:1014C0001A601B6805934FF0A043059AD3F81035B6
:1014D000019346F0004694E600610040046100403C
:1014E000086100400C610040106100401461004040
:1014F000186100401C6100407C610040502F0020BA
:101500006F4AD2F8042312067FF576AE00221A60E5
:101510001B680493049B46F080066DE6684AD2F887
:10152000042351067FF563AE00221A601B68049302
:10153000049B46F040065AE6614AD2F8042390061E
:101540007FF550AE00221A601B680493049B46F09E
:10155000200647E65A4AD2F80423D4067FF53DAE6A
:1015600000221A601B680493049B46F0100634E6C0
:10157000534AD2F8042315077FF52AAE00221A60D9
:101580001B680493049B46F0080621E64C4AD2F8F7
:10159000042357077FF517AE00221A601B680493D7
:1015A000049B46F004060EE6454AD2F8042392074F
:1015B0007FF504AE00221A601B680493049B46F07A
:1015C0000206FBE53E49D1F8046316F001063FF43C
:1015D000F0AD136013680493049BEAE503297FF4DC
:1015E0001CAF4FF40032DEF8003723F44033CEF85E
:1015F0000037DEF800371343CEF80037B9F1000F9B
:1016000001D047460CE74FF0A043019AD3F81035BC
:1016100093427FF4F9AE07B0BDE8F08F03297FF461
:1016200024AF4FF40037DCF8003723F44033CCF814
:101630000037DCF800373B43CCF800374746C84654
:1016400013E703297FF406AF4FF40037DCF80037C7
:1016500023F44033CCF80037DCF800373B43CCF8B8
:1016600000374746C846D146F4E6032906D0CA46A5
:101670001F464FF002094FF00108DFE64FF4003734
:10168000DEF8003723F44033CEF80037DEF80037B9
:101690003B43CEF800374FF0040A4FF003094FF0F8
:1016A00002080127CAE64FF440329CE74FF4403766
:1016B000CCE74FF44037B6E74FF44037E0E700BFE0
:1016C0000060004030B50478012C83B01FD010D3E7
:1016D000022C0CD1C36826492648019301228DF8BB
:1016E000004000F00DFB244B68461B68984703B090
:1016F00030BD22492248FDF7D5FF28B302A80323B5
:1017000000F8083D1C4B1B68984703B030BD436888
:101710001C4D19782846FDF7ADFFD8B9AA68EB68CB
:101720009A4206D002AB144A03F8080D1268184614
:101730009047A968EB68AA885B1A9A4212D2124BAA
:1017400001221A7003B030BD01220C49094800F093
:1017500021FACCE7084B01908DF800401B686846E1
:101760009847E6E701220249024800F0C9FABEE7BD
:10177000D02F0020FC270020A82F0020D42F0020ED
:10178000C02F0020AC2F0020BC2F00202DE9F043FB
:101790002F4C89B02260002952D00C4680468A889E
:1017A0002C4809689946FDF755FF10B109B0BDE80E
:1017B000F083A289A1682848FDF74CFF0028F5D1E5
:1017C000264D98F810E0D8F80C70D8F808600FCDC6
:1017D0006C460FC495E80F0098F8115002971EF15F
:1017E000000E18BF4FF0010E002D84E80F00D8F84E
:1017F0000050D8F804401A4A1A488DF81C9014BFBB
:101800000E2300238DF815306946D8F814308DF872
:1018100014E0069303968DE8300000F04BF80028A2
:10182000C4D1D8F80030104A01331070BED09DF8F2
:101830001D304BB101220D490A4800F061FAB5E7AD
:10184000072009B0BDE8F083064800F073FBF1E71C
:10185000A82F0020AC2F0020C02F0020E84C020051
:10186000C5160200FC270020BC2F0020D02F00202E
:1018700010B501460C48FDF7FDFE044608B12046B0
:1018800010BD0A4800F030FA0028F8D1084906488F
:10189000FDF708FF0028F2D1012205490348BDE801
:1018A000104000F077B900BFC02F0020FC270020B7
:1018B000D42F0020F0B50479714E6401331987B03C
:1018C000DD7E15B1082007B0F0BD4D7F1D770D6896
:1018D0006B1C0BD04FF0A0470123AB40C7F8083575
:1018E0000B6803F5E073032547F823504B685F1C32
:1018F00006D003F5E0734FF0A045002745F82370AC
:10190000037906EB43131B7F002B4CD003688D69D2
:10191000C3F824550F7D4B7D05683B43C5F86C35F6
:1019200003680F684D68C3F80C75C3F814550B7D38
:10193000012B00F09A80331905465A600B69335128
:10194000EAB10379097F026806EB43131B7F002B82
:1019500065D1C2F81C31D2F81C712A680097009F2B
:10196000C2F84431D2F844212B6846480192019ACA
:10197000C3F80403286840F30730FFF753FA2B79C4
:101980002A6806EB43131B7F002B44D00823C2F8C0
:101990000035344400200123E376E0752076A075FD
:1019A000A07607B0F0BD05688F69C5F8247591F879
:1019B00014E04D7D076845EA0E05C7F86C550568CB
:1019C000D1F800E04F68C5F81475C5F80CE50D7D39
:1019D000012DB0D18D686F1C05D005F5E0754FF075
:1019E000A04747F82530CB685D1C0DD001254FF08E
:1019F000A04705FA03F3C7F80835CB6803F5E07391
:101A0000032547F82350CB6805688F68C5F808356B
:101A1000C5F810758FE70423C2F80035B9E7002335
:101A2000C2F81031D2F810712A680297029FC2F8EA
:101A30002031D2F820712A680397039FC2F824311D
:101A4000D2F824712A680497049FC2F84431D2F86E
:101A500044212B6805920C48059AC3F804032868B2
:101A600040F30730FFF7DEF989E78B685D1CBAD0D9
:101A700003F5E0734FF0A045002745F82370B2E767
:101A8000D82F00208000020010030200F0B5027978
:101A90003C4B046852019918097F00296CD0002141
:101AA000C4F8001599184968B1B1017903EB4111E7
:101AB000097F002963D10168334CC1F808430168EC
:101AC000324E090B4CB26409203401F01F0101258C
:101AD00005FA01F146F824100179076803EB41117A
:101AE000D7F80C65097FD7F814554FF0FF3EA9B31E
:101AF000D7F80815D7F81045C7F80CE5C7F814E56E
:101B00000068C0F808E5C0F810E5771C06D006F5B7
:101B1000E0764FF0A040022740F826706E1C06D0F9
:101B200005F5E0754FF0A040022640F82560651CE1
:101B300006D004F5E0744FF0A040022540F8245090
:101B4000481C06D001F5E0714FF0A040022440F897
:101B5000214013440022DA765A60F0BDD7F8081508
:101B6000D7F81045C7F814E5C7F80CE50068C0F8C9
:101B700008E5C0F810E5C8E7C4F8001592E7016869
:101B8000034C9AE7D82F00208402020000E100E015
:101B900010030200F0B50379524C5B01E51887B0E1
:101BA0002D7F3DB101F06045B5F1005F02D01020FE
:101BB00007B0F0BD23449E7D16B1112007B0F0BDE3
:101BC0009A7599609E8205796D016219137F13BB26
:101BD0000168C1F81C31D1F81C6101680496012626
:101BE000049F8E600168D2F808E0C1F81C31D1F87A
:101BF0001C310593059B968A938A5768B6B20133C8
:101C00001EF806609BB29382C1F81C65002F2FD08E
:101C1000002007B0F0BD03689168C3F82061D3F8D5
:101C2000207103680197019FC3F85861D3F8586188
:101C300003680296967D029FC3F84415C3F8486571
:101C40000368012199605368002BE1D1036801E02A
:101C5000002945D1D3F82021D3F85811002AF7D014
:101C6000002914BF0F2000202C440023A3759FE7F8
:101C7000967D938A9BB29E4202F1140122D901689B
:101C800004E0938A9BB2B3F5807F03D0D1F81C3176
:101C9000002BF6D0938A9BB2B3F5807FE9D0C1F8D0
:101CA0001C71D1F81C310393039BB2F814C0938AC2
:101CB0001FFA8CFC01331EF80CC09BB29382C1F852
:101CC0001CC5D6E70B889BB2B3F5807F08D00268AD
:101CD000D2F81C31002BFBD00123D3600020C3E7D6
:101CE0000F20C1E7D82F00200279044B03EB4213E9
:101CF000987D003018BF0120704700BFD82F00200A
:101D0000F0B403798A4E5B01F41888B0257F45B1A1
:101D100001F06045B5F1005F54D0102008B0F0BC70
:101D200070476568002D3FD13344DC7D54BBDA75C4
:101D3000D9605C761C7605796D0173191F7F002FC1
:101D40004DD19B7E8BB984B90368C3F82441D3F885
:101D5000242103680392039AC3F80841D3F80821A9
:101D600003680492012204991A6072195368002BC7
:101D70006BD003684FF401720020C3F8042308B04D
:101D8000F0BC70471C7ECCB1002D00F0AA80037916
:101D900006EB4316337F002B50D003684FF40472D8
:101DA000C3F804231120B9E704684FF401773344E2
:101DB000C4F80873DC7D002CB9D0E3E719611A760A
:101DC0000124B8E76568002DAED004684FF40477AD
:101DD0003344C4F80873DC7D002CA8D0D2E7036834
:101DE0000025C3F81051D3F8107103680197019FC3
:101DF000C3F84451D3F8445103680295029DC3F8D7
:101E00003415C3F838258CB9036801221A600279A9
:101E10005201B3185B68002B65D003684FF404725D
:101E20000020C3F8042308B0F0BC70470268D2F861
:101E3000003243F02003C2F80032E8E703684FF4B1
:101E40000172C3F80423112068E70168C1F8443126
:101E5000D1F844310593059B0368D3F82471D3F876
:101E60000841D3F8441144B9002933D1002FF4D0EC
:101E700035440023EB75032050E7002FF8D159BB00
:101E8000D47DECB1C3F80811D3F808110691069976
:101E9000D468517ED3F818356354537ED17D013315
:101EA000DBB25376537E9942D6D835440022AB7EBE
:101EB000EA75002B37D003680121104619602DE721
:101EC000C3F80841D3F8081107910799D3F81835DA
:101ED000537EEAE7002FCBD135440023EB750F206A
:101EE0001CE711201AE7036801E0A4B9B8B9D3F8D8
:101EF0001011D3F84441D3F824010029F5D000286B
:101F00004FF00003324414BF032018469C42D3759F
:101F100018BF0F2002E732440F20D175FEE632448D
:101F20000320D475FAE60268012118465160F5E6EF
:101F3000D82F0020114A037902EB4313197FD9B936
:101F40009B7ECBB910B4016883B0C1F82431D1F8BD
:101F5000244101680094009CC1F80831D1F808318F
:101F6000016801930123019C0B60017902EB41128E
:101F7000937603B05DF8044B704700BFD82F002064
:101F800070B5A54C237F8EB0002B73D1A34AD2F835
:101F90000413890546D4A14BD3F80423520704D572
:101FA000D3F80821002A40F0C9809C4BD3F81C21AB
:101FB000BAB1A28AA17D92B28A424FF00002C3F860
:101FC0001C2180F0A880D3F81C210692069AA18AD1
:101FD000A28AA06889B20132415C92B2A282C3F89F
:101FE0001C158E4BD3F84421D2B10022C3F84421F2
:101FF000D3F84411A27E04910499002A40F088800D
:10200000E37D6BB10023617EE268E37501238DF807
:1020100030108DF828300B9294E80A000AA89847EF
:102020000EB070BDD2F824110029B4D0C2F824310A
:10203000D2F82411A37E07914FF401710798C2F8DA
:1020400008130BB901235360744A02238DF828301A
:10205000D2F88034C2F88034E07DE2680D9300232A
:102060008DF83000E375237621680B9263680AA827
:1020700098479AE7694BD3F82421002A40F09280D0
:10208000D3F8101161B1C3F81021D3F810110391E6
:102090000399D3F83C15E07DC9B2884200F0A480D2
:1020A0005E4BD3F84421B2B10022C3F84421D3F8E7
:1020B0004401E17D0190019869B1D3F83C35E168B4
:1020C0008DF8303001230B918DF82830E27594E8BB
:1020D0000A000AA89847514BD3F82021002A9FD024
:1020E0000022C3F82021D3F82001A17D00900098A0
:1020F000002995D0D3F84C15A3688DF830100B93B8
:102100008DF82820A27594E80A000AA8984787E766
:1021100001221A6074E7D3F81C310593059B00294E
:102120003FF45FAFA3688DF830100B938DF8282033
:10213000A27594E80A000AA8984752E7E27D002AAF
:102140006ED00022C3F80821D3F808210892089A1B
:10215000E168627ED3F818358B54637EE27D0133EB
:10216000DBB26376637E93427FF41FAF237E002B46
:102170006CD1A37E13B9294B01225A60274AE0682B
:1021800063684FF40171C2F80813627E8DF8302045
:10219000002501220B902168E5758DF828200AA8FA
:1021A000984702E70022C3F82421D3F824110291B2
:1021B00002218DF828100299D3F88014C3F88014F6
:1021C0000D91D3F83C15E368E27522768DF8301056
:1021D0000B93216863680AA89847104BD3F84421F1
:1021E000002A3FF478AF5FE7217E11B3D3F8006295
:1021F000E568E17526F02006C3F8006226698DF8CF
:10220000300001238DF82830227621680B95E66096
:1022100063680AA8984743E7D82F002000200040B1
:10222000C3F80821D3F8081109910999D3F8183592
:1022300098E7E268E17501238DF830008DF82830C9
:102240000B9294E80A000AA8984729E7607EE5689F
:102250002169E375012200238DF83000E1602376C7
:1022600063760B958DF8282094E80A000AA8984711
:102270009BE600BF2DE9F0414479524EE7003D193D
:10228000AD0006EB050E9EF81CC0BCF1000F02D09D
:102290000820BDE8F0817251CEF804300B7B91F834
:1022A00000E0012B4FF0A0454FF0010303FA0EF3BD
:1022B00094BFC5F80C35C5F808350D784FF0A04E21
:1022C00005F5E07501234EF825304D78FF2D6ED0D1
:1022D00005F5E07CAB404FF00308CEF80C354EF826
:1022E0002C8091F802E0BEF1FF0F5DD00EF5E07C8E
:1022F0004FF0A0434FF0000843F82C8091F803C042
:10230000BCF1FF0F0FD04FF0A048012303FA0CF3EC
:10231000C8F80835CB7803F5E0734FF0030C48F8A4
:1023200023C091F803C0437903EBC30306EB830397
:1023300083F81EC0036891F800C0C3F808C5C3F84D
:102340000C55C3F810E58D68C3F824554D7B91F802
:102350000CE0003518BF0125BEF1020F2AD0BEF1F6
:10236000030F1ED0BEF1010F01D145F00205C3F8E5
:1023700054554D79C3F8C055FAB140250722C3F82A
:102380000453C3F80025097990F90400FEF74AFDCB
:102390003C4406EB84060123002033777077BDE8C8
:1023A000F08145F00605E2E74FF0FF3EA6E74FF06B
:1023B000FF3596E745F00405D9E70722C3F8002565
:1023C000E6E700BFF82F00202DE9F0434479434EA3
:1023D000E7003D19AD0006EB050E83B09EF81D80A9
:1023E0009DF828C0B8F1000F03D0112003B0BDE85C
:1023F000F083755915B101258EF81D500C254FF04D
:10240000240E1EFB045E06EB0E083D1946F80E1066
:1024100006EB850588F80420C8F8083088F80CC059
:1024200095F821E095F81E8005F120090EF0FC05D5
:102430006FF38205B8F1FF0F89F8015006D001252E
:102440004FF0A04E05FA08F5CEF80C5569B101F031
:102450006045B5F1005F08D03C4406EB84060023DC
:102460001020737703B0BDE8F08323B103F060451B
:10247000B5F1005FF0D105680020C5F84415C5F836
:102480004825C5F83435C5F838C5C5F81801D5F85C
:102490001831019301223B190199C5F85005C5F87F
:1024A00040052A6156F823301BB14023C5F8043398
:1024B0009CE7D5F81831002BFBD03C4406EB840692
:1024C000B37FFF2B08D001224FF0A04102FA03F3A3
:1024D000C1F80835002089E7002087E7F82F0020A1
:1024E000104AD2F81831E3B100B500210E4BC2F802
:1024F000181183B0997FD2F818210192FF29019A0F
:1025000005D001224FF0A0408A40C0F808250022E3
:102510005A771A7259681A680448904703B05DF8F0
:1025200004FB704700300040F82F002000300020EE
:102530000649074A074B9B1A03DD043BC858D05095
:10254000FBDC00F013F8FCF791FE0000CC4F02001A
:102550009027002040280020FEE7FEE7FEE7FEE788
:10256000FEE7FEE7FEE7FEE7FEE7FEE7F0B4BA4B64
:102570001A78062A1BD0B94AD2F8883043F470037F
:10258000C2F88830BFF34F8FBFF36F8F4FF0102327
:10259000D3F80022002AC0F22D81D3F80432002B98
:1025A000C0F22881AE4BAF4A1A60F0BC70470433CA
:1025B0001B681B07DFD1AC4B1B6803F0F002302A0D
:1025C00000F0088103F0E003402B00F00381A64BEC
:1025D0001B6803F0F003302B00F0EE80A24B1B6869
:1025E00003F0F002302A00F0D78003F0E003402B24
:1025F00000F0D2809C4B1B6803F0F003302B00F0FE
:10260000BB80994B1B6803F0F002302A00F0A080D9
:1026100003F0E003402B00F09B80934B1B6803F01A
:10262000F003302B00F086808F4B1B6803F0F00323
:10263000302B68D08C4B1B6803F0F003502B10D06C
:10264000894B1B6803F0F002302A03D003F0E0034B
:10265000402B90D1854B864A1B6803F04F031360D3
:1026600089E74FF08052834BD2F80414C3F8201549
:10267000D2F80814C3F82415D2F80C14C3F828159E
:10268000D2F81014C3F82C15D2F81414C3F830156E
:10269000D2F81814C3F83415D2F81C14C3F8401536
:1026A000D2F82014C3F84415D2F82414C3F84815FE
:1026B000D2F82814C3F84C15D2F82C14C3F85015CE
:1026C000D2F83014C3F85415D2F83414C3F8601596
:1026D000D2F83814C3F86415D2F83C14C3F868155E
:1026E000D2F840145C48C3F86C15D2F84414027850
:1026F000C3F87015062A7FF43EAF5F4B1B681A07BC
:102700007FF439AF9CE75D4E5D4C5E495E4B05271B
:10271000012500203F223760256008601A604E4B7B
:102720001B78062B7FF427AF534B1B6819077FF4E8
:1027300022AF7FE7484B554A1B780321062B1160D7
:102740007FF419AF4C4B1B6818077FF414AF6BE78D
:102750004FF080430022C3F80C21C3F81021C3F8C6
:1027600038253D4B1B78062B7FF405AF424B1B6889
:102770001C077FF400AF50E74549374ACB68127811
:1027800023F08073062ACB607FF4F5AE3A4B1B68CA
:102790001D077FF4F0AE34E73E4B2F4A1B681278DA
:1027A0003D49C3F34233062A0B60B8D1324B1B6854
:1027B0001E077FF4E0AE1DE7274B384A1B783849E7
:1027C0001160062B7FF4D7AE2B4B1B681F077FF4DD
:1027D000D2AE03E7334B204A1B6812783249C3F369
:1027E0000423062A0B60BCD1234B1B681B073FF454
:1027F000EEAEC0E62D4B0122C3F80425D3F8002429
:10280000002AFBD04FF0102315222849C3F80022DC
:10281000D1F80034002BFBD04FF010221521234BB0
:10282000C2F80412D3F80024002AFBD000221F496A
:10283000C3F80425D1F80034002BFBD0BFF34F8F31
:1028400006491B4BCA6802F4E0621343CB60BFF336
:102850004F8F00BFFDE700BFE00F00F000ED00E08C
:10286000042800200090D003E80F00F05802001068
:10287000E40E004000C00040E40F00F0105600409D
:10288000885600401856004014560040A0050040ED
:10289000F0ED00E0440200103C05004074C0074029
:1028A0000DF0ADBA240300104035014000E00140B6
:1028B0000400FA0548DF704761DF70472DE9F047F3
:1028C000DFF8B090294DD9F80060DFF8AC80284FD0
:1028D000DFF8A8A0B6FA86F682B076092B7803F066
:1028E000FF04002B36D101A8FFF7E4FF052834D000
:1028F00010B3FCF77BFE4EBB2B7803F0FF063BB119
:1029000028E0FCF773FE002CE8D02B7801240BBBE9
:102910003B68B8F80020ADF80420184601A9FFF77D
:10292000CBFF052814D00028EBD11846D9F8003089
:102930009847002CE9D1D1E70198FEF763FADAF85D
:10294000003073B101989847002ED5D00126C5E715
:10295000002CFBD002B0BDE8F087002EFAD1012494
:10296000CAE7002EC8D00126B8E700BF29300020F2
:1029700030300020203000201C3000202C3000207F
:10298000014B1878704700BF2830002008B5094B6C
:102990001B6833B1984700B908BDBDE80840FCF793
:1029A00025BE054B1B78002BF6D0BDE80840FFF78D
:1029B00085BF00BF24300020283000202DE9F041E1
:1029C000684B1A6888B0002A3CD1674F97F82E30C0
:1029D000002B45D1654B1A68002A5ED1644B1C68F8
:1029E000002C6AD17E699EB14FF000480125B6FAED
:1029F00086F2930003F58C7303F1804101F5E04109
:102A000028FA02F2086826EA020620B9002EEED162
:102A100008B0BDE8F081A3F58C730C6083F004026C
:102A200009680491C2F38002DB088DF819208DF843
:102A300018308DF814503B68049A05A89847002E6A
:102A4000D5D1E5E70022484F1A60196897F82E3073
:102A500000910099002B39D097F82F30002B4ED1E0
:102A6000444B1A68002AB5D000221A6097F82D004E
:102A700019687B8B019184B2A34201994ED85FD033
:102A8000384B3D4A002119601B68029301230299CB
:102A90001360364B1A68002AA0D000221A6008A8DA
:102AA0001B680393022100F80C1D3B6803993A74DC
:102AB00098472F4B1C68002C94D000221A601B688A
:102AC0000593059B3A7408B0BDE8F081FA68786810
:102AD00039898DF814300690ADF81C10002A2CD0DE
:102AE0002648398B7A600122FB6079833981026044
:102AF0003B6805A89847002387F82F3066E7FB68F6
:102B0000786839898DF814200690ADF81C10A3B1AF
:102B1000398B7B60FA6079833981E9E73A89796892
:102B2000164D1B1B9BB292B2D21A01EB42027B8361
:102B3000C5F82C26C5F83006A2E700233B74D7E77A
:102B4000FB684BB10D497A83012287F82F20C1F829
:102B50002C36C1F8300693E701227B8387F82F20BB
:102B60008EE700BF04710040343000201071004037
:102B7000147100400071004004700040007000407B
:102B80000378022B02D0012B00D070474068FCF77D
:102B90002DBD00BF70B5134E33788AB00BB10AB0AB
:102BA00070BD114D114B00930FCD04AC0FC495E8CF
:102BB00003000F4A84E803004FF480750D4C019523
:102BC0000723694604A803950294FEF7DFFD18B9B0
:102BD000012333700AB070BDFCF708FD0123337088
:102BE000F8E700BF64300020084D02006830002084
:102BF000812B0200683100200FB4F0B5224E3378EB
:102C00009FB01BB305AC25AB1A462499019320460F
:102C100001F0BAFB204601F097FB40B1251820785F
:102C2000FEF726FE0028FAD10134AC42F7D10A2083
:102C3000FEF71EFE0028FAD10D20FEF719FE00282F
:102C4000FAD11FB0BDE8F04004B070470F4C104BF4
:102C500001930FCC05AD0FC594E8030005AC85E8E2
:102C600003000C4F0C4A03974FF48075204607234E
:102C700001A902950495FEF789FD08B1FCF7B6FCA1
:102C800001233370BFE700BF64300020084D02000D
:102C90006830002068310020812B0200FEF7EAB87E
:102CA00000F5E0724FF0A04310B4032443F8224033
:102CB000012202FA00F021B1C3F808055DF8044BC7
:102CC0007047C3F80C055DF8044B70474FF0A04106
:102CD0000122D1F8043502FA00F020EA0302034091
:102CE000C1F80825C1F80C35704700BF10B582B097
:102CF0008DF804108DF805209DF81040059A8DF888
:102D0000063001A98DF80740FEF7F6F802B010BDB5
:102D10000121FEF7B1B900BFFEF710BA0022027020
:102D2000704700BF10B5084C237803B110BDFDF704
:102D3000BDFF08B1FCF75AFC0020FDF7DBFFFDF7F3
:102D400041F80123237010BDA9330020054B1A78E8
:102D5000092A06DC044901EB421202601A780132AA
:102D60001A707047A833002068320020014B0122FE
:102D70001A7070471428002008B540F21B12064B49
:102D800006490748FFF738FF0220FFF7C5FF054B4C
:102D900001221A7008BD00BF844D0200304D0200B0
:102DA000544D0200B93300200E4BF0B50FCB85B067
:102DB0008DE80F00082769461C2619251D240023CD
:102DC000094A0A488DF803708DF802608DF80150A9
:102DD0008DF80040FFF74EFA054B01221A7005B03E
:102DE000F0BD00BF204D02006D2D0200744D0200A9
:102DF000AA330020F0B5184C87B027780026531C62
:102E000015460296049640F0C00EDAB2CDF80B607B
:102E1000CDF813600FB92378C3B104AB0E4600920E
:102E200002A900270D488DF808E02770FFF7CCFABB
:102E300023781BB920BF2378002BFBD02A463046CD
:102E40000DF1110101F031FA07B0F0BD2378002B2C
:102E5000E3D107B0F0BD00BF14280020744D02007C
:102E600030B5114C85B023788DF80C0000228DF818
:102E70000D10ADF808200BB9237883B1022202AB04
:102E80000092002503A909482570FFF79DFA2378D1
:102E90001BB920BF2378002BFBD005B030BD2378B1
:102EA000002BEBD105B030BD14280020744D02007A
:102EB000F0B5284C89B02278002305460493069388
:102EC0000E46CDF81330CDF81B3040F0C00012B9DB
:102ED0002378002B35D0022206AB8DF8100000922B
:102EE000002704A91C482770FFF76EFA23781BB946
:102EF00020BF2378002BFBD001220DF1190103A87C
:102F000001F0D3F99DF80C1023788DF81850314357
:102F100000228DF81910ADF810200BB92378A3B159
:102F2000022204AB06A9009200250B482570FFF78A
:102F30004BFA23781BB920BF2378002BFBD009B0B4
:102F4000F0BD2378002BDDD0C5E72378002BE7D137
:102F500009B0F0BD14280020744D02002DE9F0479F
:102F60008CB0FFF717FEFFF799FEFFF7DBFEFFF7C8
:102F70001BFF01211120FFF793FE00258F4B0193CA
:102F80002A462B46009501210220FFF7AFFE8C4B0D
:102F90008C498D488D4F4FF49C72FFF72DFE2946CA
:102FA0000C228B48FCF7D4F929460C228948FCF7FF
:102FB000CFF944F620633A68874900BF00BF00BFDD
:102FC00000BF00BF00BF00BF00BF8A422FD000BFBC
:102FD00000BF00BF00BF00BF00BF00BF00BF00BFF9
:102FE00000BF00BF00BF00BF00BF00BF00BF00BFE9
:102FF00000BF00BF00BF00BF00BF00BF00BF00BFD9
:1030000000BF00BF00BF00BF00BF00BF00BF00BFC8
:1030100000BF00BF00BF00BF00BF00BF00BF00BFB8
:1030200000BF00BF00BF00BF00BF00BF00BF013B2B
:10303000C3D120210846FFF73BFF07212020FFF7DF
:1030400037FF08212020FFF733FF09212120FFF758
:1030500007FF40212220FFF703FF10213220FFF756
:10306000FFFE29463320FFF7FBFE2A213020FFF721
:10307000F7FE05A901222620FFF7BCFE0220FFF77C
:1030800047FE564E564CDFF838A1DFF83891DFF88E
:103090005C8141E01120FFF719FE524B3A684E491E
:1030A00000BF00BF00BF00BF00BF00BF00BF00BF28
:1030B0008A422FD000BF00BF00BF00BF00BF00BFCB
:1030C00000BF00BF00BF00BF00BF00BF00BF00BF08
:1030D00000BF00BF00BF00BF00BF00BF00BF00BFF8
:1030E00000BF00BF00BF00BF00BF00BF00BF00BFE8
:1030F00000BF00BF00BF00BF00BF00BF00BF00BFD8
:1031000000BF00BF00BF00BF00BF00BF00BF00BFC7
:1031100000BF00BF013BC3D13378002BBAD0227867
:10312000002308930A93CDF82330CDF82B304ABB07
:1031300023783BBB23782BBBBDF91C10BDF91A20AB
:10314000BDF9183001F5004102F5004203F50043D6
:10315000091212121B128039803A803B013502910C
:10316000019200934FF4B872534649464046EDB27F
:10317000FFF742FD042D8DD9002502203570FFF7A1
:10318000C7FD87E70722E8204FF0000E0AAB8DF855
:103190002000009208A9144884F800E0FFF714F911
:1031A00023781BB920BF2378002BFBD006220DF11A
:1031B000290106A801F079F8BEE700BF792D0200C9
:1031C0007C4D0200304D0200904D0200042800208A
:1031D00008280020AC3300200024F400B93300207C
:1031E00014280020A0860100744D0200A44D0200A6
:1031F000024B034903481722FFF7FEBC1C4E020096
:10320000C44D0200EC4D0200042210B40F4C446087
:103210008460C460046144618461C4610462446286
:10322000017080F8282080F8292080F82A2080F872
:103230002B2080F82C2080F82D2080F82E2080F87C
:103240002F2080F830205DF8044B7047F1310200E8
:1032500038B50648064C074D00F068F8204604F5DE
:103260008B6400F009F8AC42F8D138BD2C5F002027
:10327000BC3300202C5F002070B5064600F120040E
:1032800000F58B6520466C3400F01AF8AC42F9D199
:10329000082200213046FCF75BF81022002106F1DD
:1032A0000800FCF755F805490B88738300220133A9
:1032B0000B80327632777277304670BDC45F002063
:1032C00010B50822044600215C30FCF741F804F1F7
:1032D000340004220021FCF73BF804F11C00032217
:1032E0000021FCF735F820461C220021FCF730F8BD
:1032F00004F1480003220021FCF72AF804F1200021
:1033000014220021FCF724F800234FF6FF72A4F8E2
:10331000642084F8663084F8673084F8683084F874
:10332000693084F86A30204610BD00BF38B53C25AE
:1033300004462A460021FCF70BF82A4660190021B2
:10334000FCF706F80023A4F89030C4F89430204627
:1033500038BD00BF00228276C276027702604260EA
:103360008260C26002824261028380F84620704718
:103370000148FFF7EBBC00BFC85F002008B5002183
:103380000548FFF741FF0548FFF7C8FC0448BDE8C2
:103390000840FFF7DFBF00BFD05F0020CC5F0020F8
:1033A0000460002003685A004CBF43F0004323F040
:1033B00000431844704700BF61B32DE9F84F01F195
:1033C000FF3A90460646D146002707EB090404EB76
:1033D000D4746410E50071190846FFF7E3FFA245B5
:1033E000834605F10800304409D0FFF7DBFFC345F1
:1033F00000F1FF3005D8404509D2671CE5E7C34519
:1034000005D9A74202D004F1FF39DEE700210846C2
:10341000BDE8F88F08467047012807D0022807D07A
:10342000044B00280CBF1846002070470248704724
:10343000024870471D3B0200213B0200253B020071
:1034400030B5244B83B004468D1E7BB301A92846BA
:10345000AFF3008020B301992A46FFF7ADFF014684
:10346000F0B1FFF79FFF4B68A064012B12D0002B37
:1034700001F1040020DBFFF795FF0023E0642365E2
:103480000368002B1CDBFFF78DFF0023206118462B
:1034900003B030BD002323610523184603B030BDBF
:1034A000002323610923184603B030BD0A490B48A5
:1034B000091AC9100191CFE70123E0642365DFE712
:1034C000C3F30360FFF7A8FF0028206114BF0023A7
:1034D0000923DCE700000000CC4F0200944E0200FC
:1034E0000368DA0710B5044606D49B0700F14800CC
:1034F00009D500F051FC2368590709D51A070ED5E4
:10350000DB0613D510BD00F03FFC23685907F5D446
:1035100004F1D00000F048FC23681A07F0D404F549
:10352000A87000F049FC2368DB06EBD404F5E870D2
:10353000BDE8104000F084BC036803B103441846A2
:10354000704700BF09207047704700BF70B5044640
:103550000D4608E02B6C63612A4623692146012051
:103560009847082808D1296C2046FFF769FF0646CE
:103570000028EFD000F092FE0728FBD13046296CDE
:10358000FFF7E2FF281D00F0F3FB00BF2DE9F04735
:103590000C1D054692460FCCADF5727D03AE0FC6ED
:1035A0000FCC0FC60FCC0FC694E80F0002ACD5F8B5
:1035B0000C80D5F8189086E80F0000232846216C6F
:1035C0002360FFF73DFFBAF1000F074614BF0A263C
:1035D00009267FB1A36B46F010018DE810022A4640
:1035E000636401202B46C04778BB38460DF5727DD9
:1035F000BDE8F087236C6B614FF4F07221467AA826
:1036000000F053FE2B697AAA294630469847889BDA
:1036100082468DE81002314663642A462B4601201B
:10362000C04790B94FF4F0727AA9204600F03DFEF1
:10363000BAF1080F06D1216C2846FFF701FF0926D1
:103640000746C6E7BAF1070F05D0092738460DF53A
:10365000727DBDE8F0873846216CFFF775FF03A83F
:1036600000F086FB406C7047F0B5CB6B0B640E1D11
:103670000F4604460FCEF9B001AD0FC50FCE0FC5F2
:103680000FCE0FC596E80F004FF0FF3685E80F000C
:10369000009606E023696A462146984708280546B1
:1036A00008D110992046FFF7CBFE0028F2D0092060
:1036B00079B0F0BD6846FFF713FF062DF7D1394604
:1036C0002046FFF743FF00BF30B4DD6BC16082616D
:1036D00019461D64002230BC58E700BF70B5C668AB
:1036E00043690B6426B10122FFF750FF00F0D6FDBD
:1036F00003690A4604460D460146022098470728FA
:1037000007D0082803D129462046FFF71FFF00F005
:10371000C5FD3046296CFFF717FF281D00F028FB78
:10372000C2681AB1CA6B0A6400222FE79CE700BF87
:10373000704700BF836813B10146012018477047E6
:1037400000B5042907D8DFE801F0030906090900DC
:103750000BB90F2A05D902205DF804FB01205DF8A2
:1037600004FB00EB820218465368019A13605DF86F
:1037700004FB00BF10B584B0002303AC0A460094DC
:103780001946FFF7DDFF039804B010BD00B504290A
:1037900007D8DFE801F00309060909000BB90F2A71
:1037A00005D902205DF804FB01205DF804FB0199B6
:1037B00000EB82020968516018465DF804FB00BF07
:1037C00010B584B004AC002344F8042D0A460094DC
:1037D0001946FFF7DBFF04B010BD00BFF0B5D36B97
:1037E0001364151D07460E460FCDADF50F7D17ACC2
:1037F0000FC40FCD0FC40FCD0FC495E80F004FF0CD
:10380000FF3584E80F00169510E016A8FFF7D8FFE3
:10381000314616A8B84716AA694678B9049B08200D
:103820009847052804460AD0092807D026996846F3
:10383000FFF706FE6A460C210028E6D0092416A8E8
:10384000FFF74EFE20460DF50F7DF0BD2DE9F04F40
:103850000D46C96C8BB00C1D096807919146089400
:1038600000F0030B1E46002B60D1090203230791D1
:103870008DF825608DF824302B6DBBF1020F08BF49
:10388000AC6B13F0010340D1019300F008030393E4
:10389000D4F80080B8F1000F39D0022E43D0B4F82C
:1038A000008067880434AB6C27F0010A0F2148467A
:1038B0009A44FFF75FFF824533D828F001039A440A
:1038C00050452CBF002001207F0007F0020708F0C0
:1038D000010847EA0807012F3ED035D3022F1CD13B
:1038E000236823F000420292BBF1000F76D128B189
:1038F000039900297ED0002A00F0A680002B77DBF8
:10390000029B013304EB8304C2E700230193022EE0
:103910003EDDFFF717FE002840D009200BB0BDE8C0
:10392000F08F0020D0E767680834BCE7022BA3DCE7
:103930000B0CDAB209048DF82530022304EB820463
:1039400007918DF8243097E7BBF1000F02D00028D3
:1039500040F0BD8004349BE7BBF1000F25D1A8B136
:1039600094E80C00991C4FEAD272D6D005F15801A8
:103970000133069100F0A380201DFFF7DDFD06ABAB
:1039800001462846AFF30080002877D108347FE74E
:1039900007A9484600F0EEFA0028BED1019B002B93
:1039A0005CD108200BB0BDE8F08F0D2148462F6A8E
:1039B000FFF7E0FE8742E9D1AB6A9C42E6D12046A0
:1039C000FFF7F0FC0F2102464846FFF7F9FE484694
:1039D0002A460021FFF7F4FE07209FE70D21484605
:1039E0002F6AFFF7C7FE874258D02368002B87DA7B
:1039F000043485E7029B3BB305F15803271DCDF83E
:103A000010B0DDF80C80DDF808A00596A3461C4632
:103A100002E0B245B04616D038460694FFF78CFD5A
:103A200006AB014600222846AFF3008008F10106EC
:103A300004370028EDD0029B059E43455C46DDF827
:103A400010B0D2D100E05C4648460D21FFF792FE4F
:103A5000069B2862AC626B6206205FE70F21484636
:103A6000FFF788FE0E2102464846FFF7A9FE4846AA
:103A7000294A0F21FFF7A4FE07204FE707460D2133
:103A80004846FFF777FE022F28621DD12B46069A83
:103A900043F82C2F6B62AC6206203FE7AB6A9C4276
:103AA000A3D104220027A3180299A962EF622A6316
:103AB0006B632368BB421DDB0123019320E748466B
:103AC0000D21FFF757FE2862069B6B62E3E7204655
:103AD000FFF768FC04340646AC632846AFF3008069
:103AE00000283FF41AAF484632460F21FFF768FE20
:103AF000072013E70846013004EB8000FFF752FC73
:103B00000F2102464846FFF75BFE48462A463946E3
:103B1000FFF756FE072001E700000000002395E6AE
:103B2000012393E6022391E6F0B50446C5B00429CB
:103B30000DD8DFE801F053030C310F00012B4FEAE1
:103B4000124695B262D17219102A40F29B8002206F
:103B500045B0F0BD002BFAD1102AF8D82368D8065A
:103B600000F1C68022AE3046019200F073F9A06BDE
:103B7000019A0023012505FA03F1114203D00168DF
:103B800046F8231004300133042BF4D1A0633046EF
:103B900000F056F90020DBE7032BD8D1150C97B2C3
:103BA000EB19102BD3D823681E0700F1B58022AE85
:103BB000304600F023F9ED00A36B4FB1043D7119BD
:103BC00003EBC70053F8042B41F8042F8342F9D1CB
:103BD0003046A36300F0F0F80020B9E7002BB6D11F
:103BE000A56B97B2201D012606FA03F1394203F1B5
:103BF000010302D0296801600435102B00F1040094
:103C0000F2D112F400503BD1A563A1E7052B9ED160
:103C10007719202F9BD80F2E66D92F46002D3AD129
:103C20002A460027002AA06B72DD00EBC202014683
:103C300044A800EBC6008C3851F8045B40F8045FE0
:103C40009142F9D1084697B1102E324644A938BFA7
:103C5000102201EBC202A2F5C4727900043A00EB13
:103C6000810150F8045B42F8045F8842F9D1012BCE
:103C700048D00F2EA16333D917B102A800F094F8F1
:103C8000002065E70F2E3FF662AF00272268D107BC
:103C900017D4002F60D02268510745D4012B4DD096
:103CA0000F2E06D822A8019300F07AF8019B002F6E
:103CB000B6D002A8019300F07BF8019BC6F1100278
:103CC000B0E722F00101052B2160019320463BD093
:103CD00022F0030240F8482B00F05AF8019BD8E785
:103CE00022A800F059F8C7E7102FCED9103FCDE732
:103CF00023F01003236004F5E870019200F0AAF8A5
:103D0000019A2FE70431A16322A800F03DF8B7E73C
:103D1000002F99D10146AAE723F00803236004F598
:103D2000A87000F06BF842E7204622F0040240F849
:103D3000D02B019300F03CF8019BAFE722A8019340
:103D400000F026F8019BB9E741F0020140F8481B5A
:103D500000F026F8019B9CE7012B03D00F2E3FF6C5
:103D60005FAF9FE722A8019300F012F8019B57E78D
:103D700000F1340191E838009C46A6464CF8045DF9
:103D800090E8FF0FE54600BD90EC210B704700BFA7
:103D900080EC210B704700BF90EC200B704700BFF8
:103DA00080EC200B704700BFD0EC200B704700BFA9
:103DB000C0EC200B704700BFF0EC0201F0EC0211E8
:103DC000F0EC0221F0EC0231F0EC0241F0EC025197
:103DD000F0EC0261F0EC0271F0EC0281F0EC029187
:103DE000F0EC02A1F0EC02B1F0EC02C1F0EC02D177
:103DF000F0EC02E1F0EC02F1704700BFE0EC0201F0
:103E0000E0EC0211E0EC0221E0EC0231E0EC0241D6
:103E1000E0EC0251E0EC0261E0EC0271E0EC0281C6
:103E2000E0EC0291E0EC02A1E0EC02B1E0EC02C1B6
:103E3000E0EC02D1E0EC02E1E0EC02F1704700BFFF
:103E4000B0FC0181B0FC0191B0FC01A1B0FC01B15A
:103E5000704700BFA0FC0181A0FC0191A0FC01A162
:103E6000A0FC01B1704700BFEC4600B52DE9005041
:103E70002DE9FF1F4FF000032DE90C0001A9FFF70A
:103E8000F3FBDDF840E012B0704700BFEC4600B530
:103E90002DE900502DE9FF1F4FF000032DE90C0024
:103EA00001A9FFF71BFCDDF840E012B0704700BF2E
:103EB000EC4600B52DE900502DE9FF1F4FF000033F
:103EC0002DE90C0001A9FFF72BFCDDF840E012B052
:103ED000704700BFEC4600B52DE900502DE9FF1FEB
:103EE0004FF000032DE90C0001ABFFF7EDFBDDF80F
:103EF00040E012B0704700BFEC4600B52DE900501D
:103F00002DE9FF1F4FF000032DE90C0001AAFFF778
:103F100065FCDDF840E012B0704700BF027A1AB9C4
:103F2000437A43B9B02070470368013A02721A021B
:103F30000260180E70474268013B10B44372136868
:103F40000321141D01721A02446002605DF8044BE3
:103F5000180E704700B585B003AA002300921946D9
:103F60000C22FFF7EDFB039805B05DF804FB00BFE2
:103F7000F0E700BF2DE9F043064685B00F464FF04D
:103F800000083846FFF7CAFFB028044623D00506CC
:103F900027D400230DF10C09194685000D22CDF818
:103FA00000903046FFF7CCFBEDB2039BCDF80090BC
:103FB000600605F104054CBF5D1BED180023194692
:103FC0000D2230460395FFF7E1FB3846FFF7A6FFC9
:103FD000B0280446DBD1B8F1000F00F09580002036
:103FE0001CE000F0F003802B5DD0902B19D0A02BAB
:103FF0002CD0B02B3FD0C02B6CD000F0F803D02BCE
:104000000BD100F00702013242F400220523012106
:104010003046FFF789FD0028B3D0092005B0BDE880
:10402000F08300F00D030D2BF7D003AD002300F05B
:104030000F02194600953046FFF782FB00230095DA
:1040400019460D223046FFF7A1FB9AE7C24302F062
:1040500007034FF47F621A41010702F47F624FF0B9
:10406000000348BF42F4804219463046FFF75CFD2A
:104070000028D2D185E7B12857D0B22868D0B3281C
:1040800000F0958000F0FC03B42BC6D000F00702CE
:104090000132012342F4002219463046FFF744FD65
:1040A0000028BAD16DE73846FFF738FF24020443F1
:1040B000B4F5004FB1D024010023A2B21946304616
:1040C000FFF732FD0028A8D114F4004F18BF4FF0BD
:1040D000010856E7C6287DD0C72800F0868000F08A
:1040E000F803C02B00F09480C82800F09F80C928F6
:1040F00093D13846FFF712FF020300F00F0002F4DD
:1041000070220130024381E703AC43460E22414650
:1041100000943046FFF714FB0094304643460F22CC
:104120004146FFF733FB404678E73846FFF7F6FE97
:1041300000283FF472AF10F0F0037FF46EAF024638
:1041400019463046FFF7F0FC00287FF466AF18E709
:1041500000230DF10C090D221946CDF800903046D0
:10416000FFF7EEFA3846FFF7D9FE02064FF00204D9
:104170000CD5039B00F07F00A04003443846039316
:10418000FFF7CCFE030604F10704F2D4039BCDF83D
:10419000009000F07F02A24003F501740023144454
:1041A00019460D2230460394FFF7F0FAE9E6384647
:1041B000FFF7B4FE010300F00F0001F47021421C70
:1041C00001230A4330461946FFF7AEFC00287FF46E
:1041D00024AFD6E63846FFF7A1FE010300F00F003A
:1041E00001F47021421C0323EBE73846FFF796FEEB
:1041F00000283FF412AF10F0F0037FF40EAF024638
:1042000004213046FFF790FC00287FF406AFB8E6A3
:1042100000F00F020132032342F4202219463046F7
:10422000FFF782FC00287FF4F8AEAAE63846FFF7D5
:1042300075FE00F0F00200F00F031032013343EA84
:104240000232E3E610B5C36C84B05A6803208DF8DF
:104250000C00DC798DF80D4012020833084601A9E4
:1042600001920293FFF786FE04B010BD08B5FFF778
:104270007FFE806C08BD00BF08B5FFF779FEC06CFB
:10428000C37900EB8300083008BD00BF08B500F01B
:1042900005F800BF08B5FFF7F9FF00BF08B5062015
:1042A00000F036F80120FBF75BF810B5431E0A4416
:1042B000914200D110BD11F8014B03F8014FF7E70F
:1042C0001F2938B504460D4604D9162303604FF064
:1042D000FF3038BD426C12B152F821304BB9204644
:1042E00000F030F82A4601462046BDE8384000F08C
:1042F00017B8012B0AD0591C03D1162303600120E3
:1043000038BD002442F8254028469847002038BD93
:10431000024B01461868FFF7D3BF00BF902700206B
:1043200038B5074C0023054608461146236000F0C7
:1043300081FC431C02D1236803B12B6038BD00BF50
:104340006460002000F06EBC034613F8012B002AC5
:10435000FBD1181A0138704710B59AB04FF40274A7
:10436000009104916FF00041029105914FF6FF71A9
:10437000ADF80E106946ADF80C4000F0C9F8009B8E
:1043800000221A701AB010BD13460A4601460248B0
:104390000068FFF7E1BF00BF9027002070B5CD1C7B
:1043A00025F0030508350C2D38BF0C25002D0646D9
:1043B00001DBA94203D90C233360002070BD00F05B
:1043C000B1FB234A1468214691B9224C23681BB9DA
:1043D000304600F027FB20602946304600F022FBE3
:1043E000431C26D10C233360304600F09CFBE4E7ED
:1043F0000B685B1B1AD40B2B0FD90B60CD50CC185C
:10440000304600F090FB04F10B00231D20F0070064
:10441000C31A1BD05A42E25070BD8C420DBF636874
:104420004B686360136018BF0C46E9E70C464968A7
:10443000CAE7C41C24F00304A04205D0211A304668
:1044400000F0F0FA0130CDD02560D9E770BD00BF93
:104450004C600020506000202DE9F0478E689E429D
:1044600082460C469146984635D88A8912F4906F58
:1044700031D0256809696F1A6569022305EB450586
:1044800095FBF3F508F101033B449D4238BF1D46FF
:10449000530531D52946FFF781FF064650B90C2355
:1044A000CAF80030A38943F04003A3814FF0FF30E6
:1044B000BDE8F0873A462169FFF7F7FEA38923F4A8
:1044C000906343F08003A381266165613E44ED1B48
:1044D0002660A5604646464528BF464632464946C0
:1044E000206800F005FBA3689B1BA36023681E44A3
:1044F00026600020BDE8F0872A4600F063FB0646F0
:104500000028E1D12169504600F00EFBC7E700000A
:104510002DE9F04F9DB0804603938B891C060D4614
:1045200016460FD50B696BB94021FFF737FF28609E
:10453000286128B90C23C8F800304FF0FF30C5E0DF
:1045400040236B610023099320238DF82930302309
:104550008DF82A304FF0010B37463C4614F8013BEA
:10456000002B3CD1B7EB060A0BD053463246294606
:104570004046FFF771FF013000F0A380099B5344D0
:1045800009933B78002B00F09C8000234FF0FF3212
:1045900004930793059206938DF853301A930522DE
:1045A0002178504800F054FA671C049BD8B9D9060A
:1045B00044BF20228DF853201A0744BF2B228DF8C8
:1045C000532022782A2A16D0079A00210A2027464B
:1045D00001343B78303B092B51D9C9B111E0252B6F
:1045E000C0D02746B9E73F4A801A0BFA00F01843BB
:1045F00004903C46D3E7039A111D12680391002AE8
:1046000001DB079204E0524243F002030792049355
:104610003B782E2B0ED17B782A2B07F1010132D16A
:10462000039B1A1D1B680392002BB8BF4FF0FF338A
:10463000023705932C4C39780322204600F008FA03
:1046400038B14023001B03FA00F0049B034304939A
:104650000137397825488DF8281006227E1C00F095
:10466000F7F9002835D0224BFBB9039B073323F021
:10467000070308330393099B4B4409936CE700FB42
:1046800002320121A3E70023059318460A240F46AE
:1046900001313A78303A092A03D9002BCAD0059063
:1046A000C8E704FB00200123F1E703AB00932A468F
:1046B000104B04A94046AFF30080B0F1FF3F8146A4
:1046C000D9D1AB895B063FF538AF09981DB0BDE87D
:1046D000F08F03AB00932A46064B04A9404600F036
:1046E00081F8EAE72A4E0200304E0200344E020002
:1046F00000000000594402002DE9F04791461F4692
:104700008A680B69DDF820809342B8BF1346C9F868
:10471000003091F8432006460C4612B10133C9F827
:1047200000302368990642BFD9F800300233C9F837
:104730000030256815F0060507D104F1190AE36871
:10474000D9F800209B1A9D4229DB94F84330226857
:10475000003318BF012392062ED404F143023946D8
:104760003046C047013021D02368E568D9F80020E1
:1047700003F00603042B08BFAD1AA36822690CBF1F
:1047800025EAE57500259342C4BF9B1AED184FF04A
:1047900000091A344D451BD10020BDE8F0870123E4
:1047A000524639463046C047013003D14FF0FF3002
:1047B000BDE8F0870135C2E7E1185A1C302081F8C6
:1047C0004300224494F8451082F843100233C4E7B2
:1047D0000123224639463046C0470130E6D009F170
:1047E0000109D7E72DE9F04317460A7E85B06E2A06
:1047F000984606460C460C9B01F1430E00F0BC8027
:104800001AD8632A2ED00AD8002A00F0C880582A65
:1048100000F08A8004F1420584F842202AE0642AEC
:1048200001D0692AF6D121681A6811F0800F23D0CF
:10483000111D1960136827E0732A00F0B48008D8AE
:104840006F2A2AD0702AE5D10A6842F020020A6055
:1048500003E0752A21D0782ADCD1782284F845201B
:104860006E4964E01A6801F14205111D1960136870
:1048700084F842300123A3E011F0400F02F104015B
:104880001960D7D0B2F90030002B03DA2D225B4239
:1048900084F8432062490A2217E02068196810F062
:1048A000800F03D0081D18600B6806E010F0400F61
:1048B00001F104001860F7D00B8859496F2A14BF22
:1048C0000A220822002084F843006568A560002DB4
:1048D000C0F29C80206820F004002060002B3FD1B3
:1048E000002D40F095807546082A0BD12368DA0721
:1048F00008D5236962689A42DEBF302305F8013C7F
:1049000005F1FF35AEEB05032361CDF800803B4692
:1049100003AA21463046FFF7EFFE013055D14FF094
:10492000FF3005B0BDE8F08381F845203C4922689E
:10493000186812F0800F00F104051D6001D00368B3
:1049400002E05506FBD50388D00744BF42F02002A1
:1049500022601BB9226822F0200222601022B1E7F7
:104960007546B3FBF2F002FB1033CB5C05F8013D5A
:1049700003460028F5D1B7E708681A68496910F0BE
:10498000800F04D0101D18601368196007E010F044
:10499000400F02F1040018601368F6D0198000235C
:1049A00023617546B1E71A68111D196015686268C0
:1049B0000021284600F04CF808B1401B6060636895
:1049C0002361002384F843309FE723692A46394650
:1049D0003046C0470130A2D023689B0707D5002589
:1049E00004F11909E368039A9B1A9D4205DBE0680C
:1049F000039B9842B8BF184693E701234A463946BD
:104A00003046C04701308AD00135EBE7002BA7D1F3
:104A10000B7884F8423004F1420565E74C4E020001
:104A20003B4E020038B5064C00230546084623607D
:104A300000F008F9431C02D1236803B12B6038BD94
:104A40006460002000000000000000000000000082
:104A500001F0FF01102A2BDB10F0070F08D010F82F
:104A6000013B013A8B422DD010F0070F42B3F6D133
:104A7000F0B441EA012141EA014122F007047FF04C
:104A800000070023F0E80256083C85EA010586EAA3
:104A9000010685FA47F5A3FA87F586FA47F6A5FADF
:104AA00087F68EB9EED1F0BC01F0FF0102F00702EB
:104AB00032B110F8013B013A83EA010313B1F8D196
:104AC0000020704701387047002D06BF3546033877
