:020000022000DC
:1030000000000120ED7F0200158002001780020001
:10301000198002001B8002001D80020000000000D9
:103020000000000000000000000000001F800200FF
:1030300021800200000000002380020025800200A1
:103040006D5F020027800200C9680200D16E020095
:10305000916F020027800200A16302002780020016
:1030600027800200278002002780020027800200BC
:1030700027800200278002002780020027800200AC
:1030800027800200313302002780020027800200DF
:10309000D133020027800200A185020027800200B0
:1030A000278002002780020027800200278002007C
:1030B00027800200278002000000000000000000BE
:1030C000278002002780020027800200278002005C
:1030D00027800200278002002780020000000000F5
:1030E00000000000000000000000000000000000E0
:1030F00000000000000000000000000000000000D0
:1031000000000000000000000000000000000000BF
:1031100000000000000000000000000000000000AF
:10312000000000000000000000000000000000009F
:10313000000000000000000000000000000000008F
:10314000000000000000000000000000000000007F
:10315000000000000000000000000000000000006F
:10316000000000000000000000000000000000005F
:10317000000000000000000000000000000000004F
:10318000000000000000000000000000000000003F
:10319000000000000000000000000000000000002F
:1031A000000000000000000000000000000000001F
:1031B000000000000000000000000000000000000F
:1031C00000000000000000000000000000000000FF
:1031D00000000000000000000000000000000000EF
:1031E00000000000000000000000000000000000DF
:1031F00000000000000000000000000000000000CF
:1032000010B5054C237833B9044B13B10448AFF320
:1032100000800123237010BDBC21002000000000AD
:103220008CD002000C4B43B10C480D4910B5AFF3E4
:1032300000800C48036823B910BD0A48036833B9FD
:103240007047094B002BF7D0BDE810401847064BDC
:10325000002BF5D0184700BF000000008CD0020002
:10326000C0210020A421002000000000154B002BED
:1032700008BF134B9D46A3F5803A00218B460F46AD
:103280001348144A121A07F096FE0F4B002B00D079
:1032900098470E4B002B00D09847002000210400D7
:1032A0000D000D48002802D00C48AFF3008007F055
:1032B00043FE2000290007F0FDFD07F029FE00BFB6
:1032C00000000800000001200000000000000000D5
:1032D000BC2100204471002000000000000000001C
:1032E00000B585B000230390194601AA44F20100FD
:1032F000ADF80430029300F003F805B05DF804FB6C
:10330000084B1B68DB0700D5FFDEBFF34F8F064974
:10331000064BCA6802F4E0621343CB60BFF34F8FE1
:1033200000BFFDE7F0ED00E000ED00E00400FA056D
:10333000F8B5204A204B0025C2F84051C2F844514C
:10334000C2F84851C2F84C51C2F80051C2F80451B9
:103350001B6813B31949D2F804450A68A41A1A68FD
:1033600024F07F44A2422F4609D8197CDE69A41AB2
:10337000154499B91EB133461A68A242F5D91049CD
:10338000104A0B7812789A420DD00F490F4A41F833
:1033900023504FF48013C2F80031F8BD1F745A69EE
:1033A00098699047E6E7531CDBB2022B08BF002365
:1033B0000B70EAE700100140F8220020F422002000
:1033C000F1220020F0220020E822002000E100E0AD
:1033D0002DE9F04F7D4A7E491378097899428BB0E8
:1033E0003BD00133DBB27B490491022B0D687A4953
:1033F000069108BF00231370784A084652F823103C
:10340000D0F80090049A6B18002423F07F434E46B6
:10341000AC461360204627462546AEB133688B4242
:1034200000F2ED81F4683760C91A1844F3693CB1C1
:103430000CEB000E2EF07F42F561B46072603546F1
:103440001E460124002EE9D12A46B146002C40F048
:10345000DB8201230793069B07E05F4B5D4A0492E2
:10346000D3F80090069300220792D3F800A05C4B9B
:10347000DFF874C11B780593049B18680023494644
:10348000CE460893D146099303934FF0010B17469C
:103490009A46804637B37C68BD683B46FF69514811
:1034A000A4EB080222F07F42824258D815441D60E6
:1034B000002283F810B05A609A60DA6100296ED059
:1034C0000868854263D90C4603E01068A8424FD2D1
:1034D0001446E2692D1A002AF7D11D60DA61E36112
:1034E000002FD8D10297CDF804E09CF801709CF829
:1034F00000200025974200F08680104600EB400037
:103500000CEBC000541C9CF80230E2B204798CF839
:103510000020934204BF8CF800500022022C8368E4
:103520004ED0032C40D0012CE4D11E7C002EE1D1E2
:10353000C4685C6005699D604269DA6082699A616D
:10354000059A029FDDF804E0002AA8D03446A4EBD7
:10355000080224485E6022F07F428242A6D9A8EB8E
:10356000040424F07F44AC4208D22D1B1D609FE769
:10357000401B10601D60DA61E361B1E7002583F84C
:1035800010B01D605D609D60DD6141B10868451B44
:103590000D609946D9614FF0010A19467AE79946BC
:1035A00019464FF0010A75E70029A3D00022CB6924
:1035B0000A741946002BFAD199464FF0010A94E794
:1035C000D9B19942084615D110E100BFF022002080
:1035D000F1220020F4220020F8220020E82200201E
:1035E000E4220020FEFF7F00D8210020A34200F04B
:1035F000E8802046C469002CF8D10E4697421D741D
:1036000031467FF47AAF4046D046CA46DDF8049092
:10361000B8F1000F40F0F481099B002B40F0ED81E0
:10362000089B1BB17B4B9DF814201A70039B13B9A8
:10363000494500F04C81002900F04E81764C049BF6
:10364000D4F804051B68754D0F682978C21A22F05A
:103650007F420332002951D17149DFF8C8C1DFF838
:10366000C8E14FF48036C4F84463C4F804634FF4EF
:103670000036C1F880610E60012626602F21DCF83B
:10368000004000BF00BF00BF00BF00BF00BF00BFC1
:1036900000BF74452FD000BF00BF00BF00BF00BFF8
:1036A00000BF00BF00BF00BF00BF00BF00BF00BF22
:1036B00000BF00BF00BF00BF00BF00BF00BF00BF12
:1036C00000BF00BF00BF00BF00BF00BF00BF00BF02
:1036D00000BF00BF00BF00BF00BF00BF00BF00BFF2
:1036E00000BF00BF00BF00BF00BF00BF00BF00BFE2
:1036F00000BF00BF00BF0139C3D12E7097422CBF5D
:10370000DB199B18444923F07F43C1F84035D1F8B9
:103710000425121A1B1A22F07F4223F07F43033242
:103720009A4248D9D1F804353E4AC1F8403512686A
:103730003D492F2300BF00BF00BF00BF00BF00BF37
:1037400000BF00BF8A422FD000BF00BF00BF00BF34
:1037500000BF00BF00BF00BF00BF00BF00BF00BF71
:1037600000BF00BF00BF00BF00BF00BF00BF00BF61
:1037700000BF00BF00BF00BF00BF00BF00BF00BF51
:1037800000BF00BF00BF00BF00BF00BF00BF00BF41
:1037900000BF00BF00BF00BF00BF00BF00BF00BF31
:1037A00000BF00BF00BF00BF013BC3D11C4B4FF4A3
:1037B0000032C3F80021174A002313700BB0BDE894
:1037C000F08F834212D00E46DC69D3F800E0C4616A
:1037D00034B12268724422609CF800209CF8017089
:1037E0000398B14218BF0120039007E7D1F81C905D
:1037F000B9F1000F1AD04E464FF0010AE4E72A460D
:10380000B146002C60D15B1AC9F800300123079340
:10381000069B2AE6E422002000100140E522002059
:1038200000E100E0002100200024F400784E794CF3
:10383000C6F808B0784E4FF02F0E366800BF00BFB4
:1038400000BF00BF00BF00BF00BF00BFA6422FD017
:1038500000BF00BF00BF00BF00BF00BF00BF00BF70
:1038600000BF00BF00BF00BF00BF00BF00BF00BF60
:1038700000BF00BF00BF00BF00BF00BF00BF00BF50
:1038800000BF00BF00BF00BF00BF00BF00BF00BF40
:1038900000BF00BF00BF00BF00BF00BF00BF00BF30
:1038A00000BF00BF00BF00BF00BF00BF00BF00BF20
:1038B000BEF1010EC2D1012634460896C8464E46D6
:1038C00005940994A2467FE7069806609BE7079B4C
:1038D000002B3FF470AFAEE64D4A504B4E4E4D4C70
:1038E0004FF480304FF400370125C3F88070C2F8E0
:1038F00048032F23C2F80803556030681E4600BFF6
:1039000000BF00BF00BF00BF00BF00BF00BFA0429C
:103910002FD000BF00BF00BF00BF00BF00BF00BF6F
:1039200000BF00BF00BF00BF00BF00BF00BF00BF9F
:1039300000BF00BF00BF00BF00BF00BF00BF00BF8F
:1039400000BF00BF00BF00BF00BF00BF00BF00BF7F
:1039500000BF00BF00BF00BF00BF00BF00BF00BF6F
:1039600000BF00BF00BF00BF00BF00BF00BF00BF5F
:1039700000BF013EC3D19560049A116000BF00BF33
:1039800000BF00BF00BF00BF00BF00BFA0422FD0DC
:1039900000BF00BF00BF00BF00BF00BF00BF00BF2F
:1039A00000BF00BF00BF00BF00BF00BF00BF00BF1F
:1039B00000BF00BF00BF00BF00BF00BF00BF00BF0F
:1039C00000BF00BF00BF00BF00BF00BF00BF00BFFF
:1039D00000BF00BF00BF00BF00BF00BF00BF00BFEF
:1039E00000BF00BF00BF00BF00BF00BF00BF00BFDF
:1039F000013BC3D10A4B1970DDE6049B18600FE64A
:103A0000069BC3F800A007E6069B1E6021E500BFE9
:103A1000001001400024F4000021002000E100E03B
:103A2000E5220020F0B4564B564A574E574C4FF4FF
:103A300080304FF400310125C2F88010C3F84803EC
:103A40002F21C3F808035D6030680E4600BF00BF39
:103A500000BF00BF00BF00BF00BF00BFA0422FD00B
:103A600000BF00BF00BF00BF00BF00BF00BF00BF5E
:103A700000BF00BF00BF00BF00BF00BF00BF00BF4E
:103A800000BF00BF00BF00BF00BF00BF00BF00BF3E
:103A900000BF00BF00BF00BF00BF00BF00BF00BF2E
:103AA00000BF00BF00BF00BF00BF00BF00BF00BF1E
:103AB00000BF00BF00BF00BF00BF00BF00BF00BF0E
:103AC000013EC3D19D6000BF00BF00BF00BF00BF6B
:103AD00000BF00BF00BFA0422FD000BF00BF00BF8B
:103AE00000BF00BF00BF00BF00BF00BF00BF00BFDE
:103AF00000BF00BF00BF00BF00BF00BF00BF00BFCE
:103B000000BF00BF00BF00BF00BF00BF00BF00BFBD
:103B100000BF00BF00BF00BF00BF00BF00BF00BFAD
:103B200000BF00BF00BF00BF00BF00BF00BF00BF9D
:103B300000BF00BF00BF00BF00BF0139C3D1144E9A
:103B4000144D154C1549164F002030702860207018
:103B50004FF48015E0240B26087048708E70387082
:103B60001049C2F8805182F814431560C3F8080563
:103B700082F81143D3F804350B60F0BC704700BFE6
:103B80000010014000E100E0002100200024F400CA
:103B9000E5220020F8220020F0220020D821002079
:103BA000F1220020F4220020074B9B780BB908205B
:103BB00070473AB130B10368187C0028F7D15974C6
:103BC0005A61704707207047D82100202DE9F04343
:103BD000264CA37883B01BB9082003B0BDE8F0835E
:103BE0000028F9D0042903D8072003B0BDE8F083EA
:103BF0004369002BF0D0064602A8737C0025012BF8
:103C000000F8015D0CBF8946A94690460F4600F0BA
:103C10006FF86378A07821785A1CD2B2904208BF1E
:103C20002A4691421BD003EB430304EBC30301205C
:103C30000F4918719E60D1F804159DF80700D960EE
:103C40001F61C3F81490C3F81880627000F076F812
:103C5000084B4FF480122846C3F80021BDE79DF8B9
:103C6000070000F06BF80420B7E700BFD821002060
:103C70000010014000E100E070B51B4CA37882B059
:103C800013B9082002B070BD0028FAD04369002B98
:103C9000F7D0064602A8002500F8015D357400F053
:103CA00027F86278A0782178531CDBB2984208BFCD
:103CB0002B46994212D002EB420204EBC2020221CF
:103CC0009DF8070096601171637000F037F8074B9C
:103CD0004FF480122846C3F80021D3E79DF807006F
:103CE00000F02CF80420CDE7D821002000E100E00E
:103CF00070B4EFF3108472B60D4B9A68AAB90D49EF
:103D00000D4E01259D60D1F8805035401D60C1F8F1
:103D10008060D1F884505D604FF0FF33C1F884308B
:103D2000027004B962B670BC704701230370F8E7F3
:103D30003471002000E100E0FC06FFBD094B9A68E9
:103D400072B168B910B4EFF3108272B606491C68FC
:103D50000C605C684C60986002B962B65DF8044B18
:103D6000704700BF3471002000E100E0BAB1138851
:103D700099B10246014412F8010B5BBA9BB2434071
:103D8000C3F30310434083EA03331BB2580100F42A
:103D9000FF5043408A429BB2EDD1184670474FF620
:103DA000FF73E5E7033080B240F2FD33984201D95A
:103DB0000920704730B4494B1C783CB95A891D8999
:103DC0002A44024492B2B2F5806F69D31A7D3AB99F
:103DD0009A8BDC8B2244024492B2B2F5806F6AD394
:103DE00093F828203AB91A8E5C8E2244024492B28B
:103DF000B2F5806F62D393F83C204AB9B3F84420FF
:103E0000B3F846402244024492B2B2F5806F5BD3CD
:103E100093F850204AB9B3F85820B3F85A402244D6
:103E2000024492B2B2F5806F4BD393F864204AB942
:103E3000B3F86C20B3F86E402244024492B2B2F55B
:103E4000806F47D393F878204AB9B3F88020B3F84D
:103E500082402244024492B2B2F5806F37D393F885
:103E60008C204AB9B3F89420B3F896402244024417
:103E700092B2B2F5806F12D393F8A02012B107204E
:103E800030BC7047B3F8A820B3F8AA4022440244DB
:103E900092B2B2F5806FF2D20824224601E00724E4
:103EA000224602EB820203EB82030C805A89104403
:103EB00058810020E4E701242246F2E7022422464A
:103EC000EFE704242246ECE703242246E9E7062430
:103ED0002246E6E705242246E3E700BF4023002010
:103EE000F0B5344C344D67886268BE00F31905EBB9
:103EF000830383B0596801F58050002A56D0538857
:103F0000033302EB8302904234D91368013331D07A
:103F10005388033302EB830398422BD34FF6FF7C85
:103F2000B2F804E0E64517D0B2F800E0BEF1000FA9
:103F300012D062605388214D2148AE88296803332E
:103F400000259BB200959B0001EB8601032525709F
:103F500001F0D2FA03B0F0BD98420BD91A680132D1
:103F60001A4607D0B3F802E00EF1030E03EB8E03FE
:103F70009842D5D2F31905EB8303DB686BB10F4D83
:103F80000F4829680227052600230122AF802670EA
:103F900003B0BDE8F04001F0E7BA0948042501226A
:103FA000257003B0BDE8F04001F0DEBA01F108026F
:103FB000A9E700BF202300204023002094240020F4
:103FC000A82100202DE9F041436888464BB15C4AA6
:103FD000D468A34205D31269934202D813F00305B3
:103FE0004CD04FF0000EDFF860C1A8F800E04FF6AB
:103FF000FF76DCF80470002207F580540837002AA9
:104000003AD05388033302EB83039C420DD80EF160
:10401000010E1FFA8EFEBEF1090FA8F800E00CF1A8
:10402000140CE6D10020BDE8F0811A680132EED010
:104030005A88033203EB82029442E8D39D88B5424A
:104040000DD01D885DB19D6801688D421A46D6D19C
:104050003C4A4360138903810120BDE8F08194420A
:10406000D5D9136801331346D1D05588033502EBF7
:104070008502A242CBD8E1E73B46C6E7314A048934
:1040800012899442ADD104689A689442A9D12E4A0B
:104090005068834203D900F58050834240D3906931
:1040A000834203D900F5805083423BD3D06A8342D8
:1040B00003D900F58050834236D3106C834203D974
:1040C00000F58050834231D3506D834203D900F50F
:1040D000805083422CD3906E834203D900F58050E8
:1040E000834227D3D06F834203D900F580508342A7
:1040F00022D3D2F89000834203D900F58050834246
:104100001CD3D2F8A42093428CD902F5805293425A
:1041100038BF082386D2A8F800300120BDE8F0811E
:104120002B46F8E70123F6E70223F4E70323F2E73F
:104130000423F0E70523EEE70623ECE70723EAE78D
:10414000A821002020230020402300202DE9F04F4B
:10415000DFF8108389B007464FF6FF79D8F80040A2
:10416000002C00F00D812278531E052B00F27C8478
:10417000DFE803F03845451A1A03002F40F0BE80EF
:10418000AE4CE37C002B00F0F0812378E774013B18
:10419000062B00F26984DFE813F0B102E4018D011F
:1041A000760167048A02CD01002F40F0A7802379B1
:1041B000012B00F0078203ADC0F0EE81022B40F02E
:1041C0002D8428461422002106F0F5FED8F80020A0
:1041D00004971378013B052B30D8DFE803F06051DA
:1041E0007064842C002F40F091802379032B00F21F
:1041F000BC80DFE813F03901EB00AE00CD00A58AEA
:10420000002F40F08E804FEA850A8D4EA07D0AEB8C
:10421000050306EB830319895F6807EB810706280E
:1042200000F22B84DFE810F05A01DB012F02ED01D0
:10423000FF0113022C0205238DF80C30814C04F190
:10424000100654F8043B284603B19847B442F8D10D
:1042500000237D497D48C8F8003001F081FD7C4B8A
:10426000012253E8000FA0EB020143E8001494F090
:10427000000FF6D100297FF471AF09B0BDE8F08FCF
:1042800001238DF80C301389ADF818309388ADF800
:104290001A30D368059300238DF81C30CEE7002335
:1042A0008DF80C30CAE703238DF80C30D388ADF8B5
:1042B00018301389ADF81A30D3680593BEE702238E
:1042C0008DF80C301389ADF818309388ADF81A309A
:1042D000D3680593937DA3F10603B3FA83F35B09D7
:1042E0008DF81C30AAE704238DF80C30D388ADF884
:1042F00018300023ADF81A3005939FE703AD284628
:104300001422002106F057FE01275FE70023514CDD
:1043100003AD1946284614226360012706F04BFEC0
:1043200054E7474EE38805EB850506EB8506C3F5A4
:104330007F4231897489FD3203330B44144403AD49
:1043400028461422338100217481012706F033FEB0
:104350003CE7414D41482968002323710122022492
:10436000AC8001F001F9002887D00023394C03AD5F
:1043700019462846142263600E2706F01CFE25E726
:104380003149324801F0BCFC0446C8F80000EAE6B6
:10439000314D334A29683148294E002727710823B7
:1043A000009701F0A9F8254B2C685B88A98803EBDE
:1043B000830306EB830206F8237053682B60022305
:1043C00054601181AB800028CFD156E71C4E337862
:1043D000022B00F04783337D022B00F03F8396F8D9
:1043E0002830022B00F0EB8296F83C30022B00F0D4
:1043F0002F8396F85030022B00F02C8396F864300F
:10440000022B00F0298396F87830022B00F02883E5
:1044100096F88C30022B00F0118396F8A030022B16
:1044200000F0CC820B4B03AD012200211A7028460C
:10443000142259600F4606F0BEFDC7E62023002077
:104440004023002008230020342300208024002063
:10445000902400201823002094240020A82100206C
:10446000C0CF02003C2300209A4B9B4A19689B480E
:104470000123002523710823009501F03DF8002851
:104480007FF473AFF9E66388954E03EB830306EB85
:104490008306F368002B00F0AA818E4B8F481968C1
:1044A00002229A80052500230122257001F05CF884
:1044B000074611E062688748538885880168874805
:1044C00001EB85010333002500959BB203259B007A
:1044D000257001F011F8074607BBCEE60223002243
:1044E000A375042300923946E2187C4801F004F8D1
:1044F00000283FF4C2AE0AEB050306EB83030E2748
:104500001989E288554406EB8506C2F57F43708918
:104510000332FD33114403443181738103AD2846D6
:104520001422002106F047FD41F61D539F4208BFAB
:1045300000274BE6674B684A19686848002307253F
:10454000009363602570082300F0D6FF0746C3E799
:10455000604A61689388498803330B440221938041
:104560002170FFF7BDFC0746B6E72378072B00F262
:104570009E8101A252F823F001480200AF480200D8
:10458000AF480200514502008B4802003545020049
:1045900035450200834802000223237103976F60B0
:1045A000AF60E368039328460DF10A01FFF70AFDA7
:1045B000002840F01D8239461422284606F0FBFCF4
:1045C0000A2703E6474B1B78002B40F085813946CC
:1045D0000822454806F0EFFC022703ADF1E5032A67
:1045E00014BF062305230022A375391D009204235E
:1045F00004F10802394800F07FFF00287FF47BAF08
:104600003BE6E388226935484FF0010E07F10C01C3
:10461000002784F816E09B00009700F06DFF00284B
:104620007FF469AF29E6314BA2691A60184600226F
:104630002F495A60FFF7C6FC00287FF44FAF03AD47
:1046400001461422284606F0B6FC0A27BEE5284B90
:10465000264A1F8851682148264A00234FF0060E3B
:1046600084F816E00093042300F046FF00287FF44E
:1046700042AF07EB870706EB870601233374FCE59F
:1046800041F61D573DE723691448002B0CBF012359
:1046900003230022A37507F108010092042304F10B
:1046A0000C0200F029FF00287FF425AFE5E56288C1
:1046B0000B4E9300134406EB830606250023716816
:1046C0000D4A009305482570082300F015FF0746A2
:1046D00002E700BF94240020C8CF0200A8210020D8
:1046E0004023002018230020A4240020FC220020C6
:1046F000A0240020BCCF0200C0CF0200A37A43B1A7
:10470000A94EF3680022A2721BB9327C002A40F045
:104710009A81E37A4BB1A44E336A0022E27223B944
:1047200096F82430002B40F0AC81237B4BB19E4E99
:10473000736B0022227323B996F83830002B40F0B7
:10474000A481637B4BB1984EB36C0022627323B992
:1047500096F84C30002B40F09681A37B4BB1924EE3
:10476000F36D0022A27323B996F86030002B40F05D
:104770009281E37B4BB18C4E336F0022E27323B9FD
:1047800096F87430002B40F08481237C53B1864E20
:10479000D6F884300022227423B996F88830002B92
:1047A00040F07581637C53B17F4ED6F8983000227B
:1047B000627423B996F89C30002B40F04381A37CAF
:1047C00053B1794ED6F8AC300022A27423B996F8D2
:1047D000B030002B40F0538103AD00212846142255
:1047E0002170618061600F4606F0E5FBEEE47168C0
:1047F0006E4804250122257000F0B6FE07466BE6E0
:10480000694EB4F808E0307D96F8281096F83C2000
:10481000337896F8507096F86450B0FA80F0B1FA98
:1048200081F140094909B2FA82F25209E07221731A
:1048300096F8780096F88C10627396F8A020B0FA7B
:1048400080F0B1FA81F140094909B3FA83F3B7FA6C
:1048500087F7B5FA85F5B2FA82F25B097F096D092F
:104860000EF1010E52092074617400200121A3721F
:10487000A773E573A274A4F808E06080E074217067
:104880003DE701232370A37A39E76288464E484DFD
:104890009300991806EB810128684F68B5F804E089
:1048A000486002202F60A1F808E0A88002E7013BE1
:1048B000062B00F2D98001A252F823F0FD46020037
:1048C00063450200B544020087440200694A0200C1
:1048D000AF46020035450200DFF8D8E0BEF80450CC
:1048E000082D0ED8304E05EB850006EB80000378CE
:1048F000A3B10135ADB2092DAEF8045000F114009A
:10490000F5D1082200212B4803AD06F054FB2846C0
:104910001422002106F04FFB002757E44168DEF81F
:10492000003001F5805201F1080C002B00F0888066
:104930005988033103EB8101914202D3CEF8007014
:10494000D7E70B680133F9D04B88033301EB8303BE
:104950009342F3D8B1F804A0CA4515D0B1F800B01D
:10496000BBF1000F10D0B4F806B0CEF80010D3455C
:104970000B46DAD1002300930F4A0C48042300F0C1
:10498000BBFD70B30E2728E69342D7D219680131D8
:104990001946D3D0B3F802A00AF1030A03EB8A0345
:1049A0009342CBD8D6E700BF40230020A8210020A7
:1049B00094240020A4240020BCCF0200082303EB91
:1049C000830006EB800300245968344A00940823CE
:1049D00006F82040324800F08FFD00287FF4C5AC77
:1049E0004BE405EB850506EB85060123337444E4AF
:1049F00004992C4A8B88E3800B88238128480097F0
:104A00000423BDF80A4000F077FD78B1394614223E
:104A1000284606F0D0FA0E27FFF7D8BB39462846BD
:104A2000142206F0C8FA0F27FFF7D0BB1E4B04EB89
:104A3000840403EB8404012323741EE40723BEE7EC
:104A4000614679E707236380FFF74AFA074643E5A3
:104A50000323B4E70423B2E70523B0E70123AEE75D
:104A60000623ACE70023AAE703AD28461422002161
:104A700006F0A1FA0F27FFF7A9BB0F2741E508238E
:104A8000E1E70123DFE70323DDE70223DBE706237A
:104A9000D9E70523D7E70423D5E700BFC0CF02003D
:104AA000A8210020BCCF0200402300204068FFF76F
:104AB0004DBB00BF0C4B1A68042A12D010B40B492E
:104AC0001C68012241F8240053E8001F01EB02009A
:104AD00043E8000494F0000FF6D100205DF8044B89
:104AE00070470C20704700BF9C2400200823002042
:104AF0002DE9F04FA34B1A788DB0002302F0FF018F
:104B000003910893079309930A930B937AB19E4CF0
:104B100004F1100554F8043B07A803B19847A542D7
:104B2000F8D10023019301980DB0BDE8F08F954BAB
:104B30000122043353E8001F41EA020043E8000465
:104B400094F0000FF6D102910029EAD14FF0102322
:104B50004FF080525B69116952698C4C581C08BF38
:104B600002FB01F323618A49A3F52043204600227A
:104B7000E36000F0B9FC01900028D4D11C238C2202
:104B800084498548DFF820A2844E01F041F8E368AB
:104B9000DFF818E2019F03F5204204920A22A3F1F4
:104BA000040805924FF6FF7923B1D8F804207C4918
:104BB0008A424ED003F6FC70424602E0904200F07A
:104BC000F78052F8041F0131F8D0059807EB8702EF
:104BD000441E0AEB820103200137A4B20AF8220026
:104BE0000594BFB24B6003F58050049A824208F5E9
:104BF00080580346D8D1059B012B40F2F2809DF8E6
:104C00000840022C00F0ED80062C00F00D81002CF5
:104C100000F0E78006A9604801F034F81C22054640
:104C2000002106F0C8F9002D00F014810123013C99
:104C30002B700A2C00F2DA80DFE814F0F000D800C4
:104C4000F000D800F300D800F300D800ED00D60043
:104C5000ED005A6853498A4247D001318A42A9D1AE
:104C6000039A5AB107EB87000AEB80020221013751
:104C700034680AF82010BFB25460118102243360F6
:104C8000B4809968013103F5805000F0A8800833A2
:104C90005A88033203EB8201884207D24FF48063C3
:104CA000B3800823029A1A4302929EE799884945E5
:104CB0000AD0198841B19968DEF80050A94203D999
:104CC000CEF800105A880332224494B2B480598836
:104CD000033103EB8103984203D8022C7FD00823D1
:104CE000E0E71A680132D3D1F7E7BC00E2190AEB1A
:104CF000820500210AF8221002226B602A8199683D
:104D0000013103F580500FD00833598801F1030CAD
:104D100003EB8C0C60450ED23C440AEB8404012268
:104D20004FF4806322742381029B013743F0020316
:104D3000BFB2029359E7B3F804C0CC451CD0B3F816
:104D400000C0BCF1000F17D0D3F808C0DEF800B0E7
:104D5000DC4503D9CEF800C059882A890A440332B9
:104D600092B22A815988033103EB81039842DBD93F
:104D700019680131C9D1D7E74FF001022A74598867
:104D80002A89EBE71823002008230020A82100200F
:104D9000DCCF0200F4230020802400209424002093
:104DA000DEC0ADDEFE011EF14023002038230020CE
:104DB0003268002A48D007EB87020AEB8200022102
:104DC000264D0AF822107C1C6F804360A7B2018137
:104DD000029A42F00102029203F5805005E7042393
:104DE00060E70B2301939EE602232B7106A91C4862
:104DF00000F076FF1B4B012253E8000F00EB02018D
:104E000043E8001494F0000FF6D100287FF489AE37
:104E1000FFF79CF987E603232B71E7E700232B714B
:104E2000E4E701232B71E1E70F49104C0122002335
:104E30000A7004F110054B6054F8043B07A803B155
:104E40009847A542F8D16CE60222B2800122336075
:104E50000392BDE70823019365E600BF20230020ED
:104E60008024002090240020182300200823002004
:104E700068B161B12DE9F04182B00C4601A9054647
:104E8000FFF7A0F828B90A2002B0BDE8F08105209C
:104E900070476E68002206213046B6F80680778893
:104EA000FEF764FF02AA791C22F8020D890006F1C0
:104EB0000800FEF75BFF804501D00D20E4E7BDF858
:104EC00004200B4B02EB820203EB82030C33012222
:104ED00053E8001F01EB020043E8000797F0000FC2
:104EE000F6D126606B680C3363600020AA72CBE7B2
:104EF0004023002050B110B582B00DF106010446E8
:104F0000FFF760F820B90A2002B010BD05207047F5
:104F1000BDF80630094A03EB830302EB8303DA682A
:104F200012B9062002B010BDA27A002AF9D0DA68C0
:104F30000021013ADA600846A172E5E7402300202B
:104F40002DE9F0414A4B82B01B780022ADF80220D7
:104F500023B90224204602B0BDE8F08159B10A8885
:104F60004FF6FF739A4201D04B8833B90424204690
:104F700002B0BDE8F0810524ECE74B689B0701D047
:104F80000324E7E7B1F808800D4606466946404627
:104F9000FEF708FF04460028DCD101A9354800F0DF
:104FA00071FE1C220746214606F005F8002F50D05E
:104FB00002233B70BDF80030BC75BB826B683B615F
:104FC00001222D4B53E8000F00EB020143E8001EC5
:104FD0009EF0000FF6D1F9602B883B816B88BB8077
:104FE000A7F8068022460621381DFEF7BFFE0DF108
:104FF0000808042128F8060D07F10C004246FEF7C8
:10500000B5FEA968ADF80200890042466868FEF75F
:10501000ADFE01A9034678811648ADF8023000F0D4
:105020005FFE36B17460FA68144B32601B89B4724B
:105030003381134B012253E8000F00EB020143E8D8
:10504000001595F0000FF6D1002883D1FFF77EF808
:1050500080E7BDF800300B4A03EB830302EB8302C9
:1050600008245389033BA3EB0808A2F80A8071E7E0
:105070001823002080240020382300202023002033
:1050800090240020402300202DE9F04782B050B149
:10509000504B1B780022ADF802204BB90224204669
:1050A00002B0BDE8F0870524204602B0BDE8F087D5
:1050B0000029F8D00A884FF6FF739A4201D04B8836
:1050C00023B90424204602B0BDE8F0874B689B0753
:1050D00001D00324E8E7B1F8089005460E4648469B
:1050E0006946FEF75FFE04460028DDD101A93A4873
:1050F00000F0C8FD1C220746214605F05CFF002F8A
:1051000059D003233B70BDF80030BC75BB82736877
:105110003B614FF00108314B53E8001F01EB0802DF
:1051200043E8002090F0000FF6D1FA6033883B810D
:105130007388BB804FF0040AA7F8069087F816A082
:105140002B68BB61224607EB0A000621FEF70EFE24
:105150000DF10809514629F8060D07F10C004A46E1
:10516000FEF704FEB168ADF802004A468900706897
:10517000FEF7FCFD0DEB0A01034678811648ADF8F9
:10518000023000F0ADFD6C60FA68154B2A601B8997
:105190002B81AC72134B53E8002F02EB080143E85C
:1051A000001090F0000FF6D1002A7FF47DAF20466A
:1051B000FEF7CCFF78E7BDF800300B4A03EB830322
:1051C00002EB830208245389033BA3EB0909A2F8ED
:1051D0000A9069E71823002080240020382300204B
:1051E000202300209024002040230020194B1B780E
:1051F0000BB90220704710B582B001A9164800F023
:1052000041FD1C220446002105F0D5FEBCB1062359
:10521000237001A9104800F063FD104B1A7882B981
:105220000F4B012253E8004F04EB020143E800104A
:1052300090F0000FF6D13CB1002002B010BD082064
:10524000FBE70122DA74EBE72046FEF77FFF2046FA
:10525000F3E700BF18230020802400202023002033
:10526000902400202DE9F043354C247814B9022015
:10527000BDE8F08362B35BB3B3F804C0BCF1080FC0
:1052800023D8304F0CEB8C0407EB84074FF6FF7EDE
:105290004FF000083C786CB91C687D6805F58056B5
:1052A000002C4AD06588033504EB8504A64212D849
:1052B000C3F800800CF1010C1FFA8CFCBCF1090F43
:1052C000A3F804C007F11407E4D10A20BDE8F08375
:1052D0000520BDE8F08325680135E9D065880335F0
:1052E00004EB8505AE42E3D3B4F80490F14515D044
:1052F000B4F80090B9F1000F10D01C60A588854269
:10530000CBD125888D42C8D1A168116019680E4B98
:1053100051601B8913810020BDE8F083B542C7D2DC
:105320002C6801342C46C3D0B5F8029009F103096A
:1053300005EB8905AE42BBD3D6E705F10804B5E716
:10534000182300204023002020230020634B1B78DB
:105350000BB9022070472DE9F04F044685B00028B4
:1053600000F0978012220021DFF87481DFF8749139
:1053700005F021FE218960886689ADF800100A23B6
:105380004246238000254FF0010C4FF6FF7E20E0BF
:105390001A68013271D0B3F802A00AF1030A03EBD4
:1053A0008A0A574552D2039AADF80010B4F80EB0ED
:1053B000B4F806A084F810C0FB1A0BEBA3030AF1A3
:1053C000010AE381A4F806A00135092D02F11402B7
:1053D0005BD013895789D2F804A03B449BB2BAF141
:1053E000000F03D0DAF800704F456CD02788013FDA
:1053F000278005EB850708EB87071E44D7F80CA02C
:105400000099A78950446080B2F80AA06681C3F56C
:1054100080639BB251449F4238BFA3812181D2F85F
:1054200004A0ADF80010DAF8081001310AF1080301
:105430000AF58057C8D0BAF80AA00AF1030A03EBAC
:105440008A0A5745B2D3BDF800100392B3F804A0FE
:10545000F24522D0B3F800A0BAF1000F1DD0B4F885
:1054600004A00AF1010AA4F804A0B3F802A00AF10A
:10547000030A03EB8A039F428AD8039AADF800100F
:105480000135092D02F11402A3D1002005B0BDE8B9
:10549000F08F052005B0BDE8F08FB4F806B0B4F881
:1054A0000EA00BF1010BA4F806B0B3F802B00AF19C
:1054B000030ADA44A4F80EA0B3F802A00AF1030A22
:1054C00003EB8A03D7E7DAF8047007F16E6707F594
:1054D000FF370237012F8CD988E700BF182300203F
:1054E00040230020DEC0ADDE20B119B101600B68A1
:1054F000114618470E2070472DE9F043DDF81C8057
:1055000050B14AB1D0F800E0BEF1000F07D01E46FE
:1055100043B90920BDE8F0830E20BDE8F0830820E0
:10552000BDE8F0834768D7F80490B3FBF9F709FBAF
:105530001737002FEDD142EA0104A40702D0102052
:10554000BDE8F083C468A142F9D301F1FF3C0469CE
:105550006644A642F3D8CDF81C80DEF80C40A44681
:10556000BDE8F043604700BF28B1F0B5066876B1EA
:105570001AB90920F0BD0E2070474768D7F800C05F
:105580000CF1FF370F428E4603D01020F0BD0820EB
:10559000F0BDC768B942F8D301F1FF3E04690CFBC6
:1055A00002E5A542F1D83469A446BDE8F040604761
:1055B00029DF704728DF7047084670470020704792
:1055C000024B187A003018BF012070474825002090
:1055D000034B187A0122B0FA80F05A7440097047E0
:1055E0004825002008B510461A4605F0D9FC0020D1
:1055F00008BD00BF08B514220021044805F0DBFCFB
:10560000034800F01DFB002008BD00BF4825002016
:105610003825002038B50C4C012354E8002F42EA0D
:10562000030144E8001595F0000FF6D152B9074B7D
:10563000436002F0AFFF1C2320748C22044905480C
:1056400000F0E6FA002038BD48250020D0CF020047
:10565000AC2400203825002030B5354C237A87B0A3
:10566000002B51D0334B1B68022222721A79002A78
:105670002ED0012A20D019688A68C2B10022059272
:105680000392019204929A680592032202921A7977
:10569000002A44D0012A07D1DA685B690493130316
:1056A000022203938DF804208B6801A898470023F9
:1056B0002372636007B030BDD8681A691044FFF7E1
:1056C00079FFC8B11128D6D10123237207B030BDAC
:1056D0009D695A69D9681869521BB2F5805F28BF65
:1056E0004FF480529208012A38BF012229442844ED
:1056F000FFF75EFF0028E5D1237C002BE6D10146B1
:10570000022000F01DF8E1E70B490C4800F0F8FA20
:10571000084B186003460028A6D16060D6E71A69D6
:105720005B69039201208DF804000493BCE700BF7D
:1057300048250020602500205C2500203825002019
:1057400010B5354C237A012B86B00AD0022B0CD130
:10575000022810D0032804D1E3680133082B1CD899
:10576000E360637C1BB102F0ADFE06B010BDFFF735
:1057700073FF06B010BD294B00221B68E2601A7946
:10578000002A3BD0012AECD11A69596901328A42B8
:105790001A61E6D10020207205E0204B00221B6830
:1057A000E26022720D2019688A6872B100220592A7
:1057B0000392019204929A68029005921A79AAB112
:1057C000012A0AD08B6801A898471549154800F0AE
:1057D000C7FA637C002BC6D1C9E7DA685B6904931A
:1057E0001303022203938DF80420EBE71A695B6927
:1057F000039201208DF804000493E3E79A69596944
:10580000881AB0F5805F94BF121802F58052914259
:105810009A61A6D1BEE700BF482500206025002080
:105820005C250020382500202DE9F04383B0814617
:105830000E461B4869461746984600F023FA50B3B7
:1058400004461C2200210125360B05F0B4FBE6605E
:10585000C4F80090C4F80880676169462571104853
:1058600000F03EFA0F4A131D53E8001F284643E894
:10587000000494F0000FF7D10191019838B9547CDD
:1058800034B9FFF7E9FE204603B0BDE8F0830020FD
:1058900003B0BDE8F083042003B0BDE8F08300BF8F
:1058A00038250020482500202DE9F04383B08146AB
:1058B00088461C48694617461E4600F0E3F960B367
:1058C00004461C2200210D4605F075FB0A9BA360CF
:1058D0006946C4F80090C4F81080E76066612571DD
:1058E000104800F0FDF9104901220B1D53E8000F8C
:1058F000144643E8004696F0000FF7D10190019856
:1059000038B94C7C34B9FFF7A7FE204603B0BDE898
:10591000F083284603B0BDE8F083042003B0BDE85F
:10592000F08300BF382500204825002000F0FD034B
:10593000012B00D0704730B5384CA0F10100B0FA0F
:1059400080F0237A4009002287B020746274002B13
:1059500048D0334B1B68022222721A79002A2ED0BB
:10596000012A18D019688A6882B100220592039230
:10597000019204929A680592032202921A79002AEF
:1059800044D0012A39D08B6801A89847002323729C
:10599000636007B030BDD8681A691044FFF70AFE8B
:1059A00028B11128DED10123237207B030BD237C3A
:1059B000002BFAD101460220FFF7C2FEF5E79D69F0
:1059C0005A69D9681869521BB2F5805F28BF4FF435
:1059D00080529208012A38BF012229442844FFF747
:1059E000E7FDDDE70F49104800F08AF90C4B18601D
:1059F00003460028AFD16060D7E7DA685B6904939B
:105A00001303022203938DF80420BCE71A695B6933
:105A1000039201208DF804000493B4E74825002088
:105A2000602500205C2500203825002010B40023CC
:105A3000012401E0202B0AD004FA03F2024299B2B9
:105A400003F10103F6D008465DF8044B70474FF6AA
:105A5000FF7108465DF8044B704700BF98B191B1E3
:105A600030B40238002402E00134202C0AD030F88F
:105A7000025F9542F8D1012233B10B6802FA04F4B7
:105A800023430B6030BC70470B6802FA04F423EA2E
:105A900004030B60F6E700BF70B49DF80C60C0B162
:105AA000B9B1B2B10238002402E00134202C10D088
:105AB00030F8025F9D42F8D1012303FA04F401EBB0
:105AC000820246B9E4430B68234041F8043B91420B
:105AD000F9D170BC70470B68234341F8043B9142F5
:105AE000F7D00B68234341F8043B9142F3D1F0E730
:105AF000F0B491B100252B46012606FA03F41442B6
:105B000005D000EB450431F81370A780013501334F
:105B1000202BF2D10560F0BC70470D460560F0BC4B
:105B2000704700BF08B107207047012A0CD0012937
:105B30000FD005D30229F6D1084B00205A707047C8
:105B4000064B00209A707047012901D00246EEE70B
:105B50000E22024B00201A70704700BF64250020FF
:105B600010B50388102B08D0112B05D1264B1868CF
:105B70000138186038B110BD10BD234C216881B1C7
:105B80000131216010BD01220221FFF7CBFF48B394
:105B9000072827D01D4B1B68002BECD0BDE8104018
:105BA000184701220846FFF7BDFF48B1072807D074
:105BB000164B1B6803B1984721680131216010BD65
:105BC000072202210120FFF7ADFF08B10728EFD11E
:105BD000042202210020FFF7A5FF0028ECD00728AF
:105BE000E6D1E9E7072202210120FFF79BFF08B178
:105BF0000728CFD1002108460A22FFF793FF00288B
:105C0000B9D00728C6D110BD6C250020682500201A
:105C100099B110B4B2FBF3F403FB1424A4B21CB189
:105C200009205DF8044B704780E81200846082818F
:105C3000C38120465DF8044B70470E20704700BFBB
:105C400082B050E8022FC188B2EB324F4FF0000310
:105C500017BF92B241EA014142EA014104E04268C1
:105C6000B2EB324F08BF012340E80212002AE8D10C
:105C70008DF807309DF80730002B0CBF1120002055
:105C800002B0704730B482B050E8013F9DB2C48981
:105C900025448489A54228BF2D1B0489A54202BF43
:105CA000BFF32F8F002207E0C5EA030540E8015447
:105CB000002CE9D14FF001028DF803200193019BE4
:105CC0009DF803200B602AB10B880068184402B0CD
:105CD00030BC704702F0FF03184602B030BC70477A
:105CE0000A884B889A4201D00020704750E8012F63
:105CF000C2EA024240E80123002BF7D1012070479D
:105D000030B482B050E8023F1FFAA3F5C488A54220
:105D100002BFBFF32F8F00220DE0C4892544848980
:105D2000A54228BF2D1BC3EA054540E80254002CBC
:105D3000E8D14FF001028DF803200193019B9DF8FB
:105D400003200B602AB14B880068184402B030BCB5
:105D5000704702F0FF03184602B030BC704700BF26
:105D60000A884B889A4201D00020704750E8022FE1
:105D7000C2EA224240E80223002BF7D101207047FB
:105D800001600B6843604A68934204BF002343608C
:105D9000704700BF436843B1026891680B44436099
:105DA0005268934204BF00234360704758B910B54E
:105DB000054CA36833B10CCB0020A2609847A368C0
:105DC000002BF8D110BD70477025002010B50128B8
:105DD00082B029D022D303281ED10721002000F051
:105DE00001F902A80023264C00F8013DFDF780FFD1
:105DF000E368013BE360E36853B9224B01221A6078
:105E00004FF08042D2F8183413F48033FAD1A370E3
:105E10009DF80700FDF792FF02B010BD1A4B01225A
:105E2000C3F8802002B010BD02A80023144C00F873
:105E3000013DFDF75DFF237853B1E3689DF807004E
:105E400001330122E360A270FDF778FF02B010BDBC
:105E50000D4A6360A3602361E360106810F00100E5
:105E60000AD002F097FB20B94FF080430122C3F81B
:105E7000182501232370E0E7072100F0B3F8F0E7CD
:105E8000702500200C00004000E100E010B50F4C30
:105E900023780BB1852010BD0D4A6360E360106864
:105EA000A36010F0010023610BD002F073FB20B956
:105EB0004FF080430122C3F81825012323700020EE
:105EC00010BD072100F08EF8EFE700BF702500201D
:105ED00000E100E030B5224DAB7883B0044693B1C9
:105EE00010B143680120984702A8002300F8043D40
:105EF000FDF7FEFEEB689DF804000133EB60FDF753
:105F00001DFF03B030BD02A803F0FF0200F8052D0D
:105F1000FDF7EEFE64B12A6942B1944208D01346FF
:105F200001E09C4204D01B68002BFAD122602C6156
:105F3000EB6863B90B4A0C491360136801934FF087
:105F4000804202200123019CC2F804030B60EB682D
:105F50009DF803000133EB60FDF7F0FE03B030BDA8
:105F600070250020040100400800004010B51A4BC5
:105F70001A6882B0A2B100221A601B6800934FF029
:105F800080430122154C0099C3F80823A36862706E
:105F900033B10CCB0020A2609847A368002BF8D146
:105FA0000F4B1A68AAB100221A601B6801934FF0C8
:105FB00080430222094C0199C3F808232369012276
:105FC000A27033B10CCB0120226198472369002BCA
:105FD000F8D102B010BD00BF0001004070250020C4
:105FE00004010040002810B418DB00F1604303F501
:105FF00061434901C9B283F80013C3B2400980006C
:1060000000F1604000F5614003F01F02012393405E
:10601000C0F8803103605DF8044B7047C3B2044A96
:1060200003F00F0449012244C9B21176E6E700BF2C
:10603000FCEC00E030B51D4C94F8545083B015B121
:10604000082003B030BD4FF0FF33FF2207210620A8
:1060500023636363A363E36323646364A364E3640C
:1060600023606360A360E36023616361A361E36114
:10607000236284F850306362A36284F85230E36292
:1060800084F8533084F85120FFF7ACFF084B094ADD
:106090001D601B68019301984FF0004301212846C1
:1060A00084F85410C2F8043303B030BD84250020B6
:1060B0007C61004000600040F0B55E4C251895F909
:1060C0003030002B01DB0820F0BD91F803E0BEF179
:1060D000000F50D02368013300F0A6800826012568
:1060E00054F8253001334CD06B1C54F82370013721
:1060F00048D0AB1CB3423CD254F82370013741D096
:10610000EB1CB34235D254F8237001373AD02B1D23
:10611000B3422ED254F82370013733D06B1DB342F3
:1061200027D254F8237001372CD0AB1DB34220D2B4
:1061300054F82370013725D0EB1DB34219D254F81F
:10614000237001371ED005F10803B34211D254F871
:106150002370013716D005F10903B34209D254F870
:10616000237001370ED00A35B54202D2E36A0133FB
:1061700058D00420F0BD236A01332DD00C26092508
:10618000AEE72B4626185DB244F8232086F830503F
:10619000BEF1000F26D08B78A3B94A784FF0A04605
:1061A00000F5E073920046F82320CB78F3B9083D60
:1061B0002C44097894F8502042EA811284F8502047
:1061C0001846F0BD830003F1A043D3F8002722F066
:1061D0000202C3F80027E8E7082685F83060334656
:1061E00022623546234483F84800D4E7AB0003F12C
:1061F000804303F5C0430978D3F8104524F44734AD
:1062000024F44074C3F8104502020904D3F81005C1
:1062100001F4403102F4F8520A430243C3F8102556
:106220000020F0BD0B23ADE7002385F8303022605D
:106230001D46B0E784250020F0B42E4D2E1882B004
:1062400096F93030072B1CDD2B4493F848309B091E
:10625000032B41D0012B14BF4FF440314FF40031D8
:10626000800000F1A040D0F8002722F44032C0F8AE
:106270000027D0F800370B43C0F8003702B0F0BC5D
:106280007047DAB2072AF9D8980000F1804000F58B
:10629000C04003F140029200D0F8104592B202F1E2
:1062A0008042002744F0010402F5C042C0F81045C6
:1062B0000197019817600029E0D096F9302055F831
:1062C0002220002ADAD001220B4902FA03F3C1F896
:1062D000043302B0F0BC70474FF0A043D3F8103540
:1062E000C34013F0010F0CBF4FF400314FF44031A5
:1062F000B6E700BF8425002000600040F0B4264CC3
:10630000231893F93030072B28DCD9B2072933D86A
:106310009A0002F1804202F5C042204FD2F8106587
:1063200001259D4026F0010603F5A273C2F8106511
:10633000C7F808534FF0A046002500F5E07247F873
:10634000235002274FF0FF3546F8227044F82150C1
:106350002044FF2380F83030F0BC7047820002F107
:10636000A042D9B2D2F8003723F44033C2F8003744
:10637000D2F80037C2F800374FF0A04600F5E073BE
:1063800065184FF0FF32022746F8237085F8482041
:1063900044F82120DCE700BF842500200060004095
:1063A0002DE9F04F87B00023CC4A019311680129F1
:1063B00000F00A821E46CA4B1A68012A00F0F681D4
:1063C000C84B1A68012A00F0E381C74B1A68012AFA
:1063D00000F0D081C54B1A68012A00F0BD81C44B82
:1063E0001A68012A00F0AA81C24B1A68012A00F03B
:1063F0009781C14B1A68012A00F08481BF4B1A684B
:10640000012A00F05E8116F0FF0F1AD0BC4F012563
:106410000024A30003F180432E4203F5C0434FEA5A
:1064200045050BD0D3F8100557F82420D3F81015E4
:10643000C0F30420C1F3014102B190470134082C9C
:10644000E7D1002E02DB07B0BDE8F08F00224FF04D
:10645000FF33AB4C02920393012502AE94F9501026
:106460004F1C2DD0C9B221F0C00006AB4FEAD00EB0
:1064700003EB0E0701F0070317F80C2C05FA03F3E2
:106480001A421DD02218890992F9302054F822208E
:10649000002A00F0F080032900F0F0804FEA800E1F
:1064A0000EF1A04E17F814CCDEF800771CEA0303B7
:1064B000C7F3014940F0B880B9F1030F00F0D7816C
:1064C0004FF0030A4FF002094FF00108002794F93A
:1064D0005110481C2DD0C9B221F0C00006AB4FEAC4
:1064E000D00C03EB0C0E01F007031EF80C2C05FA80
:1064F00003F31A421DD02218890992F9302054F86A
:106500002220002A00F0CA80032900F0CA804FEA46
:10651000800C0CF1A04C1EF814BCDCF800E71BEA60
:10652000030FCEF3014E40F09080BEF1030F00F058
:106530008A8194F952104A1C2CD0C9B221F0C000B3
:1065400006AB4FEAD00C03EB0C0E01F007031EF86C
:106550000C2C05FA03F31A421CD02218890992F96F
:10656000302054F82220002A00F08F80032900F008
:106570008E804FEA800C0CF1A04C1EF814ACDCF8B5
:1065800000E71AEA030FCEF3014E6AD1BEF1030F02
:1065900000F0468194F953104B1C2CD0C9B221F065
:1065A000C00006AB4FEAD00E03EB0E0201F007036A
:1065B00012F80CCC05FA03F31CEA030F1BD004EB12
:1065C000000C89099CF930C054F82C90B9F1000FE7
:1065D0006ED003296ED04FEA800E0EF1A04E12F855
:1065E00014CCDEF800271CEA030FC2F3014211D1DC
:1065F000032A00F0F580002F3FF425AF4FF0A043B1
:10660000019AD3F810359A423FF41DAF029A0193D4
:10661000039223E7022AEED1032900F04681B9F163
:10662000000FE8D0C847E6E7B9F1020F7FF448AFA2
:10663000032900F043814FF0030A4FF001080027BF
:10664000002A3FF444AF904741E7BEF1020F7FF4C8
:1066500070AF032900F02C81002A3FF46AAF904705
:1066600067E7BEF1020F95D1032900F02481002ACB
:1066700090D090478EE703297FF422AF16F80EC022
:106680004CEA030C06F80EC008E7032982D116F87D
:106690000CA04AEA030A06F80CA06AE703297FF473
:1066A00048AF16F80CB04BEA030B06F80CB02EE717
:1066B0000329A0D116F80EC04CEA030C06F80EC050
:1066C00089E700221A601B6805934FF0A043059AE2
:1066D000D3F81035019346F0004694E6006100407F
:1066E00004610040086100400C61004010610040FE
:1066F00014610040186100401C6100407C61004052
:10670000842500206F4AD2F8042312067FF576AE66
:1067100000221A601B680493049B46F080066DE615
:10672000684AD2F8042351067FF563AE00221A604E
:106730001B680493049B46F040065AE6614AD2F86F
:10674000042390067FF550AE00221A601B68049364
:10675000049B46F0200647E65A4AD2F80423D406A2
:106760007FF53DAE00221A601B680493049B46F03F
:10677000100634E6534AD2F8042315077FF52AAEF3
:1067800000221A601B680493049B46F0080621E669
:106790004C4AD2F8042357077FF517AE00221A603F
:1067A0001B680493049B46F004060EE6454AD2F8A3
:1067B000042392077FF504AE00221A601B6804933D
:1067C000049B46F00206FBE53E49D1F8046316F04F
:1067D00001063FF4F0AD136013680493049BEAE5EF
:1067E00003297FF41CAF4FF40032DEF8003723F4A6
:1067F0004033CEF80037DEF800371343CEF80037C9
:10680000B9F1000F01D047460CE74FF0A043019AC1
:10681000D3F8103593427FF4F9AE07B0BDE8F08F9E
:1068200003297FF424AF4FF40037DCF8003723F45A
:106830004033CCF80037DCF800373B43CCF8003766
:106840004746C84613E703297FF406AF4FF40037E5
:10685000DCF8003723F44033CCF80037DCF800379D
:106860003B43CCF800374746C846D146F4E60329F7
:1068700006D0CA461F464FF002094FF00108DFE676
:106880004FF40037DEF8003723F44033CEF80037FA
:10689000DEF800373B43CEF800374FF0040A4FF0E4
:1068A00003094FF002080127CAE64FF440329CE783
:1068B0004FF44037CCE74FF44037B6E74FF440375A
:1068C000E0E700BF0060004070B5A54C237F8EB0AC
:1068D000002B73D1A34AD2F80413890546D4A14BE7
:1068E000D3F80423520704D5D3F80821002A40F036
:1068F000C9809C4BD3F81C21BAB1A28AA17D92B267
:106900008A424FF00002C3F81C2180F0A880D3F81F
:106910001C210692069AA18AA28AA06889B2013235
:10692000415C92B2A282C3F81C158E4BD3F844216D
:10693000D2B10022C3F84421D3F84411A27E0491BD
:106940000499002A40F08880E37D6BB10023617ECA
:10695000E268E37501238DF830108DF828300B9232
:1069600094E80A000AA898470EB070BDD2F8241126
:106970000029B4D0C2F82431D2F82411A37E0791A3
:106980004FF401710798C2F808130BB90123536043
:10699000744A02238DF82830D2F88034C2F880344B
:1069A000E07DE2680D9300238DF83000E3752376D7
:1069B00021680B9263680AA898479AE7694BD3F855
:1069C0002421002A40F09280D3F8101161B1C3F85D
:1069D0001021D3F8101103910399D3F83C15E07DF1
:1069E000C9B2884200F0A4805E4BD3F84421B2B112
:1069F0000022C3F84421D3F84401E17D01900198BD
:106A000069B1D3F83C35E1688DF8303001230B9142
:106A10008DF82830E27594E80A000AA89847514B8F
:106A2000D3F82021002A9FD00022C3F82021D3F8D8
:106A30002001A17D00900098002995D0D3F84C1535
:106A4000A3688DF830100B938DF82820A27594E878
:106A50000A000AA8984787E701221A6074E7D3F86A
:106A60001C310593059B00293FF45FAFA3688DF8A7
:106A700030100B938DF82820A27594E80A000AA81C
:106A8000984752E7E27D002A6ED00022C3F8082121
:106A9000D3F808210892089AE168627ED3F8183585
:106AA0008B54637EE27D0133DBB26376637E934277
:106AB0007FF41FAF237E002B6CD1A37E13B9294B2B
:106AC00001225A60274AE06863684FF40171C2F8F6
:106AD0000813627E8DF83020002501220B9021687A
:106AE000E5758DF828200AA8984702E70022C3F828
:106AF0002421D3F82411029102218DF82810029943
:106B0000D3F88014C3F880140D91D3F83C15E368D2
:106B1000E27522768DF830100B93216863680AA81D
:106B20009847104BD3F84421002A3FF478AF5FE731
:106B3000217E11B3D3F80062E568E17526F02006E6
:106B4000C3F8006226698DF8300001238DF82830E3
:106B5000227621680B95E66063680AA8984743E7A8
:106B6000DC25002000200040C3F80821D3F80811DC
:106B700009910999D3F8183598E7E268E17501237E
:106B80008DF830008DF828300B9294E80A000AA89E
:106B9000984729E7607EE5682169E37501220023B3
:106BA0008DF83000E160237663760B958DF8282010
:106BB00094E80A000AA898479BE600BF2DE9F04137
:106BC0004479554EE7003D19AD0006EB050E9EF8E1
:106BD0001CC0BCF1000F02D00820BDE8F08172514A
:106BE000CEF804300B7B91F800E0012B4FF0A0456C
:106BF0004FF0010303FA0EF394BFC5F80C35C5F846
:106C000008350D784FF0A04E05F5E07501234EF8DC
:106C100025304D78FF2D74D005F5E07CAB404FF06A
:106C20000308CEF80C354EF82C8091F802E0BEF146
:106C3000FF0F63D00EF5E07C4FF0A0434FF0040847
:106C400043F82C8091F803C0BCF1FF0F0FD04FF038
:106C5000A048012303FA0CF3C8F80835CB7803F5F4
:106C6000E0734FF0030C48F823C091F803C0437958
:106C700003EBC30306EB830383F81EC0036891F89C
:106C800000C0C3F808C5C3F80C55C3F810E58D68FB
:106C9000C3F824554D7B91F80CE0003518BF012551
:106CA000BEF1020F30D0BEF1030F24D0BEF1010FB0
:106CB00001D145F00205C3F85455457991F805E036
:106CC00005EBC50506EB850585F81FE0FAB104253F
:106CD0000122C3F80453C3F80025097990F9040090
:106CE000FFF780F93C4406EB84060123002033774C
:106CF0007077BDE8F08145F00605DCE74FF0FF3E18
:106D0000A0E74FF0FF3590E745F00405D3E70122F7
:106D1000C3F80025E6E700BFFC2500202DE9F0437D
:106D200045796A4EEF007C19A40006EB040E85B08D
:106D30009EF81D809DF830C0B8F1000F03D01120DF
:106D400005B0BDE8F08334591CB14FF001088EF84E
:106D50001D804FF00C0E4FF0240818FB05E806EBE1
:106D6000080907EB050E46F8081006EB8E0E89F8A9
:106D70000420C9F8083089F80CC09EF821300EF1C3
:106D800020089EF81EE003F0FC036FF38203BEF1BF
:106D9000FF0F88F8013006D001234FF0A04803FA16
:106DA0000EF3C8F80C35006804234FF0000EC0F84D
:106DB0000833C0F808E17B19D0F80881CDF80C80C1
:106DC00006EB8303DDF80C8083F820E09AB9DB7FC3
:106DD000C0F81C35BCF1010F05D97B1906EB830304
:106DE000DB7FC0F81C357CB10423C0F804330020DD
:106DF00005B0BDE8F0830B78C0F81C35012AE9D94D
:106E00004B78C0F81C35EEE77A1906EB820292F84F
:106E100018E0D0F80831002BFBD0C0F80841D0F8BA
:106E200008310293029B92F82010D0F81835714572
:106E3000DBB28DF8073004D253699DF807E003F800
:106E400001E092F8203092F821E00133DBB21EF02D
:106E5000040F82F8203003F1010116D092F810C01F
:106E600092F818E08C450DD9714511740CD392F845
:106E700010C08C4515D9D36892F818E05B5CC0F857
:106E80001C35C6E771450CD2117692F810C06145E9
:106E9000F1D392F818E0714503D2D37FC0F81C35C6
:106EA000B7E79C45B5D89E45B3D83D4406EB85066B
:106EB000B27FFF2A07D001234FF0A0419340C1F8D1
:106EC000083500203CE700203AE700BFFC25002001
:106ED00030B52C4A2C4B0021C2F8081183B0D2F8EF
:106EE000081101910199187ED2F8181593F8202005
:106EF000C9B290428DF8031005D959699DF8030075
:106F0000885493F8202093F82100013210F0040FE8
:106F1000187CD2B283F8202002F1010184B208D09B
:106F2000A1421D7E02D2C8B218740C46A94212D2E8
:106F30001976A14208D31D7EA9420CD2114ADB7FEB
:106F4000C2F81C3503B030BDDA680E4B525CC3F892
:106F50001C2503B030BD8242F4D3AA42F2D3997FFC
:106F6000FF2905D001224FF0A0408A40C0F8082533
:106F700000225A771A7259681A680448904703B079
:106F800030BD00BF00300040FC250020042600205A
:106F900030B54FF040220023C2F8083183B0D2F858
:106FA000083101932D4B019993F83C00D2F8181544
:106FB00093F84420C9B290428DF8031005D9996B1B
:106FC0009DF80300885493F8442093F8450001325B
:106FD00010F0040F93F83400D2B283F8442002F189
:106FE000010184B20BD0A14293F83C5003D2C8B245
:106FF00083F834000C46A94217D283F83C10A14212
:107000000BD393F83C50A9420FD24FF0402293F893
:107010004330C2F81C3503B030BD1A6B4FF040232B
:10702000525CC3F81C2503B030BD8242F3D3AA42A0
:10703000F1D393F84210FF2905D001224FF0A04070
:107040008A40C0F80825002283F8412083F82C20CC
:10705000996A5A6A0248904703B030BDFC25002067
:10706000282600206DDF704772DF704779DF704798
:107070007DDF704764DF70472DE9F04F85B00488ED
:10708000DDF83880BDF83CA0B8F800500195002C20
:1070900057D09946002317468B4605461C4603E009
:1070A0002A880134A24228DD6A6852F8240003903D
:1070B00000220DF10B0103A8FFF7DCFF064630BBF1
:1070C0009DF80B20BA42EBD12BB3B8F80020D319AE
:1070D00053451BDC4A440DF10B0103A80123FFF7C4
:1070E000C9FF98BBB8F800109DF80B200A44A8F817
:1070F00000202A880134A242D6DC13B3B8F800304D
:10710000019A013B9B1A9BB2FF2B17D90C263046E4
:1071100005B0BDE8F08FB8F800305A1C3B4402338C
:10712000534592B2F2DCA8F8002009F802B0B8F892
:107130000020013292B2A8F80020CBE709F8023013
:10714000E5E70026304605B0BDE8F08F064630463C
:1071500005B0BDE8F08F00BF2DE9F0470023178888
:10716000138090F82D3084B0144605460E46002B4F
:1071700049D1AA78002A70D1EA78002A2ED16A680B
:10718000A2B1D91CB94225D8022192F90020F154AC
:10719000238801339BB20A212380F15423880133D1
:1071A0009BB22380F2542388013323802B89002B48
:1071B00040F02A812B8A002B40F03F812B8B002B43
:1071C00040F054812A6A002A00F0A78021888B1D94
:1071D000BB4262D90C2004B0BDE8F087D91CB9428B
:1071E000F8D80221F154238801339BB20121238076
:1071F000F15423880B449BB22380F25423880B4420
:107200009BB22380BBE7082FE4D902A8FFF72AFF2F
:107210000028E0D113880822CA54238801339BB286
:107220001B222380CA542088013080B2208006228D
:1072300008440DF1090103F0B3FE23889DF80820EE
:1072400006339BB212F0FE0218BF01222380F254D3
:10725000238801339BB223808BE70433BB42B9D828
:1072600002A8FFF703FF0028B5D12388BDF8082046
:107270000321F154238801339BB219212380F15457
:10728000238801339BB2F1182380F254120A4A700A
:10729000238802339BB223806EE71388052B40F2CC
:1072A000AF806FF4486803EB080080B24FF27D3E78
:1072B000704540F2A5805088052840F2A1806FF407
:1072C000486C84441FFA8CFCF44540F299804FF6D8
:1072D000FF7E734504D0704502D0834200F2908057
:1072E00005237354238801339BB212212380F15468
:1072F000238801339BB223801188F1543344090A57
:107300005970238802339BB223805288F25433444D
:10731000120A5A70238802332380D5F82480B8F1EA
:10732000000F30D0B8F8041020888A1C831C134446
:10733000BB423FF64FAFFE2A3FF64CAF033131540C
:10734000238801339BB2FF222380F2542388013328
:107350009BB22380B8F80020F2543344120A5A70CA
:107360002088023080B22080B8F804205AB1D8F8C2
:107370000810002944D0304403F012FEB8F804206D
:1073800023881344238095F82C30002B40F087800D
:10739000287800283FF41FAF2B88012B30D023889A
:1073A0009A1CBA423FF616AF012805D1697802311E
:1073B00019448F42FFF40EAF023FFB1A04A99BB29F
:1073C00021F8083DB018FFF753FE00287FF403AF03
:1073D0002A78022A00F0AF80012A00F0B480082148
:1073E000FE2B3FF6F7AE22885D1CB5542288013291
:1073F00092B22280B1542288013213442380EAE6FB
:10740000072004B0BDE8F08705F1080802228DE8E6
:107410009000404611463346FFF72EFE00287FF4C9
:10742000DAAE8DE890004046334610220621FFF781
:1074300023FE00283FF4BEAECDE605F110088DE82E
:1074400090004046334602220321FFF715FE002834
:107450007FF4C1AE8DE890004046334610220721EC
:10746000FFF70AFE00283FF4A9AEB4E605F11808BC
:107470008DE890004046334602221421FFF7FCFDC0
:1074800000287FF4A8AE8DE89000404633461022D5
:107490001521FFF7F1FD00283FF494AE9BE6D5F8E7
:1074A0002880B8F1000FABD0B8F804200232FE2AD1
:1074B0003FF690AE23884FF000094FF0160A0132D4
:1074C000F254238801339BB2238006F803A023885B
:1074D00001339BB22380B8F80020F2543344120ADF
:1074E0005A70238802339BB22380B8F80410F01836
:1074F0000A4661B1D8F808301946002B80D003F055
:107500004FFDB8F80420238813449BB2238009F16F
:10751000010995F82C205FFA89F94A4509EB4908D9
:107520007FF636AFAA6A02EB8808B8F80420023268
:10753000FE2AC4D94EE6BDF808209342FFF44FAFAF
:10754000134609214CE76A789342FFF448AF13468B
:10755000082145E72DE9F04395B01F230D46ADF80E
:107560000E300446002800F08480C27853077CD592
:1075700090F82D300021ADF80C10002B40F0DB818D
:1075800083780CAF002B40F017821946032014AE0D
:1075900031445F1C023316FA87F74FF0020E16FAD9
:1075A00083F601F840EC83B2012107F8401CADF8E6
:1075B0000C3006F8402C6668002E00F08C80D81C39
:1075C0001F2874D90C2015B0BDE8F083A76A002FDE
:1075D0004BD0BA880232FE2AF4D8BDF80C304FF0F6
:1075E000000804AE4FF016091AE003F0D9FCBDF80C
:1075F0000C30BA8894F82C1013449BB2ADF80C30C0
:1076000008F101085FFA88F8884508EB480280F025
:10761000F080A76A07EB8207BA880232FE2AD1D827
:107620000DF1500E9E44581C01320DF1500C0EF815
:10763000402C1CFA80F09A1C92B200F8409CADF8E5
:107640000C203888B0543244000A50700433B7F824
:1076500004E09BB27246F018ADF80C30BEF1000F9A
:10766000CED0BB681946002BBFD1072015B0BDE8AE
:10767000F083ADF80C00ADB1EB78002BF5D12846C6
:107680000CA90DF10E02FFF767FD0028EED19DF861
:107690000E300CAA20469DF80C10FFF7E5FC15B043
:1076A000BDE8F0832B46ADF80E502A46F2E714AF42
:1076B000591C9A1C17FA81F13B4417FA82F296F989
:1076C0000060ADF80C0002270A2003F8407C01F8A6
:1076D000400C02F8406C2389002B40F08F80238AF5
:1076E000002B40F0AB80238B002B40F0C780226A38
:1076F000002A42D0BDF80C30991D1F293FF662AF19
:1077000010880528B1D96FF4486C00EB0C06B6B2AE
:107710004FF27D37BE42A8D95688052EA5D96FF401
:10772000486EB6441FFA8EFEBE459ED94FF6FF77CF
:10773000B84203D0BE4201D0B04296D814A8C718B0
:107740005E1C10FA86F64FF0050E981C07F840EC08
:1077500080B2122706F8407CADF80C001788ADF80F
:107760000C1004AE3118375404333F0A4F709BB2EB
:107770005288F2541E44120A7270676AA7B3B8881E
:10778000BDF80C30811C9A1C56181F2E3FF61AAFFC
:10779000FE293FF617AF14AE1E44591C0DF1500ED2
:1077A0001EFA81F1033006F8400C92B2FF2001F876
:1077B000400CADF80C20398804AEB018B154090A59
:1077C00041700433BA8898B2ADF80C0062B1B96860
:1077D00000293FF44AAF304403F0E2FBBDF80C301F
:1077E000BA881344ADF80C3094F82C1000297FF4BB
:1077F000EDAE2378002B61D104AC3CE703A904F182
:10780000080704AE4FF01F080222009138463346A5
:10781000CDF804801146FFF72FFC00287FF426AF37
:1078200003AB0093CDF8048033463846102206217E
:10783000FFF722FC00283FF452AF17E703AA04F138
:10784000100704AE4FF01F08009238463346CDF8BB
:10785000048002220321FFF70FFC00287FF406AF0B
:1078600003AB0093CDF8048033463846102207213D
:10787000FFF702FC00283FF436AFF7E603AA04F155
:10788000180704AE4FF01F08009238463346CDF873
:10789000048002221421FFF7EFFB00287FF4E6AEFC
:1078A00003AB0093CDF804803346384610221521EF
:1078B000FFF7E2FB00283FF41AAFD7E62288012A3F
:1078C0003FF4D3AEBDF80C20901C1F283FF67AAED3
:1078D000012B04D1637803441F2B3FF673AEC2F132
:1078E0001D0314A99BB204AE21F8203D3044FFF7DC
:1078F000BFFB00287FF4BAAE2278022A00F086800F
:10790000012A00F08B80ADF830300820FE2B3FF6C6
:1079100059AEBDF80C2014AC511CA71814FA81F113
:1079200002321A44013307F8403C3446ADF80C20CB
:1079300001F8400C9FE60CAF3846FFF793FB002898
:107940007FF494AEBDF80C3014A903F1010E9A1C1B
:1079500011FA8EFE0B4492B204AEB01808211B2619
:1079600003F8401CADF80C200DF1310106220EF891
:10797000406C03F015FBBDF80C209DF83010931DF2
:1079800011F0FE019BB23BD114A8034403F8401C44
:10799000D31DA2789BB2ADF80C304AB9E278002A28
:1079A0003FF409AED81C1F2819463FF60BAEEEE592
:1079B00004331F2B3FF606AE3846FFF757FB00286F
:1079C0007FF454AEBDF80C30BDF83010E278581C8E
:1079D00014AE16FA80F01E449F1C4FF0030E06F8FA
:1079E00040ECBFB204AE4FF0190E00F840EC043387
:1079F000F019F1559BB2090AADF80C304170CEE791
:107A000014A90B44012103F8401CC1E7BDF8302044
:107A10009342FFF478AF1346092077E762789342E8
:107A2000FFF471AFADF83020134608206EE700BFB9
:107A300075DF704776DF70477ADF70477BDF70470E
:107A400030B51D4B1A8885B2AA4283B001D003B06D
:107A500030BD1A4C187A217B88420FD3227C00213A
:107A60001972BAB96369002BF1D00022ADF8065043
:107A70008DF8042001A8984703B030BD104603F1EB
:107A80000A01FFF7D5FF88B11128E0D0A369002BC8
:107A9000F1D1DCE73B212846FFF7CCFF30F00803AB
:107AA000E0D0A369002BDDD09847DBE71A7A0132DA
:107AB0001A7203B030BD00BF6026002044260020AB
:107AC000F0B50288112A83B003463ED02BD9122A82
:107AD00008D0502A04D1684DC188EA89914246D025
:107AE00003B0F0BD654C828821889142F8D1E189CC
:107AF000B1F5FA7F61D2002658896589854248D858
:107B0000A589854245D39B899E4242D801F2F31153
:107B100099423ED3584B5B6901210020617220726B
:107B2000002B78D1DCE7102ADAD1C27B012AD7D129
:107B3000524C21884FF6FF72914242D04E4B9B69C6
:107B4000002BCDD004209847CAE74C4C828823886C
:107B50009A42C5D16068FCF78FF818B1464B9B6913
:107B600003B198474FF6FF73238003B0F0BD028A3C
:107B7000022AB5D1414C86882788BE42B0D1123046
:107B800000F052F900285AD16068FCF775F870B916
:107B9000A6E7394D267A6B68A9686068002E08BF91
:107BA000194600236372FCF711F8002898D0AB69DE
:107BB000002B95D0984703B0F0BD6FF4F9700E1804
:107BC0009AE72F4D8288228003CDC4F80E10E589F4
:107BD000C4F80A000021B5F5FA7F217202D36FF4D0
:107BE000F976A919588A668986421AD8A6898642E2
:107BF00017D39B8A8B4214D305F2F3159D4210D301
:107C00001D4BD8890121617200287FF469AF5B693F
:107C1000002B3FF465AF8DF80410ADF8062001A8E5
:107C2000C8E7154DEB8900216172002B7FF458AF36
:107C300060686968FBF7CAFF0028B8D150E7637A2B
:107C400063B96B68A968277A60683246002F08BF5D
:107C50001946FBF7BBFF0028A9D141E76B69002259
:107C60002272002B3FF43CAF0122ADF806708DF874
:107C7000042001A8984733E744260020602600200E
:107C80007426002050B3F8B5054606460FCD174FB1
:107C90003C460FC4864695E80700154B3B6084E8D8
:107CA0000700BEF1000F1BD07046FFF7C5FEA0B95C
:107CB00032681068516803C30E4B0F490F4A1846CB
:107CC0004FF6FF7440F8041F1C800021FBF76CFF87
:107CD000002814BF03200020F8BDF8BD0E20704717
:107CE0001846FFF7ABFE0028E6D0F8BD442600207A
:107CF00074260020602600207C260020417A0200A5
:107D00000388112B74D02DE9F0471A2B94B08146CB
:107D100053D0102B02D014B0BDE8F087DFF804A1D7
:107D2000DAF84820DAF844300AF1040123EA0202C2
:107D300003A8FDF7DDFE039E8EB10024A0460DF1E1
:107D40000E050AF1440735F8023F3048CDF80080AF
:107D500001341D223946FDF79FFEB442F3D1DAF813
:107D60004400B9F80440C043FDF760FE4FF6FF73CE
:107D7000984244D026490AEB400A2246A1F1440029
:107D80000123AAF80440FDF769FE22492246A1F129
:107D900040000123FDF762FE99F80F301E49B9F843
:107DA0000420A3F10203B3FA83F35B09A1F14800B5
:107DB00014B0BDE8F047FDF751BE037A1749828839
:107DC0001F2B94BF00230123A1F14C00FDF746FEB9
:107DD00099F808301249B9F804202F2B94BF0023DA
:107DE0000123A1F1500014B0BDE8F047FDF736BE05
:107DF000074982880023A1F14400FDF72FBE04202B
:107E000014B0BDE8F047FBF76BBA00BFA026002016
:107E1000E4260020E0260020E8260020EC260020B2
:107E2000F02600209C260020007800F0010070471A
:107E300090DF70479EDF7047ADDF704788B110B4A8
:107E40001B224FF01714002301610460C0F80640A4
:107E50000271027342738372C3725DF8044B184659
:107E600070470E20704700BF838843BB30B502883F
:107E7000232A83B00C4600F0878011D93A2A72D0A9
:107E8000552A3CD0242A5BD0A37AB3B1E1880020E4
:107E9000FFF7D0FF88B90123A072E37203B030BDB1
:107EA000102A0DD0112AEFD11B224FF01711A37207
:107EB000E372C4F806102273627303B030BD7047DA
:107EC0000B790B73C27B012A71D0022A6CD0C9884E
:107ED00022898A426ED3627B9A42D5D200259BB218
:107EE0002A4628466946ADF80030ADF80230ADF8B4
:107EF0000450ADF80650FFF79BFFA37AC5E7C28890
:107F0000C988A372172A38BF17228A4228BF0A4697
:107F100018462281FFF790FFE37A002BB4D1226943
:107F2000002AB1D02189ADF8023040F67720ADF8B3
:107F30000000ADF80410204669469047A37AA4E7F4
:107F40000A69007A4873002A9ED04DF67A2500937C
:107F5000ADF8043069468DF80400ADF800502046B5
:107F60009047A37A91E74289C98825698A4228BF48
:107F70000A46172A38BF172222810DB1E17A09BBC0
:107F80000023E372A37298E7057A0A7B0193954276
:107F900028BF154669461A461846ADF80050ADF898
:107FA0000250FFF745FF6FE74988E18090E70988B5
:107FB000E1808DE70020FFF73DFF78B90123E372F0
:107FC000237B88E740F67721ADF80010ADF802304A
:107FD000ADF8042069462046A847D1E7112809BF1B
:107FE0000122237B237BA27275E700BF0649074A63
:107FF000074B9B1A03DD043BC858D050FBDC00F054
:1080000013F8FBF733F9000080D5020000210020AF
:10801000BC210020FEE7FEE7FEE7FEE7FEE7FEE705
:10802000FEE7FEE7FEE7FEE7F0B4B24B1A78062A59
:108030001BD0B14AD2F8883043F47003C2F88830BC
:10804000BFF34F8FBFF36F8F4FF01023D3F8002291
:10805000002AC0F27981D3F80432002BC0F2748177
:10806000A64BA74A1A60F0BC704704331B68180778
:10807000DFD1A44B1B6803F0F002302A00F0298105
:1080800003F0E003402B00F024819E4B1B6803F0BB
:10809000F003302B00F00F819A4B1B6803F0F002C5
:1080A000302A00F0F88003F0E003402B00F0F3806A
:1080B000944B1B6803F0F003302B00F0DC80914BF5
:1080C0001B6803F0F002302A00F0C18003F0E003E7
:1080D000402B00F0BC808B4B1B6803F0F003302B6F
:1080E00000F0A780874B1B6803F0F003302B00F0F3
:1080F0008980844B1B6803F0F003502B30D0814BF8
:108100001B6803F0F002302A19D003F0E003402B83
:1081100015D07C4B1B6803F0F002302A03D003F02B
:10812000E003402B85D14FF08043D3F80024D207E1
:108130007FF57FAF6FF00102C3F8002479E7724B3F
:10814000724A1B6803F04F0313606A4B1B78062BBF
:108150007FF46FAF6E4B1B6818077FF46AAFD8E7E8
:108160004FF080526B4BD2F80414C3F82015D2F8AC
:108170000814C3F82415D2F80C14C3F82815D2F843
:108180001014C3F82C15D2F81414C3F83015D2F813
:108190001814C3F83415D2F81C14C3F84015D2F8DB
:1081A0002014C3F84415D2F82414C3F84815D2F8A3
:1081B0002814C3F84C15D2F82C14C3F85015D2F873
:1081C0003014C3F85415D2F83414C3F86015D2F83B
:1081D0003814C3F86415D2F83C14C3F86815D2F803
:1081E00040144448C3F86C15D2F844140278C3F81C
:1081F0007015062A7FF41DAF454B1B681C077FF4E2
:1082000018AF7CE7444E454C4549464B05270125B0
:1082100000203F223760256008601A60354B1B78CC
:10822000062B7FF406AF3A4B1B681D077FF401AFA6
:108230005FE7304B3C4A1B780321062B11607FF42B
:10824000F8AE334B1B681E077FF4F3AE4AE74FF0DE
:1082500080430022C3F80C21C3F81021C3F838254D
:10826000244B1B78062B7FF470AF294B1B681F072C
:108270007FF4DFAE2FE72D491E4ACB68127823F03A
:108280008073062ACB607FF4D4AE214B1B681B079A
:108290007FF4CFAE13E7264B164A1B6812782549A8
:1082A000C3F34233062A0B60B8D1194B1B681A0777
:1082B0007FF4BFAEFCE60F4B1F4A1B781F491160CD
:1082C000062B7FF4B6AE124B1B6819077FF4B1AED4
:1082D000E2E61B4B074A1B6812781A49C3F30423D2
:1082E000062A0B60BCD10A4B1B6819073FF4CDAEC0
:1082F0009FE600BFE00F00F000ED00E0002100204D
:108300000090D003E80F00F058020010E40E004087
:10831000E40F00F000C000401056004088560040B6
:108320001856004014560040A0050040F0ED00E053
:10833000440200103C05004074C007400DF0ADBA87
:108340002403001040350140184B0122C3F80425D6
:10835000D3F80024002AFBD04FF010231522134934
:10836000C3F80022D1F80034002BFBD04FF01022CC
:1083700015210E4BC2F80412D3F80024002AFBD0BA
:1083800000220A49C3F80425D1F80034002BFBD0A1
:10839000BFF34F8F0649074BCA6802F4E0621343EC
:1083A000CB60BFF34F8F00BFFDE700BF00E001408F
:1083B00000ED00E00400FA0510DF704711DF7047A0
:1083C00070B5374D2B7884B01BB10824204604B01B
:1083D00070BD344E3449012302A83370FDF7D0FC40
:1083E000039B2BB90CE002A8FDF7D4FC039B3BB127
:1083F0001A685968002090470028F4D10446E5E740
:108400002A4902A8FDF7BCFC039B4BB11A685968C6
:108410000020904702A8FDF7BDFC039B002BF5D17F
:10842000234B24491B6804A840F80C3DFFF7C4FF08
:1084300004460028CAD1204A20483470E023012194
:108440000470297082F8163382F8153392F81633C7
:108450005B098B4219D9042B17D0194B9968C9B9FC
:108460004FF480031360114902A8FDF789FC039BB8
:10847000002BABD01A6859680120904702A8FDF77D
:1084800089FC039B002BF5D1A0E742F20200FAF72A
:1084900027FFE8E71A6842F480021A60E3E700BFAA
:1084A000552700205427002000D0020018D00200D9
:1084B000FCCF02000133020000E100E0562700205B
:1084C0003471002070B52D4D2B7882B01BB9082473
:1084D000204602B070BD2A4E33782BB9FFF770FFEB
:1084E0000446204602B070BD68462649FDF748FCA8
:1084F000019B2BB90CE06846FDF74CFC019B3BB19E
:108500001A685968012090470028F4D10446DFE733
:108510001D496846FDF734FC019B4BB11A68596848
:10852000022090476846FDF735FC019B002BF5D1F2
:10853000FFF744FF04460028CAD1144B30709A68F4
:108540002870B2B9124B4FF48002C3F880200E4954
:108550006846FDF715FC019B002BB9D01A685968D5
:10856000032090476846FDF715FC019B002BF5D1D1
:10857000AEE71A6822F480021A60E8E75427002068
:108580005527002000D0020018D0020034710020CE
:1085900000E100E0014B1878704700BF552700202C
:1085A00000B583B068460849FDF7EAFB019B43B17B
:1085B00058681A6890476846FDF7ECFB019B002B52
:1085C000F6D103B05DF804FB0CD0020060DF704709
:1085D00069DF704761DF704730B5114D93B03824C3
:1085E0000DF1060104A8ADF80640FFF7F3FF88B9C6
:1085F000294602A8FDF7C4FB039B002BF0D01A68A4
:10860000596804A8904702A8FDF7C4FB039B002B00
:10861000F5D1E5E7052801D0FAF762FE13B030BDC9
:1086200024D00200002955D070B52B4B0B6084B0CC
:108630000D4604460C2201A8002102F0BCFC0126D4
:10864000032301A92A68ADF8083020208DF80440E2
:108650008DF80660FFF7BCFF01A80C22002102F094
:10866000AAFC002401A92A688DF8046040208DF836
:1086700005408DF80640FFF7ABFF214601A80C220C
:1086800002F099FC022301A92A688DF804303046D3
:10869000FFF79EFF214601A80C2202F08CFC4FF44C
:1086A000B06301A92A680193A120FFF791FF214639
:1086B00001A80C2202F07FFC9DF804302A6864F3C4
:1086C000000301A9A0208DF80430FFF781FF2046A8
:1086D00004B070BD0E20704700210020FFF776BF68
:1086E00048DF704710B5114C84B001A8FFF7F8FFC0
:1086F000A8B9214602A8FDF743FB039B002BF4D049
:108700001A6859680198904702A8FDF743FB039B3C
:10871000002BF5D101A8FFF7E3FF0028E9D00528D9
:1087200001D0FAF7DDFD04B010BD00BF30D002006B
:1087300000B583B0FDF77EFC019030B104220DEB53
:1087400002014FF6FF7001F017FE03B05DF804FB65
:1087500000F5E0724FF0A04310B4032443F8224028
:10876000012202FA00F021B1C3F808055DF8044BBC
:108770007047C3F80C055DF8044B704700F5E070D6
:108780004FF0A043002243F8202070474FF0A04153
:108790000122D1F8043502FA00F020EA0302034076
:1087A000C1F80825C1F80C35704700BF10B582B07C
:1087B0008DF800108DF801209DF81040059A8DF875
:1087C000023069468DF80340FDF776FC019030B128
:1087D00004220DEB02014FF6FF7001F0CDFD02B057
:1087E00010BD00BFFDF78ABD0121FDF725BD00BF0B
:1087F00010B5084C237803B110BDFDF747FB08B155
:10880000FAF76EFD0020FDF765FBFBF70BF901237E
:10881000237010BD99280020064B1A780021092AE0
:10882000017106DC044901EB421202601A78013240
:108830001A7070479828002058270020F0B51C4D6A
:108840002B7883B004460E46174613B33A460121EF
:108850002046FBF7A9F9019030B104220DEB02018B
:108860004FF6FF7001F088FD4FF400434FF4FA70AB
:108870000021E3FB06014FF47A72002303F02CFA87
:10888000002201462068FBF7A1F90123237103B000
:10889000F0BDFDF7FBFA38B90020FDF71BFBFBF735
:1088A000C1F801232B70D1E7FAF71AFDF4E700BFF6
:1088B00099280020037903B9704710B50446006871
:1088C000FBF7DAF90023237110BD00BFF0B51C4D92
:1088D0002B7883B004460E46174613B33A46002160
:1088E0002046FBF761F9019030B104220DEB020143
:1088F0004FF6FF7001F040FD4FF400434FF4FA7063
:108900000021E3FB06014FF47A72002303F0E4F93F
:10891000002201462068FBF759F90123237103B0B7
:10892000F0BDFDF7B3FA38B90020FDF7D3FAFBF735
:1089300079F801232B70D1E7FAF7D2FCF4E700BFF6
:10894000992800203EDF70470378012B11D009D30E
:10895000022B00D070474368002BFBD1084B01224B
:108960001A7070474368002BF4D1064B01221A702D
:1089700070474268002AEDD1034A1370704700BF68
:108980009C2800209B2800209A28002070B588B0E1
:10899000002415461E4605AA01AB069405940794CB
:1089A00001940294FCF75EFC08B108B070BD034668
:1089B00003A905A803930493FCF75AFA009090B911
:1089C00032460499284602F0EBFA05A8FCF792FA21
:1089D00000900028E9D0042269464FF6FF7001F0AC
:1089E000CBFC08B070BD042269464FF6FF7001F061
:1089F000C3FCE5E730B58BB0033300249D08059236
:108A000002AB07AA0695ADF81000ADF81210089455
:108A10000794099402940394FCF724FC019050B14C
:108A20000A281AD004220DEB02014FF6FF7001F064
:108A3000A3FC0BB030BD04A907A8FCF725FB0190EF
:108A4000E8B9174A137823B9FFF77CFF1378002B96
:108A5000FAD0002313700BB030BD04A907A8FCF7AF
:108A60006FFA019098B90F4A1378002BF1D1FFF7F4
:108A700069FF1378002BFAD000231370EBE7042270
:108A80000DEB02014FF6FF7001F076FCD9E70422EE
:108A90000DEB02014FF6FF7001F06EFCE3E700BF43
:108AA0009C2800209A28002000B50D4883B0FCF7D0
:108AB00001F8FCF71DF8019050B90A4A137823B960
:108AC000FFF740FF1378002BFAD003B05DF804FBEA
:108AD00004220DEB02014FF6FF7001F04DFCECE7B4
