:020000021000EC
:10F00000000001207D310200A5310200A73102007D
:10F01000A9310200AB310200AD3102000000000056
:10F02000000000000000000000000000AF310200FE
:10F03000B131020000000000B3310200B53102001E
:10F0400071100200B731020025200200B731020022
:10F05000B7310200B7310200411202003937020015
:10F06000B7310200B7310200B7310200B7310200F8
:10F07000B7310200B7310200B7310200B7310200E8
:10F08000B731020059F80100B7310200B731020070
:10F09000F9F80100B73102008D360200B7310200E5
:10F0A000B7310200B7310200B7310200B7310200B8
:10F0B000B7310200B731020000000000000000007C
:10F0C000B7310200B7310200B7310200B731020098
:10F0D000B7310200B7310200B73102000000000072
:10F0E0000000000000000000000000000000000020
:10F0F0000000000000000000000000000000000010
:10F1000000000000000000000000000000000000FF
:10F1100000000000000000000000000000000000EF
:10F1200000000000000000000000000000000000DF
:10F1300000000000000000000000000000000000CF
:10F1400000000000000000000000000000000000BF
:10F1500000000000000000000000000000000000AF
:10F16000000000000000000000000000000000009F
:10F17000000000000000000000000000000000008F
:10F18000000000000000000000000000000000007F
:10F19000000000000000000000000000000000006F
:10F1A000000000000000000000000000000000005F
:10F1B000000000000000000000000000000000004F
:10F1C000000000000000000000000000000000003F
:10F1D000000000000000000000000000000000002F
:10F1E000000000000000000000000000000000001F
:10F1F000000000000000000000000000000000000F
:10F2000010B5054C237833B9044B13B10448AFF360
:10F2100000800123237010BD34280020000000006E
:10F22000A87402000C4B43B10C480D4910B5AFF364
:10F2300000800C48036823B910BD0A48036833B93D
:10F240007047094B002BF7D0BDE810401847064B1C
:10F25000002BF5D0184700BF00000000A874020082
:10F26000382800202028002000000000154B002B2B
:10F2700008BF134B9D46A3F5803A00218B460F46ED
:10F280001348144A121A00F063F80F4B002B00D0F9
:10F2900098470E4B002B00D0984700200021040017
:10F2A0000D000D48002802D00C48AFF3008000F09C
:10F2B0002BF82000290005F021FE00F011F800BF16
:10F2C0000000080000000120000000000000000015
:10F2D000342800203C6100200000000000000000F5
:10F2E00008B5074B044613B10021AFF30080054B6E
:10F2F0001868836A03B19847204600F031F800BFD0
:10F3000000000000886C020070B50D4E0D4CA41B6F
:10F31000A4100025A54209D10B4E0C4C07F0A8FC07
:10F32000A41BA4100025A54205D170BD56F82530B8
:10F3300098470135EEE756F8253098470135F2E752
:10F340000C2800200C2800200C2800201C2800205D
:10F3500002440346934200D1704703F8011BF9E7CA
:10F36000FEE700BF0378012B04BF014A137070470A
:10F3700052280020F0B5174F3B7889B01BB1164BCF
:10F380001B78834222D0154D06460FCD6C460FC424
:10F3900095E80F00062584E80F00082105220723C1
:10F3A0000F48019103920095029302F0C1FB002ED9
:10F3B0000C4A0B4818BF0022694602F0CDFA18B972
:10F3C000054A012316703B7009B0F0BD002009B05A
:10F3D000F0BD00BF51280020502800208C6C020096
:10F3E000F427002065F301000120FFF7C3BF00BF31
:10F3F0002DE9F04383B002AB4FF0000803F8018D14
:10F40000254C074618460E46A56800F00FFFA26877
:10F410006368D4F8009013440133A3EB0903012B74
:10F4200007D80BBB9DF8070000F026FF03B0BDE82E
:10F43000F08309F101039DF80700236000F01CFF31
:10F440000122002362F3010368F3820305EA090540
:10F4500067F3C50304EB850468F3891366F39F2300
:10F46000E36003B0BDE8F0830121434661F301038B
:10F4700068F38203052161F3C50309EA0202074923
:10F4800004EB820268F3891309F1010561F39F23FC
:10F490002560D360C6E700BF54280020AC6C020092
:10F4A0002DE9F04782B002AB002503F8015D294C3D
:10F4B0008146184617468846A66800F0B7FEA2683F
:10F4C0006368D4F800A013440133A3EB0A03022BB2
:10F4D00007D843BB9DF8070000F0CEFE02B0BDE8A0
:10F4E000F0870AF102039DF80700236000F0C4FED4
:10F4F0000121002361F301030AEB010265F382039A
:10F5000069F3C50306EA0A0A164004EB8A0A61F3A6
:10F51000891304EB860468F39F23CAF80C30E76074
:10F5200002B0BDE8F08701212B4661F3010365F3CA
:10F530008203052161F3C5030AEA0202064804EBCF
:10F54000820265F389130AF1010160F39F232160B0
:10F55000D360BFE754280020AC6C02002DE9F04FC7
:10F5600083B002AE002506F8015D2D4C8246304680
:10F5700090461F468946A66800F058FEA268636858
:10F58000D4F800B013440133A3EB0B03032B07D8CB
:10F590007BBB9DF8070000F06FFE03B0BDE8F08F65
:10F5A0000BF103039DF80700236000F065FE0122C4
:10F5B000002362F301030BF1020165F382035A4455
:10F5C0006AF3C503022006EA0B0B32400E4004EB3F
:10F5D0008B0B04EB820260F3891304EB860469F35E
:10F5E0009F23CBF80C30C2F80C80E76003B0BDE875
:10F5F000F08F01212B4661F3010365F3820305219E
:10F6000061F3C5030BEA0202064804EB820265F3CC
:10F6100089130BF1010160F39F232160D360B8E7E8
:10F6200054280020AC6C02002DE9F0434F4E716865
:10F6300032688A428BB078D0B76807EA0105023594
:10F6400006EB85020131546814F003030ED1C4F3B4
:10F65000891303EB94530B4407EA0305023506EBC9
:10F660008502591C546814F00303F0D0022B2CD0EF
:10F67000C4F38313C4F39522002B73D00DF1100C47
:10F68000604601EB030E07EA010506EB850501F173
:10F690000108F045E96840F8041B4146F3D10093A6
:10F6A000C4F3C2006346D6F810440021A04748B115
:10F6B000C6F804803068B0EB080018BF01200BB01A
:10F6C000BDE8F083D6F80480F4E701F1010827EAE9
:10F6D000080001EA0703013006EB830380004FEACC
:10F6E00094598145DA68C4F3891322D988B307EAAB
:10F6F0000801C7B20331A9EB0700DFF874E006EB9D
:10F700008101C0B28DE882400390D6F814740021C4
:10F71000C4F3C200B847484520D006EB850560F326
:10F720008F146C60D6F80480C4E700200BB0BDE8ED
:10F73000F08307EA0800033006EB800000218DE823
:10F74000010203910291D6F81474C4F3C200B847C1
:10F75000E1E786465FFA89F70549D3E7033008EB0E
:10F760009008A5E788460DF1100C98E75428002072
:10F770006028002000B585B000230390194601AA37
:10F7800044F20100ADF80430029300F003F805B034
:10F790005DF804FB08B50D490120FFF729FEFFF7CE
:10F7A00023FEFFF741FF0028FBD109490320FFF7A3
:10F7B0001FFEBFF34F8F0749074BCA6802F4E06290
:10F7C0001343CB60BFF34F8F00BFFDE7B86C02005F
:10F7D000C86C020000ED00E00400FA0559B10AB956
:10F7E00009207047531E1A40FAD18260016083805D
:10F7F000C260104670470E20704700BF10B4846886
:10F80000C26803468088121B904203D204205DF830
:10F81000044B7047DA681C6802400020A154DA6883
:10F820000132DA605DF8044B704700BF0346806820
:10F83000DA6890420DD010B498689A881C6802402B
:10F840000020A25C0A709A6801329A605DF8044B4D
:10F8500070470520704700BFF8B5204A204B0025AF
:10F86000C2F84051C2F84451C2F84851C2F84C5154
:10F87000C2F80051C2F804511B6813B31949D2F8F9
:10F8800004450A68A41A1A6824F07F44A2422F464D
:10F8900009D8197CDE69A41A154499B91EB13346FA
:10F8A0001A68A242F5D91049104A0B7812789A4288
:10F8B0000DD00F490F4A41F823504FF48013C2F87E
:10F8C0000031F8BD1F745A6998699047E6E7531CE8
:10F8D000DBB2022B08BF00230B70EAE700100140E7
:10F8E0008C2D0020882D0020852D0020842D0020C7
:10F8F0007C2D002000E100E02DE9F04F7D4A7E499B
:10F900001378097899428BB03BD00133DBB27B4945
:10F910000491022B0D687A49069108BF00231370E9
:10F92000784A084652F82310D0F80090049A6B18D1
:10F93000002423F07F434E46AC4613602046274602
:10F940002546AEB133688B4200F2ED81F468376032
:10F95000C91A1844F3693CB10CEB000E2EF07F423B
:10F96000F561B460726035461E460124002EE9D16F
:10F970002A46B146002C40F0DB8201230793069B08
:10F9800007E05F4B5D4A0492D3F800900693002293
:10F990000792D3F800A05C4BDFF874C11B78059385
:10F9A000049B186800234946CE460893D146099324
:10F9B00003934FF0010B17469A46804637B37C6895
:10F9C000BD683B46FF695148A4EB080222F07F4224
:10F9D000824258D815441D60002283F810B05A6046
:10F9E0009A60DA6100296ED00868854263D90C46B6
:10F9F00003E01068A8424FD21446E2692D1A002A8B
:10FA0000F7D11D60DA61E361002FD8D10297CDF8FC
:10FA100004E09CF801709CF800200025974200F05B
:10FA20008680104600EB40000CEBC000541C9CF894
:10FA30000230E2B204798CF80020934204BF8CF8C3
:10FA400000500022022C83684ED0032C40D0012CA1
:10FA5000E4D11E7C002EE1D1C4685C6005699D6024
:10FA60004269DA6082699A61059A029FDDF804E0D2
:10FA7000002AA8D03446A4EB080224485E6022F095
:10FA80007F428242A6D9A8EB040424F07F44AC4212
:10FA900008D22D1B1D609FE7401B10601D60DA61BE
:10FAA000E361B1E7002583F810B01D605D609D60E3
:10FAB000DD6141B10868451B0D609946D9614FF081
:10FAC000010A19467AE7994619464FF0010A75E787
:10FAD0000029A3D00022CB690A741946002BFAD161
:10FAE00099464FF0010A94E7D9B19942084615D1D9
:10FAF00010E100BF842D0020852D0020882D0020DE
:10FB00008C2D00207C2D0020782D0020FEFF7F0012
:10FB10006C2C0020A34200F0E8802046C469002C31
:10FB2000F8D10E4697421D7431467FF47AAF4046B5
:10FB3000D046CA46DDF80490B8F1000F40F0F481D9
:10FB4000099B002B40F0ED81089B1BB17B4B9DF87E
:10FB500014201A70039B13B9494500F04C81002909
:10FB600000F04E81764C049BD4F804051B68754D5B
:10FB70000F682978C21A22F07F420332002951D13E
:10FB80007149DFF8C8C1DFF8C8E14FF48036C4F826
:10FB90004463C4F804634FF40036C1F880610E601A
:10FBA000012626602F21DCF8004000BF00BF00BF07
:10FBB00000BF00BF00BF00BF00BF74452FD000BF13
:10FBC00000BF00BF00BF00BF00BF00BF00BF00BF3D
:10FBD00000BF00BF00BF00BF00BF00BF00BF00BF2D
:10FBE00000BF00BF00BF00BF00BF00BF00BF00BF1D
:10FBF00000BF00BF00BF00BF00BF00BF00BF00BF0D
:10FC000000BF00BF00BF00BF00BF00BF00BF00BFFC
:10FC100000BF00BF00BF00BF00BF00BF00BF013971
:10FC2000C3D12E7097422CBFDB199B18444923F097
:10FC30007F43C1F84035D1F80425121A1B1A22F06F
:10FC40007F4223F07F4303329A4248D9D1F80435EA
:10FC50003E4AC1F8403512683D492F2300BF00BF1E
:10FC600000BF00BF00BF00BF00BF00BF8A422FD04F
:10FC700000BF00BF00BF00BF00BF00BF00BF00BF8C
:10FC800000BF00BF00BF00BF00BF00BF00BF00BF7C
:10FC900000BF00BF00BF00BF00BF00BF00BF00BF6C
:10FCA00000BF00BF00BF00BF00BF00BF00BF00BF5C
:10FCB00000BF00BF00BF00BF00BF00BF00BF00BF4C
:10FCC00000BF00BF00BF00BF00BF00BF00BF00BF3C
:10FCD000013BC3D11C4B4FF40032C3F80021174A3B
:10FCE000002313700BB0BDE8F08F834212D00E4694
:10FCF000DC69D3F800E0C46134B122687244226048
:10FD00009CF800209CF801700398B14218BF0120B4
:10FD1000039007E7D1F81C90B9F1000F1AD04E46B6
:10FD20004FF0010AE4E72A46B146002C60D15B1A85
:10FD3000C9F8003001230793069B2AE6782D00209E
:10FD400000100140792D002000E100E0042800208F
:10FD50000024F400784E794CC6F808B0784E4FF085
:10FD60002F0E366800BF00BF00BF00BF00BF00BF3E
:10FD700000BF00BFA6422FD000BF00BF00BF00BF22
:10FD800000BF00BF00BF00BF00BF00BF00BF00BF7B
:10FD900000BF00BF00BF00BF00BF00BF00BF00BF6B
:10FDA00000BF00BF00BF00BF00BF00BF00BF00BF5B
:10FDB00000BF00BF00BF00BF00BF00BF00BF00BF4B
:10FDC00000BF00BF00BF00BF00BF00BF00BF00BF3B
:10FDD00000BF00BF00BF00BFBEF1010EC2D10126AF
:10FDE00034460896C8464E4605940994A2467FE7D5
:10FDF000069806609BE7079B002B3FF470AFAEE6CA
:10FE00004D4A504B4E4E4D4C4FF480304FF400371E
:10FE10000125C3F88070C2F848032F23C2F80803F5
:10FE2000556030681E4600BF00BF00BF00BF00BF66
:10FE300000BF00BF00BFA0422FD000BF00BF00BF67
:10FE400000BF00BF00BF00BF00BF00BF00BF00BFBA
:10FE500000BF00BF00BF00BF00BF00BF00BF00BFAA
:10FE600000BF00BF00BF00BF00BF00BF00BF00BF9A
:10FE700000BF00BF00BF00BF00BF00BF00BF00BF8A
:10FE800000BF00BF00BF00BF00BF00BF00BF00BF7A
:10FE900000BF00BF00BF00BF00BF013EC3D19560DF
:10FEA000049A116000BF00BF00BF00BF00BF00BFC9
:10FEB00000BF00BFA0422FD000BF00BF00BF00BFE7
:10FEC00000BF00BF00BF00BF00BF00BF00BF00BF3A
:10FED00000BF00BF00BF00BF00BF00BF00BF00BF2A
:10FEE00000BF00BF00BF00BF00BF00BF00BF00BF1A
:10FEF00000BF00BF00BF00BF00BF00BF00BF00BF0A
:10FF000000BF00BF00BF00BF00BF00BF00BF00BFF9
:10FF100000BF00BF00BF00BF013BC3D10A4B197037
:10FF2000DDE6049B18600FE6069BC3F800A007E619
:10FF3000069B1E6021E500BF001001400024F40074
:10FF40000428002000E100E0792D0020F0B4564B99
:10FF5000564A574E574C4FF480304FF4003101252C
:10FF6000C2F88010C3F848032F21C3F808035D606E
:10FF700030680E4600BF00BF00BF00BF00BF00BF1B
:10FF800000BF00BFA0422FD000BF00BF00BF00BF16
:10FF900000BF00BF00BF00BF00BF00BF00BF00BF69
:10FFA00000BF00BF00BF00BF00BF00BF00BF00BF59
:10FFB00000BF00BF00BF00BF00BF00BF00BF00BF49
:10FFC00000BF00BF00BF00BF00BF00BF00BF00BF39
:10FFD00000BF00BF00BF00BF00BF00BF00BF00BF29
:10FFE00000BF00BF00BF00BF013EC3D19D6000BF86
:10FFF00000BF00BF00BF00BF00BF00BF00BFA042E6
:020000022000DC
:100000002FD000BF00BF00BF00BF00BF00BF00BFB8
:1000100000BF00BF00BF00BF00BF00BF00BF00BFE8
:1000200000BF00BF00BF00BF00BF00BF00BF00BFD8
:1000300000BF00BF00BF00BF00BF00BF00BF00BFC8
:1000400000BF00BF00BF00BF00BF00BF00BF00BFB8
:1000500000BF00BF00BF00BF00BF00BF00BF00BFA8
:1000600000BF0139C3D1144E144D154C1549164F1C
:1000700000203070286020704FF48015E0240B269B
:10008000087048708E7038701049C2F8805182F83C
:1000900014431560C3F8080582F81143D3F80435FA
:1000A0000B60F0BC704700BF0010014000E100E0B1
:1000B000042800200024F400792D00208C2D00203D
:1000C000842D00206C2C0020852D0020882D002000
:1000D000074B9B780BB9082070473AB130B10368E1
:1000E000187C0028F7D159745A617047072070476F
:1000F0006C2C00202DE9F043264CA37883B01BB96B
:10010000082003B0BDE8F0830028F9D0042903D803
:10011000072003B0BDE8F0834369002BF0D006460A
:1001200002A8737C0025012B00F8015D0CBF8946F5
:10013000A94690460F4600F079F86378A0782178B8
:100140005A1CD2B2904208BF2A4691421BD003EB00
:10015000430304EBC30301200F4918719E60D1F8DB
:1001600004159DF80700D9601F61C3F81490C3F807
:100170001880627000F080F8084B4FF48012284617
:10018000C3F80021BDE79DF8070000F075F80420D2
:10019000B7E700BF6C2C00200010014000E100E038
:1001A00070B51B4CA37882B013B9082002B070BDA3
:1001B0000028FAD04369002BF7D0064602A8002594
:1001C00000F8015D357400F031F86278A07821788C
:1001D000531CDBB2984208BF2B46994212D002EB67
:1001E000420204EBC20202219DF8070096601171E1
:1001F000637000F041F8074B4FF480122846C3F8B3
:100200000021D3E79DF8070000F036F80420CDE781
:100210006C2C002000E100E0014BD3F8040570478E
:1002200000100140401A20F07F40704770B4EFF397
:10023000108472B60D4B9A68AAB90D490D4E01256E
:100240009D60D1F8805035401D60C1F88060D1F8C4
:1002500084505D604FF0FF33C1F88430027004B900
:1002600062B670BC704701230370F8E72C61002070
:1002700000E100E0FC06FFBD094B9A6872B168B965
:1002800010B4EFF3108272B606491C680C605C680B
:100290004C60986002B962B65DF8044B704700BFCD
:1002A0002C61002000E100E0F0B52B4C2B4F626880
:1002B000668883B0002A48D036015388B9190333C1
:1002C000496802EB830201F58050824225D213680F
:1002D000013318BF4FF6FF751FD09388AB4213D080
:1002E00013888BB162601E485388868801681D4858
:1002F0000025033300959BB201EB86010325257091
:1003000000F09EFD03B0F0BD5388033302EB83027F
:10031000824202D213680133DFD13E44B38963B114
:100320000F4D104829680227052600230122AF80BF
:10033000267000F0DBFD03B0F0BD0122094800F09B
:10034000D5FD0423237003B0F0BD3601BB195968F5
:1003500001F10802B7E700BF082E0020902E002010
:10036000B02E002024280020F0B543688E464BB103
:10037000324A1468A34205D35268934202D813F05C
:1003800003023AD000232E4EAEF800304FF0010C9D
:100390004FF6FF757768002307F5805453B35A88EA
:1003A000033203EB82039C4217D91A68013214D03E
:1003B0009A88AA420BD01A884AB102689968914279
:1003C000ECD1204A4360138903810120F0BD5A8893
:1003D000033203EB8203A342E7D30CF10103AEF82F
:1003E00000C01FFA83FCBCF1030F06F11006D1D147
:1003F0000020F0BD07F10803D5E7124C05892489D8
:10040000A542BFD105689C68A542BBD10C4C606871
:10041000834205D900F58050834201D2134608E09B
:1004200062699342E4D902F58052934238BF0123B6
:10043000DED2AEF800300120F0BD00BF242800203D
:10044000902E0020082E0020B3F804C0BCF1010F4C
:1004500053D82DE9F0419046294A4FF6FF7702EB39
:100460000C1E00229EF80040002C33D11C68002C8A
:100470003ED06588DEF80460033504EB850406F59C
:100480008056B44225D22568013522D0A588BD42C8
:1004900019D02588BDB11C6018B1A6880588AE4268
:1004A000E5D119B126880D88AE42E0D1A268C8F81E
:1004B00000201A68134BC8F804201B89A8F80830DC
:1004C0000020BDE8F0816588033504EB8504B44263
:1004D000D9D31A600CF1010C1FFA8CFCBCF1020F8D
:1004E000A3F804C00EF1100EBCD10A20BDE8F081C3
:1004F000DEF8046006F10804C1E70A20704700BF77
:10050000902E0020082E00202DE9F04FA94C256FD9
:10051000EF007E1BB6008BB0A25D013A824604EB71
:100520000609052A31D8DFE802F05D3E3E1D1D03B5
:10053000002840F0D680DFF8908298F80C30002B2D
:1005400000F0128398F8003088F80C00013B062B6D
:100550001BD8DFE813F00701C302CE01AF011A0078
:10056000F502E502002840F0BC80A7EB050B04EB88
:100570008B0B9BF80480B8F1010F00F05083C0F0A2
:100580003983B8F1020F00F012810F23A15D0693A9
:100590008B1E012B40F2AC80052A34D8DFE802F034
:1005A00030816A5E94907B1B04EB8303DFF814B206
:1005B000B3F812800BEB0818002840F0AA80B8F8B6
:1005C00008A0D8F804101B7C01EB8A0A062B00F265
:1005D0009A83DFE813F0A601E901D2013602200276
:1005E00006020302002840F08D8099F80430032BA6
:1005F00000F20581DFE813F03E014B012E010A01F4
:1006000000238DF814306C4D05F1200655F8043F99
:100610000BB105A89847B542F8D1206FC0EBC000D8
:1006200004EB80001C220021FEF792FE636F3BB1B9
:10063000226F0132013B02F00302636722673BB97C
:100640005E4A137823F0040313700BB0BDE8F08FFB
:100650000020FFF759FF0BB0BDE8F08F7B1B04EBC8
:1006600083030322D3F80610DB68089107938DF803
:100670001420C8E77B1B04EB830302211A7C1E892C
:100680009D88D868ADF82060A2F10603B3FA83F321
:100690005B098DF82430ADF8225007908DF81410C6
:1006A000B1E77B1B04EB8303012218899988DB687F
:1006B000ADF82000ADF8221007938DF81420A2E7C2
:1006C00005238DF814309EE77B1B04EB8303042283
:1006D000DB88ADF8203000238DF81420ADF82230EF
:1006E00091E7A15D012306938B1E012B3FF654AFCA
:1006F000334B99F81660186C596C3044891B186498
:10070000596449E72D490B7823F001030B7001234D
:100710003CE7DB88B8F80AE0B8F80800C3F57F4189
:10072000FD31033303447144A8F80830A8F80A10D7
:1007300001232BE7234BB8F808101A781B7CB2FA78
:1007400082F2B3FA83F352095B09013188F80A2077
:1007500088F80B3000220123A8F8081088F80C2034
:1007600088F8003098F80A304BB1164A9389002176
:1007700088F80A101BB9927B002A40F0A48298F8EE
:100780000B304BB10F4B9A8B002188F80B101AB924
:100790009B7F002B40F096827A1B002314F82220C6
:1007A00088F80030013AA8F80230C8F80430002375
:1007B0000693F1E6182E0020982D0020042E00202C
:1007C000BC2D0020902E0020082E00204FF00108A4
:1007D0004FEA08180BEB08034FF0000A5968C54AA6
:1007E000CDF800A00223C44800F02AFB0BF808A0B3
:1007F00000283FF42AAF7B1B14F82320013ABF499D
:100800000B7823F001030B700E23BFE6DFF8F882AC
:10081000B84AD8F80010B8484FF0000A0223CDF8C3
:1008200000A000F00DFBB64BB6495B88D8F800E09D
:1008300089F804A01B01CA1801F803A05368B8F88E
:100840000410C8F800300223C2F804E01181A8F8AF
:100850000430CDE7DFF8B082A748D8F800100023B5
:10086000012200F043FB02220023A8F8042089F8AB
:100870000430BDE7A44BA54A19689F4800230093A4
:10088000022300F0DDFA012389F80430B0E7DFF835
:1008900074B29BF80030022B00F022829BF81030DB
:1008A000022B93D095490B7843F0020323F0010308
:1008B0000B707CE7B8F80230924A02EB031293897E
:1008C000002B00F0DB81904B8B48196802229A8044
:1008D0000522002388F80020012200F007FB0346D0
:1008E000002B3FF4B2AE1C2202FB05F2A25C013ADF
:1008F0004CE68548D8F80420D0F800E08188538879
:100900007D480EEB81014FF0000ECDF800E003337F
:100910004FF0030E9BB288F800E000F091FA034616
:10092000DEE70023321D5146224400937248012322
:1009300000F086FA7B1B9B00E2180221117400284C
:100940003FF483AEE25C0E23013A791B04EB810194
:10095000B8F80AC0C988B8F808E0C1F57F40FD3092
:10096000033160447144A8F80A00A8F8081041F661
:100970001D518B423FF41BAF08E6002306F10C0229
:100980000AF10801224400935B48012300F058FA61
:100990007B1B9B00E218917D00290CBF01210321E4
:1009A00011740028CED150E6002306F108020AF1A6
:1009B0000401224400935048012300F041FA7B1BBC
:1009C0009B00E118E25C032A0CBF052306230B748D
:1009D00000283FF43AAE013A0E23B6E741F61D5324
:1009E000B3E74B4B4B4AB3F800A0516842484A4A20
:1009F00000230093012300F023FA002840F0358102
:100A00007D1B04EB85040BEB0A1A062201232274DA
:100A10008AF80E3019E6A7EB050B4FEA8B0B04EBB7
:100A20000B033C489B690360394900234360FFF78F
:100A30009BFC00287FF475AF14F80B200A23013AC1
:100A4000A4E5DFF8D8E0DEF844C0BCF1000F00F008
:100A5000F180DEF8401028485EF83120A7EB050B46
:100A600004EB8B0B0EEBC103013101F00701CEF853
:100A700040100CF1FF3CBBF81410CEF844C04FF00E
:100A8000000E03930AEB81019B88CDF800E000F093
:100A9000D7F9039A9BF816309188BBF81420013BD4
:100AA0000A44DBB2ABF814208BF8163013B90123DB
:100AB0008BF8103000283FF4C8AD7A1B0E2314F8D1
:100AC0002220013A41E7104AD8F804109388498857
:100AD00003330B440221938088F80010FFF7E4FBF6
:100AE0000346002B3FF4B1AD1C2202FB05F2A25CD1
:100AF000013A3CE7E86C020024280020042E002084
:100B0000082E0020902E0020B02E0020F06C020055
:100B1000B82E0020902D0020E46C0200BC2D002097
:100B20007A4B7B4A19687B4800230093C8F804304D
:100B3000072388F80030022300F082F90346CFE64D
:100B4000B8F80230DFF8E0B11B019B440620002317
:100B5000DBF80410704A0093022388F800006D4807
:100B600000F06EF90346BBE698F80030072B2CD84E
:100B700001A151F823F000BF35070200CB0B0200A2
:100B8000CB0B0200C70A0200A10B0200210B0200DE
:100B9000210B0200990B0200012388F80030E1E5E7
:100BA000B8F80230DFF880B1584A1B010BEB0301A3
:100BB0001068D1F804C0B2F804E048600220C2F81E
:100BC00000C0A1F808E09080BFE7013B062B3FF68C
:100BD000DCAC01A151F823F065070200DD0A020038
:100BE000F3080200B50802008B050200410B020069
:100BF000210B0200DBF80C30CDF818A005A80DF190
:100C00001201CDF81CA00593FFF7AEFB00283FD1E1
:100C10000A237A1B04EB82020221117160E63F4B2A
:100C20001B789B0709D4014608223D48FEF790FB3C
:100C3000022359E7DCF80030FFDEDFF8E4B0B01D36
:100C40005B46204405AA5146FFF7FEFB00284AD127
:100C5000CDF800A00699334A2E48BBF804A04346BD
:100C600000F0EEF840B30E233EE77B1B9B00E1183B
:100C7000E25C06230B74013A0E2366E651682548B0
:100C8000012200F033F90422034688F8002027E609
:100C90000699244A8B88ABF80630B1F800E01D486D
:100CA000CDF800A00123ABF808E0BDF8128000F0F9
:100CB000C7F870B10E23ACE71B4B03EB0A1383F8A4
:100CC0000E80C2E40123A8F80230FFF7EDFA0346D4
:100CD00007E7154A02EB081201215346917398E782
:100CE0004FF0000874E50390514658460822FEF77D
:100CF0002FFB039B0A2B7FF4F7AE1C2303FB05F3AA
:100D0000E25C013A53E50F231FE600BFB02E00203E
:100D1000F06C020024280020E86C0200042E002061
:100D2000BC2E0020E46C0200902E00200846FFF745
:100D3000EBBB00BF29DF704728DF704770B50C4D53
:100D4000696E042911D02B6E0B44032B88BF043B22
:100D5000182202FB035406464B1C204600216B66FA
:100D6000FEF7F6FA3460012070BD002070BD00BFB0
:100D7000C82E002070B5304C636E84B07BB1266EF7
:100D80007500AB1904EBC3031A7A012A09D0022AB1
:100D900026D19889FFF7D0FF112818D000BB04B0E6
:100DA00070BDA8199A8ADB8A04EBC000D21AC16808
:100DB0000069B2F5806F4FEA8303B4BF92B24FF47B
:100DC000806219441844FFF7B5FF1128E6D11B4A89
:100DD000137823F0020343F00403137004B070BDD2
:100DE000102268460021FEF7B3FAAB1904EBC303E7
:100DF0001A7A012A17D0022A09D19A89DB89ADF81B
:100E00000A20D21A0123ADF808208DF800303544AD
:100E1000ED00621963595268019268469B68092186
:100E2000984704B070BD1A699B8A029200218DF820
:100E30000010ADF80C30EAE7C82E0020C42E0020C8
:100E40002DE9F041264D2C78E60782B012D510B17D
:100E5000244CA04203D2022002B0BDE8F081224C13
:100E6000A042F8D252B149B142EA0104A40707D026
:100E70000620F1E7012002B0BDE8F0810320EBE796
:100E80000468A14201D20520E6E7466801EB83042D
:100E9000A642F8D30BB90420DEE7804601A81E461F
:100EA00014460F46FFF74AFF08B90720D4E7019917
:100EB0002B78C1F80080019A089848600121D4601D
:100EC00013F0060417619682117201D00020C3E767
:100ED00043F002032B70FFF74DFF2046BCE700BF35
:100EE000C42E002024280020342800202DE9F041C1
:100EF000244D2C78E40782B010D510B1224CA042CA
:100F000003D2022002B0BDE8F081204CA042F8D20A
:100F100041B1C1F30B043CB10620F3E7012002B05C
:100F2000BDE8F0810320EDE70468A14201D205206D
:100F3000E8E7466801EB0234A642F8D30AB9042078
:100F4000E0E7804601A81E4614460F46FFF7F6FE6E
:100F500008B90720D6E701992B78C1F80080019ADB
:100F60004E600220390B148213F006049181107236
:100F700001D00020C6E703432B70FFF7FBFE20469D
:100F8000C0E700BFC42E0020242800203428002001
:100F900010B50F4C23780BB1852010BD0D4A63604E
:100FA000E3601068A36010F0010023610BD002F031
:100FB00013FB20B94FF080430122C3F81825012309
:100FC0002370002010BD072100F0D0F8EFE700BF2C
:100FD000302F002000E100E030B5224DAB7883B027
:100FE000044693B110B143680120984702A800233A
:100FF00000F8043DFFF71AF9EB689DF8040001338F
:10100000EB60FFF739F903B030BD02A803F0FF022F
:1010100000F8052DFFF70AF964B12A6942B194423C
:1010200008D0134601E09C4204D01B68002BFAD183
:1010300022602C61EB6863B90B4A0C49136013689A
:1010400001934FF0804202200123019CC2F8040367
:101050000B60EB689DF803000133EB60FFF70CF9C0
:1010600003B030BD302F00200401004008000040D4
:1010700010B51A4B1A6882B0A2B100221A601B6820
:1010800000934FF080430122154C0099C3F80823C8
:10109000A368627033B10CCB0020A2609847A368AC
:1010A000002BF8D10F4B1A68AAB100221A601B68F6
:1010B00001934FF080430222094C0199C3F80823A1
:1010C00023690122A27033B10CCB01202261984721
:1010D0002369002BF8D102B010BD00BF0001004011
:1010E000302F00200401004058B910B5054CA3680A
:1010F00033B10CCB0020A2609847A368002BF8D135
:1011000010BD7047302F002010B582B002A8002318
:10111000144C00F8013DFFF789F8237853B1E368D8
:101120009DF8070001330122E360A270FFF7A4F8E5
:1011300002B010BD0C4A6360E3601068A36010F059
:10114000010023610AD002F047FA20B94FF0804332
:101150000122C3F8182501232370E0E7072100F0DE
:1011600005F8F0E7302F002000E100E0002810B47F
:1011700018DB00F1604303F561434901C9B283F80C
:101180000013C3B24009800000F1604000F56140E7
:1011900003F01F0201239340C0F8803103605DF823
:1011A000044B7047C3B2044A03F00F0449012244C0
:1011B000C9B21176E6E700BFFCEC00E030B51D4C8B
:1011C00094F8545083B015B1082003B030BD4FF0EF
:1011D000FF33FF220721062023636363A363E363D6
:1011E00023646364A364E36423606360A360E360D7
:1011F00023616361A361E361236284F85030636219
:10120000A36284F85230E36284F8533084F85120AA
:10121000FFF7ACFF084B094A1D601B68019301985A
:101220004FF000430121284684F85410C2F80433DB
:1012300003B030BD442F00207C61004000600040BE
:101240002DE9F04F87B00023CC4A019311680129A2
:1012500000F00A821E46CA4B1A68012A00F0F68185
:10126000C84B1A68012A00F0E381C74B1A68012AAB
:1012700000F0D081C54B1A68012A00F0BD81C44B33
:101280001A68012A00F0AA81C24B1A68012A00F0EC
:101290009781C14B1A68012A00F08481BF4B1A68FC
:1012A000012A00F05E8116F0FF0F1AD0BC4F012515
:1012B0000024A30003F180432E4203F5C0434FEA0C
:1012C00045050BD0D3F8100557F82420D3F8101596
:1012D000C0F30420C1F3014102B190470134082C4E
:1012E000E7D1002E02DB07B0BDE8F08F00224FF0FF
:1012F000FF33AB4C02920393012502AE94F95010D8
:101300004F1C2DD0C9B221F0C00006AB4FEAD00E61
:1013100003EB0E0701F0070317F80C2C05FA03F393
:101320001A421DD02218890992F9302054F822203F
:10133000002A00F0F080032900F0F0804FEA800ED0
:101340000EF1A04E17F814CCDEF800771CEA030368
:10135000C7F3014940F0B880B9F1030F00F0D7811D
:101360004FF0030A4FF002094FF00108002794F9EB
:101370005110481C2DD0C9B221F0C00006AB4FEA75
:10138000D00C03EB0C0E01F007031EF80C2C05FA31
:1013900003F31A421DD02218890992F9302054F81B
:1013A0002220002A00F0CA80032900F0CA804FEAF8
:1013B000800C0CF1A04C1EF814BCDCF800E71BEA12
:1013C000030FCEF3014E40F09080BEF1030F00F00A
:1013D0008A8194F952104A1C2CD0C9B221F0C00065
:1013E00006AB4FEAD00C03EB0C0E01F007031EF81E
:1013F0000C2C05FA03F31A421CD02218890992F921
:10140000302054F82220002A00F08F80032900F0B9
:101410008E804FEA800C0CF1A04C1EF814ACDCF866
:1014200000E71AEA030FCEF3014E6AD1BEF1030FB3
:1014300000F0468194F953104B1C2CD0C9B221F016
:10144000C00006AB4FEAD00E03EB0E0201F007031B
:1014500012F80CCC05FA03F31CEA030F1BD004EBC3
:10146000000C89099CF930C054F82C90B9F1000F98
:101470006ED003296ED04FEA800E0EF1A04E12F806
:1014800014CCDEF800271CEA030FC2F3014211D18D
:10149000032A00F0F580002F3FF425AF4FF0A04362
:1014A000019AD3F810359A423FF41DAF029A019386
:1014B000039223E7022AEED1032900F04681B9F115
:1014C000000FE8D0C847E6E7B9F1020F7FF448AF54
:1014D000032900F043814FF0030A4FF00108002771
:1014E000002A3FF444AF904741E7BEF1020F7FF47A
:1014F00070AF032900F02C81002A3FF46AAF9047B7
:1015000067E7BEF1020F95D1032900F02481002A7C
:1015100090D090478EE703297FF422AF16F80EC0D3
:101520004CEA030C06F80EC008E7032982D116F82E
:101530000CA04AEA030A06F80CA06AE703297FF424
:1015400048AF16F80CB04BEA030B06F80CB02EE7C8
:101550000329A0D116F80EC04CEA030C06F80EC001
:1015600089E700221A601B6805934FF0A043059A93
:10157000D3F81035019346F0004694E60061004030
:1015800004610040086100400C61004010610040AF
:1015900014610040186100401C6100407C61004003
:1015A000442F00206F4AD2F8042312067FF576AE4E
:1015B00000221A601B680493049B46F080066DE6C7
:1015C000684AD2F8042351067FF563AE00221A6000
:1015D0001B680493049B46F040065AE6614AD2F821
:1015E000042390067FF550AE00221A601B68049316
:1015F000049B46F0200647E65A4AD2F80423D40654
:101600007FF53DAE00221A601B680493049B46F0F0
:10161000100634E6534AD2F8042315077FF52AAEA4
:1016200000221A601B680493049B46F0080621E61A
:101630004C4AD2F8042357077FF517AE00221A60F0
:101640001B680493049B46F004060EE6454AD2F854
:10165000042392077FF504AE00221A601B680493EE
:10166000049B46F00206FBE53E49D1F8046316F000
:1016700001063FF4F0AD136013680493049BEAE5A0
:1016800003297FF41CAF4FF40032DEF8003723F457
:101690004033CEF80037DEF800371343CEF800377A
:1016A000B9F1000F01D047460CE74FF0A043019A73
:1016B000D3F8103593427FF4F9AE07B0BDE8F08F50
:1016C00003297FF424AF4FF40037DCF8003723F40C
:1016D0004033CCF80037DCF800373B43CCF8003718
:1016E0004746C84613E703297FF406AF4FF4003797
:1016F000DCF8003723F44033CCF80037DCF800374F
:101700003B43CCF800374746C846D146F4E60329A8
:1017100006D0CA461F464FF002094FF00108DFE627
:101720004FF40037DEF8003723F44033CEF80037AB
:10173000DEF800373B43CEF800374FF0040A4FF095
:1017400003094FF002080127CAE64FF440329CE734
:101750004FF44037CCE74FF44037B6E74FF440370B
:10176000E0E700BF0060004030B50478012C83B092
:101770001FD010D3022C0CD1C368264926480193F0
:1017800001228DF8004000F00DFB244B68461B68D9
:10179000984703B030BD22492248FEF747F828B3E6
:1017A00002A8032300F8083D1C4B1B68984703B0B0
:1017B00030BD43681C4D19782846FEF71FF8D8B98C
:1017C000AA68EB689A4206D002AB144A03F8080DE7
:1017D000126818469047A968EB68AA885B1A9A4273
:1017E00012D2124B01221A7003B030BD01220C49F3
:1017F000094800F021FACCE7084B01908DF8004031
:101800001B6868469847E6E701220249024800F053
:10181000C9FABEE7C42F0020FC2700209C2F00201F
:10182000C82F0020B42F0020A02F0020B02F0020B0
:101830002DE9F0432F4C89B02260002952D00C468C
:1018400080468A882C4809689946FDF7C7FF10B181
:1018500009B0BDE8F083A289A1682848FDF7BEFF62
:101860000028F5D1264D98F810E0D8F80C70D8F87B
:1018700008600FCD6C460FC495E80F0098F8115022
:1018800002971EF1000E18BF4FF0010E002D84E8E4
:101890000F00D8F80050D8F804401A4A1A488DF8BA
:1018A0001C9014BF0E2300238DF815306946D8F81C
:1018B00014308DF814E0069303968DE8300000F0A4
:1018C0004BF80028C4D1D8F80030104A013310700A
:1018D000BED09DF81D304BB101220D490A4800F0E1
:1018E00061FAB5E7072009B0BDE8F083064800F0CB
:1018F00073FBF1E79C2F0020A02F0020B42F0020C5
:10190000F86C020069170200FC270020B02F0020AD
:10191000C42F002010B501460C48FDF76FFF0446A8
:1019200008B1204610BD0A4800F030FA0028F8D16E
:1019300008490648FDF77AFF0028F2D1012205493F
:101940000348BDE8104000F077B900BFB42F002075
:10195000FC270020C82F0020F0B50479714E6401E7
:10196000331987B0DD7E15B1082007B0F0BD4D7F7B
:101970001D770D686B1C0BD04FF0A0470123AB40C7
:10198000C7F808350B6803F5E073032547F82350C3
:101990004B685F1C06D003F5E0734FF0A0450027AD
:1019A00045F82370037906EB43131B7F002B4CD0C3
:1019B00003688D69C3F824550F7D4B7D05683B4353
:1019C000C5F86C3503680F684D68C3F80C75C3F82B
:1019D00014550B7D012B00F09A80331905465A608F
:1019E0000B693351EAB10379097F026806EB4313AF
:1019F0001B7F002B65D1C2F81C31D2F81C712A68FC
:101A00000097009FC2F84431D2F844212B68464821
:101A10000192019AC3F80403286840F30730FFF7E6
:101A2000A5FB2B792A6806EB43131B7F002B44D0C0
:101A30000823C2F80035344400200123E376E07522
:101A40002076A075A07607B0F0BD05688F69C5F84F
:101A5000247591F814E04D7D076845EA0E05C7F836
:101A60006C550568D1F800E04F68C5F81475C5F8E5
:101A70000CE50D7D012DB0D18D686F1C05D005F5ED
:101A8000E0754FF0A04747F82530CB685D1C0DD0BE
:101A900001254FF0A04705FA03F3C7F80835CB68D6
:101AA00003F5E073032547F82350CB6805688F687A
:101AB000C5F80835C5F810758FE70423C2F800355E
:101AC000B9E70023C2F81031D2F810712A680297E2
:101AD000029FC2F82031D2F820712A680397039F31
:101AE000C2F82431D2F824712A680497049FC2F8FE
:101AF0004431D2F844212B6805920C48059AC3F86A
:101B00000403286840F30730FFF730FB89E78B6850
:101B10005D1CBAD003F5E0734FF0A045002745F8EF
:101B20002370B2E7CC2F00208000020010030200D7
:101B3000F0B502793C4B046852019918097F0029DD
:101B40006CD00021C4F8001599184968B1B1017929
:101B500003EB4111097F002963D10168334CC1F8BF
:101B600008430168324E090B4CB26409203401F07D
:101B70001F01012505FA01F146F8241001790768D3
:101B800003EB4111D7F80C65097FD7F814554FF0D6
:101B9000FF3EA9B3D7F80815D7F81045C7F80CE5EC
:101BA000C7F814E50068C0F808E5C0F810E5771C30
:101BB00006D006F5E0764FF0A040022740F82670E8
:101BC0006E1C06D005F5E0754FF0A040022640F8E7
:101BD0002560651C06D004F5E0744FF0A040022596
:101BE00040F82450481C06D001F5E0714FF0A040A9
:101BF000022440F8214013440022DA765A60F0BDF6
:101C0000D7F80815D7F81045C7F814E5C7F80CE55C
:101C10000068C0F808E5C0F810E5C8E7C4F800158A
:101C200092E70168034C9AE7CC2F0020840202005F
:101C300000E100E010030200F0B50379524C5B01B3
:101C4000E51887B02D7F3DB101F06045B5F1005F2B
:101C500002D0102007B0F0BD23449E7D16B11120A4
:101C600007B0F0BD9A7599609E8205796D01621981
:101C7000137F13BB0168C1F81C31D1F81C610168E6
:101C800004960126049F8E600168D2F808E0C1F82E
:101C90001C31D1F81C310593059B968A938A5768AD
:101CA000B6B201331EF806609BB29382C1F81C6580
:101CB000002F2FD0002007B0F0BD03689168C3F853
:101CC0002061D3F8207103680197019FC3F8586120
:101CD000D3F8586103680296967D029FC3F84415B5
:101CE000C3F848650368012199605368002BE1D16E
:101CF000036801E0002945D1D3F82021D3F8581119
:101D0000002AF7D0002914BF0F2000202C44002304
:101D1000A3759FE7967D938A9BB29E4202F11401C0
:101D200022D9016804E0938A9BB2B3F5807F03D087
:101D3000D1F81C31002BF6D0938A9BB2B3F5807F8B
:101D4000E9D0C1F81C71D1F81C310393039BB2F8A0
:101D500014C0938A1FFA8CFC01331EF80CC09BB28E
:101D60009382C1F81CC5D6E70B889BB2B3F5807F80
:101D700008D00268D2F81C31002BFBD00123D360BD
:101D80000020C3E70F20C1E7CC2F00200279044BCD
:101D900003EB4213987D003018BF0120704700BF4D
:101DA000CC2F0020F0B403798A4E5B01F41888B080
:101DB000257F45B101F06045B5F1005F54D010209A
:101DC00008B0F0BC70476568002D3FD13344DC7D1E
:101DD00054BBDA75D9605C761C7605796D01731990
:101DE0001F7F002F4DD19B7E8BB984B90368C3F848
:101DF0002441D3F8242103680392039AC3F80841CD
:101E0000D3F8082103680492012204991A60721918
:101E10005368002B6BD003684FF401720020C3F8A5
:101E2000042308B0F0BC70471C7ECCB1002D00F03C
:101E3000AA80037906EB4316337F002B50D003684A
:101E40004FF40472C3F804231120B9E704684FF477
:101E500001773344C4F80873DC7D002CB9D0E3E784
:101E600019611A760124B8E76568002DAED00468C0
:101E70004FF404773344C4F80873DC7D002CA8D0F9
:101E8000D2E703680025C3F81051D3F81071036836
:101E90000197019FC3F84451D3F844510368029558
:101EA000029DC3F83415C3F838258CB903680122A4
:101EB0001A6002795201B3185B68002B65D0036881
:101EC0004FF404720020C3F8042308B0F0BC70473C
:101ED0000268D2F8003243F02003C2F80032E8E78B
:101EE00003684FF40172C3F80423112068E7016806
:101EF000C1F84431D1F844310593059B0368D3F808
:101F00002471D3F80841D3F8441144B9002933D1DE
:101F1000002FF4D035440023EB75032050E7002F49
:101F2000F8D159BBD47DECB1C3F80811D3F808112E
:101F300006910699D468517ED3F818356354537EC0
:101F4000D17D0133DBB25376537E9942D6D83544E6
:101F50000022AB7EEA75002B37D0036801211046C2
:101F600019602DE7C3F80841D3F8081107910799C4
:101F7000D3F81835537EEAE7002FCBD13544002340
:101F8000EB750F201CE711201AE7036801E0A4B9E4
:101F9000B8B9D3F81011D3F84441D3F8240100297B
:101FA000F5D000284FF00003324414BF0320184638
:101FB0009C42D37518BF0F2002E732440F20D17521
:101FC000FEE632440320D475FAE602680121184681
:101FD0005160F5E6CC2F0020114A037902EB431340
:101FE000197FD9B99B7ECBB910B4016883B0C1F811
:101FF0002431D1F8244101680094009CC1F80831D3
:10200000D1F80831016801930123019C0B6001792B
:1020100002EB4112937603B05DF8044B704700BFAA
:10202000CC2F002070B5A54C237F8EB0002B73D130
:10203000A34AD2F80413890546D4A14BD3F804234C
:10204000520704D5D3F80821002A40F0C9809C4BE0
:10205000D3F81C21BAB1A28AA17D92B28A424FF074
:102060000002C3F81C2180F0A880D3F81C2106923E
:10207000069AA18AA28AA06889B20132415C92B212
:10208000A282C3F81C158E4BD3F84421D2B1002292
:10209000C3F84421D3F84411A27E04910499002A84
:1020A00040F08880E37D6BB10023617EE268E375D8
:1020B00001238DF830108DF828300B9294E80A0037
:1020C0000AA898470EB070BDD2F824110029B4D0E8
:1020D000C2F82431D2F82411A37E07914FF4017184
:1020E0000798C2F808130BB901235360744A0223FE
:1020F0008DF82830D2F88034C2F88034E07DE26870
:102100000D9300238DF83000E375237621680B9240
:1021100063680AA898479AE7694BD3F82421002AF4
:1021200040F09280D3F8101161B1C3F81021D3F8B8
:10213000101103910399D3F83C15E07DC9B2884290
:1021400000F0A4805E4BD3F84421B2B10022C3F862
:102150004421D3F84401E17D0190019869B1D3F89D
:102160003C35E1688DF8303001230B918DF8283033
:10217000E27594E80A000AA89847514BD3F8202149
:10218000002A9FD00022C3F82021D3F82001A17D8E
:1021900000900098002995D0D3F84C15A3688DF8CD
:1021A00030100B938DF82820A27594E80A000AA835
:1021B000984787E701221A6074E7D3F81C3105932A
:1021C000059B00293FF45FAFA3688DF830100B9397
:1021D0008DF82820A27594E80A000AA8984752E7CB
:1021E000E27D002A6ED00022C3F80821D3F808212E
:1021F0000892089AE168627ED3F818358B54637EA2
:10220000E27D0133DBB26376637E93427FF41FAFDE
:10221000237E002B6CD1A37E13B9294B01225A6077
:10222000274AE06863684FF40171C2F80813627EC0
:102230008DF83020002501220B902168E5758DF87E
:1022400028200AA8984702E70022C3F82421D3F8DF
:102250002411029102218DF828100299D3F88014DC
:10226000C3F880140D91D3F83C15E368E27522762B
:102270008DF830100B93216863680AA89847104BBB
:10228000D3F84421002A3FF478AF5FE7217E11B3F1
:10229000D3F80062E568E17526F02006C3F8006215
:1022A00026698DF8300001238DF8283022762168C8
:1022B0000B95E66063680AA8984743E7CC2F002097
:1022C00000200040C3F80821D3F8081109910999AA
:1022D000D3F8183598E7E268E17501238DF83000EE
:1022E0008DF828300B9294E80A000AA8984729E74D
:1022F000607EE5682169E375012200238DF83000D6
:10230000E160237663760B958DF8282094E80A0027
:102310000AA898479BE600BF6DDF704772DF7047E1
:1023200079DF70477DDF704764DF70472DE9F04F3C
:1023300085B00488DDF83880BDF83CA0B8F80050BE
:102340000195002C57D09946002317468B46054629
:102350001C4603E02A880134A24228DD6A6852F84C
:102360002400039000220DF10B0103A8FFF7DCFF0E
:10237000064630BB9DF80B20BA42EBD12BB3B8F820
:102380000020D31953451BDC4A440DF10B0103A86F
:102390000123FFF7C9FF98BBB8F800109DF80B2088
:1023A0000A44A8F800202A880134A242D6DC13B3DC
:1023B000B8F80030019A013B9B1A9BB2FF2B17D94A
:1023C0000C26304605B0BDE8F08FB8F800305A1C36
:1023D0003B440233534592B2F2DCA8F8002009F8DE
:1023E00002B0B8F80020013292B2A8F80020CBE782
:1023F00009F80230E5E70026304605B0BDE8F08F69
:102400000646304605B0BDE8F08F00BF2DE9F04725
:1024100000231788138090F82D3084B014460546A9
:102420000E46002B49D1AA78002A70D1EA78002AFA
:102430002ED16A68A2B1D91CB94225D8022192F9DD
:102440000020F154238801339BB20A212380F154E8
:10245000238801339BB22380F254238801332380E5
:102460002B89002B40F02A812B8A002B40F03F81E2
:102470002B8B002B40F054812A6A002A00F0A780A1
:1024800021888B1DBB4262D90C2004B0BDE8F087C7
:10249000D91CB942F8D80221F154238801339BB2E8
:1024A00001212380F15423880B449BB22380F254F2
:1024B00023880B449BB22380BBE7082FE4D902A8F2
:1024C000FFF72AFF0028E0D113880822CA54238886
:1024D00001339BB21B222380CA542088013080B272
:1024E0002080062208440DF1090103F0E6FE23884E
:1024F0009DF8082006339BB212F0FE0218BF01229D
:102500002380F254238801339BB223808BE704336A
:10251000BB42B9D802A8FFF703FF0028B5D1238832
:10252000BDF808200321F154238801339BB21921FF
:102530002380F154238801339BB2F1182380F25495
:10254000120A4A70238802339BB223806EE71388F5
:10255000052B40F2AF806FF4486803EB080080B2AF
:102560004FF27D3E704540F2A5805088052840F22C
:10257000A1806FF4486C84441FFA8CFCF44540F24F
:1025800099804FF6FF7E734504D0704502D0834298
:1025900000F2908005237354238801339BB21221EB
:1025A0002380F154238801339BB223801188F15496
:1025B0003344090A5970238802339BB2238052881E
:1025C000F2543344120A5A70238802332380D5F818
:1025D0002480B8F1000F30D0B8F8041020888A1C8D
:1025E000831C1344BB423FF64FAFFE2A3FF64CAF6D
:1025F00003313154238801339BB2FF222380F254EC
:10260000238801339BB22380B8F80020F25433446E
:10261000120A5A702088023080B22080B8F8042054
:102620005AB1D8F80810002944D0304403F045FED0
:10263000B8F8042023881344238095F82C30002B0D
:1026400040F08780287800283FF41FAF2B88012BAB
:1026500030D023889A1CBA423FF616AF012805D124
:102660006978023119448F42FFF40EAF023FFB1A22
:1026700004A99BB221F8083DB018FFF753FE0028CB
:102680007FF403AF2A78022A00F0AF80012A00F01D
:10269000B4800821FE2B3FF6F7AE22885D1CB554AE
:1026A0002288013292B22280B1542288013213442E
:1026B0002380EAE6072004B0BDE8F08705F10808AA
:1026C00002228DE89000404611463346FFF72EFE69
:1026D00000287FF4DAAE8DE89000404633461022A1
:1026E0000621FFF723FE00283FF4BEAECDE605F13C
:1026F00010088DE890004046334602220321FFF780
:1027000015FE00287FF4C1AE8DE8900040463346A8
:1027100010220721FFF70AFE00283FF4A9AEB4E615
:1027200005F118088DE89000404633460222142136
:10273000FFF7FCFD00287FF4A8AE8DE8900040462E
:10274000334610221521FFF7F1FD00283FF494AE27
:102750009BE6D5F82880B8F1000FABD0B8F804207C
:102760000232FE2A3FF690AE23884FF000094FF068
:10277000160A0132F254238801339BB2238006F8F3
:1027800003A0238801339BB22380B8F80020F254C1
:102790003344120A5A70238802339BB22380B8F85C
:1027A0000410F0180A4661B1D8F808301946002B19
:1027B00080D003F082FDB8F80420238813449BB234
:1027C000238009F1010995F82C205FFA89F94A451F
:1027D00009EB49087FF636AFAA6A02EB8808B8F819
:1027E00004200232FE2AC4D94EE6BDF808209342E6
:1027F000FFF44FAF134609214CE76A789342FFF488
:1028000048AF1346082145E72DE9F04395B01F2353
:102810000D46ADF80E300446002800F08480C278E2
:1028200053077CD590F82D300021ADF80C10002B0B
:1028300040F0DB8183780CAF002B40F01782194603
:10284000032014AE31445F1C023316FA87F74FF0B1
:10285000020E16FA83F601F840EC83B2012107F864
:10286000401CADF80C3006F8402C6668002E00F0D5
:102870008C80D81C1F2874D90C2015B0BDE8F083BB
:10288000A76A002F4BD0BA880232FE2AF4D8BDF8CE
:102890000C304FF0000804AE4FF016091AE003F0B8
:1028A0000CFDBDF80C30BA8894F82C1013449BB280
:1028B000ADF80C3008F101085FFA88F8884508EB9C
:1028C000480280F0F080A76A07EB8207BA880232DC
:1028D000FE2AD1D80DF1500E9E44581C01320DF144
:1028E000500C0EF8402C1CFA80F09A1C92B200F8A2
:1028F000409CADF80C203888B0543244000A507027
:102900000433B7F804E09BB27246F018ADF80C300F
:10291000BEF1000FCED0BB681946002BBFD10720F7
:1029200015B0BDE8F083ADF80C00ADB1EB78002B2D
:10293000F5D128460CA90DF10E02FFF767FD00281E
:10294000EED19DF80E300CAA20469DF80C10FFF732
:10295000E5FC15B0BDE8F0832B46ADF80E502A46D5
:10296000F2E714AF591C9A1C17FA81F13B4417FA8D
:1029700082F296F90060ADF80C0002270A2003F8F5
:10298000407C01F8400C02F8406C2389002B40F099
:102990008F80238A002B40F0AB80238B002B40F0EC
:1029A000C780226A002A42D0BDF80C30991D1F2929
:1029B0003FF662AF10880528B1D96FF4486C00EB80
:1029C0000C06B6B24FF27D37BE42A8D95688052E06
:1029D000A5D96FF4486EB6441FFA8EFEBE459ED947
:1029E0004FF6FF77B84203D0BE4201D0B04296D82E
:1029F00014A8C7185E1C10FA86F64FF0050E981C36
:102A000007F840EC80B2122706F8407CADF80C00C5
:102A10001788ADF80C1004AE3118375404333F0A50
:102A20004F709BB25288F2541E44120A7270676A49
:102A3000A7B3B888BDF80C30811C9A1C56181F2EFD
:102A40003FF61AAFFE293FF617AF14AE1E44591CCD
:102A50000DF1500E1EFA81F1033006F8400C92B2CF
:102A6000FF2001F8400CADF80C20398804AEB018F6
:102A7000B154090A41700433BA8898B2ADF80C0019
:102A800062B1B96800293FF44AAF304403F015FC45
:102A9000BDF80C30BA881344ADF80C3094F82C1003
:102AA00000297FF4EDAE2378002B61D104AC3CE724
:102AB00003A904F1080704AE4FF01F080222009199
:102AC00038463346CDF804801146FFF72FFC002826
:102AD0007FF426AF03AB0093CDF80480334638462D
:102AE00010220621FFF722FC00283FF452AF17E71F
:102AF00003AA04F1100704AE4FF01F0800923846F5
:102B00003346CDF8048002220321FFF70FFC002892
:102B10007FF406AF03AB0093CDF80480334638460C
:102B200010220721FFF702FC00283FF436AFF7E63A
:102B300003AA04F1180704AE4FF01F0800923846AC
:102B40003346CDF8048002221421FFF7EFFB002862
:102B50007FF4E6AE03AB0093CDF8048033463846ED
:102B600010221521FFF7E2FB00283FF41AAFD7E649
:102B70002288012A3FF4D3AEBDF80C20901C1F28F8
:102B80003FF67AAE012B04D1637803441F2B3FF646
:102B900073AEC2F11D0314A99BB204AE21F8203D0F
:102BA0003044FFF7BFFB00287FF4BAAE2278022A38
:102BB00000F08680012A00F08B80ADF830300820CC
:102BC000FE2B3FF659AEBDF80C2014AC511CA718D3
:102BD00014FA81F102321A44013307F8403C3446BA
:102BE000ADF80C2001F8400C9FE60CAF3846FFF71B
:102BF00093FB00287FF494AEBDF80C3014A903F1C8
:102C0000010E9A1C11FA8EFE0B4492B204AEB0185B
:102C100008211B2603F8401CADF80C200DF13101F2
:102C200006220EF8406C03F048FBBDF80C209DF81E
:102C30003010931D11F0FE019BB23BD114A8034448
:102C400003F8401CD31DA2789BB2ADF80C304AB9F2
:102C5000E278002A3FF409AED81C1F2819463FF637
:102C60000BAEEEE504331F2B3FF606AE3846FFF7FA
:102C700057FB00287FF454AEBDF80C30BDF830107F
:102C8000E278581C14AE16FA80F01E449F1C4FF0D8
:102C9000030E06F840ECBFB204AE4FF0190E00F878
:102CA00040EC0433F019F1559BB2090AADF80C3031
:102CB0004170CEE714A90B44012103F8401CC1E781
:102CC000BDF830209342FFF478AF1346092077E730
:102CD00062789342FFF471AFADF8302013460820BC
:102CE0006EE700BF75DF704776DF70477ADF7047A9
:102CF0007BDF7047184B18884FF6FF7398422AD035
:102D000010B5164A164C1378217B0133DBB2994279
:102D100082B013700CD2237C002111708BB96369CF
:102D200023B102A8002200F8042D984702B010BD7C
:102D30000C49FFF7D7FF0028F8D0A369002BF4D186
:102D4000F4E73B21FFF7D0FF0028E8D0A369002B70
:102D5000E5D09847E3E77047EE2F00203C30002095
:102D6000F02F00203430002070B51E4B1E4A5B88C7
:102D70001188994282B00FD852889A420CD31B4BCB
:102D80005B6923B102A8012200F8042D9847184C72
:102D90000023237002B070BD154C227862B1134B32
:102DA0005B69002BF4D002A8002200F8042D98479C
:102DB0000023237002B070BD0C4D0E486968067880
:102DC000AB680D48002E18BF1946FDF793F900288F
:102DD000DED0AB69002BDBD098470023237002B014
:102DE00070BD00BF2C30002034300020F02F0020B8
:102DF000EC2F00203C3000200C300020F8B50546B8
:102E00000FCD144C144F0FC4064695E8070000235D
:102E100084E807003B70B6B13068104B716803C39B
:102E2000A3F10800FFF762FF90B90D4D0D4C0E4A5B
:102E30000E4800234FF6FF762E8023701946BDE81A
:102E4000F840FDF745B90548FFF752FF0028ECD0E0
:102E5000F8BD00BFF02F0020EC2F00203430002000
:102E6000EE2F00203C300020F52C0200186D0200EF
:102E700070B50388112B27D012D9122B07D0502BF5
:102E800047D1244CC288E3899A4230D070BD0830C3
:102E900003C8214B83E80300BDE87040FFF764BF1F
:102EA000102B35D11D491B4C1B4B1D4DE48900F1E6
:102EB00010028088088092E80300002283E8030063
:102EC0002A70002CE8D070BD1449154B15484FF6F8
:102ED000FF7400220C801A70FDF762F90028D5D02B
:102EE0000C4B9B69002BD1D0BDE870401847038A7A
:102EF000022BCBD1123000F017F80028CCD10948B2
:102F0000FDF74EF90028C1D0A369002BECD1BDE735
:102F100070BD70BDF02F00202C300020EE2F00205F
:102F20003C3000200C300020007800F00100704799
:102F30008FDF70479EDF7047ADDF7047B8B110B4C8
:102F40001B2200234FF0171481610460C0F8064073
:102F5000C0F80E40027102734273027542758372AB
:102F6000C3728374C3745DF8044B184670470E2017
:102F7000704700BFF0B58D88012D83B001D903B033
:102F8000F0BD0B88212B044674D01BD93A2B00F0DE
:102F9000B180552B00F08880222B24D0EE00A3199D
:102FA0009B7A002BEBD034442846E188FFF7C2FF20
:102FB00000285BD01128E2D002466C490120FCF7C2
:102FC0006FFADCE7102B24D0112BE7D100EBC503FF
:102FD00000211B224FF01710C3F806009972D97216
:102FE0001A735A73CBE7EE0087190A7A7A738369EA
:102FF000002B39D000214DF67A2EADF80410ADF833
:10300000025069468DF80420ADF800E09847BB7A7D
:10301000C7E7EE00871903793B73CB7B012B00F0E8
:103020008680022B00F08C80F9883B898B42C0F0AF
:103030008A803B7B7A7B9A4216D24FF0000E9BB27D
:10304000724669462846ADF80030ADF80230ADF85A
:1030500004E0ADF806E0FFF76BFF28B103462A460F
:1030600043490120FCF77AFABB7A9AE70122A07261
:10307000E27284E7EE0087190B7A3A7B00209342D4
:1030800028BF13460190024669462846ADF8003035
:10309000ADF80230FFF74CFF0028E5D00246354975
:1030A0000120FCF7FDF9DFE7EE00CB888719172B2D
:1030B000F98838BF17238B4228BF0B4600223B817B
:1030C000BA722846FFF738FF002833D1FB7A002B6D
:1030D000CAD1A369002BC7D040F677213A89ADF851
:1030E0000010ADF80250ADF804206946204698471C
:1030F000BB7A56E700EBC5064B89F288934228BF9E
:103100001346172B38BF1723338182695AB1F17ADE
:1031100049B140F67721ADF80010ADF80250ADF896
:103120000430694690470023F372B37227E70188A1
:10313000F9807AE7024610490120FCF7B1F9C5E7AA
:103140004188F98071E72846FFF7F4FE10B90123A2
:10315000FB726EE7112802D10123BB7269E70246B8
:1031600002490120FCF79CF963E700BF1C6D0200D7
:10317000786D0200446E0200EC6D02000649074AB9
:10318000074B9B1A03DD043BC858D050FBDC00F012
:1031900013F8FCF76BF8000064770200902700201A
:1031A00034280020FEE7FEE7FEE7FEE7FEE7FEE745
:1031B000FEE7FEE7FEE7FEE7F0B4BA4B1A78062A10
:1031C0001BD0B94AD2F8883043F47003C2F8883073
:1031D000BFF34F8FBFF36F8F4FF01023D3F8002250
:1031E000002AC0F22D81D3F80432002BC0F22881CE
:1031F000AE4BAF4A1A60F0BC704704331B681B0724
:10320000DFD1AC4B1B6803F0F002302A00F00881DC
:1032100003F0E003402B00F00381A64B1B6803F092
:10322000F003302B00F0EE80A24B1B6803F0F0029D
:10323000302A00F0D78003F0E003402B00F0D2806A
:103240009C4B1B6803F0F003302B00F0BB80994BC4
:103250001B6803F0F002302A00F0A08003F0E003C6
:10326000402B00F09B80934B1B6803F0F003302B46
:1032700000F086808F4B1B6803F0F003302B68D082
:103280008C4B1B6803F0F003502B10D0894B1B684C
:1032900003F0F002302A03D003F0E003402B90D17A
:1032A000854B864A1B6803F04F03136089E74FF094
:1032B0008052834BD2F80414C3F82015D2F80814B6
:1032C000C3F82415D2F80C14C3F82815D2F810143A
:1032D000C3F82C15D2F81414C3F83015D2F818140A
:1032E000C3F83415D2F81C14C3F84015D2F82014D2
:1032F000C3F84415D2F82414C3F84815D2F828149A
:10330000C3F84C15D2F82C14C3F85015D2F8301469
:10331000C3F85415D2F83414C3F86015D2F8381431
:10332000C3F86415D2F83C14C3F86815D2F84014F9
:103330005C48C3F86C15D2F844140278C3F87015D1
:10334000062A7FF43EAF5F4B1B681A077FF439AF44
:103350009CE75D4E5D4C5E495E4B052701250020D4
:103360003F223760256008601A604E4B1B78062BA1
:103370007FF427AF534B1B6819077FF422AF7FE719
:10338000484B554A1B780321062B11607FF419AF77
:103390004C4B1B6818077FF414AF6BE74FF080436A
:1033A0000022C3F80C21C3F81021C3F838253D4B87
:1033B0001B78062B7FF405AF424B1B681C077FF47C
:1033C00000AF50E74549374ACB68127823F0807345
:1033D000062ACB607FF4F5AE3A4B1B681D077FF4DD
:1033E000F0AE34E73E4B2F4A1B6812783D49C3F3D9
:1033F0004233062A0B60B8D1324B1B681E077FF49C
:10340000E0AE1DE7274B384A1B7838491160062B80
:103410007FF4D7AE2B4B1B681F077FF4D2AE03E7B8
:10342000334B204A1B6812783249C3F30423062A1F
:103430000B60BCD1234B1B681B073FF4EEAEC0E60C
:103440002D4B0122C3F80425D3F80024002AFBD019
:103450004FF0102315222849C3F80022D1F8003478
:10346000002BFBD04FF010221521234BC2F8041281
:10347000D3F80024002AFBD000221F49C3F80425FA
:10348000D1F80034002BFBD0BFF34F8F06491B4B04
:10349000CA6802F4E0621343CB60BFF34F8F00BFF2
:1034A000FDE700BFE00F00F000ED00E00428002081
:1034B0000090D003E80F00F058020010E40E004026
:1034C00000C00040E40F00F0105600408856004055
:1034D0001856004014560040A0050040F0ED00E0F2
:1034E000440200103C05004074C007400DF0ADBA26
:1034F000240300104035014000E001400400FA05BB
:1035000048DF704710DF704760DF704761DF70474A
:10351000FCF740B92DE9F047DFF8B090294DD9F814
:103520000060DFF8AC80284FDFF8A8A0B6FA86F676
:1035300082B076092B7803F0FF04002B36D101A866
:10354000FFF7DEFF052834D010B3FCF713F94EBBAC
:103550002B7803F0FF063BB128E0FCF70BF9002CB9
:10356000E8D02B7801240BBB3B68B8F80020ADF8FD
:103570000420184601A9FFF7C9FF052814D0002828
:10358000EBD11846D9F800309847002CE9D1D1E7A3
:103590000198FDF7A9FDDAF8003073B1019898475A
:1035A000002ED5D00126C5E7002CFBD002B0BDE827
:1035B000F087002EFAD10124CAE7002EC8D00126D8
:1035C000B8E700BF493000205030002040300020D4
:1035D0003E3000204C300020014B1878704700BF6F
:1035E0004830002011B111F0030F01D007207047BF
:1035F000F8B51A4F1A4E1B4D1B4C396032802B60A8
:103600002368DB0708D50123C4F880301749FFF78A
:1036100079FF30B12360F8BD1449FFF773FF00B1A3
:10362000F8BD134B01221A70FDF76EFD0E4A92F899
:103630001633C3F34113012B0CD90E4B986818B9FC
:103640004FF480031360F8BD1A6842F480021A60D8
:103650000020F8BD42F20200F8BD00BF503000204B
:103660003E3000204430002000E100E0113502002F
:10367000483000202C610020034618B1024A002087
:10368000136070470E2070474030002008B5094B8A
:103690001B6833B1984700B908BDBDE80840FCF786
:1036A00069B8054B1B78002BF6D0BDE80840FFF742
:1036B00031BF00BF443000204830002082B0034BAF
:1036C0000193019B0360002002B070479027002007
:1036D00010B5034682B002A81A6840F8042DFFF71F
:1036E00013FF019A1B68934204460BD110B9204680
:1036F00002B010BD02460D490120FBF7D1FE204665
:1037000002B010BD0A490220FBF7CAFE4FF08053F9
:10371000019AD3F80C310749C2EB832202F100521F
:103720000220FBF7BDFE204602B010BD0C6F020068
:10373000A46E0200D86E02002DE9F041684B1A68B1
:1037400088B0002A3CD1674F97F82E30002B45D126
:10375000654B1A68002A5ED1644B1C68002C6AD144
:103760007E699EB14FF000480125B6FA86F29300BB
:1037700003F58C7303F1804101F5E04128FA02F270
:10378000086826EA020620B9002EEED108B0BDE88E
:10379000F081A3F58C730C6083F004020968049136
:1037A000C2F38002DB088DF819208DF818308DF8EF
:1037B00014503B68049A05A89847002ED5D1E5E738
:1037C0000022484F1A60196897F82E30009100992E
:1037D000002B39D097F82F30002B4ED1444B1A686C
:1037E000002AB5D000221A6097F82D0019687B8B4B
:1037F000019184B2A34201994ED85FD0384B3D4A23
:10380000002119601B680293012302991360364B53
:103810001A68002AA0D000221A6008A81B68039327
:10382000022100F80C1D3B6803993A7498472F4B0E
:103830001C68002C94D000221A601B680593059B1D
:103840003A7408B0BDE8F081FA68786839898DF873
:1038500014300690ADF81C10002A2CD02648398B65
:103860007A600122FB607983398102603B6805A898
:103870009847002387F82F3066E7FB687868398916
:103880008DF814200690ADF81C10A3B1398B7B6025
:10389000FA6079833981E9E73A897968164D1B1B0B
:1038A0009BB292B2D21A01EB42027B83C5F82C265E
:1038B000C5F83006A2E700233B74D7E7FB684BB19D
:1038C0000D497A83012287F82F20C1F82C36C1F8E0
:1038D000300693E701227B8387F82F208EE700BF15
:1038E00004710040543000201071004014710040F9
:1038F00000710040047000400070004070B5244C1E
:1039000094F82C3082B013B1082002B070BD0029A9
:1039100038D0002838D003781E4D2160C5F8F03526
:1039200043781D4AC5F8F4356FF000410023237435
:10393000C678C5F80813136011680191019942F81F
:10394000043C043A81781268009284F82E600720C3
:10395000012684F82D30636184F82F3084F82C60C0
:10396000009BFDF703FC94F82E300222C5F80423D7
:103970000BB1C5F80463074B01220020C3F80025F2
:1039800002B070BD0720C0E704480123C4E700BFB0
:103990005430002000700040047100404C6F020061
:1039A00038B51D4B1A7C0AB1112038BD02F0FF0456
:1039B0000A79012A9CBF194AC2F8004500F10C029D
:1039C00003EB42042479D4B10D4603EB4203C979D9
:1039D0002A7A19715A710446294600F02BF9200100
:1039E00000F1804000F5E040EB792A7AC0F8142518
:1039F000C0F810352B79012B07D9002038BD93F87A
:103A00002D40013483F82D40DEE7044B0122C3F83A
:103A10000025002038BD00BF543000200070004059
:103A2000F0B42C4A2C4B1224C2F808431D7C022D02
:103A300082B01CD01C7C012C1FD093F82E40586003
:103A4000022701250026C2F804731D74DE60198167
:103A5000E4B9224BC2F82C06C2F830161C601B6871
:103A60000193019B1560204602B0F0BC7047112005
:103A7000C2F8044302B0F0BC7047DC688CB102238A
:103A80001120C2F8043302B0F0BC704793F82D4007
:103A9000C2F82C0630465983C2F8304602B0F0BC5A
:103AA000704793F82E20D86019836AB90B4A1368BF
:103AB000002BFCD0002313601268064B0092009A82
:103AC000C3F82C06C3F83016024B0222C3F80423B5
:103AD0000020C9E700700040543000200071004011
:103AE000084A137CDBB2012B01D00820704792F802
:103AF0002E0010B9044A13607047044A0020136076
:103B0000704700BF54300020047000400070004037
:103B10000C4A137C0BB11120704730B403F0FF0046
:103B2000094B0A4C0A490225157482B018601B68BB
:103B30000193019D10220123C4F804230B6002B0FD
:103B400030BC7047543000201071004000700040BD
:103B50000C700040024B187C003018BF01207047E9
:103B60005430002011490B7CEBB110B4104B1148BC
:103B700000221A6083B01B6801930123019C03603B
:103B80000B7C022B10D00B7C3BB142F2107301E096
:103B9000013B02D00A7C002AFAD100234B60CB60A3
:103BA00003B05DF8044B70470A74F6E75430002008
:103BB0001471004008700040F0B41C4E8CB206EB4B
:103BC000001344EA0244C3F81C45194C4000802508
:103BD00011F5006F05FA00F500F1010761691CD0CD
:103BE0004FF00043FB40C6F804530B4340F2FF750F
:103BF000AA424FF040014FF0004201FA00F10B4D94
:103C0000636122FA00F00BBF83430343C5F8081336
:103C1000C5F804136361F0BC70474FF00043FB40EC
:103C2000C6F8085321EA0303E0E700BF0070004034
:103C300054300020F0B44B788C780F78CA780E7925
:103C40004D791B01240204F4E06403F030032343A4
:103C5000120307F00304234302F480528C793604E4
:103C6000134306F4E02602012D05334305F48015C5
:103C7000240602F1804202F5E0422B4304F08074F6
:103C80002343C2F818351046CB790A7AC0F81425B8
:103C9000C0F81035F0BC70470378022B02D0012B1E
:103CA00000D070474068FBF765BD00BF70B5134E8C
:103CB00033788AB00BB10AB070BD114D114B00932F
:103CC0000FCD04AC0FC495E803000F4A84E803004D
:103CD0004FF480750D4C01950723694604A80395A0
:103CE0000294FDF7A5FD18B9012333700AB070BD29
:103CF000FBF740FD01233370F8E700BF843000205C
:103D0000506F020088300020993C0200883100206A
:103D10000FB4F0B5224E33789FB01BB305AC25AB82
:103D20001A4624990193204602F036FB204602F001
:103D300013FB40B125182078FDF7ECFD0028FAD1DF
:103D40000134AC42F7D10A20FDF7E4FD0028FAD196
:103D50000D20FDF7DFFD0028FAD11FB0BDE8F040CF
:103D600004B070470F4C104B01930FCC05AD0FC53D
:103D700094E8030005AC85E803000C4F0C4A039758
:103D80004FF480752046072301A902950495FDF79D
:103D90004FFD08B1FBF7EEFC01233370BFE700BF16
:103DA00084300020506F02008830002088310020CD
:103DB000993C0200FDF702BA00F5E0724FF0A04313
:103DC00010B4032443F82240012202FA00F021B18A
:103DD000C3F808055DF8044B7047C3F80C055DF89F
:103DE000044B70474FF0A0410122D1F8043502FA8C
:103DF00000F020EA03020340C1F80825C1F80C35A1
:103E0000704700BF08B50549054B0648CF22FFF7AC
:103E10007FFFFFF77DFE0028FBD108BD686F020021
:103E200008700200986F0200F0B5047883B0054670
:103E30007CB9214E337893B901216868FFF7F0FD12
:103E40001E4B1B684BB16A68B2F90000984703B07B
:103E5000F0BD022C1DD0012C15D003B0F0BDFFF732
:103E600079FE58B1164B1C70FFF77CFE01A800F0DC
:103E700001F901A8134A012100F03EF93378002B23
:103E8000DAD003B0F0BD02790F4B53F822309847D7
:103E9000E3E701210D480A4F074DFFF7C1FD0C4A2A
:103EA0000C4B0D490D4801240026147084223C70EF
:103EB0002E70FFF72DFFD0E788320020B0320020AF
:103EC000CD320020053E0200903200208C320020CE
:103ED000CC32002014700200686F0200BC6F020038
:103EE00000220270704700BF234B1B787BBB2DE97B
:103EF000F041224D2B7884B00C46064601AF3BB30F
:103F000000231F4D8DF80B40394601221846022729
:103F10002C788DF807308DF806308DF809308DF843
:103F20000C308DF804308DF805208DF80870FFF7FF
:103F300037FD144AD2F8183543F08073C2F81835AB
:103F400034702B7801332B7004B0BDE8F0817047DA
:103F50004FF0010804228DF80730384607230A493C
:103F60008DF804808DF805208DF80630FFF7C6FC2B
:103F700085F80080C4E700BFCC320020CE3200209C
:103F8000AC32002000700040293E02000278024B53
:103F900043F82210704700BFB032002038B5044605
:103FA0001D4671B109B240F2FF73002A08BF1A46DC
:103FB00012B22078FFF700FE2178034A42F8215020
:103FC00038BD0249EFE700BF9032002000F8FFFF44
:103FD0000078024940F2FF72FFF7EEBD00F8FFFFE4
:103FE00010B5074C01212046FFF71AFD0121A01C46
:103FF000FFF716FD0349044A01230B70137010BD2F
:104000008C320020CC320020CD320020024B1B78B5
:1040100003B97047FFF764BDCD32002008B5CA224E
:10402000044B05490548FFF773FE054B01221A7042
:1040300008BD00BF24700200686F0200E46F020038
:104040008832002010B5084C237803B110BDFCF76E
:104050009FFF08B1FBF78EFB0020FCF7BDFFFBF7CD
:1040600075FF0123237010BD11340020FCF7D4B874
:10407000FCF7D8B8054B1A78092A06DC044901EB8D
:10408000421202601A7801321A7070471034002010
:10409000D0320020F8B5174D2B7804460E4617464F
:1040A000D3B13A4601212046FCF712F808B1FBF7DC
:1040B00061FB4FF400434FF4FA700021E3FB06016B
:1040C0004FF47A72002300F0EDFF002201462068D1
:1040D000BDE8F840FCF70EB8FCF75AFF38B90020ED
:1040E000FCF77AFFFBF732FF01232B70D9E7FBF7D0
:1040F00041FBF4E711340020F8B5174D2B78044646
:104100000E461746D3B13A4600212046FBF7E0FFA2
:1041100008B1FBF72FFB4FF400434FF4FA70002176
:10412000E3FB06014FF47A72002300F0BBFF00228C
:1041300001462068BDE8F840FBF7DCBFFCF728FF2C
:1041400038B90020FCF748FFFBF700FF01232B7074
:10415000D9E7FBF70FFBF4E711340020024B0349CA
:1041600003481722FFF7D4BD907002003870020098
:1041700060700200042210B40F4C44608460C4607C
:10418000046144618461C46104624462017080F826
:10419000282080F8292080F82A2080F82B2080F819
:1041A0002C2080F82D2080F82E2080F82F2080F8F9
:1041B00030205DF8044B70475D41020001EB410186
:1041C00010B4CC1801440B4400EB84000199416009
:1041D00083F828205DF8044B704700BF027838B59B
:1041E00002EB42020A4400EB8202044653680D4689
:1041F0009847237803EB43032344591991F8283057
:10420000237038BD10B5ADF59C6D22A800F096FA6C
:104210001E4B0FCB03AC84E80F0005AB93E8030003
:1042200094E80C008DE8030022A84CF2010100F094
:1042300073FB07A800F0AEFB4FF6E16107A800F0A2
:10424000DFFB07A800F018FC07A800F02FFC07A868
:1042500000F044FC002407A80DF10B0101228DF8A9
:104260000B4000F059FC07A8322100F05FFC224609
:1042700007A922A800F074FB22A800F02BFB21461E
:1042800022A800F08BF80DF59C6D10BDA070020007
:1042900000B5ADF25C4D684600F050FA684641F654
:1042A0000A0100F055FB684600F014FB6846012146
:1042B00000F074F80DF25C4D5DF804FB00B50020D1
:1042C00083B000F07FF8037F00930449044B054856
:1042D0005A22FFF71DFD03B05DF804FBB070020029
:1042E00040710200D470020000B5002083B000F0DD
:1042F00069F8002100F046FB00F024FC044B00901C
:104300005F2204490448FFF703FD03B05DF804FB96
:1043100064710200B07002002071020038B50546D9
:1043200000F084F90A4B0B490B480C4C6522FFF74F
:10433000EFFC2846FFF766FF2846FFF7A9FF204657
:10434000282100F01FFC2046BDE8384000F04CBC9E
:1043500050710200B0700200F8700200A85F0020E7
:10436000004870471434002076DF70477ADF7047CA
:104370007FDF7047A8DF7047A9DF704769DF7047AC
:1043800066DF7047FBF7F6B9037803B17047024B5D
:104390003B211888FFF7E8BF0828002008B5074B25
:1043A0004FF48B6202FB01330146184601F085FF92
:1043B000034A13780133137008BD00BF3434002062
:1043C000A45F0020024B4FF48B6202FB0030704769
:1043D0003434002030B50388132B85B067D00446F1
:1043E00012D9512B4ED034D9522B29D0562B15D15E
:1043F000334B344934488722FFF78AFCA0881321C5
:10440000FFF7B2FF05B030BD102B30D0112B07D015
:10441000012B03D180880021FFF7B2FF05B030BD2A
:104420002A482B4CFFF774FC2A4B2B4800224FF6EE
:10443000FF75282125801A7000F0A4FB05B030BD5F
:10444000234A0023108819461A46FFF795FF05B046
:1044500030BD3B2BE2D11A4B1A4920487F22FFF78F
:1044600057FCA0881321FFF77FFF05B030BD1C4823
:10447000FFF74EFC164A174BA188118001221A70D3
:1044800005B030BD8379002BC8D0827B043A022A64
:10449000C4D8022B18BF01238DF8003069464FF4B1
:1044A000C1738088ADF80430FFF764FFB6E7084AAF
:1044B0000023108885211A46FFF75AFF05B030BD4A
:1044C0002C720200AC710200F87102008C710200C3
:1044D00008280020A55F0020A85F0020D4710200FA
:1044E0007471020038B50546454CFFF773FF284646
:1044F000FEF7BEFC29464348FEF73CFD637F002BD8
:104500002AD194F87534002B2ED194F8CD38002B95
:1045100032D194F8253D002B36D141F27D13E35C76
:10452000002B3AD141F2D553E35C002B3ED141F64A
:104530002D23E35C002B42D141F68563E35C002B25
:1045400046D142F2DD23E35C002B4AD142F23573BF
:10455000E35C002B4ED138BD2946204600F012F90D
:1045600094F87534002BD0D02946274800F00AF97A
:1045700094F8CD38002BCCD02946244800F002F91D
:1045800094F8253D002BC8D02946214800F0FAF8C0
:1045900041F27D13E35C002BC4D029461D4800F096
:1045A000F1F841F2D553E35C002BC0D029461A48FC
:1045B00000F0E8F841F62D23E35C002BBCD029463F
:1045C000164800F0DFF841F68563E35C002BB8D0B5
:1045D0002946134800F0D6F842F2DD23E35C002BB5
:1045E000B4D029460F4800F0CDF842F23573E35CB1
:1045F000002BB0D029460C48BDE8384000F0C2B8C6
:1046000034340020183400208C380020E43C002092
:104610003C41002094450020EC490020444E0020FD
:104620009C520020F45600204C5B002070B52E4BAD
:104630002E491A688AB00AA8002340F8242D502277
:10464000FEF7D0FF08B1FBF795F80AAD002445F856
:10465000204D2846FFF732F8214603A80C22FAF72E
:1046600077FE0223029A8DF80C3003A940208DF8C2
:104670000D408DF80E40FFF781FE2846FFF728F821
:104680001B48FEF7F9FF1B491B4800F093FA21462F
:10469000082203A8FAF75CFE184B039303A84FF017
:1046A000C8730493FFF762FE21461548FEF746FCE7
:1046B000214603A81C22FAF74BFE4FF420260321C3
:1046C000104A114B039403A84FF42035ADF81A405B
:1046D0008DF81C40049605958DF8181008920993E2
:1046E000FEF78CFB0AB070BD7071020040600020C4
:1046F000E54402001C720200A85F00205000A000E8
:1047000018340020894302008543020038B506486A
:10471000064C074D00F022FA204604F58B6400F0A9
:104720000DF8AC42F8D138BDA85F00203434002029
:10473000A45F0020A0DF704762DF704770B50646B7
:1047400000F1200400F58B6520466C3400F022F95E
:10475000AC42F9D1082200213046FAF7F9FD1022C7
:10476000002106F10800FAF7F3FD05490B88738371
:10477000002201330B80327632777277304670BD7B
:104780009060002010B50B88102B044600F09E802E
:10479000112B3CD094F8873004F12000002B3FD13E
:1047A00094F8F33004F18C00002B42D194F85F317F
:1047B00004F1F800002B45D194F8CB3104F5B27028
:1047C000002B48D194F8373204F5E870002B4BD118
:1047D00094F8A33204F50F70002B4ED194F80F33E8
:1047E00004F52A70002B51D194F87B3304F5457001
:1047F000002B54D194F8E73304F56070002B57D1A7
:1048000094F8533404F57B70002B5AD110BD4FF649
:10481000FF73038094F8873004F12000002BBFD091
:10482000218800F093F994F8F33004F18C00002B08
:10483000BCD0218800F08AF994F85F3104F1F800C7
:10484000002BB9D0218800F081F994F8CB3104F520
:10485000B270002BB6D0218800F078F994F8373286
:1048600004F5E870002BB3D0218800F06FF994F8BC
:10487000A33204F50F70002BB0D0218800F066F948
:1048800094F80F3304F52A70002BADD0218800F086
:104890005DF994F87B3304F54570002BAAD021888C
:1048A00000F054F994F8E73304F56070002BA7D0BA
:1048B000218800F04BF994F8533404F57B70002BF9
:1048C000A4D02188BDE8104000F040B98B88038057
:1048D00060E700BF037F012B00D0704770B505462D
:1048E000AA1C1846291DFFF725FF05F1200405F530
:1048F0008B6602E06C34B4420BD0204600F022F903
:104900000028F7D0204669886C3400F089F8B4425A
:10491000F3D101236B7770BD82B070B504AC84E82D
:104920000C0004AB04460E460FCB04F1080585E8E5
:104930000F002846A11DFFF7FFFE4FF6FF7201236F
:10494000A68022802377BDE8704002B0704700BF88
:1049500001234FF6FF7281800280837103777047D5
:1049600070B506460D460846B179144600F050F879
:104970006C2000FB046029466B22203001F09DFC76
:1049800070BD00BF6C2303FB01002030704700BFE7
:10499000A2DF704710B50822044600215C30FAF708
:1049A000D7FC04F1340004220021FAF7D1FC04F111
:1049B0001C0003220021FAF7CBFC20461C22002118
:1049C000FAF7C6FC04F1480003220021FAF7C0FC04
:1049D00004F1200014220021FAF7BAFC00234FF65C
:1049E000FF72A4F8642084F8663084F8673084F895
:1049F000683084F8693084F86A30204610BD00BF02
:104A000090F83630818613B1012380F86630704704
:104A1000838E80F8361013B1012380F8663070471A
:104A200090F8663013B190F867302BB10F4B1049F6
:104A300010485A22FFF76CB970B590F84A30044616
:104A4000012500F1480265F3420300F1340684F8C1
:104A50004A3008466262266204F15C0304F12002D7
:104A60002146FFF795FF84F8675070BD98720200E9
:104A7000387202006472020090F848300278012116
:104A800010B490F84A4080F86A1061F303036FF3A2
:104A9000C30442F0020261F3071380F84A40027037
:104AA00080F848305DF8044B704700BF90F84930FB
:104AB000027890F84A1010B4012464F3030364F3FD
:104AC000071342F008026FF30411027080F84A10D5
