:020000022000DC
:1030000000000120399C0200619C0200639C0200C8
:10301000659C0200679C0200699C020000000000A1
:103020000000000000000000000000006B9C020097
:103030006D9C0200000000006F9C0200719C020069
:103040008D750200739C02003183020039890200F1
:10305000F9890200739C0200D5790200739C02007A
:10306000739C0200739C0200739C0200739C02001C
:10307000739C0200739C0200739C0200739C02000C
:10308000739C0200E1420200739C0200739C0200E8
:1030900081430200739C0200EDA10200739C0200B8
:1030A000739C0200739C0200739C0200739C0200DC
:1030B000739C0200739C02000000000000000000EE
:1030C000739C0200739C0200739C0200739C0200BC
:1030D000739C0200739C0200739C020000000000BD
:1030E00000000000000000000000000000000000E0
:1030F00000000000000000000000000000000000D0
:1031000000000000000000000000000000000000BF
:1031100000000000000000000000000000000000AF
:10312000000000000000000000000000000000009F
:10313000000000000000000000000000000000008F
:10314000000000000000000000000000000000007F
:10315000000000000000000000000000000000006F
:10316000000000000000000000000000000000005F
:10317000000000000000000000000000000000004F
:10318000000000000000000000000000000000003F
:10319000000000000000000000000000000000002F
:1031A000000000000000000000000000000000001F
:1031B000000000000000000000000000000000000F
:1031C00000000000000000000000000000000000FF
:1031D00000000000000000000000000000000000EF
:1031E00000000000000000000000000000000000DF
:1031F00000000000000000000000000000000000CF
:1032000010B5054C237833B9044B13B10448AFF320
:1032100000800123237010BDF8230020000000006F
:10322000F00F03000C4B43B10C480D4910B5AFF340
:1032300000800C48036823B910BD0A48036833B9FD
:103240007047094B002BF7D0BDE810401847064BDC
:10325000002BF5D0184700BF00000000F00F03005E
:10326000FC2300205C23002000000000154B002BF5
:1032700008BF134B9D46A3F5803A00218B460F46AD
:103280001348144A121A0AF082FA0F4B002B00D08E
:1032900098470E4B002B00D09847002000210400D7
:1032A0000D000D48002802D00C48AFF300800AF052
:1032B0000FFA200029000AF097F90AF0F5F900BF8B
:1032C00000000800000001200000000000000000D5
:1032D000F8230020A076002000000000000000007D
:1032E000F0B595B0002415460F4608461E4603F07B
:1032F00055FA384623460822089505A91A9D0996CD
:103300000D950A948DF82C400C9403F0ADFA9DF8BD
:103310001430079806998DF8104003F00302012A33
:103320000290ADF80C102CD0022A04D0384603F0DD
:1033300045FA15B0F0BDBDF81650C3F3C202C3F391
:103340008003C5F389158DF80E208DF80F300826FF
:10335000082D2C4628BF0824334622460EA938469D
:1033600003F082FA2D1B214608AB02AA0EA82644C0
:1033700000F0D2FE002DEBD1384603F01FFA15B055
:10338000F0BDBDF814500598C5F38315C3F3C20E04
:10339000AA000EA9C3F38004C0F39526082338467B
:1033A0008DF80EE08DF80F4003F05EFA08AB009345
:1033B0002A4630460EA902AB00F016FEB6E700BF63
:1033C000704700BF00B583B0044B0093044A40230C
:1033D000FFF786FF03B05DF804FB00BFE533020092
:1033E0001824002010B5094C09480023D2B22370DC
:1033F00004F0F4FE30B9074B1B7813B12378002B8F
:10340000FCD010BD00F028FFF5E700BF58240020D5
:10341000002100201424002070B50E4D0E4888B005
:1034200004F058FE0FCD6C460FC495E80F0008ADB0
:10343000052645F8206D84E80F002946002206483D
:1034400004F05CFD08B100F007FF044B00221A7085
:1034500008B070BDB0F70200002100201424002045
:1034600070B50D4D0FCD88B06C460FC495E80F00B8
:1034700008AD052645F8206D84E80F002946002296
:10348000064804F03BFD08B100F0E6FE044B0022C4
:103490001A7008B070BD00BFB0F702000021002014
:1034A0001424002010B5054CFFF7DAFF2046042154
:1034B00000F05AFD0123637210BD00BF08210020F7
:1034C000104B114810B50022FF240121C3F8182425
:1034D0009C6083F81C141A605A60C3F8142403F02B
:1034E00013F968B909490A4BC91AC90808D0094C27
:1034F00002460346A3520133994202F10C02F9D16C
:1035000010BD00BF5C240020DCF702008410030023
:103510002C1003007423002021B9124A02EBC000D2
:103520000068704730B410490E4D491BC9080ED0D1
:103530000E4B5A88824218BF002205D10FE0DC8969
:10354000844203F10C0305D001329142F7D10020EF
:1035500030BC704705EBC200006830BC704728469D
:10356000FAE700BF2C10030084100300742300202E
:10357000064B032903EBC00005D0042901D1407993
:103580007047002070470079704700BF2C1003007F
:103590002DE9F0477E4C94E80C009A4284B03AD072
:1035A0000023C4F81834BFF34F8F6068A56800EAA1
:1035B0000506F31C04EB830114F823309F07024631
:1035C00010D10B884988C3F3891303EB911301339E
:1035D0001A4405EA0206F31C04EB830114F82330B5
:1035E0009B07EED004EB8606531CF16801912B403B
:1035F00004EB830301F00301DB680293022902F16B
:1036000002080CD001296ED02368181A18BF0120B7
:1036100004B0BDE8F087002004B0BDE8F087BDF835
:1036200006305C48C3F389194F46502FA8BF502776
:1036300067F38F1307F10801ADF8063003F066F861
:10364000064600284DD025EA080A0AF1010A03F0CF
:10365000A5F84FEA8A0A0023082201A9304603F0A0
:10366000D5F8574540F28780BAF1000F7CD005EAC3
:1036700008010331A7EB0A0504EB81010823524638
:103680003046EDB203F0C2F82A460AF10803424977
:10369000304603F0BBF809F1030708EB9707D4F8AD
:1036A0001834002B5BD1D4F810544DB16B7A3146ED
:1036B000284613B12B681B6898476D68002DF5D11B
:1036C000304603F07BF804A8002300F80D3D01F01C
:1036D000E7FAD4F8183403B967609DF8030001F0E5
:1036E00005FB606890E7BDF804302A48C3F38312F5
:1036F000062A28BF0622911C62F389138900ADF8BF
:10370000043003F003F806460028EAD003F046F838
:103710000023082201A9304603F078F8BDF80430F0
:1037200013F4707F32D04FF0000A4FF0080908EA16
:10373000050103314B4604EB81010422304603F0BE
:1037400065F8BDF804300AF1010AC3F3831308F1E8
:103750000107534509F10409B846E8D89FE7304608
:1037600003F02CF860684FE73A4608230A493046D0
:1037700003F04CF88FE705EA0801033104EB8101FF
:103780003A460823304603F041F884E7474686E787
:103790005C240020DCF70200682400202DE9F04FB3
:1037A00087B006AB0025574C03F80D5D80461846E0
:1037B000A3680093019101F073FAA0686768D4F8D8
:1037C0000090C3190133A3EB0903032B5BD800F16D
:1037D000010AAE46AAEB090A04F5836C04F214460A
:1037E00001255CE8003F43EA05024CE8002191F026
:1037F000000FF6D156E8003F43EA050246E80021F3
:1038000091F0000FF6D100EA070B0BF1030304EB74
:10381000830114F823309B073A4611D10B8849885D
:10382000C3F3891303EB911301331A4400EA020B2B
:103830000BF1030304EB830114F823309B07EDD055
:1038400004EB8B0B0232DBF80C30039303F0030321
:10385000012B50D0022B06D1BDF80E30C3F38913D3
:10386000033302EB930256E8003F03EA0E0146E8F9
:10387000001B9BF0000FF6D10BB1626017460AEBFC
:103880000703032BADD909F102039DF80B00236058
:1038900001F02CFA009800EA09030333012114F81F
:1038A000232061F30102C8F3001161F3820268F37F
:1038B000C50204F8232034F8232001996FF38912FC
:1038C00024F8232054F8232061F39F2244F8232076
:1038D00009F1010909EA000304EB830394F81C24AD
:1038E0004FEA1841D9601AB1FFF752FE0028FBD108
:1038F00007B0BDE8F08FBDF80C30C3F383131A4452
:10390000B1E700BF5C2400202DE9F04F89B008AB7F
:10391000002503F80D5D5B4C0291074618460392A3
:10392000D4F8089001F0BCF994E80041A06800EBDD
:103930000E030133A3EB0803042B5ED800F1010A48
:10394000AC46AAEB080A04F21446012501974E4F33
:1039500057E8003F43EA050247E8002191F0000FD5
:10396000F6D156E8003F43EA050246E8002191F00F
:10397000000FF6D100EA0E0B0BF1030304EB8301F9
:1039800014F823309F07724613D1019F0B88498892
:10399000C3F3891303EB911301331A4400EA020BBA
:1039A0000BF1030304EB830114F823309B07EDD0E4
:1039B000019704EB8B0B0232DBF80C30059303F01C
:1039C0000303012B58D0022B06D1BDF81630C3F3E8
:1039D0008913033302EB930256E8003F03EA0C011C
:1039E00046E8001B9BF0000FF6D10BB162609646D3
:1039F0000AEB0E03042BAAD9019F9DF8130008F1CE
:103A00000303236001F072F909EA0803033301217B
:103A100014F82320C7F3001061F3010260F382025F
:103A200067F3C50204F8232034F8232061F38912D8
:103A300024F82320029954F8232061F39F2244F8AC
:103A4000232008F1010303EA090308F1020804EB4B
:103A5000830308EA090904EB89093F0C94F81C2444
:103A6000DF60039BC9F80C301AB1FFF791FD002805
:103A7000FBD109B0BDE8F08FBDF81430C3F3831358
:103A80001A44A9E75C240020742800202DE9F04F97
:103A900089B008AE002506F80D5D5F4C00903046F9
:103AA000039301910292D4F8089001F0F9F8A0680C
:103AB0006768D4F80080C3190133A3EB0803052B12
:103AC0005BD800F1010AAE46AAEB080A04F5836C44
:103AD00004F2144601255CE8003F43EA05024CE885
:103AE000002191F0000FF6D156E8003F43EA0502AD
:103AF00046E8002191F0000FF6D107EA000B0BF128
:103B0000030304EB830114F823309B073A4611D1D9
:103B10000B884988C3F3891303EB911301331A44CB
:103B200000EA020B0BF1030304EB830114F82330CA
:103B30009B07EDD004EB8B0B0232DBF80C300593C6
:103B400003F00303012B60D0022B06D1BDF8163021
:103B5000C3F38913033302EB930256E8003F03EAF1
:103B60000E0146E8001B9BF0000FF6D10BB162601E
:103B700017460AEB0703052BADD908F104039DF89E
:103B80001300236001F0B2F809EA08030333009D33
:103B900014F82320012161F30102C5F3001161F340
:103BA000820265F3C50204F8232034F823200221A1
:103BB00061F3891224F82320019954F8232061F33A
:103BC0009F2244F8232008F1010208F1020302EACF
:103BD000090204EB820203EA090308F1030804EB7B
:103BE000830308EA0909280CD06094F81C14029A8F
:103BF000DA6004EB8904039BE36019B1FFF7C8FCAA
:103C00000028FBD109B0BDE8F08FBDF81430C3F334
:103C100083131A44A1E700BF5C2400202DE9F04F74
:103C200089B008AF002507F80D5D614C009038465B
:103C30000393A6680191029201F032F894E80041E2
:103C4000A06800EB0E030133A3EB0803062B5BD83F
:103C500000F1010AAC46AAEB080A04F5836904F2F4
:103C60001447012559E8003F43EA050249E80021CD
:103C700091F0000FF6D157E8003F43EA050247E80C
:103C8000002191F0000FF6D100EA0E0B0BF10303B7
:103C900004EB830114F823309B07724611D10B8883
:103CA0004988C3F3891303EB911301331A4400EAE3
:103CB000020B0BF1030304EB830114F823309B0781
:103CC000EDD004EB8B0B0232DBF80C30059303F0E4
:103CD0000303012B65D0022B06D1BDF81630C3F3C8
:103CE0008913033302EB930257E8003F03EA0C0108
:103CF00047E8001B9BF0000FF6D10BB162609646BF
:103D00000AEB0E03062BADD908F105039DF813004D
:103D1000236000F0EBFF06EA08030333009D14F86C
:103D20002320012161F30102C5F3001161F3820236
:103D300065F3C50204F8232034F82320032161F33E
:103D4000891224F82320019954F8232061F39F223B
:103D500008F1010144F82320314008F1020204EB8C
:103D6000810108F10303324004EB8202334008F181
:103D700004082D0CCD6004EB830308EA06060299C3
:103D8000D16094F81C04039ADA6004EB8604129B59
:103D9000E36018B1FFF7FCFB0028FBD109B0BDE8D8
:103DA000F08FBDF81430C3F383131A449CE700BFAF
:103DB0005C2400202DE9F04F8DB00CAF4FF00009CE
:103DC00007F81D9D674C169D009003933846099394
:103DD000179B0B93A6680A9502920892019100F036
:103DE0005FFF94E80041A06800EB0E030133A3EBF2
:103DF0000803072B5BD800F1010ACC46AAEB080A9E
:103E000004F5836904F21447012559E8003F43EAA9
:103E1000050249E8002191F0000FF6D157E8003F74
:103E200043EA050247E8002191F0000FF6D100EACD
:103E30000E0B0BF1030304EB830114F823309B07F3
:103E4000724611D10B884988C3F3891303EB911390
:103E500001331A4400EA020B0BF1030304EB830164
:103E600014F823309B07EDD004EB8B0B0232DBF808
:103E70000C30059303F00303012B6CD0022B06D109
:103E8000BDF81630C3F38913033302EB930257E8EE
:103E9000003F03EA0C0147E8001B9BF0000FF6D13E
:103EA0000BB1626096460AEB0E03072BADD908F101
:103EB00006039DF81300236000F018FF06EA0803CC
:103EC0000333009F14F82320012161F30102C7F39B
:103ED000001161F3820267F3C50204F8232034F86D
:103EE0002320042161F3891224F82320019954F836
:103EF000232008F1010061F39F2244F8232008F1F8
:103F0000030108F1020308F10402304008F105083A
:103F100004EB800033403140324008EA060604EBEF
:103F2000830304EB810104EB820294F81C5404EB3C
:103F300086043E0CC6600298D860039BCB60169B3B
:103F4000D360179BE3601DB1FFF722FB0028FBD174
:103F50000DB0BDE8F08FBDF81430C3F383131A44DD
:103F600095E700BF5C24002030B4144DD5F8104410
:103F7000002154B1237A8B4213D0234602E01A7AEF
:103F80008A420ED05B68002BF9D10172D5F810344B
:103F90007BB15B684360D5F810345860084630BC8C
:103FA000704701310A29E4D14FF0FF31084630BC97
:103FB0007047C5F810044360F0E700BF5C240020A0
:103FC00038B5084BD3F81044012583F81C543CB194
:103FD0002368657220465B6898476468002CF7D1B7
:103FE00038BD00BF5C2400202DE9F04784B01D4699
:103FF0000C9C002394F80C802373EB7981460E46C9
:1040000017460BB3062F0FD8DFE807F0363B4148C1
:1040100004515E00F168B06896E80C0001910090D0
:104020004946204602F0B0FEEB792BB92B7AEBB96A
:104030003349204602F0A8FE204602F099FE84F89B
:104040000C8004B0BDE8F0872B7A002B4BD1AA7905
:104050002C4BA88853F822A00021FFF75DFA5246A6
:1040600003462949204602F08FFECBE7274A28491C
:10407000204602F089FEDBE74946204602F084FE36
:10408000D2E732684946204602F07EFECCE7494638
:1040900096E80C00204602F077FEC5E7B16896E886
:1040A0000C0020460091494602F06EFEBCE7B06865
:1040B000F768316996E80C0002918DE88100494665
:1040C000204602F061FEAFE77069316996E80C00A6
:1040D0000390B068F76802918DE881004946204658
:1040E00002F052FEA0E7A979A888FFF741FA094B30
:1040F000074953F82020204602F046FEA7E700BFFC
:104100009C0A030044F8020030F802003CF8020068
:104110002CF80200F4F7020008295DD82DE9F04FD1
:104120001D46914600232A7B2B7383B099F80730F4
:10413000019207460E46002B4FD0DFF80CB1DFF896
:104140000C810024A642414628463DD93A5D0134FF
:1041500002F01AFE082CF5D13449DFF8F480DFF8BC
:10416000F4B0284602F010FE002411E017F804A075
:1041700009F0D2FA50445946437813F0970F14BF10
:1041800052462E222846013402F0FEFD082C08D0AB
:10419000A64241462846E9D8013402F0F5FD082C34
:1041A000F6D199F8073013B999F808304BBB20497C
:1041B000284602F0E9FD284602F0DAFD9DF80430B9
:1041C0002B7303B0BDE8F08F01345946284602F046
:1041D000DBFD082CB6D1BFE7704799F80830B3B9BA
:1041E00099F80620134BB9F8040053F82240002137
:1041F000FFF792F9224603460F49284602F0C4FD14
:104200009BE70E4A0E49284602F0BEFDCFE799F81B
:104210000610B9F80400FFF7ABF90A4B084953F848
:104220002020284602F0B0FDDAE700BF24F80200A3
:104230009C0A030044F8020030F802003CF8020037
:104240002CF80200F4F7020020F8020018F802002F
:1042500038F8020028F8020000B585B0002303906A
:10426000194601AA44F20100ADF80430029300F0AF
:1042700003F805B05DF804FB10B5FFF7A1FEFFF7EA
:1042800087F90028FBD1104C10492088000440F029
:104290000100FFF783FA0E4B1B68DB0700D5FFDE3A
:1042A00020880C49000440F00200FFF777FABFF3C2
:1042B0004F8F0949094BCA6802F4E0621343CB608F
:1042C000BFF34F8F00BFFDE774230020B8F8020052
:1042D000F0ED00E0C4F8020000ED00E00400FA0593
:1042E000F8B5204A204B0025C2F84051C2F844518D
:1042F000C2F84851C2F84C51C2F80051C2F80451FA
:104300001B6813B31949D2F804450A68A41A1A683D
:1043100024F07F44A2422F4609D8197CDE69A41AF2
:10432000154499B91EB133461A68A242F5D910490D
:10433000104A0B7812789A420DD00F490F4A41F873
:1043400023504FF48013C2F80031F8BD1F745A692E
:1043500098699047E6E7531CDBB2022B08BF0023A5
:104360000B70EAE7001001406C2A0020682A002048
:10437000652A0020642A00205C2A002000E100E079
:104380002DE9F04F7D4A7E491378097899428BB028
:104390003BD00133DBB27B490491022B0D687A4993
:1043A000069108BF00231370784A084652F823107C
:1043B000D0F80090049A6B18002423F07F434E46F7
:1043C000AC461360204627462546AEB133688B4283
:1043D00000F2ED81F4683760C91A1844F3693CB102
:1043E0000CEB000E2EF07F42F561B4607260354632
:1043F0001E460124002EE9D12A46B146002C40F089
:10440000DB8201230793069B07E05F4B5D4A049222
:10441000D3F80090069300220792D3F800A05C4BDB
:10442000DFF874C11B780593049B18680023494684
:10443000CE460893D146099303934FF0010B1746DC
:104440009A46804637B37C68BD683B46FF69514851
:10445000A4EB080222F07F42824258D815441D6026
:10446000002283F810B05A609A60DA6100296ED099
:104470000868854263D90C4603E01068A8424FD211
:104480001446E2692D1A002AF7D11D60DA61E36152
:10449000002FD8D10297CDF804E09CF801709CF869
:1044A00000200025974200F08680104600EB400077
:1044B0000CEBC000541C9CF80230E2B204798CF87A
:1044C0000020934204BF8CF800500022022C836825
:1044D0004ED0032C40D0012CE4D11E7C002EE1D123
:1044E000C4685C6005699D604269DA6082699A61AE
:1044F000059A029FDDF804E0002AA8D03446A4EB18
:10450000080224485E6022F07F428242A6D9A8EBCE
:10451000040424F07F44AC4208D22D1B1D609FE7A9
:10452000401B10601D60DA61E361B1E7002583F88C
:1045300010B01D605D609D60DD6141B10868451B84
:104540000D609946D9614FF0010A19467AE79946FC
:1045500019464FF0010A75E70029A3D00022CB6964
:104560000A741946002BFAD199464FF0010A94E7D4
:10457000D9B19942084615D110E100BF642A002044
:10458000652A0020682A00206C2A00205C2A00206E
:10459000582A0020FEFF7F004C290020A34200F093
:1045A000E8802046C469002CF8D10E4697421D745D
:1045B00031467FF47AAF4046D046CA46DDF80490D3
:1045C000B8F1000F40F0F481099B002B40F0ED8121
:1045D000089B1BB17B4B9DF814201A70039B13B9E9
:1045E000494500F04C81002900F04E81764C049B37
:1045F000D4F804051B68754D0F682978C21A22F09B
:104600007F420332002951D17149DFF8C8C1DFF878
:10461000C8E14FF48036C4F84463C4F804634FF42F
:104620000036C1F880610E60012626602F21DCF87B
:10463000004000BF00BF00BF00BF00BF00BF00BF01
:1046400000BF74452FD000BF00BF00BF00BF00BF38
:1046500000BF00BF00BF00BF00BF00BF00BF00BF62
:1046600000BF00BF00BF00BF00BF00BF00BF00BF52
:1046700000BF00BF00BF00BF00BF00BF00BF00BF42
:1046800000BF00BF00BF00BF00BF00BF00BF00BF32
:1046900000BF00BF00BF00BF00BF00BF00BF00BF22
:1046A00000BF00BF00BF0139C3D12E7097422CBF9D
:1046B000DB199B18444923F07F43C1F84035D1F8FA
:1046C0000425121A1B1A22F07F4223F07F43033283
:1046D0009A4248D9D1F804353E4AC1F840351268AB
:1046E0003D492F2300BF00BF00BF00BF00BF00BF78
:1046F00000BF00BF8A422FD000BF00BF00BF00BF75
:1047000000BF00BF00BF00BF00BF00BF00BF00BFB1
:1047100000BF00BF00BF00BF00BF00BF00BF00BFA1
:1047200000BF00BF00BF00BF00BF00BF00BF00BF91
:1047300000BF00BF00BF00BF00BF00BF00BF00BF81
:1047400000BF00BF00BF00BF00BF00BF00BF00BF71
:1047500000BF00BF00BF00BF013BC3D11C4B4FF4E3
:104760000032C3F80021174A002313700BB0BDE8D4
:10477000F08F834212D00E46DC69D3F800E0C461AA
:1047800034B12268724422609CF800209CF80170C9
:104790000398B14218BF0120039007E7D1F81C909D
:1047A000B9F1000F1AD04E464FF0010AE4E72A464D
:1047B000B146002C60D15B1AC9F800300123079381
:1047C000069B2AE6582A002000100140592A0020A2
:1047D00000E100E0142100200024F400784E794C20
:1047E000C6F808B0784E4FF02F0E366800BF00BFF5
:1047F00000BF00BF00BF00BF00BF00BFA6422FD058
:1048000000BF00BF00BF00BF00BF00BF00BF00BFB0
:1048100000BF00BF00BF00BF00BF00BF00BF00BFA0
:1048200000BF00BF00BF00BF00BF00BF00BF00BF90
:1048300000BF00BF00BF00BF00BF00BF00BF00BF80
:1048400000BF00BF00BF00BF00BF00BF00BF00BF70
:1048500000BF00BF00BF00BF00BF00BF00BF00BF60
:10486000BEF1010EC2D1012634460896C8464E4616
:1048700005940994A2467FE7069806609BE7079B8C
:10488000002B3FF470AFAEE64D4A504B4E4E4D4CB0
:104890004FF480304FF400370125C3F88070C2F820
:1048A00048032F23C2F80803556030681E4600BF36
:1048B00000BF00BF00BF00BF00BF00BF00BFA042DD
:1048C0002FD000BF00BF00BF00BF00BF00BF00BFB0
:1048D00000BF00BF00BF00BF00BF00BF00BF00BFE0
:1048E00000BF00BF00BF00BF00BF00BF00BF00BFD0
:1048F00000BF00BF00BF00BF00BF00BF00BF00BFC0
:1049000000BF00BF00BF00BF00BF00BF00BF00BFAF
:1049100000BF00BF00BF00BF00BF00BF00BF00BF9F
:1049200000BF013EC3D19560049A116000BF00BF73
:1049300000BF00BF00BF00BF00BF00BFA0422FD01C
:1049400000BF00BF00BF00BF00BF00BF00BF00BF6F
:1049500000BF00BF00BF00BF00BF00BF00BF00BF5F
:1049600000BF00BF00BF00BF00BF00BF00BF00BF4F
:1049700000BF00BF00BF00BF00BF00BF00BF00BF3F
:1049800000BF00BF00BF00BF00BF00BF00BF00BF2F
:1049900000BF00BF00BF00BF00BF00BF00BF00BF1F
:1049A000013BC3D10A4B1970DDE6049B18600FE68A
:1049B000069BC3F800A007E6069B1E6021E500BF2A
:1049C000001001400024F4001421002000E100E068
:1049D000592A0020F0B4564B564A574E574C4FF4C4
:1049E00080304FF400310125C2F88010C3F848032D
:1049F0002F21C3F808035D6030680E4600BF00BF7A
:104A000000BF00BF00BF00BF00BF00BFA0422FD04B
:104A100000BF00BF00BF00BF00BF00BF00BF00BF9E
:104A200000BF00BF00BF00BF00BF00BF00BF00BF8E
:104A300000BF00BF00BF00BF00BF00BF00BF00BF7E
:104A400000BF00BF00BF00BF00BF00BF00BF00BF6E
:104A500000BF00BF00BF00BF00BF00BF00BF00BF5E
:104A600000BF00BF00BF00BF00BF00BF00BF00BF4E
:104A7000013EC3D19D6000BF00BF00BF00BF00BFAB
:104A800000BF00BF00BFA0422FD000BF00BF00BFCB
:104A900000BF00BF00BF00BF00BF00BF00BF00BF1E
:104AA00000BF00BF00BF00BF00BF00BF00BF00BF0E
:104AB00000BF00BF00BF00BF00BF00BF00BF00BFFE
:104AC00000BF00BF00BF00BF00BF00BF00BF00BFEE
:104AD00000BF00BF00BF00BF00BF00BF00BF00BFDE
:104AE00000BF00BF00BF00BF00BF0139C3D1144EDB
:104AF000144D154C1549164F002030702860207059
:104B00004FF48015E0240B26087048708E703870C2
:104B10001049C2F8805182F814431560C3F80805A3
:104B200082F81143D3F804350B60F0BC704700BF26
:104B30000010014000E100E0142100200024F400F6
:104B4000592A00206C2A0020642A00204C290020C9
:104B5000652A0020682A0020074B9B780BB90820A3
:104B600070473AB130B10368187C0028F7D1597406
:104B70005A617047072070474C2900202DE9F04307
:104B8000264CA37883B01BB9082003B0BDE8F0839E
:104B90000028F9D0042903D8072003B0BDE8F0832A
:104BA0004369002BF0D0064602A8737C0025012B38
:104BB00000F8015D0CBF8946A94690460F4600F0FB
:104BC0006FF86378A07821785A1CD2B2904208BF5F
:104BD0002A4691421BD003EB430304EBC30301209D
:104BE0000F4918719E60D1F804159DF80700D9602F
:104BF0001F61C3F81490C3F81880627000F076F853
:104C0000084B4FF480122846C3F80021BDE79DF8F9
:104C1000070000F06BF80420B7E700BF4C29002024
:104C20000010014000E100E070B51B4CA37882B099
:104C300013B9082002B070BD0028FAD04369002BD8
:104C4000F7D0064602A8002500F8015D357400F093
:104C500027F86278A0782178531CDBB2984208BF0D
:104C60002B46994212D002EB420204EBC20202210F
:104C70009DF8070096601171637000F037F8074BDC
:104C80004FF480122846C3F80021D3E79DF80700AF
:104C900000F02CF80420CDE74C29002000E100E0D2
:104CA00070B4EFF3108472B60D4B9A68AAB90D492F
:104CB0000D4E01259D60D1F8805035401D60C1F832
:104CC0008060D1F884505D604FF0FF33C1F88430CC
:104CD000027004B962B670BC704701230370F8E734
:104CE0009076002000E100E0FC06FFBD094B9A68C9
:104CF00072B168B910B4EFF3108272B606491C683D
:104D00000C605C684C60986002B962B65DF8044B58
:104D1000704700BF9076002000E100E0BAB1138830
:104D200099B10246014412F8010B5BBA9BB24340B1
:104D3000C3F30310434083EA03331BB2580100F46A
:104D4000FF5043408A429BB2EDD1184670474FF660
:104D5000FF73E5E7033080B240F2FD33984201D99A
:104D60000920704730B4134B1C783CB95A891D890F
:104D70002A44024492B2B2F5806F0FD31A7D12B169
:104D8000072030BC70479A8BDC8B2244024492B2DD
:104D9000B2F5806FF4D20124254600E02546AA0032
:104DA0002A4403EB82030C805A8910445881002066
:104DB000E7E700BFB02A0020F0B5344C344D6788D7
:104DC0006268BE00F31905EB830383B0596801F5EF
:104DD0008050002A56D05388033302EB830290425E
:104DE00034D91368013331D05388033302EB830382
:104DF00098422BD34FF6FF7CB2F804E0E64517D07B
:104E0000B2F800E0BEF1000F12D062605388214D6D
:104E10002148AE882968033300259BB200959B008A
:104E200001EB86010325257001F0D4F903B0F0BD34
:104E300098420BD91A6801321A4607D0B3F802E03B
:104E40000EF1030E03EB8E039842D5D2F31905EB56
:104E50008303DB686BB10F4D0F48296802270526D5
:104E600000230122AF80267003B0BDE8F04001F0BE
:104E7000E9B9094804250122257003B0BDE8F040D6
:104E800001F0E0B901F10802A9E700BF942A00206F
:104E9000B02A0020782B0020602300202DE9F0416B
:104EA000436888464BB13B4AD468A34205D3126994
:104EB000934202D813F003054DD00023DFF8DCC085
:104EC000A8F800304FF0010E4FF6FF76DCF80470C2
:104ED000002207F580540837002A3AD0538803335C
:104EE00002EB83039C420DD80EF10103A8F800E009
:104EF0001FFA83FEBEF1030F0CF1140CE6D1002063
:104F0000BDE8F0811A680132EED05A88033203EB13
:104F100082029442E8D39D88B5420DD01D885DB1D0
:104F20009D6801688D421A46D6D11B4A4360138999
:104F300003810120BDE8F081A242D5D2136801337C
:104F40001346D1D05588033502EB8502A242CBD857
:104F5000E1E73B46C6E7104A048912899442ACD186
:104F600004689A689442A8D10C484268934203D9D5
:104F700002F58052934207D382699342BFD902F56A
:104F800080529342BBD20125A8F800500120BDE811
:104F9000F08100BF60230020942A0020B02A002066
:104FA0002DE9F04FDFF8F88289B007464FF6FF7918
:104FB000D8F80040002C00F011812278531E052BF8
:104FC00000F2CB83DFE803F03845451A1A03002FBF
:104FD00040F0BD80A84C237B002B00F0D7812378C4
:104FE0002773013B062B00F2B883DFE813F085023C
:104FF000CB0175015D01B6037202B401002F40F0D0
:10500000A6802379012B00F0EF8103ADC0F0D6819B
:10501000022B40F0748328461422002108F0B7FBCD
:10502000D8F8002004971378013B052B2FD8DFE830
:1050300003F05F506F63832B002F40F0AD80237926
:10504000032B00F2C080DFE813F00801F000B2008B
:10505000D100A58A002F40F08280AE00DFF844A284
:10506000A07D73190AEB830319895F6807EB810739
:10507000062800F27083DFE810F0430106021802F0
:10508000C401D601EA01030205238DF80C307B4CE4
:1050900004F1100654F8043B284603B19847A64291
:1050A000F8D1002376497748C8F8003001F0DAFDDE
:1050B000754B012253E8000FA0EB020143E80014F6
:1050C00094F0000FF6D100297FF472AF09B0BDE86B
:1050D000F08F01238DF80C301389ADF818309388C8
:1050E000ADF81A30D368059300238DF81C30CEE755
:1050F00000238DF80C30CAE703238DF80C30D388D9
:10510000ADF818301389ADF81A30D3680593BEE7AF
:1051100002238DF80C301389ADF818309388ADF860
:105120001A30D3680593937DA3F10603B3FA83F392
:105130005B098DF81C30AAE704238DF80C30D38866
:10514000ADF818300023ADF81A3005939FE703AD92
:1051500028461422002108F01AFB012760E7DFF837
:1051600044A1E38805EB85050AEB850AC3F57F4278
:10517000BAF80810BAF80A40FD3203330B4414445D
:1051800003AD28461422AAF808300021AAF80A40E4
:10519000012708F0FCFA43E700233C4C03AD194615
:1051A000284614226360012708F0F1FA38E7384DE9
:1051B000384829680023237101220224AC8001F0C1
:1051C00041F8002882D00023304C03AD1946284610
:1051D000142263600E2708F0DAFA21E728492948EB
:1051E00001F010FD0446C8F80000E6E6284D2A4A02
:1051F00029682848DFF8ACA000262671082300960D
:1052000000F0E8FF1C4B2C685B88A98803EB830344
:105210000AEB83020AF8236053682B600223546070
:105220001181AB800028CED150E7DFF878A09AF842
:105230000030022B00F07A829AF81430022B00F032
:105240008882124B03AD012200211A7028461422D5
:1052500059600F4608F09BFAE2E60D4B0F4A1968B9
:105260000C480123002523710823009500F0B2FFAC
:105270000028A8D12AE700BF942A00207C2A002019
:10528000A42A0020642B0020742B00208C2A0020EC
:10529000782B002060230020D8F80200E0F80200FC
:1052A000AC2A0020B02A00206388DFF808A303EBB3
:1052B00083030AEB8305EB68002B00F04481B44BB9
:1052C000B448196802229A8005250023012225701E
:1052D00000F0B8FF074611E06268AD485388858842
:1052E0000168AC4801EB85010333002500959BB2B2
:1052F00003259B00257000F06DFF0746FFB9E5E62A
:1053000002230022A375042300923946E218A14823
:1053100000F060FF00283FF4D9AE73190AEB830355
:105320000E271989E28835440AEB8505C2F57F43CB
:1053300068890332FD331144034429816B8103AD35
:1053400028461422002108F022FA41F61D539F42FC
:1053500008BF002764E68E4B8F4A19688D480023EA
:105360000725009363602570082300F033FF07468C
:10537000C4E7874A61689388498803330B44022154
:1053800093802170FFF718FD0746B7E72378072BB6
:1053900000F2238101A252F823F000BF5955020008
:1053A000DB550200DB55020073530200B9550200C1
:1053B00057530200575302008755020002232371FE
:1053C00003976F60AF60E368039328460DF10A010D
:1053D000FFF764FD002840F0768139461422284604
:1053E00008F0D5F90A271BE66C4B1B78002B40F020
:1053F0000981394608226A4808F0C9F9022703AD35
:1054000009E6E388226963484FF0010E07F10C01B9
:10541000002784F816E09B00009700F0DBFE0028D0
:105420007FF47BAF52E65F4BA2691A6018460022F8
:105430005D495A60FFF732FD00287FF461AF03AD8C
:1054400001461422284608F0A2F90A27E8E5564B3F
:10545000544A1F8851684F48544A00234FF0060EA3
:1054600084F816E00093042300F0B4FE00287FF4D3
:1054700054AF07EB87070AEB870501232B7425E65A
:1054800041F61D574EE7032A14BF062305230022C9
:10549000A375391D0092042304F108023D4800F071
:1054A00099FE00287FF439AF10E623693948002BB4
:1054B0000CBF012303230022A37507F1080100920A
:1054C000042304F10C0200F085FE00287FF425AFD0
:1054D000FCE56588DFF8DCA0AB002B440AEB830514
:1054E00000236968324A009306250823294825705D
:1054F00000F070FE074601E7A37A5BB1DFF8B4A0C5
:10550000DAF80C300022A27223B99AF81020002A8F
:1055100040F00781E37A5BB1DFF898A0DAF8203039
:105520000022E27223B99AF82430002B40F0F88070
:1055300003AD0021284614222170618061600F466E
:1055400008F025F96CE569681248042501222570E8
:1055500000F078FE0746D1E6DFF858A021899AF8D6
:1055600000309AF81420B3FA83F3B2FA82F20020E2
:105570005B09520901310125A372E2722181608029
:1055800020732570B9E701232370A37AB5E700BF24
:10559000782B002060230020E0F802008C2A0020F5
:1055A000882B0020702A0020842B0020D4F80200D1
:1055B000D8F80200B02A00206588DFF8C0A16B4847
:1055C000AB005A190AEB820201685768868851605D
:1055D00002210760168181807FE7013B062B00F2E4
:1055E000BC8001A252F823F0F95402008553020056
:1055F000D9520200A95202005B570200D3540200A4
:10560000575302005A4EB588012D0ED8DFF86CA111
:1056100005EB85000AEB800003789BB10135ADB244
:10562000022DB58000F11400F6D108220021504867
:1056300003AD08F0ACF828461422002108F0A7F8C2
:105640000027EDE44168336801F5805201F1080E4E
:10565000002B63D05988033103EB8101914201D3C0
:105660003760DBE70B680133FAD04B88033301EB7B
:1056700083039342F4D8B1F804C0CC4514D0B1F8F8
:1056800000B0BBF1000F0FD0B4F806B03160E345B5
:105690000B46DDD100230093364A3748042300F03F
:1056A00099FD28B30E27AAE69342D9D21968013191
:1056B0001946D5D0B3F802C00CF1030C03EB8C03F0
:1056C0009342CDD8D7E704992A4A8B88E3800B8888
:1056D0002381294800970423BDF80A4000F07AFD91
:1056E000A0B139461422284608F051F80E2797E455
:1056F00005EB85050AEB850501232B74E6E43946A5
:105700002846142208F043F80F2789E41B4B04EBCA
:10571000840403EB840401232374D7E471469DE7DA
:1057200001236380FFF748FB0746E7E50023980065
:1057300018440AEB800300245968114A0094082396
:105740000AF820400C4800F045FD00287FF43BADEE
:10575000BCE40123EBE70F27E4E503AD2846142260
:10576000002108F014F80F275AE400BF782B00201E
:10577000882B0020D4F8020060230020B02A0020EB
:10578000D8F802004068FFF70BBC00BF0C4B1A684A
:10579000042A12D010B40B491C68012241F82400DD
:1057A00053E8001F01EB020043E8000494F0000FEF
:1057B000F6D100205DF8044B70470C20704700BF05
:1057C000802B00207C2A00202DE9F04FA24E327859
:1057D0008BB0002302F0FF0100910693059307931D
:1057E0000893099372B19D4C04F1100554F8043BE1
:1057F00005A803B19847A542F8D1002738460BB059
:10580000BDE8F08F331D012253E8005F45EA020135
:1058100043E8001090F0000FF6D1002DEDD14FF0CD
:1058200010234FF080525B69116952698C4C581CEF
:1058300008BF02FB01F323618A49A3F540532046C8
:105840000022E36000F0BEFC07460028D6D11C23EE
:105850008C2285498548DFF8288201F05BF9E368EE
:10586000DFF820C2039703F5405201920322A3F10F
:10587000040A0292BB46AE4623B1DAF804207C4902
:105880008A421FD003F6FC70524602E0904200F0BC
:10589000268152F8041F0131F8D002987549441E40
:1058A0000BEB8B02A4B201EB82010294714C4B60B2
:1058B00003200BF1010B04F822001FFA8BFB03F508
:1058C00080505CE05A686C498A422FD001318A428C
:1058D000D8D1009A82B1674A664D0BEB8B0402EB7C
:1058E000840102200BF1010BDCF8002005F82400F4
:1058F0001FFA8BFB4A6008810221CCF80030ACF81B
:1059000004109868013003F5805000F011810833CD
:105910005A88033203EB8204A0427ED24FF48063A4
:10592000ACF8043008234EEA030E28E051484FEA51
:105930008B0404EB0B0200EB8205002100F822101F
:1059400002226B602A819968013103F5805010D0E2
:1059500008335988CF1C03EB8707B84280F0948046
:10596000444B5C4403EB840401224FF480632274B3
:1059700023810BF1010B1FFA8BFB4EF0020E019AF3
:1059800082420AF5805A03467FF476AF029B039F5A
:10599000012B20D95FFA8EF5022D1CD0062D00F0C8
:1059A000B880C5B104A9314801F0EEF81C220446C4
:1059B000002107F0ECFE002C00F0BC800123013D2B
:1059C00023700A2D0BD8DFE805F0250A250A220AE4
:1059D000220A1F081F000B2710E70223237104A9C6
:1059E000224801F0FFF8254B012253E8000F00EB9D
:1059F000020143E8001494F0000FF6D100287FF470
:105A0000FCAEFFF7CDFAF9E603232371E7E70123A4
:105A10002371E4E700232371E1E79C884FF6FF75CB
:105A2000AC420AD01C8844B19C68D8F80050AC4203
:105A300003D9C8F800405A8803320A4491B2ACF83E
:105A400004105C88033403EB840398423CD8022999
:105A50006ED0082367E700BF8C2A00207C2A002034
:105A600060230020F4F80200D82A0020642B0020D4
:105A7000DEC0ADDEB02A0020FE011EF1742B002036
:105A8000A82A0020782B00209F884FF6FF794F45E9
:105A90001FD01F88EFB19F68D8F800904F4503D9F9
:105AA000C8F8007059882A890A44033292B22A81C0
:105AB0005988033103EB810398427FF65AAF196886
:105AC00001317FF446AF54E71A6801327FF420AF0A
:105AD000BDE74FF001022A7459882A89E4E7DCF80F
:105AE00000204AB31849194D0BEB8B0201EB8200E1
:105AF0000221436001811448A5F802B00BF10104B2
:105B000000F822101FFA84FB4EF0010E03F58050BE
:105B100035E70F4C01220023327004F11005736049
:105B200054F8043B05A803B19847A542F8D164E6B0
:105B30000423F8E6082761E60222ACF804200122DB
:105B4000CCF800300092DFE7B02A0020942A002031
:105B50007C2A002068B161B12DE9F04182B00C4689
:105B600001A90546FFF79AF928B90A2002B0BDE855
:105B7000F081052070476E68002206213046B6F895
:105B800006807788FFF7CAF802AA791C22F8020D6E
:105B9000890006F10800FFF7C1F8804501D00D200B
:105BA000E4E7BDF804200B4B02EB820203EB820317
:105BB0000C33012253E8001F01EB020043E8000709
:105BC00097F0000FF6D126606B680C3363600020FD
:105BD000AA72CBE7B02A002050B110B582B00DF107
:105BE00006010446FFF75AF920B90A2002B010BD99
:105BF00005207047BDF80630094A03EB830302EB2A
:105C00008303DA6812B9062002B010BDA27A002A16
:105C1000F9D0DA680021013ADA600846A172E5E7B6
:105C2000B02A00202DE9F0414A4B82B01B780022B7
:105C3000ADF8022023B90224204602B0BDE8F0816D
:105C400059B10A884FF6FF739A4201D04B8833B995
:105C50000424204602B0BDE8F0810524ECE74B683F
:105C60009B0701D00324E7E7B1F808800D460646FC
:105C700069464046FFF76EF804460028DCD101A9CA
:105C8000354800F081FF1C220746214607F07FFDC2
:105C9000002F50D002233B70BDF80030BC75BB8292
:105CA0006B683B6101222D4B53E8000F00EB0201B2
:105CB00043E8001E9EF0000FF6D1F9602B883B816F
:105CC0006B88BB80A7F8068022460621381DFFF7A7
:105CD00025F80DF10808042128F8060D07F10C003D
:105CE0004246FFF71BF8A968ADF80200890042465A
:105CF0006868FFF713F801A9034678811648ADF8E4
:105D0000023000F06FFF36B17460FA68144B3260F5
:105D10001B89B4723381134B012253E8000F00EB4F
:105D2000020143E8001595F0000FF6D1002883D159
:105D3000FFF736F980E7BDF800300B4A03EB830329
:105D400002EB830208245389033BA3EB0808A2F863
:105D50000A8071E78C2A0020642B0020A82A0020EA
:105D6000942A0020742B0020B02A00202DE9F0474F
:105D700082B050B1504B1B780022ADF802204BB9D5
:105D80000224204602B0BDE8F0870524204602B078
:105D9000BDE8F0870029F8D00A884FF6FF739A42D1
:105DA00001D04B8823B90424204602B0BDE8F08717
:105DB0004B689B0701D00324E8E7B1F8089005463B
:105DC0000E4648466946FEF7C5FF04460028DDD169
:105DD00001A93A4800F0D8FE1C220746214607F0E8
:105DE000D6FC002F59D003233B70BDF80030BC75A2
:105DF000BB8273683B614FF00108314B53E8001FD1
:105E000001EB080243E8002090F0000FF6D1FA60A1
:105E100033883B817388BB804FF0040AA7F8069053
:105E200087F816A02B68BB61224607EB0A00062103
:105E3000FEF774FF0DF10809514629F8060D07F128
:105E40000C004A46FEF76AFFB168ADF802004A4608
:105E500089007068FEF762FF0DEB0A010346788146
:105E60001648ADF8023000F0BDFE6C60FA68154BC4
:105E70002A601B892B81AC72134B53E8002F02EB75
:105E8000080143E8001090F0000FF6D1002A7FF4DB
:105E90007DAF2046FFF784F878E7BDF800300B4A65
:105EA00003EB830302EB830208245389033BA3EB38
:105EB0000909A2F80A9069E78C2A0020642B0020C7
:105EC000A82A0020942A0020742B0020B02A002049
:105ED000194B1B780BB90220704710B582B001A98D
:105EE000164800F051FE1C220446002107F04FFC2A
:105EF000BCB10623237001A9104800F073FE104BBB
:105F00001A7882B90F4B012253E8004F04EB0201CB
:105F100043E8001090F0000FF6D13CB1002002B031
:105F200010BD0820FBE701221A73EBE72046FFF7BC
:105F300037F82046F3E700BF8C2A0020642B0020AE
:105F4000942A0020742B00202DE9F043354C24784E
:105F500014B90220BDE8F08362B35BB3B3F804C0A8
:105F6000BCF1010F23D8304F0CEB8C0407EB8407F6
:105F70004FF6FF7E4FF000083C786CB91C687D68D6
:105F800005F58056002C4AD06588033504EB85045E
:105F9000A64212D8C3F800800CF1010C1FFA8CFC49
:105FA000BCF1020FA3F804C007F11407E4D10A20E2
:105FB000BDE8F0830520BDE8F08325680135E9D010
:105FC0006588033504EB8505AE42E3D3B4F804904D
:105FD000F14515D0B4F80090B9F1000F10D01C6055
:105FE000A5888542CBD125888D42C8D1A168116092
:105FF00019680E4B51601B8913810020BDE8F083A6
:10600000B542C7D22C6801342C46C3D0B5F80290F3
:1060100009F1030905EB8905AE42BBD3D6E705F1CB
:106020000804B5E78C2A0020B02A0020942A00201A
:10603000614B1B780BB9022070472DE9F04F0446E5
:1060400085B0002800F08F8012220021DFF86C81DB
:10605000DFF86C9107F09BFB218960886689ADF8B9
:10606000001003234246238000254FF0010C4FF619
:10607000FF7E13895789D2F804A03B449BB2BAF142
:10608000000F04D0DAF800704F4500F08A802788AE
:10609000013F278005EB850708EB87071E44D7F8EB
:1060A0000CA00099A78950446080B2F80AA06681CC
:1060B000C3F580639BB251449F4238BFA3812181C5
:1060C000D2F804A0ADF80010DAF8081001310AF196
:1060D00008030AF580573DD0BAF80AA00AF1030A6E
:1060E00003EB8A0A574527D3BDF800100392B3F893
:1060F00004A0F2453FD0B3F800A0BAF1000F3AD0A7
:10610000B4F804A00AF1010AA4F804A0B3F802A0AC
:106110000AF1030A03EB8A039F4228D91A68013265
:1061200025D0B3F802A00AF1030A03EB8A0A574507
:10613000DDD2039AADF80010B4F80EB0B4F806A0A2
:1061400084F810C0FB1A0BEBA3030AF1010AE381E8
:10615000A4F806A00135022D02F1140289D1002015
:1061600005B0BDE8F08F052005B0BDE8F08F039ABB
:10617000ADF80010EEE7B4F806B0B4F80EA00BF1DD
:10618000010BA4F806B0B3F802B00AF1030ADA442E
:10619000A4F80EA0B3F802A00AF1030A03EB8A03E5
:1061A000BAE7DAF8047007F16E6707F5FF370237D0
:1061B000012F7FF66FAF6AE78C2A0020B02A0020FB
:1061C000DEC0ADDE20B119B101600B681146184781
:1061D0000E2070472DE9F043DDF81C8050B14AB124
:1061E000D0F800E0BEF1000F07D01E4643B90920E9
:1061F000BDE8F0830E20BDE8F0830820BDE8F08301
:106200004768D7F80490B3FBF9F709FB1737002F5D
:10621000EDD142EA0104A40702D01020BDE8F083CA
:10622000C468A142F9D301F1FF3C04696644A64267
:10623000F3D8CDF81C80DEF80C40A446BDE8F0434E
:10624000604700BF28B1F0B5066876B11AB90920D9
:10625000F0BD0E2070474768D7F800C00CF1FF373B
:106260000F428E4603D01020F0BD0820F0BDC76855
:10627000B942F8D301F1FF3E04690CFB02E5A542E7
:10628000F1D83469A446BDE8F040604729DF704783
:1062900028DF70470846704700207047024B187A85
:1062A000003018BF012070472C2C0020034B187AB7
:1062B0000122B0FA80F05A74400970472C2C00205B
:1062C00008B510461A4607F057FA002008BD00BF6F
:1062D00008B514220021044807F059FA034800F0D9
:1062E00031FC002008BD00BF2C2C00201C2C0020FD
:1062F00038B50C4C012354E8002F42EA030144E86E
:10630000001595F0000FF6D152B9074B436003F02A
:1063100067FF1C2320748C220449054800F0FAFB17
:10632000002038BD2C2C0020E8F80200902B002023
:106330001C2C002030B5354C237A87B0002B51D06F
:10634000334B1B68022222721A79002A2ED0012AAE
:1063500020D019688A68C2B1002205920392019286
:1063600004929A680592032202921A79002A44D074
:10637000012A07D1DA685B690493130302220393AD
:106380008DF804208B6801A898470023237263606E
:1063900007B030BDD8681A691044FFF779FFC8B15B
:1063A0001128D6D10123237207B030BD9D695A69E7
:1063B000D9681869521BB2F5805F28BF4FF480522C
:1063C0009208012A38BF012229442844FFF75EFFC2
:1063D0000028E5D1237C002BE6D10146022000F005
:1063E0001DF8E1E70B490C4800F00CFC084B186065
:1063F00003460028A6D16060D6E71A695B6903925C
:1064000001208DF804000493BCE700BF2C2C002071
:10641000442C0020402C00201C2C002010B5354CB2
:10642000237A012B86B00AD0022B0CD1022810D07F
:10643000032804D1E3680133082B1CD8E360637C94
:106440001BB103F065FE06B010BDFFF773FF06B089
:1064500010BD294B00221B68E2601A79002A3BD04C
:10646000012AECD11A69596901328A421A61E6D1CE
:106470000020207205E0204B00221B68E26022729F
:106480000D2019688A6872B1002205920392019268
:1064900004929A68029005921A79AAB1012A0AD048
:1064A0008B6801A898471549154800F0DBFB637C11
:1064B000002BC6D1C9E7DA685B6904931303022293
:1064C00003938DF80420EBE71A695B6903920120BE
:1064D0008DF804000493E3E79A695969881AB0F5C6
:1064E000805F94BF121802F5805291429A61A6D142
:1064F000BEE700BF2C2C0020442C0020402C0020A4
:106500001C2C00202DE9F04383B081460E461B4829
:1065100069461746984600F037FB50B304461C22E4
:1065200000210125360B07F032F9E660C4F800902F
:10653000C4F80880676169462571104800F052FB75
:106540000F4A131D53E8001F284643E8000494F047
:10655000000FF7D10191019838B9547C34B9FFF795
:10656000E9FE204603B0BDE8F083002003B0BDE89B
:10657000F083042003B0BDE8F08300BF1C2C002092
:106580002C2C00202DE9F04383B0814688461C481E
:10659000694617461E4600F0F7FA60B304461C220F
:1065A00000210D4607F0F3F80A9BA3606946C4F882
:1065B0000090C4F81080E76066612571104800F013
:1065C00011FB104901220B1D53E8000F144643E84C
:1065D000004696F0000FF7D10190019838B94C7C35
:1065E00034B9FFF7A7FE204603B0BDE8F083284684
:1065F00003B0BDE8F083042003B0BDE8F08300BF22
:106600001C2C00202C2C002000F0FD03012B00D0BE
:10661000704730B5384CA0F10100B0FA80F0237A11
:106620004009002287B020746274002B48D0334B9D
:106630001B68022222721A79002A2ED0012A18D051
:1066400019688A6882B1002205920392019204922D
:106650009A680592032202921A79002A44D0012AEC
:1066600039D08B6801A8984700232372636007B074
:1066700030BDD8681A691044FFF70AFE28B1112806
:10668000DED10123237207B030BD237C002BFAD169
:1066900001460220FFF7C2FEF5E79D695A69D968F5
:1066A0001869521BB2F5805F28BF4FF480529208E0
:1066B000012A38BF012229442844FFF7E7FDDDE71E
:1066C0000F49104800F09EFA0C4B18600346002852
:1066D000AFD16060D7E7DA685B69049313030222E5
:1066E00003938DF80420BCE71A695B6903920120CB
:1066F0008DF804000493B4E72C2C0020442C0020D7
:10670000402C00201C2C002000F0BCBA2DE9F041E8
:10671000B0F81080CF1CA8F1040847440646B7FB28
:10672000F8F700F0CBFA80B3FFB200250123013F58
:106730000446A0F8068006600571437128D08046A3
:1067400009E06379AF4203F101036371C8F8000007
:10675000066080461CD0304600F0B0FA01350028B3
:10676000EFD16679721E16D02346013082421B6833
:10677000FBD81F684EB1214600250C68013538460C
:1067800000F0C4FAAE422146F7D10020BDE8F08106
:106790002046BDE8F0812768EDE700BF10B4043063
:1067A000012350E8002F02EB030140E8001494F0AD
:1067B000000FF6D15DF8044B704700BFF8B5021D1D
:1067C000012152E8004FA4EB010342E8003595F0A7
:1067D000000FF6D113F0FF0300D0F8BD4579691E14
:1067E00012D00246013399421268FBD81768002D77
:1067F000F3D0014600240E680134384600F086FAD2
:10680000A5423146F7D1F8BD0768F2E72DE9F84314
:10681000C68804330F46B3FBF6F5904606FB1533E6
:10682000044615B1013D2468FCD1F51A454528BF41
:106830004546B8F1000F15D04FF000090433E018B9
:10684000A8EB05082A4607EB090106F095FF464527
:10685000A944246835464FF0000328BF4546B8F1E7
:10686000000FEBD1BDE8F8832DE9F843C688043367
:106870000F46B3FBF6F5904606FB1531044615B1FD
:10688000013D2468FCD1751A454528BF4546B8F13D
:10689000000F15D04FF0000904312144A8EB050882
:1068A0002A4607EB090006F067FF4645A94424681D
:1068B00035464FF0000128BF4546B8F1000FEBD137
:1068C000BDE8F88330B4184DA5F1F002AB1ADB1027
:1068D00003EBD3735B1002EBC30152F833309842E1
:1068E00028BF0C4605D311E052F8333098420CD241
:1068F00021468B1ADB1003EBD3735B10914202EB42
:10690000C304F1D8094830BC70470D46984204D9F9
:1069100004F10802AA42D9D3F4E76068034B0028C7
:1069200008BF1846EFE700BF18FA020014F902008A
:1069300010B40023012401E0202B0AD004FA03F252
:10694000024299B203F10103F6D008465DF8044B08
:1069500070474FF6FF7108465DF8044B704700BF63
:1069600098B191B130B40238002402E00134202CF7
:106970000AD030F8025F9542F8D1012233B10B689A
:1069800002FA04F423430B6030BC70470B6802FA30
:1069900004F423EA04030B60F6E700BF70B49DF82B
:1069A0000C60C0B1B9B1B2B10238002402E00134C8
:1069B000202C10D030F8025F9D42F8D1012303FA59
:1069C00004F401EB820246B9E4430B68234041F82A
:1069D000043B9142F9D170BC70470B68234341F8E6
:1069E000043B9142F7D00B68234341F8043B9142AA
:1069F000F3D1F0E7F0B491B100252B46012606FA59
:106A000003F4144205D000EB450431F81370A7805D
:106A100001350133202BF2D10560F0BC70470D46E3
:106A20000560F0BC704700BF08B107207047012A1D
:106A30000CD001290FD005D30229F6D1084B002034
:106A40005A707047064B00209A707047012901D098
:106A50000246EEE70E22024B00201A70704700BF7C
:106A6000482C002010B50388102B08D0112B05D11D
:106A7000264B18680138186038B110BD10BD234C82
:106A8000216881B10131216010BD01220221FFF78F
:106A9000CBFF48B3072827D01D4B1B68002BECD039
:106AA000BDE81040184701220846FFF7BDFF48B176
:106AB000072807D0164B1B6803B19847216801319E
:106AC000216010BD072202210120FFF7ADFF08B1B0
:106AD0000728EFD1042202210020FFF7A5FF00289C
:106AE000ECD00728E6D1E9E7072202210120FFF7D1
:106AF0009BFF08B10728CFD1002108460A22FFF7E3
:106B000093FF0028B9D00728C6D110BD502C002013
:106B10004C2C002099B110B4B2FBF3F403FB142405
:106B2000A4B21CB109205DF8044B704780E8120044
:106B300084608281C38120465DF8044B70470E203B
:106B4000704700BF82B050E8022FC188B2EB324FCD
:106B50004FF0000317BF92B241EA014142EA0141FE
:106B600004E04268B2EB324F08BF012340E8021252
:106B7000002AE8D18DF807309DF80730002B0CBFB4
:106B80001120002002B0704730B482B050E8013FBD
:106B90009DB2C48925448489A54228BF2D1B048940
:106BA000A54202BFBFF32F8F002207E0C5EA03050D
:106BB00040E80154002CE9D14FF001028DF8032088
:106BC0000193019B9DF803200B602AB10B8800689C
:106BD000184402B030BC704702F0FF03184602B000
:106BE00030BC70470A884B889A4201D00020704719
:106BF00050E8012FC2EA024240E80123002BF7D1FE
:106C00000120704730B482B050E8023F1FFAA3F56C
:106C1000C488A54202BFBFF32F8F00220DE0C489B4
:106C200025448489A54228BF2D1BC3EA054540E8B9
:106C30000254002CE8D14FF001028DF8032001939B
:106C4000019B9DF803200B602AB14B880068184413
:106C500002B030BC704702F0FF03184602B030BCEF
:106C6000704700BF0A884B889A4201D000207047C5
:106C700050E8022FC2EA224240E80223002BF7D15B
:106C800001207047B8B130B4416882680468521A74
:106C9000D2B2531E2160DBB242B101680A685C1EA9
:106CA000551C0D601370E3B2FF2BF6D10368002072
:106CB000187130BC70470E20704700BFF0B583B02C
:106CC00002AB002503F8015D04461846FDF7E8FF16
:106CD000236861681A688A4210D9511E19602168B8
:106CE000A3680E6812F8015C0A79278AE0689B1B8A
:106CF000DBB29A4207FB050538BF0B719DF8070010
:106D0000FDF7F4FF284603B0F0BD00BF30B583B0F7
:106D100002AB002203F8012D054618460C46FDF78C
:106D2000BFFF2A681368591C1160E9682A8A641A2F
:106D3000B4FBF2F41C709DF80700FDF7D7FF03B019
:106D400030BD00BF01600B6843604A68934204BFD6
:106D500000234360704700BF436843B102689168F5
:106D60000B4443605268934204BF00234360704762
:106D7000826802B9704710B504464369016800692A
:106D800098470023A36010BD0EB400B582B00399EC
:106D900029B102AA04AB42F8043D00F095F802B014
:106DA0005DF804EB03B070472DE9F84F1746B94280
:106DB000884606461D46DDF828B00B9A7DD30B4663
:106DC0004FF00109B3FBF7F39F4209F10109F9D92B
:106DD000A94538BFA94612F0010A02D1BBF1000F44
:106DE00049D1B268012402E0013D07FB04F4012D02
:106DF000FAD8B8FBF4F18F42F7D9324D05E0B4FB75
:106E0000F7F4A4B1B8FBF4F1B268685C531CB3604A
:106E100033689854B26873689A4204FB1188EED3C1
:106E20003046FFF7A5FFB4FBF7F4002CEAD1BAF126
:106E3000000F16D0BBF1000F33D0CB4588BF202404
:106E40003ED9B3683268591CB160D454B2687368D3
:106E50009A420BF1FF3B06D2BBF1000F09D0D94596
:106E6000EFD1BDE8F88F3046FFF782FFBBF1000F8E
:106E7000F5D1BDE8F88F93071AD42024CB45B0D9BB
:106E8000B2683368511CB1609C54B26873689A420E
:106E90000BF1FF3B07D2BBF1000FA3D0CB45F0D1E4
:106EA000A0E7BDE8F88F3046FFF762FFB268F2E76F
:106EB000002D0CBF30242024E0E74FF0010987E7C4
:106EC000BDE8F88F34FD0200002900F06F822DE943
:106ED000F04F064685B093460C460B780DE0B2683D
:106EE0003168501CB0608B54B26873689A4280F06D
:106EF000D3802378002B00F0BA800134002B00F0FF
:106F0000B680252BEBD14FF00008234614F8012B57
:106F10002D2A00F0BB80302A00F0BB802B2A00F025
:106F2000AD802A2A00F0BC80A2F13005E9B209291F
:106F300098BF013302D9A9E1A1F130051C4613F82D
:106F4000012BA2F1300005EB8501092802EB41017C
:106F5000F2D92E2A00F0B080002701E014F8012FAA
:106F600002F0FB03682BF9D0253A532A7AD8DFE8E0
:106F700012F07A01790079007900790079007900BE
:106F80007900790079007900790079007900790039
:106F90007900790079007900790079007900790029
:106FA0007900790079007900790079007900790019
:106FB0007900790079007900790079007900790009
:106FC00079007900790079007900790079007900F9
:106FD00079007900790079006A01790079007900F7
:106FE00079007900790079007900790079005501FC
:106FF000FC007900790079007900FC0079007900C3
:107000007900790079007900540079007900CA008C
:107010007900BA00790079006A01DBF80020131DBD
:10702000CBF80030B368156831685A1CB2604FF075
:107030003002CA54B3687268934280F0A08132680B
:10704000581C7821B060D154B26873689A4280F0BD
:107050009281002208230192294600931022304693
:10706000FFF7A2FE01342378002B7FF446AF337B79
:10707000002B40F0058105B0BDE8F08F234614F8E1
:10708000012B2D2A48F004087FF445AF48F0010891
:107090003BE748F0020838E73046FFF769FE28E78B
:1070A000DBF80020111DCBF8001015685A782E2A45
:1070B00003F101047FF450AF6278A2F13003092B91
:1070C00004F101044FF000073FF64AAF07EB8707D2
:1070D00002EB470714F8012FA2F13003092BA7F1A7
:1070E0003007F3D93CE7DBF800301A1DCBF800205D
:1070F0001968CDF804803B4600950A223046FFF718
:1071000053FE0134AFE7DBF800301A1DCBF8002046
:1071100018F0010FD3F8009040F0BB80B9F1000FD8
:1071200000F04781484606F0F7FB0746BD4240F2B3
:10713000F180002D00F0EE804FF0200805E0BD4208
:1071400000F0E880002D00F0E580B3683268591C3B
:10715000B16002F80380B26873689A4205F1FF35A6
:10716000EDD33046FFF704FEE9E7DBF800301A1DE7
:10717000CBF80020D3F8009089EAE973A3EBE97318
:10718000092B4FF0010A09DD8F4A82FB0312DB173E
:10719000C3EBA203092B0AF1010AF5DCBA4538BF9B
:1071A000BA462DB3B9F1000F02DB18F0040F00D07E
:1071B000013D18F0020F40F0F58018F0010F17D1D3
:1071C000002D00F0FE80AA4538BF202110D2B26801
:1071D0003368501CB0609954B26873689A4205F1E4
:1071E000FF3580F0E880002D00F0EB80AA45EED15D
:1071F000B9F1000FC0F2C88018F0040F7BD108F07D
:107200000303022B00F09A808DE820013B4649469B
:107210000A223046FFF7C8FD013424E7DBF80020DE
:10722000131DCBF80030B36831681278581CB06079
:10723000CA54B26873689A42FFF414AF3046FFF73D
:1072400097FD01340FE7DBF800301A1DCBF8002062
:107250001968CDF804803B46009510223046FFF7B0
:10726000A3FD0134FFE6B3683268591CB1604FF0EA
:107270002501D154B26873689A42DFD20134F2E634
:10728000304605B0BDE8F04FFFF772BD1C46002543
:107290005FE64F46A7EB090817F8013B8BB1B268D0
:1072A0003168501CB0608B54B26873689A42F1D355
:1072B0003046FFF75DFDA7EB090817F8013B002BEF
:1072C000EDD145457FF6CEAE202705E045453FF49C
:1072D000C9AE002D3FF4C6AEB3683268591CB16028
:1072E000D754B26873689A4205F1FF35EED3304641
:1072F000FFF73EFDEAE7B2683368501C2B21B0600F
:107300009954B26873689A42FFF479AF3046FFF738
:107310002FFD74E709F1FF3919F8013F002B3FF405
:10732000A1AEB2683168501CB0608B54B26873680B
:107330009A42F1D33046FFF71BFDEDE7002F7FF4B3
:1073400063AF002D33D0AA45BFF45EAFB268336897
:10735000511CB1604FF030019954B26873689A4281
:1073600005F1FF3503D215B3AA45EFD14CE73046FE
:10737000FFF7FEFCF7E73046FFF7FAFC69E6304618
:10738000FFF7F6FCB3685AE6B2683368501C2D214B
:10739000B0609954B26873689A42C9F10009FFF469
:1073A0002EAFB3E7002F3FF423AF06E77047002569
:1073B0002AE74F46BAE630460391FFF7D9FC039916
:1073C00011E7002514E700BF6766666658B910B577
:1073D000054CA36833B10CCB0020A2609847A3688A
:1073E000002BF8D110BD7047542C002010B5012897
:1073F00082B029D022D303281ED10721002000F01B
:1074000001F902A80023264C00F8013DFDF748FCD5
:10741000E368013BE360E36853B9224B01221A6041
:107420004FF08042D2F8183413F48033FAD1A370AD
:107430009DF80700FDF75AFC02B010BD1A4B01225F
:10744000C3F8802002B010BD02A80023144C00F83D
:10745000013DFDF725FC237853B1E3689DF8070053
:1074600001330122E360A270FDF740FC02B010BDC1
:107470000D4A6360A3602361E360106810F00100AF
:107480000AD002F0ADFE20B94FF080430122C3F8CC
:10749000182501232370E0E7072100F0B3F8F0E797
:1074A000542C00200C00004000E100E010B50F4C0F
:1074B00023780BB1852010BD0D4A6360E36010682E
:1074C000A36010F0010023610BD002F089FE20B907
:1074D0004FF080430122C3F81825012323700020B8
:1074E00010BD072100F08EF8EFE700BF542C0020FC
:1074F00000E100E030B5224DAB7883B0044693B193
:1075000010B143680120984702A8002300F8043D09
:10751000FDF7C6FBEB689DF804000133EB60FDF757
:10752000E5FB03B030BD02A803F0FF0200F8052D13
:10753000FDF7B6FB64B12A6942B1944208D0134604
:1075400001E09C4204D01B68002BFAD122602C6120
:10755000EB6863B90B4A0C491360136801934FF051
:10756000804202200123019CC2F804030B60EB68F7
:107570009DF803000133EB60FDF7B8FB03B030BDAD
:10758000542C0020040100400800004010B51A4BA4
:107590001A6882B0A2B100221A601B6800934FF0F3
:1075A00080430122154C0099C3F80823A368627038
:1075B00033B10CCB0020A2609847A368002BF8D110
:1075C0000F4B1A68AAB100221A601B6801934FF092
:1075D00080430222094C0199C3F808232369012240
:1075E000A27033B10CCB0120226198472369002B94
:1075F000F8D102B010BD00BF00010040542C0020A3
:1076000004010040002810B418DB00F1604303F5CA
:1076100061434901C9B283F80013C3B24009800035
:1076200000F1604000F5614003F01F020123934028
:10763000C0F8803103605DF8044B7047C3B2044A60
:1076400003F00F0449012244C9B21176E6E700BFF6
:10765000FCEC00E030B51D4C94F8545083B015B1EB
:10766000082003B030BD4FF0FF33FF220721062072
:1076700023636363A363E36323646364A364E364D6
:1076800023606360A360E36023616361A361E361DE
:10769000236284F850306362A36284F85230E3625C
:1076A00084F8533084F85120FFF7ACFF084B094AA7
:1076B0001D601B68019301984FF00043012128468B
:1076C00084F85410C2F8043303B030BD682C002095
:1076D0007C61004000600040F0B55E4C251895F9D3
:1076E0003030002B01DB0820F0BD91F803E0BEF143
:1076F000000F50D02368013300F0A6800826012532
:1077000054F8253001334CD06B1C54F823700137EA
:1077100048D0AB1CB3423CD254F82370013741D05F
:10772000EB1CB34235D254F8237001373AD02B1DED
:10773000B3422ED254F82370013733D06B1DB342BD
:1077400027D254F8237001372CD0AB1DB34220D27E
:1077500054F82370013725D0EB1DB34219D254F8E9
:10776000237001371ED005F10803B34211D254F83B
:107770002370013716D005F10903B34209D254F83A
:10778000237001370ED00A35B54202D2E36A0133C5
:1077900058D00420F0BD236A01332DD00C260925D2
:1077A000AEE72B4626185DB244F8232086F8305009
:1077B000BEF1000F26D08B78A3B94A784FF0A046CF
:1077C00000F5E073920046F82320CB78F3B9083D2A
:1077D0002C44097894F8502042EA811284F8502011
:1077E0001846F0BD830003F1A043D3F8002722F030
:1077F0000202C3F80027E8E7082685F83060334620
:1078000022623546234483F84800D4E7AB0003F1F5
:10781000804303F5C0430978D3F8104524F4473476
:1078200024F44074C3F8104502020904D3F810058B
:1078300001F4403102F4F8520A430243C3F8102520
:107840000020F0BD0B23ADE7002385F83030226027
:107850001D46B0E7682C0020F0B42E4D2E1882B0E3
:1078600096F93030072B1CDD2B4493F848309B09E8
:10787000032B41D0012B14BF4FF440314FF40031A2
:10788000800000F1A040D0F8002722F44032C0F878
:107890000027D0F800370B43C0F8003702B0F0BC27
:1078A0007047DAB2072AF9D8980000F1804000F555
:1078B000C04003F140029200D0F8104592B202F1AC
:1078C0008042002744F0010402F5C042C0F8104590
:1078D0000197019817600029E0D096F9302055F8FB
:1078E0002220002ADAD001220B4902FA03F3C1F860
:1078F000043302B0F0BC70474FF0A043D3F810350A
:10790000C34013F0010F0CBF4FF400314FF440316E
:10791000B6E700BF682C002000600040F0B4264CA1
:10792000231893F93030072B28DCD9B2072933D834
:107930009A0002F1804202F5C042204FD2F8106551
:1079400001259D4026F0010603F5A273C2F81065DB
:10795000C7F808534FF0A046002500F5E07247F83D
:10796000235002274FF0FF3546F8227044F821508B
:107970002044FF2380F83030F0BC7047820002F1D1
:10798000A042D9B2D2F8003723F44033C2F800370E
:10799000D2F80037C2F800374FF0A04600F5E07388
:1079A00065184FF0FF32022746F8237085F848200B
:1079B00044F82120DCE700BF682C00200060004074
:1079C0004FF0A043D3F8103523FA00F000F0010087
:1079D000704700BF2DE9F04F87B00023CC4A0193D8
:1079E0001168012900F00A821E46CA4B1A68012A52
:1079F00000F0F681C84B1A68012A00F0E381C74BFA
:107A00001A68012A00F0D081C54B1A68012A00F0DB
:107A1000BD81C44B1A68012A00F0AA81C24B1A68C2
:107A2000012A00F09781C14B1A68012A00F0848175
:107A3000BF4B1A68012A00F05E8116F0FF0F1AD0C2
:107A4000BC4F01250024A30003F180432E4203F51F
:107A5000C0434FEA45050BD0D3F8100557F8242052
:107A6000D3F81015C0F30420C1F3014102B19047CF
:107A70000134082CE7D1002E02DB07B0BDE8F08FFF
:107A800000224FF0FF33AB4C02920393012502AE6C
:107A900094F950104F1C2DD0C9B221F0C00006AB94
:107AA0004FEAD00E03EB0E0701F0070317F80C2C7A
:107AB00005FA03F31A421DD02218890992F93020E1
:107AC00054F82220002A00F0F080032900F0F08012
:107AD0004FEA800E0EF1A04E17F814CCDEF80077B6
:107AE0001CEA0303C7F3014940F0B880B9F1030F62
:107AF00000F0D7814FF0030A4FF002094FF0010860
:107B0000002794F95110481C2DD0C9B221F0C000B3
:107B100006AB4FEAD00C03EB0C0E01F007031EF886
:107B20000C2C05FA03F31A421DD02218890992F988
:107B3000302054F82220002A00F0CA80032900F0E7
:107B4000CA804FEA800C0CF1A04C1EF814BCDCF883
:107B500000E71BEA030FCEF3014E40F09080BEF128
:107B6000030F00F08A8194F952104A1C2CD0C9B23C
:107B700021F0C00006AB4FEAD00C03EB0C0E01F075
:107B800007031EF80C2C05FA03F31A421CD0221826
:107B9000890992F9302054F82220002A00F08F80C1
:107BA000032900F08E804FEA800C0CF1A04C1EF8E7
:107BB00014ACDCF800E71AEA030FCEF3014E6AD1E9
:107BC000BEF1030F00F0468194F953104B1C2CD0EA
:107BD000C9B221F0C00006AB4FEAD00E03EB0E0293
:107BE00001F0070312F80CCC05FA03F31CEA030FAB
:107BF0001BD004EB000C89099CF930C054F82C9080
:107C0000B9F1000F6ED003296ED04FEA800E0EF14D
:107C1000A04E12F814CCDEF800271CEA030FC2F3C2
:107C2000014211D1032A00F0F580002F3FF425AF67
:107C30004FF0A043019AD3F810359A423FF41DAF9C
:107C4000029A0193039223E7022AEED1032900F05E
:107C50004681B9F1000FE8D0C847E6E7B9F1020F55
:107C60007FF448AF032900F043814FF0030A4FF03F
:107C700001080027002A3FF444AF904741E7BEF1D6
:107C8000020F7FF470AF032900F02C81002A3FF42B
:107C90006AAF904767E7BEF1020F95D1032900F064
:107CA0002481002A90D090478EE703297FF422AFE9
:107CB00016F80EC04CEA030C06F80EC008E70329BC
:107CC00082D116F80CA04AEA030A06F80CA06AE76B
:107CD00003297FF448AF16F80CB04BEA030B06F803
:107CE0000CB02EE70329A0D116F80EC04CEA030C05
:107CF00006F80EC089E700221A601B6805934FF052
:107D0000A043059AD3F81035019346F0004694E657
:107D10000061004004610040086100400C610040C7
:107D20001061004014610040186100401C61004077
:107D30007C610040682C00206F4AD2F804231206B0
:107D40007FF576AE00221A601B680493049B46F010
:107D500080066DE6684AD2F8042351067FF563AECB
:107D600000221A601B680493049B46F040065AE602
:107D7000614AD2F8042390067FF550AE00221A60C3
:107D80001B680493049B46F0200647E65A4AD2F843
:107D90000423D4067FF53DAE00221A601B680493CD
:107DA000049B46F0100634E6534AD2F80423150724
:107DB0007FF52AAE00221A601B680493049B46F0EC
:107DC000080621E64C4AD2F8042357077FF517AE80
:107DD00000221A601B680493049B46F004060EE61A
:107DE000454AD2F8042392077FF504AE00221A60B8
:107DF0001B680493049B46F00206FBE53E49D1F85C
:107E0000046316F001063FF4F0AD136013680493A9
:107E1000049BEAE503297FF41CAF4FF40032DEF83F
:107E2000003723F44033CEF80037DEF80037134331
:107E3000CEF80037B9F1000F01D047460CE74FF0FC
:107E4000A043019AD3F8103593427FF4F9AE07B0FE
:107E5000BDE8F08F03297FF424AF4FF40037DCF83E
:107E6000003723F44033CCF80037DCF800373B43CD
:107E7000CCF800374746C84613E703297FF406AF1E
:107E80004FF40037DCF8003723F44033CCF80037E8
:107E9000DCF800373B43CCF800374746C846D146AC
:107EA000F4E6032906D0CA461F464FF002094FF0F8
:107EB0000108DFE64FF40037DEF8003723F44033E3
:107EC000CEF80037DEF800373B43CEF800374FF0EE
:107ED000040A4FF003094FF002080127CAE64FF4E5
:107EE00040329CE74FF44037CCE74FF44037B6E7D9
:107EF0004FF44037E0E700BF00600040F0B5047980
:107F0000714E6401331987B0DD7E15B1082007B0CA
:107F1000F0BD4D7F1D770D686B1C0BD04FF0A04757
:107F20000123AB40C7F808350B6803F5E073032560
:107F300047F823504B685F1C06D003F5E0734FF001
:107F4000A045002745F82370037906EB43131B7FF8
:107F5000002B4CD003688D69C3F824550F7D4B7DF1
:107F600005683B43C5F86C3503680F684D68C3F876
:107F70000C75C3F814550B7D012B00F09A80331952
:107F800005465A600B693351EAB10379097F0268EB
:107F900006EB43131B7F002B65D1C2F81C31D2F8CE
:107FA0001C712A680097009FC2F84431D2F844211E
:107FB0002B6846480192019AC3F80403286840F3ED
:107FC0000730FFF71FFB2B792A6806EB43131B7F53
:107FD000002B44D00823C2F800353444002001238C
:107FE000E376E0752076A075A07607B0F0BD056851
:107FF0008F69C5F8247591F814E04D7D076845EA4E
:108000000E05C7F86C550568D1F800E04F68C5F853
:108010001475C5F80CE50D7D012DB0D18D686F1C70
:1080200005D005F5E0754FF0A04747F82530CB683F
:108030005D1C0DD001254FF0A04705FA03F3C7F8EA
:108040000835CB6803F5E073032547F82350CB6868
:1080500005688F68C5F80835C5F810758FE70423E3
:10806000C2F80035B9E70023C2F81031D2F8107118
:108070002A680297029FC2F82031D2F820712A683C
:108080000397039FC2F82431D2F824712A68049719
:10809000049FC2F84431D2F844212B6805920C4861
:1080A000059AC3F80403286840F30730FFF7AAFADB
:1080B00089E78B685D1CBAD003F5E0734FF0A045EB
:1080C000002745F82370B2E7C02C00208000020092
:1080D00010030200F0B502793C4B04685201991874
:1080E000097F00296CD00021C4F80015991849684F
:1080F000B1B1017903EB4111097F002963D1016816
:10810000334CC1F808430168324E090B4CB2640984
:10811000203401F01F01012505FA01F146F8241071
:108120000179076803EB4111D7F80C65097FD7F88F
:1081300014554FF0FF3EA9B3D7F80815D7F81045EE
:10814000C7F80CE5C7F814E50068C0F808E5C0F802
:1081500010E5771C06D006F5E0764FF0A040022728
:1081600040F826706E1C06D005F5E0754FF0A04073
:10817000022640F82560651C06D004F5E0744FF037
:10818000A040022540F82450481C06D001F5E071BB
:108190004FF0A040022440F8214013440022DA7638
:1081A0005A60F0BDD7F80815D7F81045C7F814E5A0
:1081B000C7F80CE50068C0F808E5C0F810E5C8E7A6
:1081C000C4F8001592E70168034C9AE7C02C002020
:1081D0008402020000E100E010030200F0B5037920
:1081E000524C5B01E51887B02D7F3DB101F0604531
:1081F000B5F1005F02D0102007B0F0BD23449E7D92
:1082000016B1112007B0F0BD9A7599609E8205796C
:108210006D016219137F13BB0168C1F81C31D1F8DD
:108220001C61016804960126049F8E600168D2F8E3
:1082300008E0C1F81C31D1F81C310593059B968AE2
:10824000938A5768B6B201331EF806609BB29382D8
:10825000C1F81C65002F2FD0002007B0F0BD0368C7
:108260009168C3F82061D3F8207103680197019FDA
:10827000C3F85861D3F8586103680296967D029F4F
:10828000C3F84415C3F84865036801219960536831
:10829000002BE1D1036801E0002945D1D3F820216A
:1082A000D3F85811002AF7D0002914BF0F2000205E
:1082B0002C440023A3759FE7967D938A9BB29E4230
:1082C00002F1140122D9016804E0938A9BB2B3F54C
:1082D000807F03D0D1F81C31002BF6D0938A9BB25B
:1082E000B3F5807FE9D0C1F81C71D1F81C3103933C
:1082F000039BB2F814C0938A1FFA8CFC01331EF85A
:108300000CC09BB29382C1F81CC5D6E70B889BB208
:10831000B3F5807F08D00268D2F81C31002BFBD067
:108320000123D3600020C3E70F20C1E7C02C002049
:1083300070B5A54C237F8EB0002B73D1A34AD2F821
:108340000413890546D4A14BD3F80423520704D55E
:10835000D3F80821002A40F0C9809C4BD3F81C2197
:10836000BAB1A28AA17D92B28A424FF00002C3F84C
:108370001C2180F0A880D3F81C210692069AA18ABD
:10838000A28AA06889B20132415C92B2A282C3F88B
:108390001C158E4BD3F84421D2B10022C3F84421DE
:1083A000D3F84411A27E04910499002A40F08880F9
:1083B000E37D6BB10023617EE268E37501238DF8F4
:1083C00030108DF828300B9294E80A000AA89847DC
:1083D0000EB070BDD2F824110029B4D0C2F82431F7
:1083E000D2F82411A37E07914FF401710798C2F8C7
:1083F00008130BB901235360744A02238DF8283007
:10840000D2F88034C2F88034E07DE2680D93002316
:108410008DF83000E375237621680B9263680AA813
:1084200098479AE7694BD3F82421002A40F09280BC
:10843000D3F8101161B1C3F81021D3F810110391D2
:108440000399D3F83C15E07DC9B2884200F0A480BE
:108450005E4BD3F84421B2B10022C3F84421D3F8D3
:108460004401E17D0190019869B1D3F83C35E168A0
:108470008DF8303001230B918DF82830E27594E8A7
:108480000A000AA89847514BD3F82021002A9FD010
:108490000022C3F82021D3F82001A17D009000988C
:1084A000002995D0D3F84C15A3688DF830100B93A4
:1084B0008DF82820A27594E80A000AA8984787E753
:1084C00001221A6074E7D3F81C310593059B00293B
:1084D0003FF45FAFA3688DF830100B938DF8282020
:1084E000A27594E80A000AA8984752E7E27D002A9C
:1084F0006ED00022C3F80821D3F808210892089A08
:10850000E168627ED3F818358B54637EE27D0133D7
:10851000DBB26376637E93427FF41FAF237E002B32
:108520006CD1A37E13B9294B01225A60274AE06817
:1085300063684FF40171C2F80813627E8DF8302031
:10854000002501220B902168E5758DF828200AA8E6
:10855000984702E70022C3F82421D3F8241102919E
:1085600002218DF828100299D3F88014C3F88014E2
:108570000D91D3F83C15E368E27522768DF8301042
:108580000B93216863680AA89847104BD3F84421DD
:10859000002A3FF478AF5FE7217E11B3D3F8006281
:1085A000E568E17526F02006C3F8006226698DF8BB
:1085B000300001238DF82830227621680B95E66083
:1085C00063680AA8984743E7C02C002000200040B9
:1085D000C3F80821D3F8081109910999D3F818357F
:1085E00098E7E268E17501238DF830008DF82830B6
:1085F0000B9294E80A000AA8984729E7607EE5688C
:108600002169E375012200238DF83000E1602376B3
:1086100063760B958DF8282094E80A000AA89847FD
:108620009BE600BF2DE9F0414479554EE7003D1926
:10863000AD0006EB050E9EF81CC0BCF1000F02D089
:108640000820BDE8F0817251CEF804300B7B91F820
:1086500000E0012B4FF0A0454FF0010303FA0EF3A9
:1086600094BFC5F80C35C5F808350D784FF0A04E0D
:1086700005F5E07501234EF825304D78FF2D74D0B7
:1086800005F5E07CAB404FF00308CEF80C354EF812
:108690002C8091F802E0BEF1FF0F63D00EF5E07C74
:1086A0004FF0A0434FF0040843F82C8091F803C02A
:1086B000BCF1FF0F0FD04FF0A048012303FA0CF3D9
:1086C000C8F80835CB7803F5E0734FF0030C48F891
:1086D00023C091F803C0437903EBC30306EB830384
:1086E00083F81EC0036891F800C0C3F808C5C3F83A
:1086F0000C55C3F810E58D68C3F824554D7B91F8EF
:108700000CE0003518BF0125BEF1020F30D0BEF1DC
:10871000030F24D0BEF1010F01D145F00205C3F8CB
:108720005455457991F805E005EBC50506EB85053F
:1087300085F81FE0FAB104250122C3F80453C3F8F9
:108740000025097990F90400FEF75CFF3C4406EB34
:1087500084060123002033777077BDE8F08145F06F
:108760000605DCE74FF0FF3EA0E74FF0FF3590E74E
:1087700045F00405D3E70122C3F80025E6E700BF72
:10878000E02C00202DE9F04345796A4EEF007C197A
:10879000A40006EB040E85B09EF81D809DF830C045
:1087A000B8F1000F03D0112005B0BDE8F0833459B3
:1087B0001CB14FF001088EF81D804FF00C0E4FF0E9
:1087C000240818FB05E806EB080907EB050E46F838
:1087D000081006EB8E0E89F80420C9F8083089F8D5
:1087E0000CC09EF821300EF120089EF81EE003F028
:1087F000FC036FF38203BEF1FF0F88F8013006D04F
:1088000001234FF0A04803FA0EF3C8F80C350068B6
:1088100004234FF0000EC0F80833C0F808E17B19BC
:10882000D0F80881CDF80C8006EB8303DDF80C80CE
:1088300083F820E09AB9DB7FC0F81C35BCF1010F4A
:1088400005D97B1906EB8303DB7FC0F81C357CB1AF
:108850000423C0F80433002005B0BDE8F0830B7892
:10886000C0F81C35012AE9D94B78C0F81C35EEE771
:108870007A1906EB820292F818E0D0F80831002B42
:10888000FBD0C0F80841D0F808310293029B92F85F
:108890002010D0F818357145DBB28DF8073004D2BE
:1088A00053699DF807E003F801E092F8203092F850
:1088B00021E00133DBB21EF0040F82F8203003F117
:1088C000010116D092F810C092F818E08C450DD92D
:1088D000714511740CD392F810C08C4515D9D3682A
:1088E00092F818E05B5CC0F81C35C6E771450CD205
:1088F000117692F810C06145F1D392F818E07145F5
:1089000003D2D37FC0F81C35B7E79C45B5D89E4548
:10891000B3D83D4406EB8506B27FFF2A07D001237A
:108920004FF0A0419340C1F8083500203CE70020FB
:108930003AE700BFE02C002030B52C4A2C4B002138
:10894000C2F8081183B0D2F8081101910199187E7C
:10895000D2F8181593F82020C9B290428DF8031070
:1089600005D959699DF80300885493F8202093F89D
:108970002100013210F0040F187CD2B283F82020BD
:1089800002F1010184B208D0A1421D7E02D2C8B218
:1089900018740C46A94212D21976A14208D31D7E42
:1089A000A9420CD2114ADB7FC2F81C3503B030BD9E
:1089B000DA680E4B525CC3F81C2503B030BD82420E
:1089C000F4D3AA42F2D3997FFF2905D001224FF0B8
:1089D000A0408A40C0F8082500225A771A725968C8
:1089E0001A680448904703B030BD00BF0030004013
:1089F000E02C0020E82C002030B54FF0402200236E
:108A0000C2F8083183B0D2F8083101932D4B019997
:108A100093F83C00D2F8181593F84420C9B290425C
:108A20008DF8031005D9996B9DF80300885493F8CD
:108A3000442093F84500013210F0040F93F83400FD
:108A4000D2B283F8442002F1010184B20BD0A142DA
:108A500093F83C5003D2C8B283F834000C46A942C4
:108A600017D283F83C10A1420BD393F83C50A94293
:108A70000FD24FF0402293F84330C2F81C3503B0B8
:108A800030BD1A6B4FF04023525CC3F81C2503B075
:108A900030BD8242F3D3AA42F1D393F84210FF29AA
:108AA00005D001224FF0A0408A40C0F808250022DE
:108AB00083F8412083F82C20996A5A6A024890472B
:108AC00003B030BDE02C00200C2D00206DDF70477E
:108AD00072DF704779DF70477DDF704764DF704772
