:020000021000EC
:10F000000000012071360200993602009B36020092
:10F010009D3602009F360200A1360200000000006B
:10F02000000000000000000000000000A336020005
:10F03000A536020000000000A7360200A936020033
:10F0400065100200AB3602005D220200BD270200FF
:10F05000AB360200AB360200791402002D3C0200F0
:10F06000AB360200AB360200AB360200AB36020014
:10F07000AB360200AB360200AB360200AB36020004
:10F08000AB36020059F80100AB360200AB36020085
:10F09000F9F80100AB360200813B0200AB360200FA
:10F0A000AB360200AB360200AB360200AB360200D4
:10F0B000AB360200AB36020000000000000000008A
:10F0C000AB360200AB360200AB360200AB360200B4
:10F0D000AB360200AB360200AB3602000000000087
:10F0E0000000000000000000000000000000000020
:10F0F0000000000000000000000000000000000010
:10F1000000000000000000000000000000000000FF
:10F1100000000000000000000000000000000000EF
:10F1200000000000000000000000000000000000DF
:10F1300000000000000000000000000000000000CF
:10F1400000000000000000000000000000000000BF
:10F1500000000000000000000000000000000000AF
:10F16000000000000000000000000000000000009F
:10F17000000000000000000000000000000000008F
:10F18000000000000000000000000000000000007F
:10F19000000000000000000000000000000000006F
:10F1A000000000000000000000000000000000005F
:10F1B000000000000000000000000000000000004F
:10F1C000000000000000000000000000000000003F
:10F1D000000000000000000000000000000000002F
:10F1E000000000000000000000000000000000001F
:10F1F000000000000000000000000000000000000F
:10F2000010B5054C237833B9044B13B10448AFF360
:10F2100000800123237010BD38280020000000006A
:10F22000547A02000C4B43B10C480D4910B5AFF3B2
:10F2300000800C48036823B910BD0A48036833B93D
:10F240007047094B002BF7D0BDE810401847064B1C
:10F25000002BF5D0184700BF00000000547A0200D0
:10F260003C2800202428002000000000154B002B23
:10F2700008BF134B9D46A3F5803A00218B460F46ED
:10F280001348144A121A00F063F80F4B002B00D0F9
:10F2900098470E4B002B00D0984700200021040017
:10F2A0000D000D48002802D00C48AFF3008000F09C
:10F2B0002BF82000290006F033F900F011F800BF08
:10F2C0000000080000000120000000000000000015
:10F2D00038280020406100200000000000000000ED
:10F2E00008B5074B044613B10021AFF30080054B6E
:10F2F0001868836A03B19847204600F031F800BFD0
:10F30000000000007873020070B50D4E0D4CA41B78
:10F31000A4100025A54209D10B4E0C4C08F020F892
:10F32000A41BA4100025A54205D170BD56F82530B8
:10F3300098470135EEE756F8253098470135F2E752
:10F34000102800201028002010280020202800204D
:10F3500002440346934200D1704703F8011BF9E7CA
:10F36000FEE700BF0378012B04BF014A137070470A
:10F3700056280020F0B5174F3B7889B01BB1164BCB
:10F380001B78834222D0154D06460FCD6C460FC424
:10F3900095E80F00062584E80F00082105220723C1
:10F3A0000F48019103920095029302F0DDFC002EBC
:10F3B0000C4A0B4818BF0022694602F0E9FB18B955
:10F3C000054A012316703B7009B0F0BD002009B05A
:10F3D000F0BD00BF55280020542800207C73020097
:10F3E000F427002065F301000120FFF7C3BF00BF31
:10F3F0002DE9F04383B002AB4FF0000803F8018D14
:10F40000254C074618460E46A56800F009FFA2687D
:10F410006368D4F8009013440133A3EB0903012B74
:10F4200007D80BBB9DF8070000F020FF03B0BDE834
:10F43000F08309F101039DF80700236000F016FF37
:10F440000122002362F3010368F3820305EA090540
:10F4500067F3C50304EB850468F3891366F39F2300
:10F46000E36003B0BDE8F0830121434661F301038B
:10F4700068F38203052161F3C50309EA0202074923
:10F4800004EB820268F3891309F1010561F39F23FC
:10F490002560D360C6E700BF582800209C73020097
:10F4A0002DE9F04782B002AB002503F8015D294C3D
:10F4B0008146184617468846A66800F0B1FEA26845
:10F4C0006368D4F800A013440133A3EB0A03022BB2
:10F4D00007D843BB9DF8070000F0C8FE02B0BDE8A6
:10F4E000F0870AF102039DF80700236000F0BEFEDA
:10F4F0000121002361F301030AEB010265F382039A
:10F5000069F3C50306EA0A0A164004EB8A0A61F3A6
:10F51000891304EB860468F39F23CAF80C30E76074
:10F5200002B0BDE8F08701212B4661F3010365F3CA
:10F530008203052161F3C5030AEA0202064804EBCF
:10F54000820265F389130AF1010160F39F232160B0
:10F55000D360BFE7582800209C7302002DE9F04FCC
:10F5600083B002AE002506F8015D2D4C8246304680
:10F5700090461F468946A66800F052FEA26863685E
:10F58000D4F800B013440133A3EB0B03032B07D8CB
:10F590007BBB9DF8070000F069FE03B0BDE8F08F6B
:10F5A0000BF103039DF80700236000F05FFE0122CA
:10F5B000002362F301030BF1020165F382035A4455
:10F5C0006AF3C503022006EA0B0B32400E4004EB3F
:10F5D0008B0B04EB820260F3891304EB860469F35E
:10F5E0009F23CBF80C30C2F80C80E76003B0BDE875
:10F5F000F08F01212B4661F3010365F3820305219E
:10F6000061F3C5030BEA0202064804EB820265F3CC
:10F6100089130BF1010160F39F232160D360B8E7E8
:10F62000582800209C7302002DE9F0434F4E71686A
:10F6300032688A428BB078D0B76807EA0105023594
:10F6400006EB85020131546814F003030ED1C4F3B4
:10F65000891303EB94530B4407EA0305023506EBC9
:10F660008502591C546814F00303F0D0022B2CD0EF
:10F67000C4F38313C4F39522002B73D00DF1100C47
:10F68000604601EB030E07EA010506EB850501F173
:10F690000108F045E96840F8041B4146F3D10093A6
:10F6A000C4F3C2006346D6F810440021A04748B115
:10F6B000C6F804803068B0EB080018BF01200BB01A
:10F6C000BDE8F083D6F80480F4E701F1010827EAE9
:10F6D000080001EA0703013006EB830380004FEACC
:10F6E00094598145DA68C4F3891322D988B307EAAB
:10F6F0000801C7B20331A9EB0700DFF874E006EB9D
:10F700008101C0B28DE882400390D6F814740021C4
:10F71000C4F3C200B847484520D006EB850560F326
:10F720008F146C60D6F80480C4E700200BB0BDE8ED
:10F73000F08307EA0800033006EB800000218DE823
:10F74000010203910291D6F81474C4F3C200B847C1
:10F75000E1E786465FFA89F70549D3E7033008EB0E
:10F760009008A5E788460DF1100C98E7582800206E
:10F770006428002000B585B000230390194601AA33
:10F7800044F20100ADF80430029300F003F805B034
:10F790005DF804FB08B50D490120FFF729FEFFF7CE
:10F7A00023FEFFF741FF0028FBD109490320FFF7A3
:10F7B0001FFEBFF34F8F0749074BCA6802F4E06290
:10F7C0001343CB60BFF34F8F00BFFDE7A873020068
:10F7D000B873020000ED00E00400FA0559B10AB95F
:10F7E00009207047531E1A40FAD18260016083805D
:10F7F000C260104670470E20704700BF10B4846886
:10F80000C26803468088121B904203D204205DF830
:10F81000044B7047DA681C6802400020A154DA6883
:10F820000132DA605DF8044B704700BF0346806820
:10F83000DA6890420DD010B498689A881C6802402B
:10F840000020A25C0A709A6801329A605DF8044B4D
:10F8500070470520704700BFF8B5204A204B0025AF
:10F86000C2F84051C2F84451C2F84851C2F84C5154
:10F87000C2F80051C2F804511B6813B31949D2F8F9
:10F8800004450A68A41A1A6824F07F44A2422F464D
:10F8900009D8197CDE69A41A154499B91EB13346FA
:10F8A0001A68A242F5D91049104A0B7812789A4288
:10F8B0000DD00F490F4A41F823504FF48013C2F87E
:10F8C0000031F8BD1F745A6998699047E6E7531CE8
:10F8D000DBB2022B08BF00230B70EAE700100140E7
:10F8E000902D00208C2D0020892D0020882D0020B7
:10F8F000802D002000E100E02DE9F04F7D4A7E4997
:10F900001378097899428BB03BD00133DBB27B4945
:10F910000491022B0D687A49069108BF00231370E9
:10F92000784A084652F82310D0F80090049A6B18D1
:10F93000002423F07F434E46AC4613602046274602
:10F940002546AEB133688B4200F2ED81F468376032
:10F95000C91A1844F3693CB10CEB000E2EF07F423B
:10F96000F561B460726035461E460124002EE9D16F
:10F970002A46B146002C40F0DB8201230793069B08
:10F9800007E05F4B5D4A0492D3F800900693002293
:10F990000792D3F800A05C4BDFF874C11B78059385
:10F9A000049B186800234946CE460893D146099324
:10F9B00003934FF0010B17469A46804637B37C6895
:10F9C000BD683B46FF695148A4EB080222F07F4224
:10F9D000824258D815441D60002283F810B05A6046
:10F9E0009A60DA6100296ED00868854263D90C46B6
:10F9F00003E01068A8424FD21446E2692D1A002A8B
:10FA0000F7D11D60DA61E361002FD8D10297CDF8FC
:10FA100004E09CF801709CF800200025974200F05B
:10FA20008680104600EB40000CEBC000541C9CF894
:10FA30000230E2B204798CF80020934204BF8CF8C3
:10FA400000500022022C83684ED0032C40D0012CA1
:10FA5000E4D11E7C002EE1D1C4685C6005699D6024
:10FA60004269DA6082699A61059A029FDDF804E0D2
:10FA7000002AA8D03446A4EB080224485E6022F095
:10FA80007F428242A6D9A8EB040424F07F44AC4212
:10FA900008D22D1B1D609FE7401B10601D60DA61BE
:10FAA000E361B1E7002583F810B01D605D609D60E3
:10FAB000DD6141B10868451B0D609946D9614FF081
:10FAC000010A19467AE7994619464FF0010A75E787
:10FAD0000029A3D00022CB690A741946002BFAD161
:10FAE00099464FF0010A94E7D9B19942084615D1D9
:10FAF00010E100BF882D0020892D00208C2D0020D2
:10FB0000902D0020802D00207C2D0020FEFF7F0006
:10FB1000702C0020A34200F0E8802046C469002C2D
:10FB2000F8D10E4697421D7431467FF47AAF4046B5
:10FB3000D046CA46DDF80490B8F1000F40F0F481D9
:10FB4000099B002B40F0ED81089B1BB17B4B9DF87E
:10FB500014201A70039B13B9494500F04C81002909
:10FB600000F04E81764C049BD4F804051B68754D5B
:10FB70000F682978C21A22F07F420332002951D13E
:10FB80007149DFF8C8C1DFF8C8E14FF48036C4F826
:10FB90004463C4F804634FF40036C1F880610E601A
:10FBA000012626602F21DCF8004000BF00BF00BF07
:10FBB00000BF00BF00BF00BF00BF74452FD000BF13
:10FBC00000BF00BF00BF00BF00BF00BF00BF00BF3D
:10FBD00000BF00BF00BF00BF00BF00BF00BF00BF2D
:10FBE00000BF00BF00BF00BF00BF00BF00BF00BF1D
:10FBF00000BF00BF00BF00BF00BF00BF00BF00BF0D
:10FC000000BF00BF00BF00BF00BF00BF00BF00BFFC
:10FC100000BF00BF00BF00BF00BF00BF00BF013971
:10FC2000C3D12E7097422CBFDB199B18444923F097
:10FC30007F43C1F84035D1F80425121A1B1A22F06F
:10FC40007F4223F07F4303329A4248D9D1F80435EA
:10FC50003E4AC1F8403512683D492F2300BF00BF1E
:10FC600000BF00BF00BF00BF00BF00BF8A422FD04F
:10FC700000BF00BF00BF00BF00BF00BF00BF00BF8C
:10FC800000BF00BF00BF00BF00BF00BF00BF00BF7C
:10FC900000BF00BF00BF00BF00BF00BF00BF00BF6C
:10FCA00000BF00BF00BF00BF00BF00BF00BF00BF5C
:10FCB00000BF00BF00BF00BF00BF00BF00BF00BF4C
:10FCC00000BF00BF00BF00BF00BF00BF00BF00BF3C
:10FCD000013BC3D11C4B4FF40032C3F80021174A3B
:10FCE000002313700BB0BDE8F08F834212D00E4694
:10FCF000DC69D3F800E0C46134B122687244226048
:10FD00009CF800209CF801700398B14218BF0120B4
:10FD1000039007E7D1F81C90B9F1000F1AD04E46B6
:10FD20004FF0010AE4E72A46B146002C60D15B1A85
:10FD3000C9F8003001230793069B2AE67C2D00209A
:10FD4000001001407D2D002000E100E0042800208B
:10FD50000024F400784E794CC6F808B0784E4FF085
:10FD60002F0E366800BF00BF00BF00BF00BF00BF3E
:10FD700000BF00BFA6422FD000BF00BF00BF00BF22
:10FD800000BF00BF00BF00BF00BF00BF00BF00BF7B
:10FD900000BF00BF00BF00BF00BF00BF00BF00BF6B
:10FDA00000BF00BF00BF00BF00BF00BF00BF00BF5B
:10FDB00000BF00BF00BF00BF00BF00BF00BF00BF4B
:10FDC00000BF00BF00BF00BF00BF00BF00BF00BF3B
:10FDD00000BF00BF00BF00BFBEF1010EC2D10126AF
:10FDE00034460896C8464E4605940994A2467FE7D5
:10FDF000069806609BE7079B002B3FF470AFAEE6CA
:10FE00004D4A504B4E4E4D4C4FF480304FF400371E
:10FE10000125C3F88070C2F848032F23C2F80803F5
:10FE2000556030681E4600BF00BF00BF00BF00BF66
:10FE300000BF00BF00BFA0422FD000BF00BF00BF67
:10FE400000BF00BF00BF00BF00BF00BF00BF00BFBA
:10FE500000BF00BF00BF00BF00BF00BF00BF00BFAA
:10FE600000BF00BF00BF00BF00BF00BF00BF00BF9A
:10FE700000BF00BF00BF00BF00BF00BF00BF00BF8A
:10FE800000BF00BF00BF00BF00BF00BF00BF00BF7A
:10FE900000BF00BF00BF00BF00BF013EC3D19560DF
:10FEA000049A116000BF00BF00BF00BF00BF00BFC9
:10FEB00000BF00BFA0422FD000BF00BF00BF00BFE7
:10FEC00000BF00BF00BF00BF00BF00BF00BF00BF3A
:10FED00000BF00BF00BF00BF00BF00BF00BF00BF2A
:10FEE00000BF00BF00BF00BF00BF00BF00BF00BF1A
:10FEF00000BF00BF00BF00BF00BF00BF00BF00BF0A
:10FF000000BF00BF00BF00BF00BF00BF00BF00BFF9
:10FF100000BF00BF00BF00BF013BC3D10A4B197037
:10FF2000DDE6049B18600FE6069BC3F800A007E619
:10FF3000069B1E6021E500BF001001400024F40074
:10FF40000428002000E100E07D2D0020F0B4564B95
:10FF5000564A574E574C4FF480304FF4003101252C
:10FF6000C2F88010C3F848032F21C3F808035D606E
:10FF700030680E4600BF00BF00BF00BF00BF00BF1B
:10FF800000BF00BFA0422FD000BF00BF00BF00BF16
:10FF900000BF00BF00BF00BF00BF00BF00BF00BF69
:10FFA00000BF00BF00BF00BF00BF00BF00BF00BF59
:10FFB00000BF00BF00BF00BF00BF00BF00BF00BF49
:10FFC00000BF00BF00BF00BF00BF00BF00BF00BF39
:10FFD00000BF00BF00BF00BF00BF00BF00BF00BF29
:10FFE00000BF00BF00BF00BF013EC3D19D6000BF86
:10FFF00000BF00BF00BF00BF00BF00BF00BFA042E6
:020000022000DC
:100000002FD000BF00BF00BF00BF00BF00BF00BFB8
:1000100000BF00BF00BF00BF00BF00BF00BF00BFE8
:1000200000BF00BF00BF00BF00BF00BF00BF00BFD8
:1000300000BF00BF00BF00BF00BF00BF00BF00BFC8
:1000400000BF00BF00BF00BF00BF00BF00BF00BFB8
:1000500000BF00BF00BF00BF00BF00BF00BF00BFA8
:1000600000BF0139C3D1144E144D154C1549164F1C
:1000700000203070286020704FF48015E0240B269B
:10008000087048708E7038701049C2F8805182F83C
:1000900014431560C3F8080582F81143D3F80435FA
:1000A0000B60F0BC704700BF0010014000E100E0B1
:1000B000042800200024F4007D2D0020902D002035
:1000C000882D0020702C0020892D00208C2D0020F0
:1000D000074B9B780BB9082070473AB130B10368E1
:1000E000187C0028F7D159745A617047072070476F
:1000F000702C00202DE9F043264CA37883B01BB967
:10010000082003B0BDE8F0830028F9D0042903D803
:10011000072003B0BDE8F0834369002BF0D006460A
:1001200002A8737C0025012B00F8015D0CBF8946F5
:10013000A94690460F4600F073F86378A0782178BE
:100140005A1CD2B2904208BF2A4691421BD003EB00
:10015000430304EBC30301200F4918719E60D1F8DB
:1001600004159DF80700D9601F61C3F81490C3F807
:100170001880627000F07AF8084B4FF4801228461D
:10018000C3F80021BDE79DF8070000F06FF80420D8
:10019000B7E700BF702C00200010014000E100E034
:1001A00070B51B4CA37882B013B9082002B070BDA3
:1001B0000028FAD04369002BF7D0064602A8002594
:1001C00000F8015D357400F02BF86278A078217892
:1001D000531CDBB2984208BF2B46994212D002EB67
:1001E000420204EBC20202219DF8070096601171E1
:1001F000637000F03BF8074B4FF480122846C3F8B9
:100200000021D3E79DF8070000F030F80420CDE787
:10021000702C002000E100E0401A20F07F40704781
:1002200070B4EFF3108472B60D4B9A68AAB90D49F9
:100230000D4E01259D60D1F8805035401D60C1F8FC
:100240008060D1F884505D604FF0FF33C1F8843096
:10025000027004B962B670BC704701230370F8E7FE
:100260003061002000E100E0FC06FFBD094B9A6808
:1002700072B168B910B4EFF3108272B606491C6807
:100280000C605C684C60986002B962B65DF8044B23
:10029000704700BF3061002000E100E0F0B52B4C5A
:1002A0002B4F6268668883B0002A48D03601538895
:1002B000B9190333496802EB830201F58050824289
:1002C00025D21368013318BF4FF6FF751FD09388EE
:1002D000AB4213D013888BB162601E485388868866
:1002E00001681D480025033300959BB201EB860190
:1002F0000325257000F09EFD03B0F0BD5388033345
:1003000002EB8302824202D213680133DFD13E4402
:10031000B38963B10F4D10482968022705260023D1
:100320000122AF80267000F0DBFD03B0F0BD01229A
:10033000094800F0D5FD0423237003B0F0BD360159
:10034000BB19596801F10802B7E700BF0C2E002065
:10035000942E0020B42E002028280020F0B54368F9
:100360008E464BB1324A1468A34205D35268934279
:1003700002D813F003023AD000232E4EAEF800301C
:100380004FF0010C4FF6FF757768002307F5805496
:1003900053B35A88033203EB82039C4217D91A687D
:1003A000013214D09A88AA420BD01A884AB1026846
:1003B00099689142ECD1204A43601389038101205E
:1003C000F0BD5A88033203EB8203A342E7D30CF15A
:1003D0000103AEF800C01FFA83FCBCF1030F06F165
:1003E0001006D1D10020F0BD07F10803D5E7124C6B
:1003F00005892489A542BFD105689C68A542BBD167
:100400000C4C6068834205D900F58050834201D2CC
:10041000134608E062699342E4D902F580529342A0
:1004200038BF0123DED2AEF800300120F0BD00BF9E
:1004300028280020942E00200C2E0020B3F804C0A1
:10044000BCF1010F53D82DE9F0419046294A4FF6EF
:10045000FF7702EB0C1E00229EF80040002C33D1E7
:100460001C68002C3ED06588DEF80460033504EB80
:10047000850406F58056B44225D22568013522D080
:10048000A588BD4219D02588BDB11C6018B1A688C9
:100490000588AE42E5D119B126880D88AE42E0D17B
:1004A000A268C8F800201A68134BC8F804201B89FA
:1004B000A8F808300020BDE8F0816588033504EB1A
:1004C0008504B442D9D31A600CF1010C1FFA8CFCDC
:1004D000BCF1020FA3F804C00EF1100EBCD10A202B
:1004E000BDE8F081DEF8046006F10804C1E70A20E7
:1004F000704700BF942E00200C2E00202DE9F04FF5
:10050000A94C256FEF007E1BB6008BB0A25D013AAF
:10051000824604EB0609052A31D8DFE802F05D3E89
:100520003E1D1D03002840F0D680DFF8908298F829
:100530000C30002B00F0128398F8003088F80C0083
:10054000013B062B1BD8DFE813F00701C302CE01E5
:10055000AF011A00F502E502002840F0BC80A7EBCD
:10056000050B04EB8B0B9BF80480B8F1010F00F036
:100570005083C0F03983B8F1020F00F012810F23CD
:10058000A15D06938B1E012B40F2AC80052A34D866
:10059000DFE802F030816A5E94907B1B04EB8303FA
:1005A000DFF814B2B3F812800BEB0818002840F003
:1005B000AA80B8F808A0D8F804101B7C01EB8A0ABE
:1005C000062B00F29A83DFE813F0A601E901D201BD
:1005D0003602200206020302002840F08D8099F8BE
:1005E0000430032B00F20581DFE813F03E014B01DC
:1005F0002E010A0100238DF814306C4D05F1200600
:1006000055F8043F0BB105A89847B542F8D1206FC3
:10061000C0EBC00004EB80001C220021FEF798FE16
:10062000636F3BB1226F0132013B02F0030263674B
:1006300022673BB95E4A137823F0040313700BB0B2
:10064000BDE8F08F0020FFF759FF0BB0BDE8F08F39
:100650007B1B04EB83030322D3F80610DB680891AD
:1006600007938DF81420C8E77B1B04EB830302215A
:100670001A7C1E899D88D868ADF82060A2F1060317
:10068000B3FA83F35B098DF82430ADF8225007905C
:100690008DF81410B1E77B1B04EB8303012218894A
:1006A0009988DB68ADF82000ADF8221007938DF82B
:1006B0001420A2E705238DF814309EE77B1B04EB82
:1006C00083030422DB88ADF8203000238DF814204A
:1006D000ADF8223091E7A15D012306938B1E012B1B
:1006E0003FF654AF334B99F81660186C596C304490
:1006F000891B1864596449E72D490B7823F00103DD
:100700000B7001233CE7DB88B8F80AE0B8F8080072
:10071000C3F57F41FD31033303447144A8F8083029
:10072000A8F80A1001232BE7234BB8F808101A7811
:100730001B7CB2FA82F2B3FA83F352095B090131EE
:1007400088F80A2088F80B3000220123A8F8081046
:1007500088F80C2088F8003098F80A304BB1164A17
:100760009389002188F80A101BB9927B002A40F077
:10077000A48298F80B304BB10F4B9A8B002188F86C
:100780000B101AB99B7F002B40F096827A1B002336
:1007900014F8222088F80030013AA8F80230C8F88E
:1007A000043000230693F1E61C2E00209C2D00202F
:1007B000082E0020C02D0020942E00200C2E00209A
:1007C0004FF001084FEA08180BEB08034FF0000A3E
:1007D0005968C54ACDF800A00223C44800F02AFB9E
:1007E0000BF808A000283FF42AAF7B1B14F8232045
:1007F000013ABF490B7823F001030B700E23BFE6CB
:10080000DFF8F882B84AD8F80010B8484FF0000A6C
:100810000223CDF800A000F00DFBB64BB6495B8873
:10082000D8F800E089F804A01B01CA1801F803A059
:100830005368B8F80410C8F800300223C2F804E086
:100840001181A8F80430CDE7DFF8B082A748D8F8C6
:1008500000100023012200F043FB02220023A8F82D
:10086000042089F80430BDE7A44BA54A19689F48C5
:1008700000230093022300F0DDFA012389F80430FD
:10088000B0E7DFF874B29BF80030022B00F0228250
:100890009BF81030022B93D095490B7843F002035C
:1008A00023F001030B707CE7B8F80230924A02EBA8
:1008B00003129389002B00F0DB81904B8B48196861
:1008C00002229A800522002388F80020012200F0ED
:1008D00007FB0346002B3FF4B2AE1C2202FB05F2DD
:1008E000A25C013A4CE68548D8F80420D0F800E034
:1008F000818853887D480EEB81014FF0000ECDF8C2
:1009000000E003334FF0030E9BB288F800E000F0E4
:1009100091FA0346DEE70023321D5146224400933C
:100920007248012300F086FA7B1B9B00E21802212B
:10093000117400283FF483AEE25C0E23013A791B68
:1009400004EB8101B8F80AC0C988B8F808E0C1F51D
:100950007F40FD30033160447144A8F80A00A8F8D4
:10096000081041F61D518B423FF41BAF08E60023EF
:1009700006F10C020AF10801224400935B480123AE
:1009800000F058FA7B1B9B00E218917D00290CBFF8
:100990000121032111740028CED150E6002306F175
:1009A00008020AF10401224400935048012300F098
:1009B00041FA7B1B9B00E118E25C032A0CBF052374
:1009C00006230B7400283FF43AAE013A0E23B6E733
:1009D00041F61D53B3E74B4B4B4AB3F800A05168A7
:1009E00042484A4A00230093012300F023FA0028DA
:1009F00040F035817D1B04EB85040BEB0A1A0622BF
:100A0000012322748AF80E3019E6A7EB050B4FEA92
:100A10008B0B04EB0B033C489B69036039490023B3
:100A20004360FFF79BFC00287FF475AF14F80B20A0
:100A30000A23013AA4E5DFF8D8E0DEF844C0BCF1AF
:100A4000000F00F0F180DEF8401028485EF83120F9
:100A5000A7EB050B04EB8B0B0EEBC103013101F08F
:100A60000701CEF840100CF1FF3CBBF81410CEF893
:100A700044C04FF0000E03930AEB81019B88CDF830
:100A800000E000F0D7F9039A9BF816309188BBF884
:100A90001420013B0A44DBB2ABF814208BF816306B
:100AA00013B901238BF8103000283FF4C8AD7A1B2E
:100AB0000E2314F82220013A41E7104AD8F8041016
:100AC0009388498803330B440221938088F80010EF
:100AD000FFF7E4FB0346002B3FF4B1AD1C2202FB01
:100AE00005F2A25C013A3CE7D873020028280020F6
:100AF000082E00200C2E0020942E0020B42E002062
:100B0000E0730200BC2E0020942D0020D47302005C
:100B1000C02D00207A4B7B4A19687B480023009344
:100B2000C8F80430072388F80030022300F082F967
:100B30000346CFE6B8F80230DFF8E0B11B019B4472
:100B400006200023DBF80410704A0093022388F883
:100B500000006D4800F06EF90346BBE698F80030DF
:100B6000072B2CD801A151F823F000BF2907020060
:100B7000BF0B0200BF0B0200BB0A0200950B020074
:100B8000150B0200150B02008D0B0200012388F8E3
:100B90000030E1E5B8F80230DFF880B1584A1B01B7
:100BA0000BEB03011068D1F804C0B2F804E0486010
:100BB0000220C2F800C0A1F808E09080BFE7013B26
:100BC000062B3FF6DCAC01A151F823F059070200D7
:100BD000D10A0200E7080200A90802007F0502000E
:100BE000350B0200150B0200DBF80C30CDF818A015
:100BF00005A80DF11201CDF81CA00593FFF7AEFB7F
:100C000000283FD10A237A1B04EB820202211171D2
:100C100060E63F4B1B789B0709D4014608223D48FC
:100C2000FEF796FB022359E7DCF80030FFDEDFF821
:100C3000E4B0B01D5B46204405AA5146FFF7FEFB19
:100C400000284AD1CDF800A00699334A2E48BBF8B7
:100C500004A0434600F0EEF840B30E233EE77B1BB2
:100C60009B00E118E25C06230B74013A0E2366E652
:100C700051682548012200F033F90422034688F820
:100C8000002027E60699244A8B88ABF80630B1F895
:100C900000E01D48CDF800A00123ABF808E0BDF846
:100CA000128000F0C7F870B10E23ACE71B4B03EBCA
:100CB0000A1383F80E80C2E40123A8F80230FFF77C
:100CC000EDFA034607E7154A02EB081201215346E5
:100CD000917398E74FF0000874E503905146584629
:100CE0000822FEF735FB039B0A2B7FF4F7AE1C238B
:100CF00003FB05F3E25C013A53E50F231FE600BF57
:100D0000B42E0020E073020028280020D8730200CF
:100D1000082E0020C02E0020D4730200942E002044
:100D20000846FFF7EBBB00BF29DF704728DF70479D
:100D300070B50C4D696E042911D02B6E0B44032B3A
:100D400088BF043B182202FB035406464B1C204676
:100D500000216B66FEF7FCFA3460012070BD0020B4
:100D600070BD00BFCC2E002070B5304C636E84B0D7
:100D70007BB1266E7500AB1904EBC3031A7A012A06
:100D800009D0022A26D19889FFF7D0FF112818D060
:100D900000BB04B070BDA8199A8ADB8A04EBC000BE
:100DA000D21AC1680069B2F5806F4FEA8303B4BFFD
:100DB00092B24FF4806219441844FFF7B5FF11282E
:100DC000E6D11B4A137823F0020343F004031370A7
:100DD00004B070BD102268460021FEF7B9FAAB19C5
:100DE00004EBC3031A7A012A17D0022A09D19A897F
:100DF000DB89ADF80A20D21A0123ADF808208DF85E
:100E000000303544ED00621963595268019268461A
:100E10009B680921984704B070BD1A699B8A0292A9
:100E200000218DF80010ADF80C30EAE7CC2E002040
:100E3000C82E00202DE9F041264D2C78E60782B01F
:100E400012D510B1244CA04203D2022002B0BDE85A
:100E5000F081224CA042F8D252B149B142EA0104D9
:100E6000A40707D00620F1E7012002B0BDE8F08119
:100E70000320EBE70468A14201D20520E6E74668BB
:100E800001EB8304A642F8D30BB90420DEE78046C9
:100E900001A81E4614460F46FFF74AFF08B907206F
:100EA000D4E701992B78C1F80080019A089848602E
:100EB0000121D46013F0060417619682117201D0EB
:100EC0000020C3E743F002032B70FFF74DFF2046DD
:100ED000BCE700BFC82E00202828002038280020AA
:100EE0002DE9F041244D2C78E40782B010D510B1E3
:100EF000224CA04203D2022002B0BDE8F081204C77
:100F0000A042F8D241B1C1F30B043CB10620F3E793
:100F1000012002B0BDE8F0810320EDE70468A142A2
:100F200001D20520E8E7466801EB0234A642F8D377
:100F30000AB90420E0E7804601A81E4614460F4681
:100F4000FFF7F6FE08B90720D6E701992B78C1F81C
:100F50000080019A4E600220390B148213F00604BF
:100F60009181107201D00020C6E703432B70FFF778
:100F7000FBFE2046C0E700BFC82E00202828002026
:100F80003828002010B50F4C23780BB1852010BDF8
:100F90000D4A6360E3601068A36010F001002361F4
:100FA0000BD002F093FD20B94FF080430122C3F82B
:100FB000182501232370002010BD072100F0D0F870
:100FC000EFE700BF342F002000E100E030B5224DF4
:100FD000AB7883B0044693B110B1436801209847C1
:100FE00002A8002300F8043DFFF71AF9EB689DF80A
:100FF00004000133EB60FFF739F903B030BD02A8FC
:1010000003F0FF0200F8052DFFF70AF964B12A6921
:1010100042B1944208D0134601E09C4204D01B68C0
:10102000002BFAD122602C61EB6863B90B4A0C49A2
:101030001360136801934FF0804202200123019C4A
:10104000C2F804030B60EB689DF803000133EB600A
:10105000FFF70CF903B030BD342F0020040100402D
:101060000800004010B51A4B1A6882B0A2B10022E5
:101070001A601B6800934FF080430122154C0099C1
:10108000C3F80823A368627033B10CCB0020A260C0
:101090009847A368002BF8D10F4B1A68AAB1002219
:1010A0001A601B6801934FF080430222094C01999A
:1010B000C3F8082323690122A27033B10CCB0120AD
:1010C000226198472369002BF8D102B010BD00BF00
:1010D00000010040342F00200401004058B910B531
:1010E000054CA36833B10CCB0020A2609847A368DD
:1010F000002BF8D110BD7047342F002010B582B0FE
:1011000002A80023144C00F8013DFFF789F823786A
:1011100053B1E3689DF8070001330122E360A27038
:10112000FFF7A4F802B010BD0C4A6360E3601068DA
:10113000A36010F0010023610AD002F0C7FC20B9BF
:101140004FF080430122C3F8182501232370E0E704
:10115000072100F005F8F0E7342F002000E100E05F
:10116000002810B418DB00F1604303F56143490126
:10117000C9B283F80013C3B24009800000F1604097
:1011800000F5614003F01F0201239340C0F8803155
:1011900003605DF8044B7047C3B2044A03F00F04C8
:1011A00049012244C9B21176E6E700BFFCEC00E039
:1011B00030B51D4C94F8545083B015B1082003B0DD
:1011C00030BD4FF0FF33FF22072106202363636306
:1011D000A363E36323646364A364E36423606360E1
:1011E000A360E36023616361A361E361236284F828
:1011F00050306362A36284F85230E36284F8533063
:1012000084F85120FFF7ACFF084B094A1D601B68AA
:10121000019301984FF000430121284684F85410AF
:10122000C2F8043303B030BD482F00207C61004079
:1012300000600040F0B55E4C251895F93030002B69
:1012400001DB0820F0BD91F803E0BEF1000F50D0A3
:101250002368013300F0A6800826012554F82530C4
:1012600001334CD06B1C54F82370013748D0AB1CB1
:10127000B3423CD254F82370013741D0EB1CB34247
:1012800035D254F8237001373AD02B1DB3422ED2F9
:1012900054F82370013733D06B1DB34227D254F872
:1012A000237001372CD0AB1DB34220D254F82370E9
:1012B000013725D0EB1DB34219D254F82370013702
:1012C0001ED005F10803B34211D254F82370013740
:1012D00016D005F10903B34209D254F8237001373F
:1012E0000ED00A35B54202D2E36A013358D0042049
:1012F000F0BD236A01332DD00C260925AEE72B461D
:1013000026185DB244F8232086F83050BEF1000F55
:1013100026D08B78A3B94A784FF0A04600F5E07349
:10132000920046F82320CB78F3B9083D2C44097885
:1013300094F8502042EA811284F850201846F0BDFB
:10134000830003F1A043D3F8002722F00202C3F880
:101350000027E8E7082685F83060334622623546E4
:10136000234483F84800D4E7AB0003F1804303F53E
:10137000C0430978D3F8104524F4473424F440746A
:10138000C3F8104502020904D3F8100501F44031F6
:1013900002F4F8520A430243C3F810250020F0BDBE
:1013A0000B23ADE7002385F8303022601D46B0E7FF
:1013B000482F0020F0B42E4D2E1882B096F9303010
:1013C000072B1CDD2B4493F848309B09032B41D09D
:1013D000012B14BF4FF440314FF40031800000F175
:1013E000A040D0F8002722F44032C0F80027D0F8FF
:1013F00000370B43C0F8003702B0F0BC7047DAB2D8
:10140000072AF9D8980000F1804000F5C04003F1A8
:1014100040029200D0F8104592B202F180420027BB
:1014200044F0010402F5C042C0F81045019701984C
:1014300017600029E0D096F9302055F82220002AC4
:10144000DAD001220B4902FA03F3C1F8043302B0E7
:10145000F0BC70474FF0A043D3F81035C34013F0F1
:10146000010F0CBF4FF400314FF44031B6E700BF1D
:10147000482F0020006000402DE9F04F87B0002386
:10148000CC4A01931168012900F00A821E46CA4B1A
:101490001A68012A00F0F681C84B1A68012A00F088
:1014A000E381C74B1A68012A00F0D081C54B1A6846
:1014B000012A00F0BD81C44B1A68012A00F0AA81FC
:1014C000C24B1A68012A00F09781C14B1A68012AA1
:1014D00000F08481BF4B1A68012A00F05E8116F08B
:1014E000FF0F1AD0BC4F01250024A30003F1804355
:1014F0002E4203F5C0434FEA45050BD0D3F8100543
:1015000057F82420D3F81015C0F30420C1F301418B
:1015100002B190470134082CE7D1002E02DB07B05E
:10152000BDE8F08F00224FF0FF33AB4C02920393E3
:10153000012502AE94F950104F1C2DD0C9B221F0F4
:10154000C00006AB4FEAD00E03EB0E0701F0070315
:1015500017F80C2C05FA03F31A421DD0221889093A
:1015600092F9302054F82220002A00F0F08003295C
:1015700000F0F0804FEA800E0EF1A04E17F814CC68
:10158000DEF800771CEA0303C7F3014940F0B88096
:10159000B9F1030F00F0D7814FF0030A4FF00209B1
:1015A0004FF00108002794F95110481C2DD0C9B202
:1015B00021F0C00006AB4FEAD00C03EB0C0E01F09B
:1015C00007031EF80C2C05FA03F31A421DD022184B
:1015D000890992F9302054F82220002A00F0CA80AC
:1015E000032900F0CA804FEA800C0CF1A04C1EF8D1
:1015F00014BCDCF800E71BEA030FCEF3014E40F009
:101600009080BEF1030F00F08A8194F952104A1CB9
:101610002CD0C9B221F0C00006AB4FEAD00C03EBCE
:101620000C0E01F007031EF80C2C05FA03F31A4206
:101630001CD02218890992F9302054F82220002A5F
:1016400000F08F80032900F08E804FEA800C0CF1AF
:10165000A04C1EF814ACDCF800E71AEA030FCEF336
:10166000014E6AD1BEF1030F00F0468194F9531088
:101670004B1C2CD0C9B221F0C00006AB4FEAD00EF3
:1016800003EB0E0201F0070312F80CCC05FA03F38A
:101690001CEA030F1BD004EB000C89099CF930C035
:1016A00054F82C90B9F1000F6ED003296ED04FEA98
:1016B000800E0EF1A04E12F814CCDEF800271CEAC2
:1016C000030FC2F3014211D1032A00F0F580002F6D
:1016D0003FF425AF4FF0A043019AD3F810359A425A
:1016E0003FF41DAF029A0193039223E7022AEED141
:1016F000032900F04681B9F1000FE8D0C847E6E7BA
:10170000B9F1020F7FF448AF032900F043814FF095
:10171000030A4FF001080027002A3FF444AF904726
:1017200041E7BEF1020F7FF470AF032900F02C8176
:10173000002A3FF46AAF904767E7BEF1020F95D1E8
:10174000032900F02481002A90D090478EE70329D6
:101750007FF422AF16F80EC04CEA030C06F80EC058
:1017600008E7032982D116F80CA04AEA030A06F812
:101770000CA06AE703297FF448AF16F80CB04BEAD7
:10178000030B06F80CB02EE70329A0D116F80EC003
:101790004CEA030C06F80EC089E700221A601B68A9
:1017A00005934FF0A043059AD3F81035019346F006
:1017B000004694E60061004004610040086100407A
:1017C0000C6100401061004014610040186100404D
:1017D0001C6100407C610040482F00206F4AD2F815
:1017E000042312067FF576AE00221A601B6804936C
:1017F000049B46F080066DE6684AD2F80423510641
:101800007FF563AE00221A601B680493049B46F0C8
:1018100040065AE6614AD2F8042390067FF550AE9E
:1018200000221A601B680493049B46F0200647E6DA
:101830005A4AD2F80423D4067FF53DAE00221A603E
:101840001B680493049B46F0100634E6534AD2F812
:10185000042315077FF52AAE00221A601B68049343
:10186000049B46F0080621E64C4AD2F804235707A9
:101870007FF517AE00221A601B680493049B46F0A4
:1018800004060EE6454AD2F8042392077FF504AE1B
:1018900000221A601B680493049B46F00206FBE5D5
:1018A0003E49D1F8046316F001063FF4F0AD136031
:1018B00013680493049BEAE503297FF41CAF4FF4FB
:1018C0000032DEF8003723F44033CEF80037DEF87C
:1018D00000371343CEF80037B9F1000F01D0474667
:1018E0000CE74FF0A043019AD3F8103593427FF4F0
:1018F000F9AE07B0BDE8F08F03297FF424AF4FF4B1
:101900000037DCF8003723F44033CCF80037DCF83C
:1019100000373B43CCF800374746C84613E7032956
:101920007FF406AF4FF40037DCF8003723F4403380
:10193000CCF80037DCF800373B43CCF8003747469B
:10194000C846D146F4E6032906D0CA461F464FF0E2
:1019500002094FF00108DFE64FF40037DEF80037E8
:1019600023F44033CEF80037DEF800373B43CEF89F
:1019700000374FF0040A4FF003094FF00208012727
:10198000CAE64FF440329CE74FF44037CCE74FF4BF
:101990004037B6E74FF44037E0E700BF0060004053
:1019A00030B50478012C83B01FD010D3022C0CD199
:1019B000C36826492648019301228DF8004000F0B3
:1019C0000DFB244B68461B68984703B030BD224985
:1019D0002248FDF72BFF28B302A8032300F8083D97
:1019E0001C4B1B68984703B030BD43681C4D1978E9
:1019F0002846FDF703FFD8B9AA68EB689A4206D0DB
:101A000002AB144A03F8080D126818469047A968FB
:101A1000EB68AA885B1A9A4212D2124B01221A7002
:101A200003B030BD01220C49094800F021FACCE78F
:101A3000084B01908DF800401B6868469847E6E720
:101A400001220249024800F0C9FABEE7C82F00206F
:101A5000FC270020A02F0020CC2F0020B82F002032
:101A6000A42F0020B42F00202DE9F0432F4C89B083
:101A70002260002952D00C4680468A882C4809688A
:101A80009946FDF7ABFE10B109B0BDE8F083A2891D
:101A9000A1682848FDF7A2FE0028F5D1264D98F848
:101AA00010E0D8F80C70D8F808600FCD6C460FC461
:101AB00095E80F0098F8115002971EF1000E18BF1C
:101AC0004FF0010E002D84E80F00D8F80050D8F830
:101AD00004401A4A1A488DF81C9014BF0E230023A4
:101AE0008DF815306946D8F814308DF814E0069357
:101AF00003968DE8300000F04BF80028C4D1D8F8E8
:101B00000030104A01331070BED09DF81D304BB12B
:101B100001220D490A4800F061FAB5E7072009B033
:101B2000BDE8F083064800F073FBF1E7A02F00202A
:101B3000A42F0020B82F0020E8730200A119020092
:101B4000FC270020B42F0020C82F002010B501462C
:101B50000C48FDF753FE044608B1204610BD0A4864
:101B600000F030FA0028F8D108490648FDF75EFE7B
:101B70000028F2D1012205490348BDE8104000F0D9
:101B800077B900BFB82F0020FC270020CC2F002001
:101B9000F0B50479714E6401331987B0DD7E15B15B
:101BA000082007B0F0BD4D7F1D770D686B1C0BD072
:101BB0004FF0A0470123AB40C7F808350B6803F589
:101BC000E073032547F823504B685F1C06D003F5EC
:101BD000E0734FF0A045002745F82370037906EB2A
:101BE00043131B7F002B4CD003688D69C3F8245529
:101BF0000F7D4B7D05683B43C5F86C3503680F6866
:101C00004D68C3F80C75C3F814550B7D012B00F01B
:101C10009A80331905465A600B693351EAB103794A
:101C2000097F026806EB43131B7F002B65D1C2F8C6
:101C30001C31D2F81C712A680097009FC2F8443109
:101C4000D2F844212B6846480192019AC3F8040354
:101C5000286840F30730FFF783FA2B792A6806EBF0
:101C600043131B7F002B44D00823C2F800353444B3
:101C700000200123E376E0752076A075A07607B0FA
:101C8000F0BD05688F69C5F8247591F814E04D7DA5
:101C9000076845EA0E05C7F86C550568D1F800E0FD
:101CA0004F68C5F81475C5F80CE50D7D012DB0D150
:101CB0008D686F1C05D005F5E0754FF0A04747F81B
:101CC0002530CB685D1C0DD001254FF0A04705FAEB
:101CD00003F3C7F80835CB6803F5E073032547F82D
:101CE0002350CB6805688F68C5F80835C5F81075AE
:101CF0008FE70423C2F80035B9E70023C2F810319A
:101D0000D2F810712A680297029FC2F82031D2F8E7
:101D100020712A680397039FC2F82431D2F82471F6
:101D20002A680497049FC2F84431D2F844212B68F2
:101D300005920C48059AC3F80403286840F307305D
:101D4000FFF70EFA89E78B685D1CBAD003F5E073E4
:101D50004FF0A045002745F82370B2E7D02F0020B0
:101D60008000020010030200F0B502793C4B0468C9
:101D700052019918097F00296CD00021C4F8001580
:101D800099184968B1B1017903EB4111097F002924
:101D900063D10168334CC1F808430168324E090B26
:101DA0004CB26409203401F01F01012505FA01F14C
:101DB00046F824100179076803EB4111D7F80C6548
:101DC000097FD7F814554FF0FF3EA9B3D7F808158F
:101DD000D7F81045C7F80CE5C7F814E50068C0F857
:101DE00008E5C0F810E5771C06D006F5E0764FF060
:101DF000A040022740F826706E1C06D005F5E0755D
:101E00004FF0A040022640F82560651C06D004F57E
:101E1000E0744FF0A040022540F82450481C06D042
:101E200001F5E0714FF0A040022440F82140134436
:101E30000022DA765A60F0BDD7F80815D7F81045B9
:101E4000C7F814E5C7F80CE50068C0F808E5C0F865
:101E500010E5C8E7C4F8001592E70168034C9AE75B
:101E6000D02F00208402020000E100E010030200F5
:101E7000F0B50379524C5B01E51887B02D7F3DB179
:101E800001F06045B5F1005F02D0102007B0F0BD51
:101E900023449E7D16B1112007B0F0BD9A7599605C
:101EA0009E8205796D016219137F13BB0168C1F829
:101EB0001C31D1F81C61016804960126049F8E60D4
:101EC0000168D2F808E0C1F81C31D1F81C31059343
:101ED000059B968A938A5768B6B201331EF806604E
:101EE0009BB29382C1F81C65002F2FD0002007B051
:101EF000F0BD03689168C3F82061D3F820710368CE
:101F00000197019FC3F85861D3F85861036802969E
:101F1000967D029FC3F84415C3F848650368012104
:101F200099605368002BE1D1036801E0002945D195
:101F3000D3F82021D3F85811002AF7D0002914BF74
:101F40000F2000202C440023A3759FE7967D938AE1
:101F50009BB29E4202F1140122D9016804E0938AE7
:101F60009BB2B3F5807F03D0D1F81C31002BF6D0A3
:101F7000938A9BB2B3F5807FE9D0C1F81C71D1F888
:101F80001C310393039BB2F814C0938A1FFA8CFC94
:101F900001331EF80CC09BB29382C1F81CC5D6E772
:101FA0000B889BB2B3F5807F08D00268D2F81C3151
:101FB000002BFBD00123D3600020C3E70F20C1E733
:101FC000D02F00200279044B03EB4213987D0030A0
:101FD00018BF0120704700BFD02F0020F0B4037954
:101FE0008A4E5B01F41888B0257F45B101F0604549
:101FF000B5F1005F54D0102008B0F0BC70476568A0
:10200000002D3FD13344DC7D54BBDA75D9605C765A
:102010001C7605796D0173191F7F002F4DD19B7EB2
:102020008BB984B90368C3F82441D3F82421036829
:102030000392039AC3F80841D3F808210368049275
:10204000012204991A6072195368002B6BD003683F
:102050004FF401720020C3F8042308B0F0BC7047AD
:102060001C7ECCB1002D00F0AA80037906EB43164C
:10207000337F002B50D003684FF40472C3F804235D
:102080001120B9E704684FF401773344C4F80873AA
:10209000DC7D002CB9D0E3E719611A760124B8E79A
:1020A0006568002DAED004684FF404773344C4F85B
:1020B0000873DC7D002CA8D0D2E703680025C3F8A4
:1020C0001051D3F8107103680197019FC3F8445170
:1020D000D3F8445103680295029DC3F83415C3F840
:1020E00038258CB9036801221A6002795201B318AD
:1020F0005B68002B65D003684FF404720020C3F8BE
:10210000042308B0F0BC70470268D2F8003243F0F4
:102110002003C2F80032E8E703684FF40172C3F805
:102120000423112068E70168C1F84431D1F8443133
:102130000593059B0368D3F82471D3F80841D3F8BD
:10214000441144B9002933D1002FF4D03544002381
:10215000EB75032050E7002FF8D159BBD47DECB1CB
:10216000C3F80811D3F8081106910699D468517E76
:10217000D3F818356354537ED17D0133DBB25376E7
:10218000537E9942D6D835440022AB7EEA75002BA7
:1021900037D003680121104619602DE7C3F80841C4
:1021A000D3F8081107910799D3F81835537EEAE759
:1021B000002FCBD135440023EB750F201CE71120F5
:1021C0001AE7036801E0A4B9B8B9D3F81011D3F83D
:1021D0004441D3F824010029F5D000284FF0000332
:1021E000324414BF032018469C42D37518BF0F20F9
:1021F00002E732440F20D175FEE632440320D47545
:10220000FAE60268012118465160F5E6D02F002059
:10221000114A037902EB4313197FD9B99B7ECBB9DD
:1022200010B4016883B0C1F82431D1F824410168A9
:102230000094009CC1F80831D1F80831016801937D
:102240000123019C0B60017902EB4112937603B0EC
:102250005DF8044B704700BFD02F002070B5A54C2F
:10226000237F8EB0002B73D1A34AD2F804138905C3
:1022700046D4A14BD3F80423520704D5D3F8082140
:10228000002A40F0C9809C4BD3F81C21BAB1A28A25
:10229000A17D92B28A424FF00002C3F81C2180F067
:1022A000A880D3F81C210692069AA18AA28AA06867
:1022B00089B20132415C92B2A282C3F81C158E4BE6
:1022C000D3F84421D2B10022C3F84421D3F84411F9
:1022D000A27E04910499002A40F08880E37D6BB1CE
:1022E0000023617EE268E37501238DF830108DF8DC
:1022F00028300B9294E80A000AA898470EB070BDE7
:10230000D2F824110029B4D0C2F82431D2F8241113
:10231000A37E07914FF401710798C2F808130BB917
:1023200001235360744A02238DF82830D2F8803498
:10233000C2F88034E07DE2680D9300238DF8300010
:10234000E375237621680B9263680AA898479AE799
:10235000694BD3F82421002A40F09280D3F8101161
:1023600061B1C3F81021D3F8101103910399D3F888
:102370003C15E07DC9B2884200F0A4805E4BD3F8E2
:102380004421B2B10022C3F84421D3F84401E17DD5
:102390000190019869B1D3F83C35E1688DF830308F
:1023A00001230B918DF82830E27594E80A000AA801
:1023B0009847514BD3F82021002A9FD00022C3F820
:1023C0002021D3F82001A17D00900098002995D00C
:1023D000D3F84C15A3688DF830100B938DF8282096
:1023E000A27594E80A000AA8984787E701221A60B4
:1023F00074E7D3F81C310593059B00293FF45FAFC8
:10240000A3688DF830100B938DF82820A27594E8FE
:102410000A000AA8984752E7E27D002A6ED00022FF
:10242000C3F80821D3F808210892089AE168627E6F
:10243000D3F818358B54637EE27D0133DBB26376CB
:10244000637E93427FF41FAF237E002B6CD1A37E6B
:1024500013B9294B01225A60274AE06863684FF498
:102460000171C2F80813627E8DF830200025012228
:102470000B902168E5758DF828200AA8984702E797
:102480000022C3F82421D3F82411029102218DF8EF
:1024900028100299D3F88014C3F880140D91D3F852
:1024A0003C15E368E27522768DF830100B932168B5
:1024B00063680AA89847104BD3F84421002A3FF4D8
:1024C00078AF5FE7217E11B3D3F80062E568E1756C
:1024D00026F02006C3F8006226698DF8300001233B
:1024E0008DF82830227621680B95E66063680AA88B
:1024F000984743E7D02F002000200040C3F8082170
:10250000D3F8081109910999D3F8183598E7E268CA
:10251000E17501238DF830008DF828300B9294E896
:102520000A000AA8984729E7607EE5682169E375F3
:10253000012200238DF83000E160237663760B954D
:102540008DF8282094E80A000AA898479BE600BF67
:102550002DE9F0414479524EE7003D19AD0006EBFC
:10256000050E9EF81CC0BCF1000F02D00820BDE88B
:10257000F0817251CEF804300B7B91F800E0012B12
:102580004FF0A0454FF0010303FA0EF394BFC5F8D6
:102590000C35C5F808350D784FF0A04E05F5E075FF
:1025A00001234EF825304D78FF2D6ED005F5E07CE7
:1025B000AB404FF00308CEF80C354EF82C8091F864
:1025C00002E0BEF1FF0F5DD00EF5E07C4FF0A043BE
:1025D0004FF0000843F82C8091F803C0BCF1FF0FC6
:1025E0000FD04FF0A048012303FA0CF3C8F80835C8
:1025F000CB7803F5E0734FF0030C48F823C091F853
:1026000003C0437903EBC30306EB830383F81EC0C7
:10261000036891F800C0C3F808C5C3F80C55C3F8A7
:1026200010E58D68C3F824554D7B91F80CE000351A
:1026300018BF0125BEF1020F2AD0BEF1030F1ED034
:10264000BEF1010F01D145F00205C3F854554D7993
:10265000C3F8C055FAB140250722C3F80453C3F8A4
:102660000025097990F90400FEF77AFD3C4406EB59
:1026700084060123002033777077BDE8F08145F0B0
:102680000605E2E74FF0FF3EA6E74FF0FF3596E77D
:1026900045F00405D9E70722C3F80025E6E700BFA7
:1026A000F02F00202DE9F0434479434EE7003D1917
:1026B000AD0006EB050E83B09EF81D809DF828C086
:1026C000B8F1000F03D0112003B0BDE8F0837559B5
:1026D00015B101258EF81D500C254FF0240E1EFB60
:1026E000045E06EB0E083D1946F80E1006EB850554
:1026F00088F80420C8F8083088F80CC095F821E064
:1027000095F81E8005F120090EF0FC056FF3820597
:10271000B8F1FF0F89F8015006D001254FF0A04E07
:1027200005FA08F5CEF80C5569B101F06045B5F130
:10273000005F08D03C4406EB84060023102073772A
:1027400003B0BDE8F08323B103F06045B5F1005F4D
:10275000F0D105680020C5F84415C5F84825C5F82E
:102760003435C5F838C5C5F81801D5F818310193C6
:1027700001223B190199C5F85005C5F840052A61A9
:1027800056F823301BB14023C5F804339CE7D5F835
:102790001831002BFBD03C4406EB8406B37FFF2BA3
:1027A00008D001224FF0A04102FA03F3C1F8083526
:1027B000002089E7002087E7F02F0020104AD2F898
:1027C0001831E3B100B500210E4BC2F8181183B0E7
:1027D000997FD2F818210192FF29019A05D0012290
:1027E0004FF0A0408A40C0F8082500225A771A729C
:1027F00059681A680448904703B05DF804FB7047B5
:1028000000300040F02F0020F82F00206DDF7047CF
:1028100072DF704779DF70477DDF704764DF704794
:102820002DE9F04F85B00488DDF83880BDF83CA074
:10283000B8F800500195002C57D099460023174650
:102840008B4605461C4603E02A880134A24228DD57
:102850006A6852F82400039000220DF10B0103A8CE
:10286000FFF7DCFF064630BB9DF80B20BA42EBD1E8
:102870002BB3B8F80020D31953451BDC4A440DF1A3
:102880000B0103A80123FFF7C9FF98BBB8F800109C
:102890009DF80B200A44A8F800202A880134A2429F
:1028A000D6DC13B3B8F80030019A013B9B1A9BB2F7
:1028B000FF2B17D90C26304605B0BDE8F08FB8F8CD
:1028C00000305A1C3B440233534592B2F2DCA8F864
:1028D000002009F802B0B8F80020013292B2A8F83E
:1028E0000020CBE709F80230E5E70026304605B0C6
:1028F000BDE8F08F0646304605B0BDE8F08F00BF5A
:102900002DE9F04700231788138090F82D3084B00C
:10291000144605460E46002B49D1AA78002A70D1EC
:10292000EA78002A2ED16A68A2B1D91CB94225D80A
:10293000022192F90020F154238801339BB20A212D
:102940002380F154238801339BB22380F2542388DF
:10295000013323802B89002B40F02A812B8A002B06
:1029600040F03F812B8B002B40F054812A6A002AD3
:1029700000F0A78021888B1DBB4262D90C2004B0D7
:10298000BDE8F087D91CB942F8D80221F154238858
:1029900001339BB201212380F15423880B449BB265
:1029A0002380F25423880B449BB22380BBE7082F7B
:1029B000E4D902A8FFF72AFF0028E0D113880822F3
:1029C000CA54238801339BB21B222380CA54208817
:1029D000013080B22080062208440DF1090103F085
:1029E000E8FF23889DF8082006339BB212F0FE0210
:1029F00018BF01222380F254238801339BB2238025
:102A00008BE70433BB42B9D802A8FFF703FF0028C5
:102A1000B5D12388BDF808200321F1542388013360
:102A20009BB219212380F154238801339BB2F11802
:102A30002380F254120A4A70238802339BB2238007
:102A40006EE71388052B40F2AF806FF4486803EB04
:102A5000080080B24FF27D3E704540F2A58050885C
:102A6000052840F2A1806FF4486C84441FFA8CFC66
:102A7000F44540F299804FF6FF7E734504D07045CF
:102A800002D0834200F290800523735423880133DF
:102A90009BB212212380F154238801339BB22380FF
:102AA0001188F1543344090A5970238802339BB2C8
:102AB00023805288F2543344120A5A702388023316
:102AC0002380D5F82480B8F1000F30D0B8F8041076
:102AD00020888A1C831C1344BB423FF64FAFFE2A5A
:102AE0003FF64CAF03313154238801339BB2FF22B0
:102AF0002380F254238801339BB22380B8F800204E
:102B0000F2543344120A5A702088023080B2208076
:102B1000B8F804205AB1D8F80810002944D030443D
:102B200003F047FFB8F8042023881344238095F866
:102B30002C30002B40F08780287800283FF41FAF0E
:102B40002B88012B30D023889A1CBA423FF616AF4F
:102B5000012805D16978023119448F42FFF40EAF84
:102B6000023FFB1A04A99BB221F8083DB018FFF7F9
:102B700053FE00287FF403AF2A78022A00F0AF80CA
:102B8000012A00F0B4800821FE2B3FF6F7AE228820
:102B90005D1CB5542288013292B22280B154228841
:102BA000013213442380EAE6072004B0BDE8F08731
:102BB00005F1080802228DE8900040461146334690
:102BC000FFF72EFE00287FF4DAAE8DE89000404635
:102BD000334610220621FFF723FE00283FF4BEAE45
:102BE000CDE605F110088DE89000404633460222FC
:102BF0000321FFF715FE00287FF4C1AE8DE8900099
:102C00004046334610220721FFF70AFE00283FF412
:102C1000A9AEB4E605F118088DE8900040463346A9
:102C200002221421FFF7FCFD00287FF4A8AE8DE8F6
:102C300090004046334610221521FFF7F1FD002891
:102C40003FF494AE9BE6D5F82880B8F1000FABD0E6
:102C5000B8F804200232FE2A3FF690AE23884FF0E7
:102C600000094FF0160A0132F254238801339BB257
:102C7000238006F803A0238801339BB22380B8F891
:102C80000020F2543344120A5A70238802339BB254
:102C90002380B8F80410F0180A4661B1D8F808305B
:102CA0001946002B80D003F084FEB8F80420238856
:102CB00013449BB2238009F1010995F82C205FFA97
:102CC00089F94A4509EB49087FF636AFAA6A02EB53
:102CD0008808B8F804200232FE2AC4D94EE6BDF8AE
:102CE00008209342FFF44FAF134609214CE76A785E
:102CF0009342FFF448AF1346082145E72DE9F0431E
:102D000095B01F230D46ADF80E300446002800F0A4
:102D10008480C27853077CD590F82D300021ADF81F
:102D20000C10002B40F0DB8183780CAF002B40F0BF
:102D300017821946032014AE31445F1C023316FA81
:102D400087F74FF0020E16FA83F601F840EC83B2D3
:102D5000012107F8401CADF80C3006F8402C6668DD
:102D6000002E00F08C80D81C1F2874D90C2015B0C0
:102D7000BDE8F083A76A002F4BD0BA880232FE2A42
:102D8000F4D8BDF80C304FF0000804AE4FF016092F
:102D90001AE003F00EFEBDF80C30BA8894F82C103F
:102DA00013449BB2ADF80C3008F101085FFA88F8C3
:102DB000884508EB480280F0F080A76A07EB82079D
:102DC000BA880232FE2AD1D80DF1500E9E44581C0A
:102DD00001320DF1500C0EF8402C1CFA80F09A1CB8
:102DE00092B200F8409CADF80C203888B0543244C0
:102DF000000A50700433B7F804E09BB27246F01832
:102E0000ADF80C30BEF1000FCED0BB681946002BD8
:102E1000BFD1072015B0BDE8F083ADF80C00ADB10F
:102E2000EB78002BF5D128460CA90DF10E02FFF727
:102E300067FD0028EED19DF80E300CAA20469DF8C3
:102E40000C10FFF7E5FC15B0BDE8F0832B46ADF89C
:102E50000E502A46F2E714AF591C9A1C17FA81F15A
:102E60003B4417FA82F296F90060ADF80C00022795
:102E70000A2003F8407C01F8400C02F8406C2389DA
:102E8000002B40F08F80238A002B40F0AB80238BF7
:102E9000002B40F0C780226A002A42D0BDF80C30D7
:102EA000991D1F293FF662AF10880528B1D96FF42C
:102EB000486C00EB0C06B6B24FF27D37BE42A8D983
:102EC0005688052EA5D96FF4486EB6441FFA8EFEBB
:102ED000BE459ED94FF6FF77B84203D0BE4201D01F
:102EE000B04296D814A8C7185E1C10FA86F64FF0A8
:102EF000050E981C07F840EC80B2122706F8407CBB
:102F0000ADF80C001788ADF80C1004AE311837542A
:102F100004333F0A4F709BB25288F2541E44120A87
:102F20007270676AA7B3B888BDF80C30811C9A1C10
:102F300056181F2E3FF61AAFFE293FF617AF14AEF4
:102F40001E44591C0DF1500E1EFA81F1033006F893
:102F5000400C92B2FF2001F8400CADF80C203988EB
:102F600004AEB018B154090A41700433BA8898B25B
:102F7000ADF80C0062B1B96800293FF44AAF3044A3
:102F800003F017FDBDF80C30BA881344ADF80C30CF
:102F900094F82C1000297FF4EDAE2378002B61D13A
:102FA00004AC3CE703A904F1080704AE4FF01F0886
:102FB0000222009138463346CDF804801146FFF7CF
:102FC0002FFC00287FF426AF03AB0093CDF80480DC
:102FD0003346384610220621FFF722FC00283FF432
:102FE00052AF17E703AA04F1100704AE4FF01F0811
:102FF000009238463346CDF8048002220321FFF7C1
:103000000FFC00287FF406AF03AB0093CDF80480DB
:103010003346384610220721FFF702FC00283FF410
:1030200036AFF7E603AA04F1180704AE4FF01F0805
:10303000009238463346CDF8048002221421FFF76F
:10304000EFFB00287FF4E6AE03AB0093CDF80480DD
:103050003346384610221521FFF7E2FB00283FF4E3
:103060001AAFD7E62288012A3FF4D3AEBDF80C2070
:10307000901C1F283FF67AAE012B04D163780344DD
:103080001F2B3FF673AEC2F11D0314A99BB204AE11
:1030900021F8203D3044FFF7BFFB00287FF4BAAE93
:1030A0002278022A00F08680012A00F08B80ADF899
:1030B00030300820FE2B3FF659AEBDF80C2014AC82
:1030C000511CA71814FA81F102321A44013307F88F
:1030D000403C3446ADF80C2001F8400C9FE60CAFA4
:1030E0003846FFF793FB00287FF494AEBDF80C3010
:1030F00014A903F1010E9A1C11FA8EFE0B4492B230
:1031000004AEB01808211B2603F8401CADF80C20B3
:103110000DF1310106220EF8406C03F04AFCBDF8B7
:103120000C209DF83010931D11F0FE019BB23BD195
:1031300014A8034403F8401CD31DA2789BB2ADF839
:103140000C304AB9E278002A3FF409AED81C1F2897
:1031500019463FF60BAEEEE504331F2B3FF606AEE5
:103160003846FFF757FB00287FF454AEBDF80C300B
:10317000BDF83010E278581C14AE16FA80F01E44E8
:103180009F1C4FF0030E06F840ECBFB204AE4FF0A8
:10319000190E00F840EC0433F019F1559BB2090AFE
:1031A000ADF80C304170CEE714A90B44012103F8AF
:1031B000401CC1E7BDF830209342FFF478AF1346BE
:1031C000092077E762789342FFF471AFADF83020C1
:1031D000134608206EE700BF75DF704776DF704743
:1031E0007ADF70477BDF7047184B18884FF6FF7304
:1031F00098422AD010B5164A164C1378217B013319
:10320000DBB2994282B013700CD2237C0021117082
:103210008BB9636923B102A8002200F8042D9847F6
:1032200002B010BD0C49FFF7D7FF0028F8D0A36902
:10323000002BF4D1F4E73B21FFF7D0FF0028E8D0C2
:10324000A369002BE5D09847E3E7704716300020CC
:1032500064300020183000205C30002070B51E4B18
:103260001E4A5B881188994282B00FD852889A42D0
:103270000CD31B4B5B6923B102A8012200F8042D7B
:103280009847184C0023237002B070BD154C22786B
:1032900062B1134B5B69002BF4D002A8002200F846
:1032A000042D98470023237002B070BD0C4D0E48CA
:1032B00069680678AB680D48002E18BF1946FCF700
:1032C00019FF0028DED0AB69002BDBD09847002324
:1032D000237002B070BD00BF543000205C3000206D
:1032E00018300020143000206430002034300020DA
:1032F000F8B505460FCD144C144F0FC4064695E89B
:103300000700002384E807003B70B6B13068104B1B
:10331000716803C3A3F10800FFF762FF90B90D4D78
:103320000D4C0E4A0E4800234FF6FF762E80237078
:103330001946BDE8F840FCF7CBBE0548FFF752FF41
:103340000028ECD0F8BD00BF183000201430002059
:103350005C3000201630002064300020E93102008B
:103360000874020070B50388112B27D012D9122BD4
:1033700007D0502B47D1244CC288E3899A4230D0E1
:1033800070BD083003C8214B83E80300BDE87040DE
:10339000FFF764BF102B35D11D491B4C1B4B1D4D36
:1033A000E48900F110028088088092E8030000227E
:1033B00083E803002A70002CE8D070BD1449154B37
:1033C00015484FF6FF7400220C801A70FCF7E8FED7
:1033D0000028D5D00C4B9B69002BD1D0BDE87040A4
:1033E0001847038A022BCBD1123000F017F80028BF
:1033F000CCD10948FCF7D4FE0028C1D0A369002B2A
:10340000ECD1BDE770BD70BD1830002054300020F5
:10341000163000206430002034300020007800F0A6
:10342000010070478FDF70479EDF7047ADDF704748
:10343000B8B110B41B2200234FF01714816104604F
:10344000C0F80640C0F80E40027102734273027564
:1034500042758372C3728374C3745DF8044B18465B
:1034600070470E20704700BFF0B58D88012D83B0E6
:1034700001D903B0F0BD0B88212B044674D01BD9B1
:103480003A2B00F0B180552B00F08880222B24D0FD
:10349000EE00A3199B7A002BEBD034442846E18838
:1034A000FFF7C2FF00285BD01128E2D002466C492A
:1034B0000120FBF7F5FFDCE7102B24D0112BE7D11F
:1034C00000EBC50300211B224FF01710C3F80600C4
:1034D0009972D9721A735A73CBE7EE0087190A7A78
:1034E0007A738369002B39D000214DF67A2EADF81E
:1034F0000410ADF8025069468DF80420ADF800E0E4
:103500009847BB7AC7E7EE00871903793B73CB7BFB
:10351000012B00F08680022B00F08C80F9883B891B
:103520008B42C0F08A803B7B7A7B9A4216D24FF066
:10353000000E9BB2724669462846ADF80030ADF8E1
:103540000230ADF804E0ADF806E0FFF76BFF28B1FC
:1035500003462A4643490120FCF700F8BB7A9AE764
:103560000122A072E27284E7EE0087190B7A3A7B9F
:103570000020934228BF1346019002466946284620
:10358000ADF80030ADF80230FFF74CFF0028E5D071
:10359000024635490120FBF783FFDFE7EE00CB88C9
:1035A0008719172BF98838BF17238B4228BF0B4682
:1035B00000223B81BA722846FFF738FF002833D13A
:1035C000FB7A002BCAD1A369002BC7D040F6772124
:1035D0003A89ADF80010ADF80250ADF80420694604
:1035E00020469847BB7A56E700EBC5064B89F28820
:1035F000934228BF1346172B38BF172333818269A4
:103600005AB1F17A49B140F67721ADF80010ADF822
:103610000250ADF80430694690470023F372B3724C
:1036200027E70188F9807AE7024610490120FBF775
:1036300037FFC5E74188F98071E72846FFF7F4FEB8
:1036400010B90123FB726EE7112802D10123BB726E
:1036500069E7024602490120FBF722FF63E700BF4A
:103660000C7402006874020034750200DC740200FD
:103670000649074A074B9B1A03DD043BC858D05044
:10368000FBDC00F013F8FBF7F1FD0000CC7C02003E
:103690009027002038280020FEE7FEE7FEE7FEE73F
:1036A000FEE7FEE7FEE7FEE7FEE7FEE7F0B4BA4B13
:1036B0001A78062A1BD0B94AD2F8883043F470032E
:1036C000C2F88830BFF34F8FBFF36F8F4FF01023D6
:1036D000D3F80022002AC0F22D81D3F80432002B47
:1036E000C0F22881AE4BAF4A1A60F0BC7047043379
:1036F0001B681B07DFD1AC4B1B6803F0F002302ABC
:1037000000F0088103F0E003402B00F00381A64B9A
:103710001B6803F0F003302B00F0EE80A24B1B6817
:1037200003F0F002302A00F0D78003F0E003402BD2
:1037300000F0D2809C4B1B6803F0F003302B00F0AC
:10374000BB80994B1B6803F0F002302A00F0A08088
:1037500003F0E003402B00F09B80934B1B6803F0C9
:10376000F003302B00F086808F4B1B6803F0F003D2
:10377000302B68D08C4B1B6803F0F003502B10D01B
:10378000894B1B6803F0F002302A03D003F0E003FA
:10379000402B90D1854B864A1B6803F04F03136082
:1037A00089E74FF08052834BD2F80414C3F82015F8
:1037B000D2F80814C3F82415D2F80C14C3F828154D
:1037C000D2F81014C3F82C15D2F81414C3F830151D
:1037D000D2F81814C3F83415D2F81C14C3F84015E5
:1037E000D2F82014C3F84415D2F82414C3F84815AD
:1037F000D2F82814C3F84C15D2F82C14C3F850157D
:10380000D2F83014C3F85415D2F83414C3F8601544
:10381000D2F83814C3F86415D2F83C14C3F868150C
:10382000D2F840145C48C3F86C15D2F844140278FE
:10383000C3F87015062A7FF43EAF5F4B1B681A076A
:103840007FF439AF9CE75D4E5D4C5E495E4B0527CA
:10385000012500203F223760256008601A604E4B2A
:103860001B78062B7FF427AF534B1B6819077FF497
:1038700022AF7FE7484B554A1B780321062B116086
:103880007FF419AF4C4B1B6818077FF414AF6BE73C
:103890004FF080430022C3F80C21C3F81021C3F875
:1038A00038253D4B1B78062B7FF405AF424B1B6838
:1038B0001C077FF400AF50E74549374ACB681278C0
:1038C00023F08073062ACB607FF4F5AE3A4B1B6879
:1038D0001D077FF4F0AE34E73E4B2F4A1B68127889
:1038E0003D49C3F34233062A0B60B8D1324B1B6803
:1038F0001E077FF4E0AE1DE7274B384A1B78384996
:103900001160062B7FF4D7AE2B4B1B681F077FF48B
:10391000D2AE03E7334B204A1B6812783249C3F317
:103920000423062A0B60BCD1234B1B681B073FF402
:10393000EEAEC0E62D4B0122C3F80425D3F80024D7
:10394000002AFBD04FF0102315222849C3F800228B
:10395000D1F80034002BFBD04FF010221521234B5F
:10396000C2F80412D3F80024002AFBD000221F4919
:10397000C3F80425D1F80034002BFBD0BFF34F8FE0
:1039800006491B4BCA6802F4E0621343CB60BFF3E5
:103990004F8F00BFFDE700BFE00F00F000ED00E03B
:1039A000042800200090D003E80F00F05802001017
:1039B000E40E004000C00040E40F00F0105600404C
:1039C000885600401856004014560040A00500409C
:1039D000F0ED00E0440200103C05004074C00740D8
:1039E0000DF0ADBA240300104035014000E0014065
:1039F0000400FA0548DF704710DF704760DF70474A
:103A000061DF7047FBF7C6BE2DE9F047DFF8B090E5
:103A1000294DD9F80060DFF8AC80284FDFF8A8A066
:103A2000B6FA86F682B076092B7803F0FF04002BF5
:103A300036D101A8FFF7DEFF052834D010B3FBF71D
:103A400099FE4EBB2B7803F0FF063BB128E0FBF755
:103A500091FE002CE8D02B7801240BBB3B68B8F812
:103A60000020ADF80420184601A9FFF7C9FF05287A
:103A700014D00028EBD11846D9F800309847002C14
:103A8000E9D1D1E70198FDF729FBDAF8003073B1ED
:103A900001989847002ED5D00126C5E7002CFBD011
:103AA00002B0BDE8F087002EFAD10124CAE7002E4B
:103AB000C8D00126B8E700BF713000207830002060
:103AC000683000206630002074300020014B1878E8
:103AD000704700BF7030002011B111F0030F01D00A
:103AE00007207047F8B51A4F1A4E1B4D1B4C396012
:103AF00032802B602368DB0708D50123C4F88030AF
:103B00001749FFF779FF30B12360F8BD1449FFF77B
:103B100073FF00B1F8BD134B01221A70FDF7EEFAE6
:103B20000E4A92F81633C3F34113012B0CD90E4BF6
:103B3000986818B94FF480031360F8BD1A6842F40E
:103B400080021A600020F8BD42F20200F8BD00BFFA
:103B500078300020663000206C30002000E100E06A
:103B6000053A02007030002030610020034618B191
:103B7000024A0020136070470E2070476830002012
:103B800008B5094B1B6833B1984700B908BDBDE8BB
:103B90000840FBF7EFBD054B1B78002BF6D0BDE8C6
:103BA0000840FFF731BF00BF6C30002070300020AC
:103BB00082B0034B0193019B0360002002B0704769
:103BC0009027002010B5034682B002A81A6840F87A
:103BD000042DFFF713FF019A1B68934204460BD193
:103BE00010B9204602B010BD02460D490120FBF776
:103BF00057FC204602B010BD0A490220FBF750FCDA
:103C00004FF08053019AD3F80C310749C2EB83225D
:103C100002F100520220FBF743FC204602B010BD27
:103C2000FC75020094750200C87502002DE9F04190
:103C3000684B1A6888B0002A3CD1674F97F82E303D
:103C4000002B45D1654B1A68002A5ED1644B1C6875
:103C5000002C6AD17E699EB14FF000480125B6FA6A
:103C600086F2930003F58C7303F1804101F5E04186
:103C700028FA02F2086826EA020620B9002EEED1E0
:103C800008B0BDE8F081A3F58C730C6083F00402EA
:103C900009680491C2F38002DB088DF819208DF8C1
:103CA00018308DF814503B68049A05A89847002EE8
:103CB000D5D1E5E70022484F1A60196897F82E30F1
:103CC00000910099002B39D097F82F30002B4ED15E
:103CD000444B1A68002AB5D000221A6097F82D00CC
:103CE00019687B8B019184B2A34201994ED85FD0B1
:103CF000384B3D4A002119601B6802930123029949
:103D00001360364B1A68002AA0D000221A6008A857
:103D10001B680393022100F80C1D3B6803993A7459
:103D200098472F4B1C68002C94D000221A601B6807
:103D30000593059B3A7408B0BDE8F081FA6878688D
:103D400039898DF814300690ADF81C10002A2CD05B
:103D50002648398B7A600122FB60798339810260C1
:103D60003B6805A89847002387F82F3066E7FB6873
:103D7000786839898DF814200690ADF81C10A3B12D
:103D8000398B7B60FA6079833981E9E73A89796810
:103D9000164D1B1B9BB292B2D21A01EB42027B83DF
:103DA000C5F82C26C5F83006A2E700233B74D7E7F8
:103DB000FB684BB10D497A83012287F82F20C1F8A7
:103DC0002C36C1F8300693E701227B8387F82F2039
:103DD0008EE700BF047100407C300020107100406D
:103DE00014710040007100400470004000700040F9
:103DF0000378022B02D0012B00D070474068FBF7FC
:103E0000B9BC00BF70B5134E33788AB00BB10AB09D
:103E100070BD114D114B00930FCD04AC0FC495E84C
:103E200003000F4A84E803004FF480750D4C0195A0
:103E30000723694604A803950294FDF715FE18B9F7
:103E4000012333700AB070BDFBF794FC012333707B
:103E5000F8E700BFAC3000203C760200B030002014
:103E6000F13D0200B03100200FB4F0B5224E33789E
:103E70009FB01BB305AC25AB1A462499019320468D
:103E800002F006FE204602F0E3FD40B1251820783E
:103E9000FDF75CFE0028FAD10134AC42F7D10A20CC
:103EA000FDF754FE0028FAD10D20FDF74FFE002843
:103EB000FAD11FB0BDE8F04004B070470F4C104B72
:103EC00001930FCC05AD0FC594E8030005AC85E860
:103ED00003000C4F0C4A03974FF4807520460723CC
:103EE00001A902950495FDF7BFFD08B1FBF742FC5F
:103EF00001233370BFE700BFAC3000203C760200E6
:103F0000B0300020B0310020F13D0200FDF750B983
:103F100000F5E0724FF0A04310B4032443F82240B0
:103F2000012202FA00F021B1C3F808055DF8044B44
:103F30007047C3F80C055DF8044B70474FF0A04183
:103F40000122D1F8043502FA00F020EA030203400E
:103F5000C1F80825C1F80C35704700BF10B582B014
:103F60008DF804108DF805209DF81040059A8DF805
:103F7000063001A98DF80740FDF75CF902B010BDCD
:103F80000121FDF717BA00BF00220270704700BF81
:103F900010B5084C237803B110BDFCF7F3FF08B14E
:103FA000FBF7E8FB0020FDF711F8FBF7CFFF01233B
:103FB000237010BDF1330020FCF72EB9054B1A78A1
:103FC000092A06DC044901EB421202601A78013228
:103FD0001A707047F0330020B0320020F8B5174D4A
:103FE0002B7804460E461746D3B13A4601212046A7
:103FF000FCF76EF808B1FBF7BDFB4FF400434FF43C
:10400000FA700021E3FB06014FF47A72002301F0FD
:10401000C5FB002201462068BDE8F840FCF76AB8FD
:10402000FCF7B0FF38B90020FCF7D0FFFBF78EFF9C
:1040300001232B70D9E7FBF79DFBF4E7F133002058
:104040004FF40040704700BF70B582B006460D4681
:10405000144600F029FB002846D002A9002301F8ED
:10406000043D01220F2000F0D3F89DF80430332BDB
:1040700004D000F09FF9102002B070BD00F09AF952
:10408000294B302123201D7000F048F9290101F04F
:10409000F001232000F0F6F80821202000F03EF97E
:1040A0000821232000F03AF9032E07D8DFE806F0B4
:1040B000352A1F02FF21202000F030F9F0212020B6
:1040C00000F02CF921462020241100F0DBF8013CFF
:1040D000164A174B32F814201A800721202000F0CE
:1040E000D1F8002002B070BD00F0B6FAB5E70821A3
:1040F000232000F0C7F80F490F4B01200C22087055
:104100001A70DBE70821202000F0BCF809490A4BAF
:104110001020082208701A70D0E70649064B0420C8
:104120000A2208701A70C9E7FC3300205476020096
:10413000FA3300200928002008280020062202491E
:10414000282000F065B800BFF433002010B5082126
:1041500082B0212000F096F80122044601A9262011
:1041600000F056F82043C0B202B010BD88B381B34E
:104170007AB3F0B5184B194D1E78194FB5F90030C8
:10418000184C97F800E027784FF0010CC6F11004A6
:1041900003F50043013E0CFA06F623410EFA07F739
:1041A0009B1B07FB03F30360B5F9023003F50043E3
:1041B00023419B1B07FB03F30B60B5F9043003F5A8
:1041C000004343FA04F4A61B07FB06F61660002022
:1041D000F0BD0420704700BF08280020F433002001
:1041E00009280020FC33002000B583B00023019093
:1041F00000931A4601210220FFF7B0FE1021222071
:1042000000F040F8022003B05DF804EBFFF7B8BE01
:1042100059B3062A01D9102070473F28FBD82DE951
:10422000F04184B0002360F03F0002F101080093E8
:1042300002930D4616468DF80000CDF80330CDF8F8
:104240000B305FFA88F8032702AA4146684600F05F
:1042500031FA0128044607F1FF3308D113F0FF07B4
:10426000F2D1102004B0BDE8F0810420704700288E
:10427000F7D1324628460DF1090102F09AFB20469B
:10428000F0E700BF3F2801D910207047F0B587B094
:10429000002360F03F02029304930F460546CDF8D9
:1042A0000B30CDF813308DF80820032404AA022126
:1042B00002A800F0FFF90128064604F1FF3323D1DC
:1042C00013F0FF04F2D110269DF804108DF8085069
:1042D000394300238DF80910ADF81030032404AAE7
:1042E000022102A800F0E6F9012804F1FF3306D10B
:1042F00013F0FF04F3D11020304307B0F0BD0028C5
:104300000CBF00201020F7E70028DCD101220DF1BE
:10431000110101A802F04DFBD6E700BF3F2801D9EB
:1043200010207047F0B587B0002360F03F02029381
:1043300004930E460546CDF80B30CDF813308DF8BA
:104340000820032404AA022102A800F0B3F90128DE
:10435000074604F1FF3324D113F0FF04F2D11027F4
:104360009DF804108DF8085021EA060600238DF808
:104370000960ADF81030032404AA022102A800F05D
:1043800099F9012804F1FF3306D113F0FF04F3D1AA
:104390001020384307B0F0BD00280CBF00201020CB
:1043A000F7E70028DBD101220DF1110101A802F08D
:1043B00000FBD5E710B586B00023E02202930493FA
:1043C000CDF80B30CDF813308DF80820032404AA63
:1043D000022102A800F06EF9012804F1FF3340F039
:1043E000F98013F0FF04F2D100232022ADF8083049
:1043F000ADF810308DF80820032404AA022102A889
:1044000000F058F9012804F1FF3302D113F0FF0442
:10441000F3D10023E12202930493CDF80B30CDF8C1
:1044200013308DF80820032404AA022102A800F00A
:1044300041F9012804F1FF3340F0D68013F0FF0466
:10444000F2D100232122ADF80830ADF810308DF8FC
:104450000820032404AA022102A800F02BF9012855
:1044600004F1FF3302D113F0FF04F3D10023E22261
:1044700002930493CDF80B30CDF813308DF808205B
:10448000032404AA022102A800F014F9012804F16F
:10449000FF3340F0B38013F0FF04F2D10023222257
:1044A000ADF80830ADF810308DF80820032404AAC8
:1044B000022102A800F0FEF8012804F1FF3302D126
:1044C00013F0FF04F3D10023E32202930493CDF809
:1044D0000B30CDF813308DF80820032404AA0221F4
:1044E00002A800F0E7F8012804F1FF3340F09080C3
:1044F00013F0FF04F2D100232322ADF80830ADF809
:1045000010308DF80820032404AA022102A800F02C
:10451000D1F8012804F1FF3302D113F0FF04F3D1E5
:104520000023E42202930493CDF80B30CDF813302E
:104530008DF80820032404AA022102A800F0BAF88A
:10454000012804F1FF336DD113F0FF04F3D10023F0
:104550002422ADF80830ADF810308DF8082003247F
:1045600004AA022102A800F0A5F8012804F1FF33F3
:1045700002D113F0FF04F3D10023E5220293049348
:10458000CDF80B30CDF813308DF80820032404AAA1
:10459000022102A800F08EF8012804F1FF334AD16D
:1045A00013F0FF04F3D100232522ADF80830ADF855
:1045B00010308DF80820032404AA022102A800F07C
:1045C00079F8012804F1FF3302D113F0FF04F3D18D
:1045D00006B010BD00287FF407AF01220DF11101D4
:1045E00001A802F0E6F9FFE600287FF42AAF0122D5
:1045F0000DF1110101A802F0DCF922E700287FF497
:104600004DAF01220DF1110101A802F0D2F945E7E9
:1046100000287FF470AF01220DF1110101A802F012
:10462000C8F968E7002892D101220DF1110101A813
:1046300002F0BFF98BE70028B5D101220DF111017D
:1046400001A802F0B6F9AEE73EDF7047014B012248
:104650001A7070470A2800200F4BF0B50FCB85B0B9
:104660008DE80F0008208DF8030069461C271926E5
:104670001D2506240023094A09488DF802708DF88B
:1046800001608DF800508DF80440FDF761FF054B87
:1046900001221A7005B0F0BD647602004D4602009A
:1046A00074760200FD330020014B1878704700BF7C
:1046B000FD330020D8B1D2B130B50E4C237883B091
:1046C00013B9012003B030BD134600910A460025FE
:1046D000014609482570FDF7E5FF237823B9FFF768
:1046E000B3FF2378002BFAD0002003B030BD0220A6
:1046F000704700BF0A28002074760200024B03496D
:1047000003481722FFF7B0BBD47602007C76020084
:10471000A4760200042210B40F4C44608460C4608C
:10472000046144618461C46104624462017080F880
:10473000282080F8292080F82A2080F82B2080F873
:104740002C2080F82D2080F82E2080F82F2080F853
:1047500030205DF8044B7047FD460200027838B502
:1047600002EB42020A4400EB8202044653680D4603
:104770009847237803EB43032344591991F82830D1
:10478000237038BD10B5ADF5D26D8EA800F048FB92
:10479000574B0FCB03AC84E80F0005AB93E8030045
:1047A00094E80C008DE803008EA84CF2010100F0A3
:1047B00025FC002407A88DF80B4000F061FC4FF6A3
:1047C000E16107A800F092FC07A800F0CBFC07A865
:1047D00000F0E2FC0DF10B0107A8012200F0FAFC49
:1047E00007A8012100F000FD224607A98EA800F0CD
:1047F00029FC22A800F044FC4FF6E26122A800F058
:1048000075FC22A800F0AEFC22A800F0C5FC0DF15A
:104810000B0122A8012200F0DDFC22A8012100F0FA
:10482000E3FC012222A98EA800F00CFC3DA800F0B8
:1048300027FC4FF6E3613DA800F058FC3DA800F0CE
:1048400091FC3DA800F0A8FC0DF10B013DA8012250
:1048500000F0C0FC3DA8022100F0C6FC02223DA9E8
:104860008EA800F0EFFB58A800F00AFC4FF6E461B8
:1048700058A800F03BFC58A800F074FC58A800F0C1
:104880008BFC0DF10B0158A8012200F0A3FC58A8E5
:10489000022100F0A9FC032258A98EA800F0D2FB47
:1048A00073A800F0EDFB4FF6E56173A800F01EFC65
:1048B00073A800F057FC73A800F06EFC0DF10B011B
:1048C00073A8012200F086FC73A8042100F08CFC80
:1048D00073A904228EA800F0B5FB8EA800F06CFB33
:1048E00021468EA800F0C6F80DF5D26D10BD00BFB0
:1048F000E476020000B5ADF25C4D684600F090FA37
:10490000684641F60A0100F095FB684600F054FB4A
:104910006846012100F0AEF80DF25C4D5DF804FB35
:104920002DE9F04182B00F4616461C46BDF82050D6
:1049300000F0BCF860B9384600F0B0F8314600F03D
:1049400093FB2A46214600F09DFC02B0BDE8F081B1
:104950000DF10808384628F8025D00F09FF831464E
:1049600000F082FB4246214600F04AFC02B0BDE85E
:10497000F08100BF00B5002083B000F08FF8037F06
:1049800000930449044B05489122FFF76DFA03B0E8
:104990005DF804FBF47602008477020018770200C9
:1049A00000B5002083B000F079F8002100F05CFB36
:1049B00000F0A2FC044B0090962204490448FFF743
:1049C00053FA03B05DF804FBA8770200F476020006
:1049D0006477020030B583B0054600F099F9124BB8
:1049E00012491348134C9C22FFF73EFA2846FFF762
:1049F000C9FE2846FFF77EFF2821204600F09CFCD8
:104A0000204600F0CBFC002000F048F8034620468A
:104A10009A799B888DF80620ADF80430019900F052
:104A2000C5FC03B030BD00BF94770200F4760200ED
:104A30003C770200945F002000487047003400205B
:104A400076DF70477ADF70477FDF7047A8DF7047F7
:104A5000A9DF704769DF704766DF7047FAF78ABEE3
:104A6000037803B17047024B3B211888FFF7E8BF7A
:104A70000C28002008B5074B4FF48B6202FB013372
:104A80000146184601F095FF034A1378013313706D
:104A900008BD00BF20340020905F0020024B4FF47F
:104AA0008B6202FB0030704720340020014B1878E5
:104AB000704700BF915F002030B50388132B85B08D
:104AC00067D0044612D9512B4ED034D9522B29D05D
