:0200000270008C
:10500000807F0020159907003D9907003F99070010
:1050100041990700439907004599070000000000E7
:105020000000000000000000000000004799070099
:1050300049990700000000004B9907004D990700AF
:105040004F9907004F990700436307004F990700E6
:105050004F9907004F9907004F9907004F99070094
:105060004F9907004F9907004F9907004F99070084
:105070004F990700256607004F9907004F990700D1
:105080004F990700918D07004F9907004F9907002E
:10509000898E07004F990700477E07004F99070048
:1050A0004F9907004F9907004F9907004F99070044
:1050B0004F9907004F990700000000000000000012
:1050C0004F9907004F9907004F9907004F99070024
:1050D0004F9907004F9907004F9907000000000003
:1050E00000000000000000000000000000000000C0
:1050F00000000000000000000000000000000000B0
:10510000000000000000000000000000000000009F
:10511000000000000000000000000000000000008F
:10512000000000000000000000000000000000007F
:10513000000000000000000000000000000000006F
:10514000000000000000000000000000000000005F
:10515000000000000000000000000000000000004F
:10516000000000000000000000000000000000003F
:10517000000000000000000000000000000000002F
:10518000000000000000000000000000000000001F
:10519000000000000000000000000000000000000F
:1051A00000000000000000000000000000000000FF
:1051B00000000000000000000000000000000000EF
:1051C00000000000000000000000000000000000DF
:1051D00000000000000000000000000000000000CF
:1051E00000000000000000000000000000000000BF
:1051F00000000000000000000000000000000000AF
:1052000010B5054C237833B9044B13B10448AFF300
:1052100000800123237010BD282E00200000000014
:10522000FCCA07000C4B43B10C480D4910B5AFF355
:1052300000800C48036823B910BD0A48036833B9DD
:105240007047094B002BF7D0BDE810401847064BBC
:10525000002BF5D0184700BF00000000FCCA070073
:105260002C2E00200C2E002000000000154B002BDF
:1052700008BF134B9D46A3F5803A00218B460F468D
:105280001348144A121A00F063F80F4B002B00D099
:1052900098470E4B002B00D09847002000210400B7
:1052A0000D000D48002802D00C48AFF3008000F03C
:1052B0002BF82000290003F0D7F800F011F800BF08
:1052C00000000800807F00200000000000000000B7
:1052D000282E00207C3C0020000000000000000080
:1052E00008B5074B044613B10021AFF30080054B0E
:1052F0001868836A03B19847204600F031F800BF70
:10530000000000009CB5070070B50D4E0D4CA41BAD
:10531000A4100025A54209D10B4E0C4C06F032F921
:10532000A41BA4100025A54205D170BD56F8253058
:1053300098470135EEE756F8253098470135F2E7F2
:10534000042E0020042E0020042E0020082E002011
:1053500002440346934200D1704703F8011BF9E76A
:10536000FEE700BF2DE9F0430378012B87B0054627
:105370000E4601D0062B04D12A79012A0AD1884988
:105380000A70874F3A78012A08D0022A00F04B822F
:10539000844903E3022AF2D0072430E0013B052BC5
:1053A00000F23B82DFE813F0060039005F002F00B7
:1053B00039022C027C49032003F0EEFEAB680BB9E6
:1053C00003241CE0B3F5807F01D9042417E0774E55
:1053D0007749032003F0E0FE304601F085F90446EA
:1053E00008B103F037F886F8200020220146714802
:1053F000FFF7AEFF704B1C63AA689A630124204636
:1054000007B0BDE8F0836D49032003F0C5FE6A4B89
:10541000DA6B72601B6CB360F0E7674C684903207D
:1054200003F0BAFEAA68E06BA36B1118994207D982
:105430007060236C6349B360012003F0ADFEBFE7E9
:105440005C306968204405F0ECFBAB68E76B1F44F7
:10545000E763A968686804F1400201F0B1F82064CC
:105460007760236CD7E75849032003F095FE524B31
:10547000D96B9A6B9142994605D05449012003F0AB
:105480008BFE0824BBE7494C5149032003F084FEFE
:1054900094F820302546002BB0D14E49032003F06C
:1054A0007BFE00F0D1FE012801D00524A7E794F887
:1054B0009830002B00F094814749032003F06CFEE4
:1054C00094F89E30002BF0D0D4F85061D4F8548179
:1054D00016B1B8F1000F01D1042324E094F8FF3095
:1054E00023B194F80031002B40F0888095F8A83063
:1054F00013B93A49012044E0D5F8AC30342B0DD132
:1055000095F8B010364A002343F20C008B420EDBB4
:105510003449012003F040FE072304E03249012012
:1055200003F03AFE062385F858310B24D9E00488AD
:1055300052F804EFA64500F081840133E6E795F8C0
:10554000A030002BC8D0D9F80840D5F8A4202749AE
:105550002346032003F00CFE95F8C530B3B1023B9F
:10556000012B4BD8D5F8A4309C4247D3204912E0F8
:1055700095F8A030002BAFD0D9F80C40E5E71D49D5
:10558000032003F009FEA7E70024DEE7D5F8A430E6
:105590009C4233D91849012003F0FEFD0523C2E7E0
:1055A000642C002087BF0700E8B50700442E0020C8
:1055B00009B607000C3B0020D43A002026B60700AD
:1055C00040B6070060B6070094B60700B6B60700FD
:1055D000DAB60700F8B6070001B7070021B70700E1
:1055E000F42E0020A5BF070038B7070072B70700E8
:1055F000B4B7070053B7070098B7070095F80C3108
:10560000002B67D1A849032003F0C6FDA74B1878EB
:105610005C78A74B4246314640EA042002F047FC42
:10562000002840F021843A6995F80D319A4240F003
:105630001B84A049F86805F0F4FA9F49032003F0A1
:10564000ABFD05F059F97B690446002B00F0068498
:105650007968002900F00284FA68002A00F0FE83CD
:105660000B43990740F0FA83930740F0F783202318
:10567000039305A9402305200293049302F000FC44
:10568000002840F0EB83BA69029B9A4240F0E6831F
:10569000BA68059B9A4240F0E1833969049B9942BC
:1056A00040F0DC830094FB687968786905F028F99C
:1056B000002800F0D3838149032003F06DFD00230F
:1056C000C5F85C3195F8C530032B61D8DFE803F0ED
:1056D0000E3A26427A4903200B2403F05DFD85F83B
:1056E00058417849012003F057FD88E695F8D430F9
:1056F0000BB97549FEE6D5F8D830C5F85C31734969
:10570000032003F049FD20227149F86905F089FA68
:10571000D5F85C0100283DD16E492DE095F8CC30DC
:105720000BB96D49E6E66D4BD5F8D020C5F85C2184
:10573000C3F5FC239A42E2D96949012003F02CFD0C
:105740000424CEE795F8C6300BB96649D2E6D5F801
:10575000C830D2E795F8CC3013B195F8C6300BB904
:105760006149C7E6D5F8C830D5F8D0209918C5F8F2
:105770005C1103B12AB95D49012003F00DFD03243A
:10578000AFE7564BC3F5FC239A42B8D95849D4E742
:105790005849AFE604F082F8044608B15649CCE710
:1057A000564B57491A68032003F0ECFC5549032077
:1057B00003F0F2FC5449032003F0EEFC03205349AC
:1057C00003F0EAFC204602F075F8002840F07D82E4
:1057D0004F490320012403F0DFFC85F820400EE64A
:1057E00094F8243043B14B49032003F0D5FC032344
:1057F00084F858310B2402E6474903F0CDFC54E607
:105800004649032003F0C8FC454B1A6CB260DB6BC1
:1058100073604FF480733360F0E54249012003F078
:10582000BBFC0224EBE5013B052B00F20583DFE81E
:1058300013F00600C400B101A8010303F7023A49BE
:10584000032003F0A9FCAB68002B3FF4B9ADC3F310
:105850000B024AB1324A3549526DD1F85C111A44F3
:105860008A4201D03249E7E5B3F5805F04D9314976
:10587000012003F091FCA8E52C4A92F8201016466E
:1058800009B92D49FAE5264CD2F85C21616D58180A
:10589000904255D9029303910492032302AA274907
:1058A000012003F059FCECE5D3B70700A0B50700D1
:1058B000682C0020522F0020F8B70700D7BF070040
:1058C00011B80700EEBF070030B8070000B90700A5
:1058D000232F00201BB907004BB80700005007001A
:1058E00065B807007BB8070095B80700ACB807009B
:1058F000C2B80700E0B807002FB90700303C00200D
:1059000053B9070077B907009BB90700B3B907007F
:105910000BC00700D2B90700F4B9070025BA070089
:10592000D43A002055BA070078BA0700442E002068
:1059300091BA0700DABA070007BB070048BB0700A7
:1059400003209C4903F028FCE36CA364AB68636408
:105950006369606D2065206303B9236296F8603146
:10596000A968954A013303F0030386F860310023E8
:10597000A6F86231D6F864310133C6F864318F4B32
:105980001B6801F6FF71090B184401F027FE38B1BE
:10599000D6F864318A49013BC6F8643101202CE70E
:1059A000A36C226D616C04930323029103928549D9
:1059B00002AA184603F0D0FB20E5834B834C1A6DF6
:1059C00072609A6CB26094F820201F46002A3FF45F
:1059D00058ADA968B1F5807F3FF6F7ACD3F8508099
:1059E0005A6D5B6CA8EB02020A449A4201D97849CD
:1059F00022E5686807F1480200F0E2FDB864AB6890
:105A0000B4F8620143443B657360BB6CB360AA6841
:105A10008318FF2B04F5B47894F8603143D800EB79
:105A200003206968404405F0FCF8B4F86221AB68D3
:105A30001344A4F86231B4F86221002A3FF4DEACCA
:105A4000796D3D6B7B6C511A29449942FFF4D6ACB9
:105A50005A4B94F860111B681D44D4F8643103322A
:105A60000133C4F864319210534B08EB01212846EE
:105A700001F06AFEB4F86221002870D12B46554926
:105A8000032003F075FB3B6BB4F8622113443B63C6
:105A900094F86031013303F0030384F8603100238C
:105AA000A4F86231AAE4C0F580791FFA89F900EB05
:105AB00003204A466968404405F0B3F8AB68B4F87F
:105AC0006221A3EB0903AB606B684B446B603B4BFB
:105AD000396B1B684A4401EB0309D4F8643194F82C
:105AE000601192B2A4F8622101330332C4F8643128
:105AF0009210314B08EB0121484601F025FEB4F825
:105B00006221D0B94B463349032003F031FB3B6B94
:105B1000B4F8622113443B6394F86001AA68013031
:105B200000F00300002384F86001A4F86231002A29
:105B300081D0696808EB002075E7D4F86431264904
:105B4000013BC4F8643101204B4603F011FBFB6CB0
:105B5000BB647B6D3B657360FB6CB360DCE7D4F8C2
:105B600064311D49013BC4F8643101202B4603F028
:105B7000FFFAFB6CBB647B6D3B657360FB6CB360D1
:105B800086E71649032003F007FB0F4B1A6D72607E
:105B90009B6C40E40C4D1249032003F0FDFA2B6D81
:105BA000696D6A6C5B1A9A421ED00E49012003F09F
:105BB000DFFA66E4AABB0700F55E0700303C002070
:105BC000C4BB0700E4BB0700D43A0020442E0020E9
:105BD00027BC070047BC070067BC07009BBC070049
:105BE000B1BC0700CBBC07000320A04903F0D4FAE6
:105BF0002B6D6B650020AB6C6864EB6401F05AFEA2
:105C0000002862D19A4E2A6DD6F85C319A427FF410
:105C1000F5ABD6F864219749032003F0B3FAD6F820
:105C20006441002C3ED19449032003F0B5FA96F864
:105C3000DD30032B3BD1914B9149587893F800E02C
:105C4000D6F85C2109688F4B4EEA002E200C000428
:105C500040EA0E0002F02BF9202200288A49F86958
:105C600014BF0A24012404F0CDFF38B18749012074
:105C700003F092FA0C2386F858310B246B69C3B9F0
:105C80008349844F032003F087FA8349032003F0FC
:105C900083FA96F8C530032B00F2C080DFE803F0EA
:105CA0006618663F01F0F0FE03F024FAB7E7092317
:105CB000E1E7012B05D17949794F032003F06CFA14
:105CC000E3E77849012003F067FA0A24FFF797BB5E
:105CD0004FF440531B78142B89BF43F21403002266
:105CE0001A68714B88BFB2FBF3F2654B1B6803F572
:105CF00000510978142989BF42F2140100235B582E
:105D0000694988BFB3FBF1F39A422FD0674903205A
:105D100003F02EFA05240023BB607B6066E04FF49D
:105D200040531B78142B89BF43F2140300221A68D6
:105D30005D4B88BFB2FBF3F2514B1B6803F500517A
:105D40000978142989BF42F2140100235B5856498F
:105D500088BFB3FBF1F39A4208D05549032003F002
:105D600007FA6B69012B04BF00232B62012CD2D1EF
:105D70005049032003F010FA96F8C530032B29D8B8
:105D8000DFE803F0021D23260123BB606B69012BB2
:105D900005D14949032003F0FFF900232B6296F84F
:105DA000FF3013B196F80031E3B996F8C530B3B1BE
:105DB000023B012B16D8D6F8A430EB6012E0A523E5
:105DC000BB60D6F8C8306B63E9E7AA23BB60E6E79F
:105DD000AC23F5E7042386F858310B24DFE7D6F827
:105DE000A430AB60AB6C7B60D6F85C313B602022AA
:105DF00000213248FFF7ACFAB222FF213048FFF70A
:105E0000A7FA00232B632F48012386F8683501F099
:105E100051FD00287FF459AFFFF7F1BA0A247AE761
:105E20002949032003F0B8F9284B9A6CB2601B6D26
:105E300073604FF48053EEE42549EFE495F8C530E4
:105E4000032B3FF69CAB01A252F823F03F5507000D
:105E50008955070071550700715507001D4901203C
:105E600003F09AF905243CE40A243AE4F8BC07005C
:105E7000442E002013BD07005EBD0700A0B507003B
:105E8000303C0020802C0020232F002079BD07000B
:105E90008FBD0700EC3A0020FBBD0700AEBD070038
:105EA000F83A0020CDBD070040420F002CBE07008D
:105EB00081BE0700E7BE07001ABF07000C3B0020A9
:105EC000303B0020E56207004ABF0700D43A0020BB
:105ED00067BF0700BDBF070043681A44426011B1A5
:105EE0000139934201D10120704713F8010B01F8E9
:105EF000010FF6E7024A1368013B1360704700BFC9
:105F0000A82F0020084B5A6E013A5A6622B9074959
:105F10000A7822F002020A701A6E0132042A08BFBF
:105F200000221A66704700BFD83400207437002062
:105F300028DF704729DF70475B689A68074B9A42F1
:105F40000AD1436882680649013A01330B604A600E
:105F50000320044903F016B9704700BF34C007009E
:105F6000942F002070C2070030B5044685B00D465E
:105F7000102200216846FFF7EBF9237A012B0AD0A3
:105F8000022B11D063680193236829469B686846F9
:105F9000984705B030BD00238DF800302369029387
:105FA000A38AADF80C30EDE70123A2898DF800300B
:105FB000E389ADF80A20D31AADF80830E2E738B526
:105FC0001B4B5A6E1946002A31D01C6E182202FB58
:105FD00004331A7A012A06D0022A22D0184609214F
:105FE000BDE83840C0E71825D88A9A8A05FB041412
:105FF000121AE1682469B2F5806F4FEA800001440B
:10600000B4BF92B24FF480622044FFF793FF11288F
:106010000BD1084A137823F0020343F004031370F2
:1060200038BD9889FFF784FFF1E70028D6D138BD45
:10603000D83400207437002038B5294A1378014637
:10604000980741D5274A146E1820022900FB042026
:1060500004D003292CD0BDE83840B0E7224B002102
:106060001970037A012B0CD0022BF4D18389028A98
:1060700001338381C38901339BB29A42C381EAD140
:1060800011E0858AC38AE91AB1F5806FB4BF89B27D
:106090004FF480610B4418219BB201FB04229D4206
:1060A000D382D8D10021FFF75FFFFFF72BFFD2E7A4
:1060B0000D4A13780133DBB2032B01D81370CAE702
:1060C000002313700821EEE75907C4D50549496E2E
:1060D00003F0FB0313700029BDD043F00203EDE78A
:1060E00074370020D8340020303400202DE9F341EB
:1060F00083680446884623B90027384602B0BDE8C5
:10610000F081036801220DF1070198470746002836
:10611000F2D0A3689DF80750013B2A06A3601AD568
:1061200005F07F050726A368002BE5D02368012230
:106130000DF10701204698470028DDD0A3689DF89F
:106140000720013BA36002F07F03B3401D43130609
:1061500006F1070602D4C8F80050CEE7232EE2D19C
:10616000CAE730B5044685B01546A9B90268124B96
:106170009A4211D0102D06D82A4669462046FFF7CC
:10618000F0FF05B030BD102269462046FFF7E9FF59
:106190000028F6D0103DEDE7A3689D4201D900200C
:1061A000EFE723682A46204698470028F7D0A368DF
:1061B0005D1BA560E5E700BFD95E070010B5436829
:1061C0001A787AB103F10C0242601A7B62B9016855
:1061D000416082608C78C3682344036191F90310A5
:1061E0000B444361104610BD59781A7901F0300410
:1061F000302C1BD15C7B04F03004302C16D1997804
:106200000269521A02610022597811F0300F02BF60
:10621000816801318160997B114402690A440261FD
:1062200093F90F301A444261012010BD01F0F004CF
:10623000202C03D1597911FB02F2E5E701F0C001EE
:10624000802908BF0422DFE710B5104B104C9A6B71
:10625000104961605C33A3600F4B23610F4BE26018
:106260000F49104800221A605A6002F0DCFF201D1E
:106270000B4A0C4903F01EF9044628B90A490120CB
:1062800002F08AFF204610BD012010BDD43A002044
:1062900030340020D95E0700395F0700942F0020BA
:1062A000682E0020ACC0070095C2070008B50A4957
:1062B0000A4E0B4C032002F06FFFA41BE4080025DC
:1062C000AC4204D006EBC5035B68984708B101F007
:1062D000DDFB0135F4E700BFC6C20700202E002019
:1062E000282E002008B5044B02221A70034B1B7D98
:1062F0000BB1FFF7DBFF08BDAC33002030340020CA
:106300000023435082B043580193019B02B0704771
:106310000023435082B043580193019B02B0704761
:106320000A4610B54FF48E71FFF7F2FF938A916819
:106330009BB2C95C938A01339BB29382C0F81C154F
:1063400010BD7FB5884C894A237F002B6DD0D2F8D1
:106350002461002E47D04FF492711046FFF7D0FF12
:1063600002238DF80030D2F88034C2F880340393D1
:10637000D2F83C358DF80830E36801930023E375CB
:106380002376684694E80A009847784AD2F8443160
:1063900073B14FF4A2711046FFF7B2FFE37D3BB13A
:1063A0000023E375D2F83C05E168C0B201F0B4F80F
:1063B0006E4AD2F82031A3B14FF490711046FFF726
:1063C0009FFFA37D6BB1D2F84C258DF808200023E8
:1063D000A2688DF80030A375019294E80A0068461F
:1063E000984704B070BDD2F81031002BCDD01046C4
:1063F0004FF48871FFF784FFD2F83C35E07DDBB2C3
:106400009842C2D1237E6BB1D2F80052E16825F0E8
:106410002005C2F80052E3752369E360267601F097
:106420007BF8B2E7E375E168F9E7D2F80433990540
:1064300049D5D2F82431002B45D04FF49271104643
:10644000FFF766FF4FF40173C2F80833A37E0BB960
:10645000012353600223454A8DF80030D2F880347E
:10646000C2F880340393E37D8DF80830E36801932C
:106470000023E3752376684694E80A0098473B4872
:10648000D0F81C313BB1A38AA27D9BB29A4257D966
:106490003549FFF745FF354AD2F84431002BA0D0EB
:1064A0004FF4A2711046FFF733FFA37E0BB1012317
:1064B0001360E37D002B94D00023607EE168E375D8
:1064C00001F02AF88DE7294AD2F804335B07D6D5C4
:1064D000D2F80831002BD2D0E37D4FF484711046FE
:1064E000A3B9FFF715FFD2F81835637EE27D9A4213
:1064F000C5D1237EB3B1E3752369E168E36000236E
:10650000607E2376637601F007F8B8E7FFF700FFB7
:10651000637ED2F81815E268D154637E0133DBB292
:106520006376E2E7A27E114B0AB901225A604FF46A
:106530000172C3F808230023E375607EE168E2E797
:106540004FF48E71FFF7E4FEA27D002AA3D0002352
:106550008DF80820A2688DF80030A375019294E8A8
:106560000A006846984796E754360020002000400D
:1065700038B50C4C626E042A054611D0236E1344C4
:10658000032B02F1010288BF043B6266182202FB62
:10659000034400212046FEF7DBFE2C60012038BDBD
:1065A000002038BDD8340020044A137813F0060FB9
:1065B00003D143F00203137001E5704774370020E4
:1065C00030B53AB11368DB430A4D0144814204D12E
:1065D000D84330BD4FF0FF33F6E710F8012B53409E
:1065E000082213F0010418BF2C46013A84EA530331
:1065F000F7D1EBE72083B8ED10B5084B9A685AB194
:1066000050B9EFF3108272B605491C680C605C68E3
:106610004C60986002B962B6002010BD343C002086
:1066200000E100E073B502A8002300F8063D03F086
:10663000CFF8294B1B7803F0FF05002B46D1274BE1
:106640001A68002A42D0264AD2F80813C9073DD555
:106650001D601B68234C019302A8019BD2F80865BA
:1066600000F8055D03F0B4F8A169E369E2691F2B46
:1066700098BF5D1CE3691F2B94BF01330023A9421F
:10668000E36105D1A3691F2B94BF01330023A361EC
:10669000A3189DF8030083F82460A369E26993427C
:1066A00088BF2132D31A226A9A4238BF2362FFF789
:1066B000A3FFA269E3691F2B94BF013300239A4211
:1066C00001BF074A0123C2F8083353609DF8020056
:1066D000FFF792FF02B070BDE438002000D1004007
:1066E00000D000403034002073B5154EB378054615
:1066F0001BB310B3436903B30024047402A800F869
:10670000014D03F065F80DF1060002F087FB90B132
:10671000022303709DF80630456073709DF80700F2
:10672000FFF76AFF24B9074B4FF48012C3F800212A
:10673000204602B070BD0424F0E70824F8E700BF4B
:106740004835002000E100E02DE9F04F0022C9B0FB
:106750004B780C781B0443EA0463CC7823438C7891
:1067600043EA042308AC0431A3500432402AEFD199
:10677000234638AD996B1E464FEAF14282EA7142D8
:1067800082EA9122716A366853F8044F31440A4410
:106790004FEAB44181EAF41181EAD4010A449D42EE
:1067A000DA63E7D1036D0093436D0193836D029328
:1067B000C36D0393036E0493436E0593836E069338
:1067C00004A991E80250C36EDDF80C80029DDFF849
:1067D000AC9007939DE850009B4600274FEAF123B9
:1067E00083EAB11383EA716A59F827301A4608AB75
:1067F00053F827301A44134653442EEA010201EAA3
:106800000C0A82EA0A021A444FEA743A85EA06033D
:106810005A448AEAB40A06EA050B234083EA0B03CA
:106820008AEAB45A01379A44402F02EB0803F34630
:106830005244A8461AD1009F1744019A0765224482
:106840004265029A32448265039A2A44C265049AD8
:106850001A44059B02660B444366069B63448366A9
:10686000079B7344C36649B0BDE8F08FE6463546E2
:106870008C46264619461446B0E700BFD0C0070034
:1068800008B501F0E7FD10B5314C216811F00201A7
:106890008AB05BD1102201A8FEF75AFD0B2301221A
:1068A000ADF8023002238DF814308DF815208DF8E4
:1068B0001830062259238DF816208DF8193003223E
:1068C000FE230DF102010DF11D008DF817208DF84A
:1068D0001A3001F0B1FD78BBBDF802100B292DD89C
:1068E0004B1C8DF81B30092319448DF81C3089B2DC
:1068F00000231A46C9B205A801F0A6FDE0B98DF83B
:10690000040002908DF80C002823ADF81000014619
:1069100001A8ADF80E3001F095FD68B94FF0A04325
:106920004FF40032C3F80C254FF40022C3F80825B9
:10693000236843F0020323600AB010BD0C238DF8D6
:106940001B3008238DF81C301421D1E70020F3E719
:10695000403C00202DE9F04F4FF0A0430322C3F844
:106960004427C3F84C274FF40032C3F8082595B0EC
:106970004FF40022C3F8082501238DF810300023BE
:106980008DF811308DF8123007238DF8133000F098
:1069900017FE0446002871D1414801F08EF80446E4
:1069A00000286BD13F4B404A1A60404B50221A805E
:1069B0003F4B404A1A60404B1C68C4F340341CB142
:1069C0004FF40052C3F880203C4904A801F054FA67
:1069D000394B28B114B14FF400521A6001F03AFD5E
:1069E000374A0121117093F81623C2F341128A42EB
:1069F0004CD9344A9168002944D0136843F4800389
:106A00001360314B0193019E0C2200210DA8FEF76B
:106A10009FFC0127002332460DA940208DF83470D9
:106A20008DF835308DF8363001F0F0FC0246002844
:106A3000D4D114AD2549032002F0A4FB45F8306DF4
:106A4000284601F017FA089A9642044621D02049B8
:106A5000022002F097FB4FF08053089AD3F80C31D4
:106A60001C49C2EB832202F10052022002F08AFB91
:106A7000B4B322461849012002F084FB204615B029
:106A8000BDE8F08F4FF480021A60BAE742F20200CC
:106A9000A4E728B302461149384602F073FBE8E741
:106AA00000500700E038002078340020DE38002055
:106AB000F03800209972070000E100E0297C07000F
:106AC000E4380020343C0020002C0020F1C20700F4
:106AD0001DC3070051C30700C1C3070084C30700DB
:106AE0008C4B8D4A1A6000230D930E939DF8103045
:106AF000012666F3030366F3071328468DF810306A
:106B000001F0A4FC04460028B8D19DF821302846A5
:106B100001338DF8213001F09BFC04460028ADD1F3
:106B20007E4804F0BDF87D4982B204A801F086FCDD
:106B300004460028A2D10C23ADF834301823ADF858
:106B400036300DA84FF4C873ADF83840ADF83A3080
:106B500001F0FAFB0446002890D1714B8DF80A60D1
:106B60004FF6FF7214A91A804FF6596321F8483D79
:106B70006C4A304601F058FC044600287FF47EAF92
:106B8000694B04AC03F1100618685968224603C229
:106B90000833B3421446F7D1DFF8B88104A8414660
:106BA00001F032FC044600287FF468AF01461C2245
:106BB0004FF0140B0DA8FEF7CBFB21465A46284692
:106BC000FEF7C6FB9DF83430ADF80040C24643F0F6
:106BD00004038DF834301AF802398DF80E30022390
:106BE0000126ADF80C30230AA14666F3030366F3D1
:106BF000420466F30713E4B28DF80130344303AF67
:106C000008F102032A460DA938F8020C8DF802405B
:106C10000897CDF824D0ADF82CB001F003FC044661
:106C200000287FF42BAF01461C220DA8FEF790FB35
:106C300021465A462846FEF78BFB9DF83430ADF8C6
:106C4000004043F018038DF834309AF802308DF884
:106C50000E304B4666F34203DBB243F01103240AC5
:106C60008DF8023066F30304172366F30714ADF8BA
:106C70002C302A4608F10A030DA938F8020C8DF8C9
:106C80000140ADF80C600897CDF824D001F0CAFBA4
:106C9000044600287FF4F2AE244A254C136833439F
:106CA000136001461C220DA8FEF752FB40F6CD43AF
:106CB0000E934FF480430F9303238DF840301D4B08
:106CC00013930DAD0FCD0FC495E807001A4B84E860
:106CD00007001A4883F8009001F034FB04460028AE
:106CE0007FF4CCAE164B4FF6FF721A80154B83F82B
:106CF0000090154B9B7853B1144B1A7C3AB9144A47
:106D000083F811905A61FFF7BEFD0446B6E60824E9
:106D1000B4E600BFD8380020956D0700EBC307002C
:106D2000942C0020563C0020E1C20700403C00208B
:106D3000043900208168070044390020FC38002015
:106D40004639002020390020483500202439002011
:106D500051830700583C002030B587B004460D46EB
:106D6000ADF806200021102202A8FEF7F1FA012357
:106D70008DF80A300DF10603049302A9044BADF817
:106D800008502046059301F049FB07B030BD00BF15
:106D9000443C0020F0B50388112B89B004463ED056
:106DA00012D8102B28D02388212B00F002825BD828
:106DB000112B00F0C3804BD8012B00F0EA80102B80
:106DC00000F0A98009B0F0BD122B3AD0502BEAD1C7
:106DD000AC4DC288EB899A4240F0B381038A022B02
:106DE00040F0AF81837CD90716D4A748FFF77CFC1D
:106DF0000028D8D0AB6920E0A44B82881A8000F12B
:106E0000100303CBA24AA34B1060516000221A70FA
:106E10009C4BDB89002BC6D101F054FAC3E79B4B96
:106E200099484FF6FF721A809A4B00221A70FFF7AA
:106E30005BFC0028B7D0934B9B69002BB3D09847DD
:106E4000B1E700F1080303CB914A10605160E3E71A
:106E5000132B00F08980142BB4D100231A46194655
:106E6000A08801F0E5FA86E0522B00F0638146D855
:106E7000502B00F06681512BA4D1A579002DA1D013
:106E8000102200210DEB0200FEF762FA022D99D1CB
:106E9000814E2289B3899A4294D1A37B043B022B71
:106EA00090D99DF816307D4F318A3888CDF808D0BA
:106EB00043F001038DF81630238AADF81830638A49
:106EC000ADF81A3004F114030222079300238DF861
:106ED00010200193ADF8042001AA01F0A1FA3D466B
:106EE00000285CD19DF80030DA0758D440F2FD1339
:106EF00004A93888ADF8143001F08EFA62E7562BF9
:106F00003DD0572B24D0552B7FF45CAF1721A088A0
:106F100001F07EFA2FE04FF0A0434FF40022C3F8B7
:106F20000C254FF40032C3F808255C4BA2881A8068
:106F30005B4A136823F00203136043E7FFF7A3FCE7
:106F400008B101F087FA554B4FF6FF721A8039E706
:106F5000544B1B78012B02D1534A137032E7022B9A
:106F60007FF430AFFFF7A2F94C4800231A46852181
:106F7000008801F05FFA00283FF424AFE1E7A3792D
:106F8000002B7FF41FAF454B1321188801F0DEF969
:106F9000F1E7424B0021188801F034FAEBE70023B7
:106FA00004A92888ADF8143001F036FA014600280B
:106FB0007FF408AF0490059006900C2201A8FEF71C
:106FC000C7F9237D013B052B00F2AD80DFE803F01C
:106FD0000328391EAB53638A062B04D003210120FA
:106FE00000F098F93CE0314BB3F85220A3F8502060
:106FF000637D029304A9D4F816300393012401A8F9
:107000008DF80440FEF7AEF90146E8E7032304A932
:1070100001A88DF80430FEF7A5F901460420DFE74A
:10702000638A032B01BFA27D637D43EA02231F4ACB
:1070300011BF0321A2F85230A2F8503001210220E2
:10704000CEE7042304A90DEB03008DF80430FEF70E
:1070500089F9012801460CD10699059802F0E2FB56
:1070600000283FF4AFAE02461149012002F08AF831
:10707000A8E60320B4E7638A022B1BD00321062075
:10708000AEE700BF04390020243900204639002033
:10709000F438002020390020563C0020942C002099
:1070A000403C0020AC3300204434002078340020E1
:1070B0001BC40700637D029304A9062701A88DF86D
:1070C0000470FEF74FF901280146D8D128884FF601
:1070D000FF73984275D03C4B1B68DB0771D53B4B67
:1070E000049D059C9970290A1971290C069A5971F9
:1070F000210A1972210C5972110ADD70DC712D0EF2
:10710000240EDA721973110C120E4FF0600E5973BF
:107110009A739D719C720F22B18983F800E05F70B1
:10712000FFF71AFE9CE72A49022002F035F80321F6
:10713000207D55E700231A461946A08801F06AF918
:1071400019E7244BE2889B889A427FF43BAE0021EA
:107150000C2201A8049105910691FEF7F9F802238B
:107160008DF8043004F11203029304A9238A0393D7
:1071700001A8FEF7F7F8012803D01749012002F013
:107180000BF8164CB4F85230002B3FF41BAEB4F899
:107190005030013B9BB2A4F85030002B7FF412AE6C
:1071A0000699059802F03EFBB4F85230A4F850302E
:1071B00008E6002204A9A0880492059201F036F99D
:1071C000D9E608204FE700BF403C0020443C0020A7
:1071D000F3C30700563C002058C407007834002051
:1071E000034B01B919705B6803B11847704700BFC2
:1071F000CC340020F0B50346186880F3088858683E
:10720000FF2464B2EFF30585002D08D1EFF314815C
:10721000022221EA020181F31488A646004725468E
:10722000064621273FBAF0B4002400250026002797
:10723000F0B4F92040B20047F0BD70B50D4CA36822
:1072400023F001020546A2600E4649B923F003036C
:10725000A3606B6863B131462846BDE870401847AB
:107260000549012001F098FFA36843F00203EFE70E
:1072700070BD00BFCC3400207DC4070010B5054CA4
:10728000236F042B00D010BD02F014FA01F032FF7E
:10729000F6E700BFCC34002037B502A800251B4C10
:1072A00000F8015D02F094FA94F8741094F87520D7
:1072B000D3B2B4F87620934238BF0133C9B238BF95
:1072C000DDB2A9421FD094F8755094F87530DBB246
:1072D0009A4286BF0133DBB2002384F875309DF8F3
:1072E0000700FFF789F94FF6FF739D421FBFA36F99
:1072F000074943F8351003EBC50216BF00200420F0
:10730000908003B030BD4FF6FF75E8E7CC34002025
:10731000917B070010B4134B024618884FF6FF7399
:1073200098421BD0104B1B68DB0717D50F4B0B295E
:107330005A7008BF0E4A99704FF0600408BF117868
:107340001C7004BFD97000240A4B0ABF14700322BA
:10735000042299895DF8044BFFF7FEBC08205DF814
:10736000044B7047942C0020403C0020443C0020FB
:107370009C2F0020563C0020F7B50646437C02A80F
:107380000024012B00F8014D0CBF0F4627460D4687
:1073900002F01EFA0DF1060001F040FDD8B1012304
:1073A00003700E4B4660D3F8043583600C4B9DF898
:1073B0000620C5600761446183F87D209DF80700C1
:1073C000FFF71AF924B9074B4FF48012C3F80021D4
:1073D000204603B0F0BD0424F0E700BF00100140D8
:1073E000CC34002000E100E02DE9F041474D484B4E
:1073F0002A794FEA421803EB08011E4691F8A411BE
:1074000031B103F5D47303F06043B3F1005F77D17A
:1074100006EB080494F89E31002B74D13D4F84F89C
:107420009E01C4F89071A4F89C3169B34FF4907137
:107430002868FEF765FF4FF4AC712868FEF760FF1F
:107440002B6894F89E21D4F89011C3F84415C3F822
:10745000482501229A60D4F88C2112B10020BDE8A1
:10746000F081D3F82011D3F8582119B9002AF8D0A7
:107470000F2003E0002A14BF0F2000204644002301
:1074800086F89E31BDE8F0814FF48E712868203F68
:1074900007EB4217FEF73CFF28680123836039465B
:1074A000FEF73EFFD4F88C31002BD7D194F89E1113
:1074B0002868B4F89C319BB28B4213D3B4F89C314A
:1074C0009BB2B3F5807FD3D0D0F81C31002BFBD01A
:1074D0000123C3600020D1E7B4F89C319BB2B3F51F
:1074E000807F03D0D0F81C31002BF5D0B4F89C314C
:1074F0009BB2B3F5807FDCD03946FEF711FFD5E7AC
:107500001020BDE8F0811120BDE8F081882C00201A
:10751000CC340020743600201FB501238DF80030D4
:10752000064B8DF808000191D3F88C21D3F888110F
:107530006846904705B05DF804FB00BFCC340020DE
:1075400010B5094B186A01280CD1DC695CB1996946
:1075500043F2080300221868FFF732F8231A584252
:10756000584110BD002010BDD43A002008B5FFF7E7
:10757000E7FF78B1084B93F87E304BB10748436979
:1075800033B14FF4A021FFF7F7FE18B100F062FF0E
:107590000820FBE708BD00BFCC340020442E0020AB
:1075A00008B50C220021FDF7D3FE034B00221A631D
:1075B0005A631A615A6108BDD43A002018DF704737
:1075C0001FB5102200216846FDF7C2FE022368465F
:1075D0000093FFF7F3FF05B05DF804FB2DE9FF41D1
:1075E000514EB3680546580714464FD59A0708D53B
:1075F0004E49012001F0D0FD0A24204604B0BDE828
:10760000F08143F00103B36096F8A832DB0732D56E
:10761000474B484A93421F4602D3474A934276D388
:10762000022429E0C5F30B03002B74D13B689D4273
:1076300073D38BB27A6805EB03339A426DD31FFA8A
:1076400081F8B8F1000F6AD06846FEF791FF002874
:1076500067D0009B5C601F60009B02222D0B1A729A
:107660009D81A3F81080FEF79FFFB36843F00103EC
:10767000B3600024C1E7012422463049012001F013
:1076800081FDB36823F00103B360B6E7C5F30B03D4
:107690002BB12B49012001F07FFD0624ADE7DFF877
:1076A000A4E0C5F30F370E4628464FF0020C724691
:1076B000CEF804C5D2F80084B8F1000FFAD0C2F8B1
:1076C0000805D2F80084B8F1000FFAD0C2F80435EA
:1076D000DEF80084B8F1000FFAD0013E00F58050CA
:1076E000E6D105EB0135002C87D0314610226846E3
:1076F000FDF72EFE2D0B01238DF800300194ADF81F
:107700000870ADF80A5031466846A047B1E7002D31
:1077100088D10324B0E70624AEE70524ACE70424AF
:10772000AAE70724A8E700BFCC34002099C40700CB
:10773000102E0020102E0020202E0020BCC4070098
:10774000D6C4070000E001402DE9F0430E46514940
:107750001C468B6813F0040F85B00546884655D04B
:107760009F0708D54C49012001F016FD0A24204648
:1077700005B0BDE8F08343F001038B6091F8A832B7
:10778000D80736D5454B46498B421F4602D345495B
:107790008B4278D302242DE0002D76D046EA0503F3
:1077A00099072DD13B689D422CD393B2796805EBA4
:1077B0008303994226D31FFA82F9B9F1000F23D02F
:1077C0006846FEF7D5FE002861D0009B5C601F6014
:1077D000009B01221A72DE601D61A3F81490FEF76F
:1077E000E3FED8F8083043F00103C8F8083000245D
:1077F000BDE7012422462C49012001F0C3FCB6E775
:107800000624F7E70524F5E70424F3E7002E36D035
:10781000002834D046EA00039B0732D12AB9234915
:10782000012001F0B9FC0424A1E7214B0121C3F898
:107830000415D3F800140029FBD01D4B0021184675
:1078400056F8217045F82170D3F80074002FFBD052
:1078500001318A42F4D10022C3F80425D0F8003463
:10786000002BFBD00026002C81D0ADF80C108DF839
:1078700000600194029531466846A047B7E70324AB
:1078800075E7062473E7002E86D10324B2E70724A8
:10789000B0E700BFCC340020EFC40700102E00205A
:1078A000102E0020202E002012C507002CC5070036
:1078B00000E00140F8B51F4C064625462378B3B9D1
:1078C0000123237066601C4CFFF7D8FC00220121C5
:1078D0002046FFF783FE07280246F5D060B117491E
:1078E000012001F059FC00232B700320F8BD01F0AA
:1078F000E1FE01F0FFFBE1E7114C124F124E58215F
:107900002046FEF75DFE21464FF4AE7241F8040DAD
:107910000D48094C03F085F9FFF7B0FC3B465722B0
:1079200031462046FFF710FF0728F5D00028DDD0AC
:107930000649D5E7CC34002000F0070052C5070007
:10794000D83A0020E1710700783700207DC5070094
:107950002DE9F04F2D4E2E4D716B336B01F6FF72FA
:10796000D21A2A40940804F6FF7485B003F58057B4
:107970002C4003EB000B09B18B4243D0DFF890A001
:107980004FF00109A2423CBF02F6FF7404EA0A0468
:10799000A10868468DE8000A02970391FFF70EFEE2
:1079A000804660B103236A461A49029401208DE89B
:1079B000800801F0D1FB404605B0BDE8F08F0323FD
:1079C00068468DE888080391FFF7F8FD054648B141
:1079D0006A461149029401208DE88008A84601F00A
:1079E000BBFBE8E7A242736B28BF151B5B1B0020A3
:1079F0003363FFF75FFF2744A3448046002DDAD0AE
:107A00002A46BFE74FF00008D5E700BFD43A002070
:107A100000F0FFFFA6C50700EBC5070030B5164B09
:107A20000C685B6B85B01D18E41A0323A40800934F
:107A30006846124B019302950394FFF7BFFD48B9C6
:107A40000846FFF7ADFD0E48FFF734FF0446204619
:107A500005B030BD102200216846FDF779FC68466C
:107A600002940195FFF7AAFD04460028EFD00549CE
:107A7000012001F091FBEAE7D43A00200050070012
:107A80006D75070033C607003EDF7047BFF34F8FA9
:107A90000549064BCA6802F4E0621343CB60BFF3AA
:107AA0004F8F00BFFDE700BF00ED00E00400FA05C6
:107AB00008B501F0FFFDFFF7E9FF13DF704710B5D0
:107AC0000446FFF77DFD28B10A490120BDE81040BA
:107AD00001F062BB084B4FF0FF32C3F88020204614
:107AE000FFF7EBFF08B10549EFE72046BDE810407E
:107AF000FFF780BB56C6070000E100E082C6070022
:107B000073B5224DD5F80834D5F80C44B3FA83F395
:107B1000B4FA84F45B096409ABB995F8103473BB0B
:107B200001A800F0ABF905282BD008B100F092FCB9
:107B3000D5F808340BB10198984734B101260024D8
:107B400023463446E8E7D4B91C4695F8103403F0D0
:107B5000FF06A3B9B5F81234D5F81404ADF8043013
:107B600001A900F085F9052807D00028DED1D5F855
:107B70000C34D5F814049847E2E7002CDED002B0AC
:107B800070BD002CFBD10124DFE700BFCC34002006
:107B900008B511B1002000F05DFC044B93F81834D7
:107BA00013B1BDE80840ABE708BD00BFCC340020EE
:107BB0000C4B1B78062B10D10B4B1B681A070CD1F2
:107BC0000A4B186800F0F003302B08D000F0E000FA
:107BD000A0F14003584258417047002070470120EF
:107BE000704700BFE00F00F0E40F00F0E80F00F076
:107BF000094B1B78062B0CD1084B1B681A0708D1C0
:107C0000074B186800F0F000A0F1300358425841CB
:107C100070470020704700BFE00F00F0E40F00F055
:107C2000E80F00F075DF704708B502460B460120EB
:107C3000024901F09DFAFFF729FF00BFBEC6070009
:107C4000F0B585B00E468C6869460746154601F0CA
:107C500047FB88B1B06878B1737803F03003202B0C
:107C600003D12946204601F0DEFA2A46214668461D
:107C700001F020FC019B7B6005B0F0BD13B51446FC
:107C800069460822FEF76DFA18B1DDE90023C4E960
:107C9000002302B010BD13B5144604220DEB0201FF
:107CA000FEF75FFA08B1019B236002B010BD73B507
:107CB0000D4601A906461446FEF718FA88B1019A46
:107CC000511C10D26B7803F0C003802B0BD02B79A2
:107CD000994208D821463046FEF743FA019B00221C
:107CE000E25402B070BD0020FBE773B50D4601A958
:107CF00006461446FEF7FAF990B1019AFF2A11D808
:107D0000511C0FD26B7803F0C003802B0AD02B7963
:107D1000994207D82146304601F8012BFEF721FA97
:107D200002B070BD0020FBE7F7B50F466946164666
:107D300001F08FFC80B1DDE90045002304F0010271
:107D40006D084FEA3404134301D0E443ED433B791B
:107D5000082B03D1C6E9004503B0F0BD042B08D1C0
:107D600034602246D317AB4206BFA2420120002056
:107D7000F2E7022B03D123B233801AB2F2E7012BD0
:107D800003D163B233705AB2ECE70020E4E737B5B1
:107D90000D466946144601F05CFC68B12B79082B4E
:107DA0000CD1DDE90001C4E90001DDE900238B42CB
:107DB00006BF82420120002003B030BD042B04D155
:107DC000DDE9000120600021EFE7022B03D10098DC
:107DD000208080B2F7E7012B05D1DDE9000120709A
:107DE00000F0FF00EFE70020E6E737B50D466946F3
:107DF000144601F02EFC30B12A79082A05D1DDE9BC
:107E00000023C4E9002303B030BD009B042A1846B8
:107E10004FEAE37108D123601A460B468B4206BF36
:107E2000824201200020EEE7022A04D11BB2238007
:107E30001AB2D317F2E7012A03D15BB223705AB208
:107E4000F7E70020DFE708B5074B1B681BB1984731
:107E500040B100F0FFFA054B1B781BB1BDE80840AC
:107E6000FFF74EBE08BD00BFF0380020E438002008
:107E700061DF704760DF704710DF704748DF704791
:107E80000138062811D8DFE800F0041004080A0CB5
:107E90000E0014230B60002070471C23FAE72023F8
:107EA000F8E73023F6E74023F4E7062070472DE992
:107EB000F043A1B00C46ADF804001E46002B00F0C4
:107EC000E880002900F0E5801B68002B00F0E380CB
:107ED0009DF80400052840F0E08002A9FFF7D0FFDC
:107EE000002840F089807168029B994240F0D78059
:107EF0006C4B18936C4B19936C4B1A936C4B1B93F4
:107F00006C4B1C936C4B1D936C4B1E934FF00008F5
:107F10004FF0000903F17453A3F52303CDE916894B
:107F2000A3F6924314901F93A5180746AC4266D15E
:107F300003A905209DF80550FFF7A2FF00285BD19B
:107F40007268039B9A4240F0AA803468002C00F0CB
:107F5000A080149B20AA1A44372B04AE4FF0800156
:107F600003F1010302F8701C334466D89A1B382AC7
:107F70005ED1DDE9162314980821E1FB002322FAE3
:107F800001F1CDE916238DF84F208DF84E10110C1C
:107F9000120E8DF84C201A0A8DF84D108DF84B30CA
:107FA0008DF84A2031461A0C30461B0E8DF84830A9
:107FB0008DF84920FEF7C8FB631E002D4AD11F9A99
:107FC000EA4003F8012F1E9AEA401A711D9AEA400E
:107FD0001A721C9AEA401A731B9AEA401A741A9A87
:107FE000EA401A75199AEA401A76189AEA40083552
:107FF000202D1A77E3D1002021B0BDE8F083149B37
:1080000014F8011B20AA1A440133402B02F8701CFB
:1080100014938BD104A90846FEF796FBDDE91623DD
:1080200012F5007243F10003CDE9162314977DE7A2
:1080300003F8010B9AE703F8010B9A1B3F2AFAD9C0
:1080400031463046FEF780FB382200213046FDF7EE
:108050007FF98EE718221899D14003F8011F19996A
:10806000D14019711A99D14019721B99D1401973D5
:108070001C99D14019741D99D14019751E99D14090
:1080800019761F99D140083A12F1080F1977E2D1F9
:10809000B1E70E20B0E71020AEE70620ACE70920DC
:1080A000AAE700BF67E6096A85AE67BB72F36E3C5C
:1080B0003AF54FA57F520E518C68059BABD9831FB3
:1080C00008B5FFF775FD28B16B4B6C4A1B68C3F30D
:1080D00004231360FFF78CFD10B1694B694A1A60E5
:1080E000FFF766FD28B1684B684A1B68C3F342334B
:1080F0001360FFF77DFD20B1654AD36823F08073DC
:10810000D360FFF755FD40B14FF080430022C3F824
:108110000C21C3F81021C3F83825FFF769FD10B111
:108120005C4B03221A60FFF763FD40B15A4B0522F6
:108130001A6001229A6700229A603F225A60574BC8
:108140001B78062B09D1564B1B681B0705D1554BD5
:108150001B6803F0F003502B46D0FFF729FD28B130
:10816000514B524A1B6803F04F031360504AD2F838
:10817000883043F47003C2F88830BFF34F8FBFF3E9
:108180006F8F4FF01023D3F80022002A03DBD3F8BF
:108190000432002B24DA474B0122C3F80425D3F81C
:1081A0000024002AFBD04FF010221521C2F8001243
:1081B000D3F80024002AFBD04FF010231522C3F877
:1081C00004223C4B1A46D3F800140029FBD00021AE
:1081D000C3F80415D2F80034002BFBD0FFF756FC8F
:1081E000354B364A1A6008BD4FF08052344BD2F8F6
:1081F0000414C3F82015D2F80814C3F82415D2F8D3
:108200000C14C3F82815D2F81014C3F82C15D2F8A2
:108210001414C3F83015D2F81814C3F83415D2F872
:108220001C14C3F84015D2F82014C3F84415D2F832
:108230002414C3F84815D2F82814C3F84C15D2F802
:108240002C14C3F85015D2F83014C3F85415D2F8D2
:108250003414C3F86015D2F83814C3F86415D2F892
:108260003C14C3F86815D2F84014C3F86C15D2F862
:108270004424C3F8702570E7240300104035014002
:1082800074C007400DF0ADBA440200103C05004038
:10829000F0ED00E0A005004010560040E00F00F0B7
:1082A000E40F00F0E80F00F058020010E40E004068
:1082B00000ED00E000E00140902C00200090D00391
:1082C00000C0004013B51C4CE388A2899A4212D822
:1082D000E2899A420FD3A36A43B302A8012203E0C2
:1082E000A36A1BB302A8002200F8042D1DE007209A
:1082F00019E0082017E094F85430002BF0D1E3691E
:10830000A16994F83020002A18BF19460B4B9B78BE
:10831000002BEED00429EAD9A36C002BE9D0084841
:10832000FFF72AF810B1E36A03B19847002384F8F5
:10833000543002B010BD00BFF03800204835002096
:10834000243900207BDF70477ADF704776DF704783
:1083500013B5184BB3F856004FF6FF7290421C4607
:1083600011D093F8302093F820100132D2B291420C
:1083700083F8302009D303F10C01FFF753FC10B14F
:10838000DB6A03B1984702B010BD002384F8303097
:1083900094F8243033B13B21FFF7D8FF10B1E36AE2
:1083A00003B19847A36A002BEDD002A8002200F881
:1083B000042DE7E7F038002000284FEA4111BFBF45
:1083C00000F00F020E4BC9B29954A8BF00F16043F0
:1083D00000F01F024FEA5010A8BF03F561434FEAB7
:1083E0008000A8BFC9B200F16040A8BF83F80013A5
:1083F00000F5614001239340C0F88031036070476D
:1084000014ED00E066DF704762DF704769DF704798
:10841000ADDF7047A9DF7047A8DF7047A6DF704760
:10842000A5DF7047A2DF7047A0DF70478FDF70477E
:1084300086DF70477FDF70477DDF70477CDF7047E6
:1084400074DF704773DF704772DF70476DDF70470E
:108450006CDF7047024608B50249012000F092FE29
:10846000FFF714FBF0C607002DE9F04FB14C23785D
:1084700085B01BB16378002B40F08B80AE49AF4BC9
:1084800008790D6840011A18127F002A00F0CC808C
:108490000026C5F800651D186D68002D00F0E78006
:1084A000002A00F0C4800A68A54DC2F80853120BD8
:1084B00055B201266D0902F01F0206FA02F22035BC
:1084C000A04E46F825200A684FF0FF3CD2F80C7504
:1084D000D2F81465D2F808E5D2F81055C2F80CC5E8
:1084E000C2F814C5C2F808C5C2F810C57A1C1FBF6F
:1084F0004FF0A04207F5E0774FF0020C42F827C09A
:10850000771C1FBF4FF0A04206F5E076022742F825
:1085100026706E1C1FBF05F5E0754FF0A0420226C5
:1085200042F82560BEF1FF3F1FBF0EF5E0724FF02D
:10853000A045022645F822601D1801222A774FF037
:10854000A04200264027EE76C2F808750327C2F83D
:108550001877C2F820670A686E604FF0EB71C2F8B6
:1085600024152D7FC2F86C650621C2F80C15082170
:10857000C2F814151E50002D7DD00344C2F800151A
:1085800000220121DA751A769A75D9769A762170C9
:1085900061706D4B6D4A5A616D496E4A9A61032054
:1085A00000F0FAFD4FF0A04303224FF400314FF4E6
:1085B0000020C3F84427C3F84827C3F84C27C3F862
:1085C0000815C3F80805C3F80C156349C3F8341738
:1085D000624CC3F820274FF48071C3F80815C3F824
:1085E0002027C3F808155E4B5E4900264FF4AE7293
:1085F00020461E7002F015FB25686B1C06D0324623
:108600005821201DFDF7DCFF854236D04FF4AE72B5
:1086100000215248FCF79CFE012300206360FFF715
:1086200049F950B3FFF716FFC5F8002533E70A688C
:108630004D4DC2F80853120B55B201266D0902F0D8
:108640001F0206FA02F220353E4E46F825200A683F
:108650004FF0FF3CD2F80C75D2F81465D2F808E55B
:10866000D2F81055C2F814C5C2F80CC53AE7002A72
:108670007FF429AFEBE704217FE700F0E5FB3B4AFD
:108680000B2191703A4900230B603A4913700B702B
:10869000394953700B702B494FF48010E025C1F815
:1086A000800181F81453086000F18040A0F56F202C
:1086B000C0F8083581F81153304BD0F80415196013
:1086C0009378002B00F06C812D4B1A7C002A40F02F
:1086D00067815A742B4A5A6143F208031F68236961
:1086E000012B17D06369ABB1A569274E05F6FF755D
:1086F00025F47F6525F00F053D44B368A52B00F0F8
:108700001D810AD8012B47D02049012000F044FDEB
:10871000002678E03D461E4EEFE7AA2B00F02281AE
:10872000AC2BF1D12846FFF713F9002800F01F8188
:10873000184908E148390020882C002054360020D0
:108740001003020000E100E0B83A0020C58B0700EA
:1087500097C80700618A07000C000300D43A002084
:10876000CC34002000F007008402020048350020CD
:10877000A03A0020A83A0020A93A0020A43A0020FC
:10878000442E0020B17A0700F83A002046C80700BE
:10879000EC3A002008C807006669012EB8D1236BA7
:1087A000D4F824A01F44AAEB03084FF0030BB8F53C
:1087B000805F4FF000024FF001013846C14628BFEC
:1087C0004FF48059FEF70AFF0346002840F0BE80B0
:1087D0004A4629463846FEF7B7FF002840F0B680E3
:1087E0004FEA99036846CDF800B0019702950393CC
:1087F000FEF7E4FE024600286DD02B463A46774944
:10880000012000F0B5FC4FF0A043D3F810359A04D6
:108810000FD54FF08043D3F81C35B12B09D0A36D91
:10882000012B07D10020A065FFF744F800287FF452
:10883000F9AE01264FF080430022C3F81C2526B96B
:10884000FEF77EFE002840F0B480654A654B136059
:10885000654A664F664EA8331360664B00251D704F
:10886000654B1D70654B08221A80654B1422F61B60
:108870001A80F608AE4240F08280624A137843F0D4
:1088800001031370604B614A1A60614B04221A6045
:10889000604A00231360604A1370604A1370A36B30
:1088A0008BB1FDF7D1FC70B1236A002B6ED1A369A7
:1088B000002B6BD05A4A1360594B186800F0EEFF3A
:1088C000584B01221A70584B00221A70FFF7DCF83F
:1088D00000F010FCFAE701212846FEF77FFE28B1E0
:1088E0002A465249012000F04DFC8CE7236B4B4493
:1088F0002363FEF7DFFFB8EB09084F444D447FF4D4
:1089000056AF43F20803424618685146FDF758FE39
:10891000A26A904203460CD101222262E061C4F8AF
:1089200018A04348FEF73CFE0020FEF7C3FF0026D8
:1089300015E04049012000F01BFCF2E72846FFF754
:1089400007F828B13C49012000F026FC01265AE72F
:108950003046FEF725FE3948FEF7ACFF0126002819
:10896000F4D150E731462846FFF758F8DFE73146A3
:108970002846FFF753F80028E8D03149E3E757F8D5
:1089800035309847804668B9013573E7E36A002BB4
:108990009CD1A369002B99D0214B626A1A608BE7A6
:1089A00008203FE602462749012000F0EBFB404645
:1089B00038E643F208042068FFF781F822490320D3
:1089C00000F0EAFB2068FFF77AF82049032000F066
:1089D000E3FB304605B0BDE8F08F00BF14C70700C9
:1089E000443500204C390020E8380020202E00209B
:1089F000282E00204135002040350020EC38002092
:108A00004235002074370020D43800203960070038
:108A1000D4340020A82F002044340020AC330020A0
:108A2000A02F0020642E00209C2F002056C7070096
:108A3000F83A002090C70700E1C707006D750700EE
:108A400027C80700ABC8070064C8070084C8070030
:108A50000378012B04BF014A137070479C3A002031
:108A60002DE9F04F1C46534B16461A79524B03EB37
:108A70004213C5B0987D002914BF4FF00A0B4FF088
:108A8000000B00285BD1CCB9002900F091800B6865
:108A90004A4A4FF4807104A802F0CEF8051E4EDB5E
:108AA000304602F0FDF8C22828BFC22004AB0746BA
:108AB00002463146581902F0B4F8E819519B4F9A12
:108AC000202602EB030A04AB0BEB000808F1310986
:108AD0001844994400EB0B03984234D1DD1C09F192
:108AE000010203F13301A24530D805F8036C05F803
:108AF000026C05F8016C02F8016C0335A94202F121
:108B00000102F0D10D2289F8102008F143080A2251
:108B100089F8112004A983F830604246284802F001
:108B200080F85FFA88F0FEF75FFC40B9214B1A79B4
:108B3000214B03EB42139B7D0BB95445C3D3204615
:108B400045B0BDE8F08F00F8016BC5E74F9805F818
:108B5000016CA0429ABF4F98509F4E98039396BFC6
:108B6000201A075D3F5C02924FEA271E5FFA8EF0E3
:108B7000BEF1090FD4BF30303730C0B205F8030C56
:108B800007F00F00092894BF3030373005F8020C89
:108B9000019102F017F83844029A4078039B01993A
:108BA00010F0970F08BF2E2702F8017C0134A4E7CC
:108BB000254675E7882C002054360020DEC80700C3
:108BC00074360020F0B51D46594B16461A79594B9C
:108BD00003EB4213C7B09B7D4C9F13B1002047B0FD
:108BE000F0BD002900F091800B68534A4FF480716A
:108BF00006A802F021F8041EF0DB062F00F28180A7
:108C0000DFE807F00525303C4A5A6C003C46304608
:108C100002F046F80319FF2B054605D806AB0246BD
:108C20003146181901F0FDFF002DD7DB2C44B4F5B7
:108C3000807FD3D8224606A9404801F0F2FFE0B277
:108C4000FEF7D2FBB0FA80F04009C8E7002406A87E
:108C50002B683246C4F58071204401F0EDFF0546D3
:108C6000E2E700246B68009306A82B683246C4F53F
:108C70008071204401F0E0FFF1E70024AB6801932C
:108C80006B68009306A82B683246C4F580712044B7
:108C900001F0D2FFE3E70024EB680293AB68019395
:108CA0006B68009306A82B683246C4F58071204497
:108CB00001F0C2FFD3E700242B690393EB68029312
:108CC000AB6801936B68009306A82B683246C4F525
:108CD0008071204401F0B0FFC1E700246B69049368
:108CE0002B690393EB680293AB6801936B68009365
:108CF00006A82B683246C4F58071204401F09CFF21
:108D0000ADE7002592E7002494E7062FFBD801A3E6
:108D100053F827F00D8C07004D8C0700638C07007B
:108D20007B8C0700978C0700B78C0700DB8C070053
:108D3000882C002054360020DEC80700743600203E
:108D400010B5104B18884FF6FF73984204D01321CA
:108D5000FFF7FCFA88B110BD0B4C23689B070CD5BC
:108D6000FFF76EFB68B94FF0A0434FF40032C3F831
:108D70000825236843F0020323600448FDF7B4FC90
:108D8000002010BD942C0020403C002024390020FD
:108D90002DE9F0411E491F4C0026C1F84061C1F881
:108DA0004461C1F84861C1F84C61C1F80061C1F883
:108DB000046163683BB3D1F80455A1686D1A25F0CE
:108DC0007F45B0461A68AA420AD8AD1A16441A7CE2
:108DD000DF6922B183F810805A6998699047A7B972
:108DE000227B637B934205D10133DBB2022B08BFA8
:108DF00000236373637B04EB8304074B26614FF40A
:108E00008012C3F80021BDE8F0813B46DAE700BFDD
:108E1000001001409C3A002000E100E0094A53782C
:108E200091780133DBB2994208BF0023117899424F
:108E30001FBF03705078182303FB002014BF0430B9
:108E4000002070474835002038B50C4B0C4C4FF4CF
:108E50000032C3F8802001254FF48033C4F8483332
:108E6000C4F80833656000F06DFCA560054C002572
:108E7000A56000F067FC257638BD00BF00E100E08A
:108E8000001001409C3A00202DE9F74F944C237BC1
:108E9000627B9A424ED00133DBB2022B08BF002323
:108EA0002373237BA56804EB8303002619696B18E1
:108EB00023F07F43A3603046B646636823B11A6847
:108EC0008A4226D9521A1A604FF001086368854F0A
:108ED000DFF818B200934FF00009002E5ED035463F
:108EE000F6696868A268831A23F07F417E4B994235
:108EF000AB6800F2B3800B442B6000236B60AB6067
:108F0000EB61636801222A74002B40F0AF8065603A
:108F1000E3E7DF68C3F800E0891A1044DA696260A9
:108F2000002FCAD02A1822F07F42DE615A609F606B
:108F30001E46C2E70026B046C8E7531CB978DBB22C
:108F400099423B704FF0180303FB027208BF3E705A
:108F500013799568022B1AD0032B10D0012B1DD149
:108F6000297CD9B9D3686B601369AB605369EB6036
:108F70009369AB61637E002BB3D06960B1E70023D6
:108F800066681A46002E65D143B1666006E06268E5
:108F900013469246002B58D100232B743A787B78E5
:108FA0009342CAD1B9F1000F06D16368009A9A4280
:108FB00002D1B8F1000F43D06368002B71D04B4E43
:108FC000A568D6F80485D3F800A0237EA8EB050792
:108FD00027F07F4703379BB94FF48033C6F84433FB
:108FE000C6F80433424B4FF400324FF00109C3F886
:108FF00080211A60C6F8009000F0A4FB84F8189055
:10900000BA452CBF5544ED1925F07F45C6F84055AB
:10901000D6F80435A3EB080323F07F43A5EB08053E
:10902000033325F07F45AB420AD9D6F80435C6F89C
:10903000403500F087FB2E4B4FF40032C3F800217F
:109040000023637603B0BDE8F08F9D422CD09A4692
:10905000DB699FE732740123F66993E7121A22F065
:109060007F429A4234BF9B1A002345E72A68196859
:109070008A420BD88A1A1A60EB6148E7521AD969FA
:10908000184661B92A60E961DD6126E7184619686A
:109090009142F3D3891A196019460346F2E70B4649
:1090A000F5E7FFF7D1FECBE755450BD1D3696360F8
:1090B00043B901210192CBF80810A360617600F05A
:1090C00041FB019AE9692B68CAF81C1011B10868C4
:1090D00003440B6063689A4218BF4FF001095BE7D5
:1090E0009C3A002048350020FEFF7F000010014020
:1090F00000E100E0F8B5124C124D264622782B789C
:109100009A4200D1F8BD23780F48104A07881268A8
:109110000F48DBB219B202EBC10E006852F83120E1
:10912000BEF8041003FB070090470A4A2378128810
:10913000DBB29A4286BF0133DBB200233370DDE736
:109140004035002041350020EC3800204435002017
:10915000E83800204235002013B50093034B1C6B08
:1091600013460A460021A04702B010BD9C3A0020D9
:1091700007B58DE80C0002236A46FFF7EDFF03B048
:109180005DF804FB13B502AC012344F8042D22461C
:10919000FFF7E2FF02B010BD00231A46DCE700BF74
:1091A00010B50B6800249A684B68C3600260426087
:1091B000846094782344036192F90340234443611B
:1091C0004B68036101F10C034361537803F0C00362
:1091D000802B04BF0431016110BD13B5044605297D
:1091E0001FD8DFE801F0030F151E1E1C012201A984
:1091F0002046FCF7B6FF18B19DF90430002BF5DBD3
:1092000002B010BD082200212046FCF7AAFFF7E7B4
:1092100001A9FCF76BFF0028F2D0019AF3E70422C2
:10922000F1E70020ECE77FB50023029383780391F8
:10923000194490F903300491194403780090019087
:1092400005913BB1684600F008F86846FCF7B6FFA8
:109250000028F7D107B05DF804FB30B543685B78B0
:1092600003F00F02082A87B00FD103691C6800259C
:109270000CB907B030BD214625736846FFF790FF53
:109280006846FFF7EAFFA468F2E713F0C0021FD1B7
:1092900003F0300110290CD143691A7043685A78E1
:1092A00002F00F02072A09D101699868FFF7BBFF96
:1092B000DFE79906F2D543691A70DAE799681A79F7
:1092C000006911B101F0ADFCD3E7FCF741F8D0E73C
:1092D000802ACED1016900229B060A60C9D5EAE73F
:1092E00073B50D4601A90446FCF700FF064618B900
:1092F0000026304602B070BD94E80F0085E80F00EC
:1093000001998A42F4D3A960A3685B1AA360F0E7CD
:109310002DE9F04355686B7813F0C00C89B0064610
:109320008E46144604D0BCF1400F6AD0002546E0BA
:1093300003F00F025D4903F03003102B51F8227047
:109340001DD006D8002BF1D122692946B847054621
:1093500035E0202B19D0302BE8D1636929781970BA
:10936000072A0AD1636820691A796146FBF7F0FF82
:10937000636821699868FFF756FF22693EE06369D8
:1093800001221A7022696168E0E7BEF1020FD4F889
:10939000148027D1042A25D804A9FFF7A1FF054688
:1093A0000028C3D0069B2BB1616898F800304A7939
:1093B0009A4208D8059B7360069B002BB6D12846BD
:1093C00009B0BDE8F0830879226900FB032204A8F4
:1093D000B84728B198F80030013388F80030E1E749
:1093E0000546E7E798F800306A799A429ED92269E3
:1093F0002979581C88F8000001FB03226168304677
:10940000A4E717693B6807F1040913B9FFF7E5FE04
:109410009DE7022913D104A9FFF762FF002885D038
:109420003B6861684A4604A89847054600283FF40F
:109430007DAF069B002BF3D1059B7360BFE701292D
:109440002AD009D305297FF471AF04220DEB020164
:10945000FCF787FE042524E000250DF10408013502
:109460000B2D3FF463AF012241463046FCF779FEF5
:1094700000283FF45BAF18F9013B002BEFDB0C4BEE
:10948000049301AB05930023069507933B6861683D
:109490004A4604A898475AE7082201A9FCF761FE4A
:1094A000082500283FF442AFE9E700BFE8C80700FD
:1094B000D95E07002DE9F04F91B08B7807921A44DE
:1094C00091F90330089200251A4404460295039549
:1094D000049105910695099201954FF0010BA3683F
:1094E00023BB059B069C5D7804A8FCF767FE00285B
:1094F000F7D115F0300F03D1059B1B7803B1013470
:1095000094B16209002393426CD110AA02EB830349
:1095100004F01F04C4F120044FF0FF3253F8383C2C
:1095200022FA04F4A3420AD1012009E00AA9204644
:10953000FCF7DCFD824630B9A368002BD1D00020B7
:1095400011B0BDE8F08F0A9E002ECAD0059F4FEAE9
:10955000D60806F00706059B1A78904504D15B787B
:1095600003F00F02082A44D104A8FCF727FE059B4C
:109570009F42F0D1019B43450ED8059A537803F0E2
:109580000F03082B55D004A8FCF718FE059B9F423B
:10959000F3D14FF0FF33019331462046FFF71DFE14
:1095A00000289CD1CBE73B681A68154642B1334688
:1095B000424639462046A8470028C0D0BF6840E050
:1095C0009B681B7898450BD139460AA8FFF7E8FD40
:1095D00087F80CB00AAA31462046FFF799FEEBE760
:1095E0005046E9E702A951F823100131A7D1013310
:1095F00089E713F0300F0FD1069B3F2B0CD85A0987
:1096000010A901EB820203F01F0352F8381C0BFA79
:1096100003F30B4342F8383CE76827B104AB32460A
:1096200041462046B84704AA31462046FFF770FE5F
:10963000B6E7137801934345AED8089BD4F8089059
:109640001F68A3680FB19945ADD099457FF447AF26
:10965000A2E72DE9F34704460F464FF000084FF00C
:1096600000090025A36803B3236801220DF1070157
:10967000204698470646C0B1A3689DF807A0013B65
:109680002A46A3600AF07F00002101F06FFF1AF064
:10969000800F48EA000849EA010905F1070502D1EF
:1096A000C7E9008902E0462DDCD10026304602B031
:1096B000BDE8F087204B21491A68214B00BF00BF4D
:1096C00000BF00BF00BF00BF00BF00BF8A422FD055
:1096D00000BF00BF00BF00BF00BF00BF00BF00BF92
:1096E00000BF00BF00BF00BF00BF00BF00BF00BF82
:1096F00000BF00BF00BF00BF00BF00BF00BF00BF72
:1097000000BF00BF00BF00BF00BF00BF00BF00BF61
:1097100000BF00BF00BF00BF00BF00BF00BF00BF51
:1097200000BF00BF00BF00BF00BF00BF00BF00BF41
:10973000013BC3D1704700BF902C00200024F400EF
:10974000A0860100204B21491A682F2300BF00BFCB
:1097500000BF00BF00BF00BF00BF00BF8A422FD0C4
:1097600000BF00BF00BF00BF00BF00BF00BF00BF01
:1097700000BF00BF00BF00BF00BF00BF00BF00BFF1
:1097800000BF00BF00BF00BF00BF00BF00BF00BFE1
:1097900000BF00BF00BF00BF00BF00BF00BF00BFD1
:1097A00000BF00BF00BF00BF00BF00BF00BF00BFC1
:1097B00000BF00BF00BF00BF00BF00BF00BF00BFB1
:1097C000013BC3D1704700BF902C00200024F4005F
:1097D00070B5EFF3108672B60F4AD2F868410123D4
:1097E000BCB9C2F868310D4B0D4DD3F8801029403B
:1097F000C2F86011C3F88050D3F88410C2F8641125
:109800004FF0FF32C3F88420047006B962B600201E
:1098100070BD0370F9E700BFD43A002000E100E01A
:10982000FC06FFBD10B41B4B024698884FF6FF7331
:1098300098422AD0184BD3F86C41E40725D5602410
:1098400083F87041032483F87141012483F8724145
:10985000140A83F8732183F87441140C120E83F8F0
:1098600076210A0A83F8771183F878210A0C090E09
:1098700083F8792183F87A1183F875410B22B3F8C4
:109880008E115DF8044BFDF767BA08205DF8044BB4
:10989000704700BF902C0020D43A002038B543F226
:1098A000080305461968194B1A68A2F54052521A66
:1098B000824229D31648046AC0F85C11012C1FD1DA
:1098C000836903F6FF7323F47F6323F00F03D21A37
:1098D00095424FF0000204D90461426100F118047E
:1098E00006E00B4444610261C0F85C3100F12404DD
:1098F0000C2200212046FBF72BFD2560002038BDFF
:10990000002303614361E9E7042038BD141000100F
:10991000D43A00200649074A074B9B1A03DD043B53
:10992000C858D050FBDCFEF7CBFBFBF79FFC0000D8
:1099300008CB0700002C0020282E0020FEE7FEE7C1
:10994000FEE7FEE7FEE7FEE7FEE7FEE7FEE7FEE7EF
:109950008B1802448B4200D1704713F8010D02F8B6
:10996000010DF7E710B5013A52B2002A01DA0020E2
:1099700010BD13B250F8234051F823309C4203D855
:10998000F1D24FF0FF3010BD012010BD00000000EB
:10999000C3F10803DB0070B50133002403A500BF49
:1099A0005B1920C940CAAD1920C0184720C940CA58
:1099B000754120C020C940CA754120C020C940CA95
:1099C000754120C020C940CA754120C020C940CA85
:1099D000754120C020C940CA754120C020C940CA75
:1099E000754120C06441204670BD00BF00000000EA
:1099F000C3F10803DB0070B50133002403A500BFE9
:109A00005B1920C940CAAD1B20C0184720C940CAF5
:109A1000B54120C020C940CAB54120C020C940CAB4
:109A2000B54120C020C940CAB54120C020C940CAA4
:109A3000B54120C020C940CAB54120C020C940CA94
:109A4000B54120C06441B4FA84F0400970BD00BF44
:109A50002DE9F04F08B4F8CA04B451F8042BA3FB65
:109A6000028940F8048B4FF0000AE4FB629A4FF041
:109A7000000BE5FB62AB4FF0000CE6FB62BC4FF065
:109A8000000EE7FB62CE51F8042B4FF00008E3FB19
:109A9000628940F8048BE4FB629AE5FB62ABE6FB6B
:109AA00062BCE7FB62CE51F8042B4FF00008E3FBE9
:109AB000628940F8048BE4FB629AE5FB62ABE6FB4B
:109AC00062BCE7FB62CE51F8042B4FF00008E3FBC9
:109AD000628940F8048BE4FB629AE5FB62ABE6FB2B
:109AE00062BCE7FB62CE51F8042B4FF00008E3FBA9
:109AF000628940F8048BE4FB629AE5FB62ABE6FB0B
:109B000062BCE7FB62CE40F8049B40F804AB40F82F
:109B100004BB40F804CB40F804EB0CBC052B00F070
:109B20001E810C68A0F11400A1F11401A2F114022D
:109B300052F804EB4FF0000550F8046BE4FB6E564E
:109B400052F804EB50F8047BE4FB6E6752F804EB28
:109B500050F8048BE4FB6E7852F804EB50F8049B49
:109B6000E4FB6E8952F804EB50F804ABE4FB6E9A08
:109B7000A0F1140052F8044B51F804EB4FF0000C24
:109B8000E4FB6EC540F804CB51F804EBE4FB6E56E1
:109B900040F8045B51F804EBE4FB6E6740F8046B9B
:109BA00051F804EBE4FB6E7840F8047B51F804EBC9
:109BB000E4FB6E8940F8048B51F804EBE4FB6E9AE9
:109BC000A0E80006062B00F0CA800C68A0F118007F
:109BD000A1F11801A2F1180252F804EB4FF00005B0
:109BE00050F8046BE4FB6E5652F804EB50F8047B1B
:109BF000E4FB6E6752F804EB50F8048BE4FB6E78DC
:109C000052F804EB50F8049BE4FB6E8952F804EB25
:109C100050F804ABE4FB6E9A52F804EB50F804BB26
:109C2000E4FB6EABA0F1180052F8044B51F804EBC2
:109C30004FF0000CE4FB6EC540F804CB51F804EB88
:109C4000E4FB6E5640F8045B51F804EBE4FB6E67EE
:109C500040F8046B51F804EBE4FB6E7840F8047BA9
:109C600051F804EBE4FB6E8940F8048B51F804EBE7
:109C7000E4FB6E9A40F8049B51F804EBE4FB6EABF6
:109C8000A0E8000C072B6AD008B40C68A0F11C00F7
:109C9000A1F11C01A2F11C0252F804EB4FF00005E7
:109CA00050F8046BE4FB6E5652F804EB50F8047B5A
:109CB000E4FB6E6752F804EB50F8048BE4FB6E781B
:109CC00052F804EB50F8049BE4FB6E8952F804EB65
:109CD00050F804ABE4FB6E9A52F804EB50F804BB66
:109CE000E4FB6EAB52F804EB50F804CBE4FB6EBC23
:109CF000A0F11C0052F8044B51F804EB4FF00003A4
:109D0000E4FB6E3540F8043B51F804EBE4FB6E567F
:109D100040F8045B51F804EBE4FB6E6740F8046B19
:109D200051F804EBE4FB6E7840F8047B51F804EB47
:109D3000E4FB6E8940F8048B51F804EBE4FB6E9A67
:109D400040F8049B51F804EBE4FB6EAB40F804AB25
:109D500051F804EBE4FB6EBCA0E8001808BCBDE8B9
:109D6000F08F2DE9F04FB1E8005E06B4AAFB0912AE
:109D70004FF00003EBFB69234FF00004ECFB693468
:109D80004FF00005EEFB69454FF00006EBFB6A6300
:109D9000ECFB6A344918524176415B41A9FB0978D2
:109DA0004FF0000949F1000918EB0108A0E8800113
:109DB000AAFB0A78574158EB0608A0E88001EEFBA1
:109DC0006A454FF0000A4AF1000A4FF00001ECFB2F
:109DD0006B14EEFB6B454FF00002EEFB6C255FEA67
:109DE00059094941644152416D4149F10009EBFB78
:109DF0006B3A1AEB010AA0E80804ACFB0C6A664156
:109E00005AEB020AA0E84004AEFB0E6A6E415AEB20
:109E1000090AA0E8400406BC052A00F0E680A0F18B
:109E20001400A1F11401B1E8E043A5FB0E344FF09A
:109E30000005E6FB6E454FF00006E7FB6E564FF05F
:109E40000007E8FB6E674FF00008E9FB6E784FF003
:109E50000009DB1864416D4176417F4158EB0808E9
:109E600059F1000950F804CB13EB0C0350F804CB64
:109E700054EB0C0450F804CB55EB0C0550F804CB14
:109E800056EB0C0650F804CB57EB0C0758F10008C2
:109E900059F10009A0F11400EEFB0E89A0E8F803C7
:109EA000062A00F0A280A0F11800A1F11801B1E883
:109EB000E047A5FB0E344FF00005E6FB6E454FF082
:109EC0000006E7FB6E564FF00007E8FB6E674FF0A9
:109ED0000008E9FB6E784FF00009EAFB6E894FF04D
:109EE000000ADB1864416D4176417F4158EB080858
:109EF00059EB09095AF1000A50F804CB13EB0C0393
:109F000050F804CB54EB0C0450F804CB55EB0C0583
:109F100050F804CB56EB0C0650F804CB57EB0C076B
:109F200050F804CB58EB0C0859F100095AF1000A1B
:109F3000A0F11800EEFB0E9AA0E8F807072A54D00B
:109F4000A0F11C00A1F11C01B1E8E04FA5FB0E340B
:109F50004FF00005E6FB6E454FF00006E7FB6E563E
:109F60004FF00007E8FB6E674FF00008E9FB6E78E2
:109F70004FF00009EAFB6E894FF0000AEBFB6E9A86
:109F80004FF0000BDB1864416D4176417F4158EB87
:109F9000080859EB09095AEB0A0A5BF1000B50F863
:109FA00004CB13EB0C0350F804CB54EB0C0450F827
:109FB00004CB55EB0C0550F804CB56EB0C0650F8CF
:109FC00004CB57EB0C0750F804CB58EB0C0850F8B7
:109FD00004CB59EB0C095AF1000A5BF1000BA0F11C
:109FE0001C00EEFB0EABA0E8F80FBDE8F08F0023DD
:109FF00010B51C465AB2914200DC10BD40F8234017
:10A000000133F7E72DE9F047B3F9024088461E46D1
:10A0100004F11F012023073491FBF3F708234FFAC3
:10A0200087F994FBF3F4944228BF14464946054649
:10A03000FFF7DDFF22464146FFF78AFCB6F9023002
:10A04000E4009C4221D9E41A05EB87010022C4F107
:10A0500020078D420FD324364A4629463046FFF763
:10A0600081FC012811D04B46324629462846BDE8DE
:10A07000F047FFF7BDBC51F8040C20FA04F313437A
:10A0800041F8043D00FA07F2E3E7BDE8F08710B5B8
:10A0900000231A465CB2A14203DCB2FA82F0400906
:10A0A00010BD50F8234001332243F3E74A11012346
:10A0B00050F8220001F01F0103FA01F10840704737
:10A0C000013949B2002904DA013149B231B90846EF
:10A0D000704750F82130002BF2D0F5E701F18043B2
:10A0E000013B50F82330002023B9013900EB411126
:10A0F00008B270475B080130F6E710B500235CB288
:10A10000A24200DC10BD51F8234040F82340013347
:10A11000F5E70000F0B5082289B00C460646FFF7C7
:10A12000ECFFCB6A03930B6B04934B6B05938B6B28
:10A130000693CB6B0793002708236A466946684657
:10A14000029701970097FFF723FC082305466A460C
:10A1500031463046FFF71CFC236B0393636B04937B
:10A16000A36B0593E36B0693054408236A4669468F
:10A1700068460797FFF70CFC082305446A463146FA
:10A180003046FFF705FC236A0093636A0193A36AD4
:10A190000293A36B0693E36B0793054408236A4677
:10A1A00031463046059704970397FFF7F1FB636A42
:10A1B0000093A36A0193E36AA26B0293636B039318
:10A1C00004920693E26B236A0592054407936A465C
:10A1D000082331463046FFF7DBFBE36A0093236B2D
:10A1E0000193636B0293236A0693A36A0793054462
:10A1F00008236A4631463046059704970397FFF7D0
:10A20000F7FB236B0093636B0193A36B0293E36BE8
:10A210000393636A0693E36A07932D1A08236A4639
:10A220003146304605970497FFF7E2FB636B0093D6
:10A23000A36B0193E36B0293236A0393636A049312
:10A24000A36A0593236B07932D1A08236A463146A8
:10A2500030460697FFF7CCFBA36B0093E36B0193AB
:10A26000636A0393A36A0493E36A0593636B07939A
:10A270002D1A08236A463146304602970697FFF7A3
:10A28000B7FB2D1A0D4C0FD435B9082231462046A4
:10A29000FFF768FB01280FD00823224631463046DD
:10A2A000FFF7A6FB2D1AEFE708232246314630467A
:10A2B000FFF76EFB2D18F7D409B0F0BD10C90700E9
:10A2C00030B5013A52B20023002A03DAB3FA83F020
:10A2D000400930BD15B2013A50F8254051F82550DB
:10A2E0006C40234352B2EFE700EB81010023884228
:10A2F00000D3704751F8042C43EA520341F8043D5F
:10A30000D307F4E770B5036813F001050646144659
:10A3100005D013460A460146FFF73AFB054621469B
:10A320003046FFF7E1FF45B104F18042013A56F8AB
:10A33000223043F0004346F8223070BD70B59DF9DD
:10A3400010401E4623460546FFF722FB30B9224641
:10A3500029463046FFF706FB012807D02346324640
:10A3600029462846BDE87040FFF742BB70BD70B576
:10A370009DF910401E4623460546FFF739FB38B1CC
:10A380002346324629462846BDE87040FFF700BB09
:10A3900070BD2DE9F04FA5B01D46039114AB2946C1
:10A3A0008046104617460293FFF78AFEC0EB8510E1
:10A3B00004B2634203F01F034FF0200694FBF6F64D
:10A3C00076B204F01F0904A858BFC3F10009314652
:10A3D000FFF70DFEB9F1000F30B22BDD04AB002208
:10A3E00003EB8000C9F1200E1346AB4217D32FB206
:10A3F0007B00019304AB03EB870705F1FF3924AB26
:10A40000012603EB8909002C55DB24AB0022C6F1A1
:10A410000100964603EB860A03EB80002DE057F817
:10A42000236006FA09F10A4340F8232026FA0EF2C7
:10A430000133DAE704AB2A46394603EB8000FFF725
:10A440005CFED4E70FFA81FC5AF8883C53F82CB034
:10A4500024AB03EB810151F8803CABEB0303A3EB8E
:10A460000E039B4504D034BF4FF0010E4FF0000E99
:10A4700050F8881C41F82C300132019B51B29942AE
:10A48000E0DBA6EB0E035E42294604A85E41FFF71F
:10A490002BFF24AB03EB8503294653F8802C59F896
:10A4A000803C384643EAC273013C49F8803C24B200
:10A4B000FFF71AFFA7E724AB03EB86062A4656F8F8
:10A4C000881C4046FFF719FE25B0BDE8F08F70B537
:10A4D00090B005469DF950401E4668462346FFF75A
:10A4E000B7FA2346324669462846FFF752FF10B0B6
:10A4F00070BD30B51C4691B0054693F900306846F2
:10A50000FFF7A6FAD4F8AC3069462846984711B050
:10A5100030BD30B5144691B0054692F9002068462A
:10A52000FFF71FFCD4F8AC3069462846984711B0B5
:10A5300030BD2DE9F04115468AB0044688462022F8
:10A54000002102A8FAF704FF2E1D95F900700323DD
:10A550002A46414620460293FFF7DBFF334602AA14
:10A56000214620460097FFF702FF2B464246214630
:10A570002046FFF7BEFF0097334605F184022146CF
:10A580002046FFF7DBFE0AB0BDE8F0812DE9F04779
:10A5900093F9006092B0044689461046314615464C
:10A5A0009846FFF774FD002840F0938042464946E4
:10A5B00002A8FFF7AEFF434602AA21460AA8FFF70A
:10A5C00098FF02A908464246FFF7A3FF43462A46E2
:10A5D00049464846FFF78DFF08F1040742462946E1
:10A5E0002846FFF796FF3B462A462146204600961E
:10A5F000FFF7A4FE3B462A46294628460096FFF769
:10A600009DFE3B462A46214628460096FFF7AFFEB0
:10A6100043462A4621462046FFF76BFF3B4622462B
:10A62000214628460096FFF789FE3B4600962A46BB
:10A6300021462046FFF782FE2368DB074CD53346D0
:10A640003A4621462046FFF7A3F931468246204686
:10A65000FFF74AFE06F18043013B54F8230040EA2D
:10A66000CA7044F82300424621462846FFF751FFAE
:10A670003B460AAA294628460096FFF778FE3B4645
:10A680000AAA294628460096FFF771FE0AA908463D
:10A690003B462A460096FFF76AFE43460AAA214631
:10A6A0002046FFF726FF02AA3B46104621460096A9
:10A6B000FFF75DFE324629462046FFF71EFD324673
:10A6C00049462846FFF719FD324602A94846FFF7DA
:10A6D00014FD12B0BDE8F08731462046FFF704FEB6
:10A6E000C1E72DE9F0438BB01446129D15F9046BB8
:10A6F00000961F46804689462B460246214602A800
:10A70000FFF735FE02A9129A0846FFF702FF129BD7
:10A7100002AA41464046FFF7ECFE129B02AA2146E0
:10A720002046FFF7E6FE2B464A4639463846009655
:10A73000FFF71DFE129A394602A8FFF7EAFE02A9AA
:10A740002B46424608460096FFF711FE02A92B460B
:10A75000224608460096FFF70AFE2B46424621464F
:10A7600020460096FFF703FE129B224649464846C4
:10A77000FFF7BFFE2B4602AA414620460096FFF790
:10A78000F6FD129B224639463846FFF7B2FE2B46AD
:10A790004A46394638460096FFF7E9FD324602A997
:10A7A0002046FFF7AAFC0BB0BDE8F083F0B51546D4
:10A7B00089B01C4607460E461A4629466846FFF7EA
:10A7C000A8FE23466A4639463846FFF792FE2346DE
:10A7D0002A4669466846FFF78CFE23466A4631469C
:10A7E0003046FFF786FE09B0F0BDF0B50F46A1B0C8
:10A7F00006461946384615461C46FFF748FC28B160
:10A8000021463046FFF7F3FB21B0F0BD2246394622
:10A810006846FFF772FC2246294608A8FFF76DFC40
:10A82000214610A8FFF7E3FB0123214618A8109347
:10A83000FFF7DDFB224608A96846FFF793F828B921
:10A84000224610A93046FFF758FCDDE7009BDA07E7
:10A8500009D421466846FFF747FD2246294610A83D
:10A86000FFF750FDE6E7089BDB0707D4214608A861
:10A87000FFF73AFD2246294618A8F1E700282346AB
:10A880001CDD08AA69466846FFF7B2F8214668460B
:10A89000FFF72AFD224618A910A8FFF763F8002841
:10A8A00005DA10A923462A460846FFF771F810A9D1
:10A8B000234618AA0846FFF79BF8CEE708A96A4680
:10A8C0000846FFF795F8214608A8FFF70DFD224638
:10A8D00010A918A8FFF746F8002805DA18A923469A
:10A8E0002A460846FFF754F818A9234610AA084636
:10A8F000FFF77EF8BEE70000004870470CC907006C
:10A900002DE9F04FEDB01F46DDF8D8810590B8F97C
:10A91000026098F9005020231F3696FBF3F676B2BA
:10A9200006F1FF3924AB002443F829406CAB03EB5C
:10A9300089034CA88A469346394698F9012043F882
:10A94000804C43F8604CFFF703F898F9012054A8B5
:10A95000B918FEF7FDFF29464CA8FFF798FB0746FC
:10A96000002840F02981294654A8FFF790FB039066
:10A97000002840F0238108F1240332464CA91846F0
:10A980000293FEF7EFFF012840F01A81324654A9E6
:10A990000298FEF7E7FF0128069040F011811CACF9
:10A9A0000CAF3346029A54A92046FFF71EFF039BC3
:10A9B00047F829305A46514638464346FFF722FBAE
:10A9C00039463846029B00962246FFF780FD0DF57A
:10A9D000B879029B009622464CA914A8FFF777FD90
:10A9E00048462A460599FFF788FBAB0009EB030AA6
:10A9F0000793059BA900591808F1440B50462A46B5
:10AA0000FFF77BFB59462A4634A8FFF776FBAB00DD
:10AA10000BEB03012A463CA8FFF76FFB08F1040388
:10AA2000494634AA204600950493FFF7A0FC5346FC
:10AA30004A463CA934A8CDF80080FFF752FE2B46C9
:10AA4000049A21462046FFF7D0FE2246514648464A
:10AA50004346FFF7ABFE039B08933146059B0A93E1
:10AA60003846CDF824B0CDF82C90FFF729FB3146BD
:10AA7000814614A8FFF724FB8145B8BF81461FFA21
:10AA800089F909F1FF3B0FFA8BFB59463846FFF76E
:10AA90000DFB5946071C14A818BF0127FFF706FB3A
:10AAA000002814BF022300231F430DF1200A2A4669
:10AAB0005AF8277024A83946FFF71FFB0DF1B00B99
:10AAC000AB00F9182A465846FFF717FB29462046DF
:10AAD000FFF78DFAA9F10209069B23600FFA89F9A5
