:020000021000EC
:10F000000000012031350200593502005B35020055
:10F010005D3502005F35020061350200000000002E
:10F020000000000000000000000000006335020046
:10F0300065350200000000006735020069350200F6
:10F04000C91502006B350200D92302006B3502009E
:10F050006B3502006B350200651A0200ED3A0200C2
:10F060006B3502006B3502006B3502006B35020018
:10F070006B3502006B3502006B3502006B35020008
:10F080006B35020039FE01006B3502006B35020062
:10F09000D9FE01006B350200413A02006B350200D7
:10F0A0006B3502006B3502006B3502006B350200D8
:10F0B0006B3502006B35020000000000000000000C
:10F0C0006B3502006B3502006B3502006B350200B8
:10F0D0006B3502006B3502006B350200000000004A
:10F0E0000000000000000000000000000000000020
:10F0F0000000000000000000000000000000000010
:10F1000000000000000000000000000000000000FF
:10F1100000000000000000000000000000000000EF
:10F1200000000000000000000000000000000000DF
:10F1300000000000000000000000000000000000CF
:10F1400000000000000000000000000000000000BF
:10F1500000000000000000000000000000000000AF
:10F16000000000000000000000000000000000009F
:10F17000000000000000000000000000000000008F
:10F18000000000000000000000000000000000007F
:10F19000000000000000000000000000000000006F
:10F1A000000000000000000000000000000000005F
:10F1B000000000000000000000000000000000004F
:10F1C000000000000000000000000000000000003F
:10F1D000000000000000000000000000000000002F
:10F1E000000000000000000000000000000000001F
:10F1F000000000000000000000000000000000000F
:10F2000010B5054C237833B9044B13B10448AFF360
:10F2100000800123237010BD682200200000000040
:10F22000646302000C4B43B10C480D4910B5AFF3B9
:10F2300000800C48036823B910BD0A48036833B93D
:10F240007047094B002BF7D0BDE810401847064B1C
:10F25000002BF5D0184700BF0000000064630200D7
:10F260006C2200205422002000000000154B002BCF
:10F2700008BF134B9D46A3F5803A00218B460F46ED
:10F280001348144A121A00F063F80F4B002B00D0F9
:10F2900098470E4B002B00D0984700200021040017
:10F2A0000D000D48002802D00C48AFF3008000F09C
:10F2B0002BF82000290004F0B9FE00F011F800BF7F
:10F2C0000000080000000120000000000000000015
:10F2D00068220020042D0020000000000000000033
:10F2E00008B5074B044613B10021AFF30080054B6E
:10F2F0001868836A03B19847204600F031F800BFD0
:10F3000000000000785E020070B50D4E0D4CA41B8D
:10F31000A4100025A54209D10B4E0C4C06F0A0FD0F
:10F32000A41BA4100025A54205D170BD56F82530B8
:10F3300098470135EEE756F8253098470135F2E752
:10F34000482200204822002048220020502200208D
:10F3500002440346934200D1704703F8011BF9E7CA
:10F36000FEE700BF0378012B04BF014A137070470A
:10F37000862200202DE9F04FC7B01C469148002995
:10F3800014BF0A23002316460D46009303F018F815
:10F39000002840F0E380002C00F0E48006AB8346B8
:10F3A0000293519B539A9E18202501960099029A28
:10F3B0000B465B4404933133D318039302EB0B07E2
:10F3C00000295DD07B4203F003038B4228BF0B462C
:10F3D000062900F2EB800A463946012A01F8015B52
:10F3E00000F0E280022A7D7007F1020100F0DC806B
:10F3F000032ABD7007F1030100F0D680042AFD70D6
:10F4000007F1040100F0D080062A3D7107F10501E3
:10F4100040F0D2807D71B91D1346009890422DD0E6
:10F42000009EA6EB020CACF1040006F1FF3A800846
:10F43000AAEB020A0130BAF1020F4FEA800E13D98B
:10F440005A44029E4FF0203A012806EB020B46F880
:10F4500002A005D00228CBF804A001D0CBF808A068
:10F46000E6457144734409D0009E0D705A1CB242A7
:10F4700004D202339E424D7000D98D70009B1F4410
:10F48000039B059707F1330907F1030A264603F1A9
:10F4900001084C46019FDDF844910DE00AF8035C39
:10F4A0000AF8025C0AF8015C0AF1030AA24508F8AE
:10F4B000015C08F101082FD0B742EFD9B1456DD9F1
:10F4C000509B13F806B00AF8015C4FEA2B105FFA64
:10F4D00080FE09280BF00F00D4BF0EF1300E0EF1A4
:10F4E000370E092894BF303037300AF803EC0AF899
:10F4F000020C05F09BFF58440AF1030A407810F013
:10F50000970F08BF4FF02E0BA24508F801BC06F17B
:10F51000010608F10108CFD1049B03980197059FCC
:10F52000029903F1430A0D220A23027443745246DE
:10F53000254887F8305005F099FF5FFA8AF2224992
:10F54000204802F093FE3446834638B91D4802F045
:10F5500037FF18B9019B9C42FFF428AF204647B003
:10F56000BDE8F08F55B306A902912B68174A0846EB
:10F570000D464FF4807106F085F8B0F1000BEDDB1D
:10F580005D44304606F0B2F8C2280246314628BF34
:10F59000C2222846934405F069FF02E7A6EB090062
:10F5A000529B13F800B08EE7134636E71A463946E9
:10F5B000002B3FF435AF0FE705232EE706AD02958C
:10F5C000A346DEE7C4200020882200209C5E0200C3
:10F5D000F0B56548C7B00C4616461D4602F0F0FE71
:10F5E000A0B9B4B14FF480712368604A06A806F050
:10F5F00049F8011E0ADB4C9B0C46062B00F2B28038
:10F60000DFE803F012626C2E783C4E00002047B019
:10F61000F0BD4C9B062B00F2A280DFE803F00494BF
:10F620008F8A807B85004C9C304606F05FF803197A
:10F63000FF2B054640F28C80002DE7DB6219B2F506
:10F64000807FE3D8D4B206A9494805F00FFF2246CF
:10F650004749454802F00AFEB0FA80F04009D6E773
:10F6600006AB5818C1F58071AA682B686D680095C3
:10F670000192324606F006F80546DDE706AB58185B
:10F68000C1F580712F69EA682B680397AF686D68D0
:10F6900002928DE8A000324605F0F4FF0546CBE764
:10F6A00006AB5818C1F580716A692F692B680492FE
:10F6B000EA680397AF686D6802928DE8A000324651
:10F6C00005F0E0FF0546B7E706AB5818C1F58071B5
:10F6D0002B68324605F0D6FF0546ADE706AB581855
:10F6E000C1F580716A682B680092324605F0CAFF46
:10F6F0000546A1E706AB5818C1F58071EA682B688A
:10F70000AF686D6802928DE8A000324605F0BAFF3E
:10F71000054691E74FF4807106A80024B2E74FF444
:10F72000807106A80024E9E74FF4807106A8002440
:10F73000BAE74FF4807106A8002495E74FF4807172
:10F7400006A80024CEE74FF4807106A80024BFE786
:10F7500006AB314618192A4605F088FE6CE70024EE
:10F76000224670E7002569E7C42000209C5E020065
:10F7700088220020F0B5174F3B7889B01BB1164B9B
:10F780001B78834222D0154D06460FCD6C460FC420
:10F7900095E80F00062584E80F00082105220723BD
:10F7A0000F48019103920095029302F0DBFC002EBA
:10F7B0000C4A0B4818BF0022694602F0E7FB18B953
:10F7C000054A012316703B7009B0F0BD002009B056
:10F7D000F0BD00BF85220020842200207C5E020054
:10F7E000C420002065F3010000487047D1F50100F6
:10F7F0000048704775F3010038B50020FFF7BAFFE5
:10F80000044668B9FFF7F0FF0546FFF7F1FF054B27
:10F81000FF22C3F810541C605C60C3F814049A60A3
:10F82000204638BD882300200120FFF7A3BF00BF7A
:10F830002DE9F04383B002AB4FF0000803F8018DCF
:10F84000254C074618460E46A56800F0D5FFA2686D
:10F850006368D4F8009013440133A3EB0903012B30
:10F8600007D80BBB9DF8070000F0ECFF03B0BDE824
:10F87000F08309F101039DF80700236000F0E2FF27
:10F880000122002362F3010368F3820305EA0905FC
:10F8900067F3C50304EB850468F3891366F39F23BC
:10F8A000E36003B0BDE8F0830121434661F3010347
:10F8B00068F38203052161F3C50309EA02020749DF
:10F8C00004EB820268F3891309F1010561F39F23B8
:10F8D0002560D360C6E700BF88230020A45E020035
:10F8E0002DE9F04782B002AB002503F8015D294CF9
:10F8F0008146184617468846A66800F07DFFA26834
:10F900006368D4F800A013440133A3EB0A03022B6D
:10F9100007D843BB9DF8070000F094FF02B0BDE894
:10F92000F0870AF102039DF80700236000F08AFFC8
:10F930000121002361F301030AEB010265F3820355
:10F9400069F3C50306EA0A0A164004EB8A0A61F362
:10F95000891304EB860468F39F23CAF80C30E76030
:10F9600002B0BDE8F08701212B4661F3010365F386
:10F970008203052161F3C5030AEA0202064804EB8B
:10F98000820265F389130AF1010160F39F2321606C
:10F99000D360BFE788230020A45E02002DE9F04F6A
:10F9A00083B002AE002506F8015D2D4C824630463C
:10F9B00090461F468946A66800F01EFFA26863684D
:10F9C000D4F800B013440133A3EB0B03032B07D887
:10F9D0007BBB9DF8070000F035FF03B0BDE8F08F5A
:10F9E0000BF103039DF80700236000F02BFF0122B9
:10F9F000002362F301030BF1020165F382035A4411
:10FA00006AF3C503022006EA0B0B32400E4004EBFA
:10FA10008B0B04EB820260F3891304EB860469F319
:10FA20009F23CBF80C30C2F80C80E76003B0BDE830
:10FA3000F08F01212B4661F3010365F38203052159
:10FA400061F3C5030BEA0202064804EB820265F388
:10FA500089130BF1010160F39F232160D360B8E7A4
:10FA600088230020A45E02002DE9F0434F4E716808
:10FA700032688A428BB078D0B76807EA0105023550
:10FA800006EB85020131546814F003030ED1C4F370
:10FA9000891303EB94530B4407EA0305023506EB85
:10FAA0008502591C546814F00303F0D0022B2CD0AB
:10FAB000C4F38313C4F39522002B73D00DF1100C03
:10FAC000604601EB030E07EA010506EB850501F12F
:10FAD0000108F045E96840F8041B4146F3D1009362
:10FAE000C4F3C2006346D6F810440021A04748B1D1
:10FAF000C6F804803068B0EB080018BF01200BB0D6
:10FB0000BDE8F083D6F80480F4E701F1010827EAA4
:10FB1000080001EA0703013006EB830380004FEA87
:10FB200094598145DA68C4F3891322D988B307EA66
:10FB30000801C7B20331A9EB0700DFF874E006EB58
:10FB40008101C0B28DE882400390D6F81474002180
:10FB5000C4F3C200B847484520D006EB850560F3E2
:10FB60008F146C60D6F80480C4E700200BB0BDE8A9
:10FB7000F08307EA0800033006EB800000218DE8DF
:10FB8000010203910291D6F81474C4F3C200B8477D
:10FB9000E1E786465FFA89F70549D3E7033008EBCA
:10FBA0009008A5E788460DF1100C98E788230020FF
:10FBB000942300202DE9F84F254B93F800E0BEF187
:10FBC000000F31D0DFF88CB0DFF88CA0DFF88C901C
:10FBD0000024012703E00134E4B2744524D226B2A4
:10FBE000DBF80050DAF8003015F8360007FA00F1BB
:10FBF000194205EBC608EED023EA0103CAF800302B
:10FC000001F026FF15F83660D9F8003007FA06F53E
:10FC10002B4000FA06F18B4208D00D4B013493F8CB
:10FC200000E0E4B27445DAD3BDE8F88FD8F80430C8
:10FC3000002BF2D098F80110A1F10101B1FA81F185
:10FC40004909091AB1FA81F1490930469847E4E7B0
:10FC5000A0270020D0270020CC270020C827002084
:10FC600070B50646114800F08BFD40B9104D0124D7
:10FC70002B68B4401C4203D023EA04042C6070BDFE
:10FC8000304601F0E5FE0B4E326860B122432B682E
:10FC9000094932601C432C60044809680022BDE811
:10FCA000704000F017BD22EA0402F0E7A827002008
:10FCB000CC270020C8270020A4270020042A01D830
:10FCC000072070472DE9F04182B088460546174667
:10FCD00001F062FD002836D01D4C1E481E491F4A07
:10FCE0001F4B2560002608F1FF3480F800800F606C
:10FCF00016601E60E4B2B8F1000F1ED0DFF86C8011
:10FD0000032701E0FF2C18D023B205EBC30215F83E
:10FD1000330093788DF80470424601A98DF806608F
:10FD20008DF807608DF8053001F040FD013CE4B22C
:10FD30000028E7D002B0BDE8F0810A4A0A48002155
:10FD400000F0B6FCF6E701F0E5FC0028C4D0F1E7CE
:10FD5000D0270020A0270020A4270020C8270020AB
:10FD6000CC270020B5FB0100B05E020061FC010061
:10FD700070B5084D2B785BB1074E00243368012124
:10FD800013F8340001F0D2FD2B780134A342F5D8EA
:10FD9000002070BDA0270020D027002070B5094D9D
:10FDA0002B7853B1084E0024336813F8340001F067
:10FDB0001FFE2B780134A342F6D80448BDE87040FA
:10FDC00000F0DEBCA0270020D0270020A8270020BC
:10FDD00000B585B000230390194601AA44F2010042
:10FDE000ADF80430029300F003F805B05DF804FBB1
:10FDF00008B50D490120FFF71BFDFFF715FDFFF7C3
:10FE000033FE0028FBD109490320FFF711FDBFF3A2
:10FE10004F8F0749074BCA6802F4E0621343CB6077
:10FE2000BFF34F8F00BFFDE7B45E0200C45E020067
:10FE300000ED00E00400FA05F8B5204A204B00254B
:10FE4000C2F84051C2F84451C2F84851C2F84C516E
:10FE5000C2F80051C2F804511B6813B31949D2F813
:10FE600004450A68A41A1A6824F07F44A2422F4667
:10FE700009D8197CDE69A41A154499B91EB1334614
:10FE80001A68A242F5D91049104A0B7812789A42A2
:10FE90000DD00F490F4A41F823504FF48013C2F898
:10FEA0000031F8BD1F745A6998699047E6E7531C02
:10FEB000DBB2022B08BF00230B70EAE70010014001
:10FEC000F4280020F0280020ED280020EC28002055
:10FED000E428002000E100E02DE9F04F7D4A7E4952
:10FEE0001378097899428BB03BD00133DBB27B4960
:10FEF0000491022B0D687A49069108BF0023137004
:10FF0000784A084652F82310D0F80090049A6B18EB
:10FF1000002423F07F434E46AC461360204627461C
:10FF20002546AEB133688B4200F2ED81F46837604C
:10FF3000C91A1844F3693CB10CEB000E2EF07F4255
:10FF4000F561B460726035461E460124002EE9D189
:10FF50002A46B146002C40F0DB8201230793069B22
:10FF600007E05F4B5D4A0492D3F8009006930022AD
:10FF70000792D3F800A05C4BDFF874C11B7805939F
:10FF8000049B186800234946CE460893D14609933E
:10FF900003934FF0010B17469A46804637B37C68AF
:10FFA000BD683B46FF695148A4EB080222F07F423E
:10FFB000824258D815441D60002283F810B05A6060
:10FFC0009A60DA6100296ED00868854263D90C46D0
:10FFD00003E01068A8424FD21446E2692D1A002AA5
:10FFE000F7D11D60DA61E361002FD8D10297CDF817
:10FFF00004E09CF801709CF800200025974200F076
:020000022000DC
:100000008680104600EB40000CEBC000541C9CF8AE
:100010000230E2B204798CF80020934204BF8CF8DD
:1000200000500022022C83684ED0032C40D0012CBB
:10003000E4D11E7C002EE1D1C4685C6005699D603E
:100040004269DA6082699A61059A029FDDF804E0EC
:10005000002AA8D03446A4EB080224485E6022F0AF
:100060007F428242A6D9A8EB040424F07F44AC422C
:1000700008D22D1B1D609FE7401B10601D60DA61D8
:10008000E361B1E7002583F810B01D605D609D60FD
:10009000DD6141B10868451B0D609946D9614FF09B
:1000A000010A19467AE7994619464FF0010A75E7A1
:1000B0000029A3D00022CB690A741946002BFAD17B
:1000C00099464FF0010A94E7D9B19942084615D1F3
:1000D00010E100BFEC280020ED280020F0280020CF
:1000E000F4280020E4280020E0280020FEFF7F0004
:1000F000D4270020A34200F0E8802046C469002CE9
:10010000F8D10E4697421D7431467FF47AAF4046CF
:10011000D046CA46DDF80490B8F1000F40F0F481F3
:10012000099B002B40F0ED81089B1BB17B4B9DF898
:1001300014201A70039B13B9494500F04C81002923
:1001400000F04E81764C049BD4F804051B68754D75
:100150000F682978C21A22F07F420332002951D158
:100160007149DFF8C8C1DFF8C8E14FF48036C4F840
:100170004463C4F804634FF40036C1F880610E6034
:10018000012626602F21DCF8004000BF00BF00BF21
:1001900000BF00BF00BF00BF00BF74452FD000BF2D
:1001A00000BF00BF00BF00BF00BF00BF00BF00BF57
:1001B00000BF00BF00BF00BF00BF00BF00BF00BF47
:1001C00000BF00BF00BF00BF00BF00BF00BF00BF37
:1001D00000BF00BF00BF00BF00BF00BF00BF00BF27
:1001E00000BF00BF00BF00BF00BF00BF00BF00BF17
:1001F00000BF00BF00BF00BF00BF00BF00BF01398C
:10020000C3D12E7097422CBFDB199B18444923F0B1
:100210007F43C1F84035D1F80425121A1B1A22F089
:100220007F4223F07F4303329A4248D9D1F8043504
:100230003E4AC1F8403512683D492F2300BF00BF38
:1002400000BF00BF00BF00BF00BF00BF8A422FD069
:1002500000BF00BF00BF00BF00BF00BF00BF00BFA6
:1002600000BF00BF00BF00BF00BF00BF00BF00BF96
:1002700000BF00BF00BF00BF00BF00BF00BF00BF86
:1002800000BF00BF00BF00BF00BF00BF00BF00BF76
:1002900000BF00BF00BF00BF00BF00BF00BF00BF66
:1002A00000BF00BF00BF00BF00BF00BF00BF00BF56
:1002B000013BC3D11C4B4FF40032C3F80021174A55
:1002C000002313700BB0BDE8F08F834212D00E46AE
:1002D000DC69D3F800E0C46134B122687244226062
:1002E0009CF800209CF801700398B14218BF0120CF
:1002F000039007E7D1F81C90B9F1000F1AD04E46D1
:100300004FF0010AE4E72A46B146002C60D15B1A9F
:10031000C9F8003001230793069B2AE6E028002055
:1003200000100140E128002000E100E0CC20002086
:100330000024F400784E794CC6F808B0784E4FF09F
:100340002F0E366800BF00BF00BF00BF00BF00BF58
:1003500000BF00BFA6422FD000BF00BF00BF00BF3C
:1003600000BF00BF00BF00BF00BF00BF00BF00BF95
:1003700000BF00BF00BF00BF00BF00BF00BF00BF85
:1003800000BF00BF00BF00BF00BF00BF00BF00BF75
:1003900000BF00BF00BF00BF00BF00BF00BF00BF65
:1003A00000BF00BF00BF00BF00BF00BF00BF00BF55
:1003B00000BF00BF00BF00BFBEF1010EC2D10126C9
:1003C00034460896C8464E4605940994A2467FE7EF
:1003D000069806609BE7079B002B3FF470AFAEE6E4
:1003E0004D4A504B4E4E4D4C4FF480304FF4003739
:1003F0000125C3F88070C2F848032F23C2F8080310
:10040000556030681E4600BF00BF00BF00BF00BF80
:1004100000BF00BF00BFA0422FD000BF00BF00BF81
:1004200000BF00BF00BF00BF00BF00BF00BF00BFD4
:1004300000BF00BF00BF00BF00BF00BF00BF00BFC4
:1004400000BF00BF00BF00BF00BF00BF00BF00BFB4
:1004500000BF00BF00BF00BF00BF00BF00BF00BFA4
:1004600000BF00BF00BF00BF00BF00BF00BF00BF94
:1004700000BF00BF00BF00BF00BF013EC3D19560F9
:10048000049A116000BF00BF00BF00BF00BF00BFE3
:1004900000BF00BFA0422FD000BF00BF00BF00BF01
:1004A00000BF00BF00BF00BF00BF00BF00BF00BF54
:1004B00000BF00BF00BF00BF00BF00BF00BF00BF44
:1004C00000BF00BF00BF00BF00BF00BF00BF00BF34
:1004D00000BF00BF00BF00BF00BF00BF00BF00BF24
:1004E00000BF00BF00BF00BF00BF00BF00BF00BF14
:1004F00000BF00BF00BF00BF013BC3D10A4B197052
:10050000DDE6049B18600FE6069BC3F800A007E633
:10051000069B1E6021E500BF001001400024F4008E
:10052000CC20002000E100E0E1280020F0B4564B90
:10053000564A574E574C4FF480304FF40031012546
:10054000C2F88010C3F848032F21C3F808035D6088
:1005500030680E4600BF00BF00BF00BF00BF00BF35
:1005600000BF00BFA0422FD000BF00BF00BF00BF30
:1005700000BF00BF00BF00BF00BF00BF00BF00BF83
:1005800000BF00BF00BF00BF00BF00BF00BF00BF73
:1005900000BF00BF00BF00BF00BF00BF00BF00BF63
:1005A00000BF00BF00BF00BF00BF00BF00BF00BF53
:1005B00000BF00BF00BF00BF00BF00BF00BF00BF43
:1005C00000BF00BF00BF00BF013EC3D19D6000BFA0
:1005D00000BF00BF00BF00BF00BF00BF00BFA04200
:1005E0002FD000BF00BF00BF00BF00BF00BF00BFD3
:1005F00000BF00BF00BF00BF00BF00BF00BF00BF03
:1006000000BF00BF00BF00BF00BF00BF00BF00BFF2
:1006100000BF00BF00BF00BF00BF00BF00BF00BFE2
:1006200000BF00BF00BF00BF00BF00BF00BF00BFD2
:1006300000BF00BF00BF00BF00BF00BF00BF00BFC2
:1006400000BF0139C3D1144E144D154C1549164F36
:1006500000203070286020704FF48015E0240B26B5
:10066000087048708E7038701049C2F8805182F856
:1006700014431560C3F8080582F81143D3F8043514
:100680000B60F0BC704700BF0010014000E100E0CB
:10069000CC2000200024F400E1280020F4280020D1
:1006A000EC280020D4270020ED280020F02800208E
:1006B000074B9B780BB9082070473AB130B10368FB
:1006C000187C0028F7D159745A6170470720704789
:1006D000D42700202DE9F043264CA37883B01BB922
:1006E000082003B0BDE8F0830028F9D0042903D81E
:1006F000072003B0BDE8F0834369002BF0D0064625
:1007000002A8737C0025012B00F8015D0CBF89460F
:10071000A94690460F4600F06FF86378A0782178DC
:100720005A1CD2B2904208BF2A4691421BD003EB1A
:10073000430304EBC30301200F4918719E60D1F8F5
:1007400004159DF80700D9601F61C3F81490C3F821
:100750001880627000F076F8084B4FF4801228463B
:10076000C3F80021BDE79DF8070000F06BF80420F6
:10077000B7E700BFD42700200010014000E100E0EF
:1007800070B51B4CA37882B013B9082002B070BDBD
:100790000028FAD04369002BF7D0064602A80025AE
:1007A00000F8015D357400F027F86278A0782178B0
:1007B000531CDBB2984208BF2B46994212D002EB81
:1007C000420204EBC20202219DF8070096601171FB
:1007D000637000F037F8074B4FF480122846C3F8D7
:1007E0000021D3E79DF8070000F02CF80420CDE7A6
:1007F000D427002000E100E070B4EFF3108472B65B
:100800000D4B9A68AAB90D490D4E01259D60D1F88E
:10081000805035401D60C1F88060D1F884505D6023
:100820004FF0FF33C1F88430027004B962B670BC77
:10083000704701230370F8E7F42C002000E100E08A
:10084000FC06FFBD094B9A6872B168B910B4EFF3AA
:10085000108272B606491C680C605C684C60986037
:1008600002B962B65DF8044B704700BFF42C00205B
:1008700000E100E0F0B52B4C2B4F6268668883B036
:10088000002A48D036015388B9190333496802EB6E
:10089000830201F58050824225D21368013318BFCC
:1008A0004FF6FF751FD09388AB4213D013888BB1DE
:1008B00062601E485388868801681D4800250333FE
:1008C00000959BB201EB86010325257000F09EFD8B
:1008D00003B0F0BD5388033302EB8302824202D29D
:1008E00013680133DFD13E44B38963B10F4D104823
:1008F00029680227052600230122AF80267000F018
:10090000DBFD03B0F0BD0122094800F0D5FD042352
:10091000237003B0F0BD3601BB19596801F108021C
:10092000B7E700BF70290020F8290020182A00200E
:1009300058220020F0B543688E464BB1324A146805
:10094000A34205D35268934202D813F003023AD06F
:1009500000232E4EAEF800304FF0010C4FF6FF751D
:100960007768002307F5805453B35A88033203EBAA
:1009700082039C4217D91A68013214D09A88AA427D
:100980000BD01A884AB1026899689142ECD1204A8A
:100990004360138903810120F0BD5A88033203EBC1
:1009A0008203A342E7D30CF10103AEF800C01FFAA3
:1009B00083FCBCF1030F06F11006D1D10020F0BD7D
:1009C00007F10803D5E7124C05892489A542BFD158
:1009D00005689C68A542BBD10C4C6068834205D970
:1009E00000F58050834201D2134608E062699342C9
:1009F000E4D902F58052934238BF0123DED2AEF82B
:100A000000300120F0BD00BF58220020F82900204E
:100A100070290020B3F804C0BCF1010F53D82DE9B0
:100A2000F0419046294A4FF6FF7702EB0C1E002258
:100A30009EF80040002C33D11C68002C3ED0658805
:100A4000DEF80460033504EB850406F58056B442F5
:100A500025D22568013522D0A588BD4219D0258828
:100A6000BDB11C6018B1A6880588AE42E5D119B1A8
:100A700026880D88AE42E0D1A268C8F800201A6826
:100A8000134BC8F804201B89A8F808300020BDE8E3
:100A9000F0816588033504EB8504B442D9D31A602C
:100AA0000CF1010C1FFA8CFCBCF1020FA3F804C07E
:100AB0000EF1100EBCD10A20BDE8F081DEF8046012
:100AC00006F10804C1E70A20704700BFF82900209A
:100AD000702900202DE9F04FA94C256FEF007E1BF7
:100AE000B6008BB0A25D013A824604EB0609052AE6
:100AF00031D8DFE802F05D3E3E1D1D03002840F0C6
:100B0000D680DFF8908298F80C30002B00F012832A
:100B100098F8003088F80C00013B062B1BD8DFE862
:100B200013F00701C302CE01AF011A00F502E5027E
:100B3000002840F0BC80A7EB050B04EB8B0B9BF867
:100B40000480B8F1010F00F05083C0F03983B8F190
:100B5000020F00F012810F23A15D06938B1E012B63
:100B600040F2AC80052A34D8DFE802F030816A5EBA
:100B700094907B1B04EB8303DFF814B2B3F812806C
:100B80000BEB0818002840F0AA80B8F808A0D8F8A5
:100B900004101B7C01EB8A0A062B00F29A83DFE823
:100BA00013F0A601E901D201360220020602030277
:100BB000002840F08D8099F80430032B00F2058165
:100BC000DFE813F03E014B012E010A0100238DF8EE
:100BD00014306C4D05F1200655F8043F0BB105A803
:100BE0009847B542F8D1206FC0EBC00004EB8000FD
:100BF0001C220021FEF7ACFB636F3BB1226F013278
:100C0000013B02F00302636722673BB95E4A137837
:100C100023F0040313700BB0BDE8F08F0020FFF742
:100C200059FF0BB0BDE8F08F7B1B04EB830303225D
:100C3000D3F80610DB68089107938DF81420C8E7F5
:100C40007B1B04EB830302211A7C1E899D88D868D4
:100C5000ADF82060A2F10603B3FA83F35B098DF8C7
:100C60002430ADF8225007908DF81410B1E77B1BAB
:100C700004EB8303012218899988DB68ADF8200012
:100C8000ADF8221007938DF81420A2E705238DF804
:100C900014309EE77B1B04EB83030422DB88ADF852
:100CA000203000238DF81420ADF8223091E7A15DAB
:100CB000012306938B1E012B3FF654AF334B99F85B
:100CC0001660186C596C3044891B1864596449E7E4
:100CD0002D490B7823F001030B7001233CE7DB88DF
:100CE000B8F80AE0B8F80800C3F57F41FD310333D6
:100CF00003447144A8F80830A8F80A1001232BE730
:100D0000234BB8F808101A781B7CB2FA82F2B3FAB7
:100D100083F352095B09013188F80A2088F80B3007
:100D200000220123A8F8081088F80C2088F8003069
:100D300098F80A304BB1164A9389002188F80A10B6
:100D40001BB9927B002A40F0A48298F80B304BB17B
:100D50000F4B9A8B002188F80B101AB99B7F002B40
:100D600040F096827A1B002314F8222088F8003085
:100D7000013AA8F80230C8F8043000230693F1E6DF
:100D800080290020002900206C290020242900202F
:100D9000F8290020702900204FF001084FEA0818B8
:100DA0000BEB08034FF0000A5968C54ACDF800A0C4
:100DB0000223C44800F02AFB0BF808A000283FF4E7
:100DC0002AAF7B1B14F82320013ABF490B7823F08C
:100DD00001030B700E23BFE6DFF8F882B84AD8F89B
:100DE0000010B8484FF0000A0223CDF800A000F030
:100DF0000DFBB64BB6495B88D8F800E089F804A033
:100E00001B01CA1801F803A05368B8F80410C8F809
:100E100000300223C2F804E01181A8F80430CDE7C5
:100E2000DFF8B082A748D8F800100023012200F0B4
:100E300043FB02220023A8F8042089F80430BDE710
:100E4000A44BA54A19689F4800230093022300F091
:100E5000DDFA012389F80430B0E7DFF874B29BF8BB
:100E60000030022B00F022829BF81030022B93D02E
:100E700095490B7843F0020323F001030B707CE7E4
:100E8000B8F80230924A02EB03129389002B00F06B
:100E9000DB81904B8B48196802229A80052200233F
:100EA00088F80020012200F007FB0346002B3FF4E6
:100EB000B2AE1C2202FB05F2A25C013A4CE6854868
:100EC000D8F80420D0F800E0818853887D480EEBE4
:100ED00081014FF0000ECDF800E003334FF0030E18
:100EE0009BB288F800E000F091FA0346DEE70023A9
:100EF000321D5146224400937248012300F086FAC5
:100F00007B1B9B00E2180221117400283FF483AE82
:100F1000E25C0E23013A791B04EB8101B8F80AC0A8
:100F2000C988B8F808E0C1F57F40FD30033160445E
:100F30007144A8F80A00A8F8081041F61D518B4228
:100F40003FF41BAF08E6002306F10C020AF108018A
:100F5000224400935B48012300F058FA7B1B9B005E
:100F6000E218917D00290CBF012103211174002892
:100F7000CED150E6002306F108020AF10401224412
:100F800000935048012300F041FA7B1B9B00E118BD
:100F9000E25C032A0CBF052306230B7400283FF4F0
:100FA0003AAE013A0E23B6E741F61D53B3E74B4B79
:100FB0004B4AB3F800A0516842484A4A00230093C4
:100FC000012300F023FA002840F035817D1B04EB5B
:100FD00085040BEB0A1A0622012322748AF80E30CC
:100FE00019E6A7EB050B4FEA8B0B04EB0B033C4810
:100FF0009B690360394900234360FFF79BFC00288D
:101000007FF475AF14F80B200A23013AA4E5DFF84A
:10101000D8E0DEF844C0BCF1000F00F0F180DEF84B
:10102000401028485EF83120A7EB050B04EB8B0B32
:101030000EEBC103013101F00701CEF840100CF1B5
:10104000FF3CBBF81410CEF844C04FF0000E0393E1
:101050000AEB81019B88CDF800E000F0D7F9039AF4
:101060009BF816309188BBF81420013B0A44DBB290
:10107000ABF814208BF8163013B901238BF810301D
:1010800000283FF4C8AD7A1B0E2314F82220013A41
:1010900041E7104AD8F804109388498803330B4479
:1010A0000221938088F80010FFF7E4FB0346002B31
:1010B0003FF4B1AD1C2202FB05F2A25C013A3CE711
:1010C000E45E0200582200206C29002070290020D4
:1010D000F8290020182A0020EC5E0200202A0020B7
:1010E000F8280020E05E0200242900207A4B7B4A89
:1010F00019687B4800230093C8F80430072388F858
:101100000030022300F082F90346CFE6B8F802303F
:10111000DFF8E0B11B019B4406200023DBF804103C
:10112000704A0093022388F800006D4800F06EF9C1
:101130000346BBE698F80030072B2CD801A151F8E4
:1011400023F000BF010D0200971102009711020069
:10115000931002006D110200ED100200ED1002006C
:1011600065110200012388F80030E1E5B8F802308B
:10117000DFF880B1584A1B010BEB03011068D1F86E
:1011800004C0B2F804E048600220C2F800C0A1F830
:1011900008E09080BFE7013B062B3FF6DCAC01A1E5
:1011A00051F823F0310D0200A9100200BF0E020019
:1011B000810E0200570B02000D110200ED1002001B
:1011C000DBF80C30CDF818A005A80DF11201CDF810
:1011D0001CA00593FFF7AEFB00283FD10A237A1B22
:1011E00004EB82020221117160E63F4B1B789B07E2
:1011F00009D4014608223D48FEF7AAF8022359E720
:10120000DCF80030FFDEDFF8E4B0B01D5B462044C0
:1012100005AA5146FFF7FEFB00284AD1CDF800A0F1
:101220000699334A2E48BBF804A0434600F0EEF876
:1012300040B30E233EE77B1B9B00E118E25C0623D4
:101240000B74013A0E2366E651682548012200F02E
:1012500033F90422034688F8002027E60699244A39
:101260008B88ABF80630B1F800E01D48CDF800A03F
:101270000123ABF808E0BDF8128000F0C7F870B1A8
:101280000E23ACE71B4B03EB0A1383F80E80C2E47A
:101290000123A8F80230FFF7EDFA034607E7154AE5
:1012A00002EB081201215346917398E74FF00008B2
:1012B00074E50390514658460822FEF749F8039B0F
:1012C0000A2B7FF4F7AE1C2303FB05F3E25C013A23
:1012D00053E50F231FE600BF182A0020EC5E020032
:1012E00058220020E45E02006C290020242A0020FD
:1012F000E05E0200F82900200846FFF7EBBB00BFC4
:1013000029DF704728DF704770B50C4D696E0429DE
:1013100011D02B6E0B44032B88BF043B182202FB19
:10132000035406464B1C204600216B66FEF710F85E
:101330003460012070BD002070BD00BF302A002045
:1013400070B5304C636E84B07BB1266E7500AB19FE
:1013500004EBC3031A7A012A09D0022A26D19889FC
:10136000FFF7D0FF112818D000BB04B070BDA8193A
:101370009A8ADB8A04EBC000D21AC1680069B2F510
:10138000806F4FEA8303B4BF92B24FF48062194476
:101390001844FFF7B5FF1128E6D11B4A137823F054
:1013A000020343F00403137004B070BD10226846BA
:1013B0000021FDF7CDFFAB1904EBC3031A7A012A14
:1013C00017D0022A09D19A89DB89ADF80A20D21AEE
:1013D0000123ADF808208DF800303544ED00621986
:1013E00063595268019268469B680921984704B086
:1013F00070BD1A699B8A029200218DF80010ADF829
:101400000C30EAE7302A00202C2A00202DE9F04198
:10141000264D2C78E60782B012D510B1244CA0429C
:1014200003D2022002B0BDE8F081224CA042F8D2E3
:1014300052B149B142EA0104A40707D00620F1E7FE
:10144000012002B0BDE8F0810320EBE70468A1426F
:1014500001D20520E6E7466801EB8304A642F8D3F3
:101460000BB90420DEE7804601A81E4614460F464D
:10147000FFF74AFF08B90720D4E701992B78C1F894
:101480000080019A089848600121D46013F0060496
:1014900017619682117201D00020C3E743F0020366
:1014A0002B70FFF74DFF2046BCE700BF2C2A002021
:1014B00058220020682200202DE9F041244D2C788C
:1014C000E40782B010D510B1224CA04203D2022012
:1014D00002B0BDE8F081204CA042F8D241B1C1F386
:1014E0000B043CB10620F3E7012002B0BDE8F08117
:1014F0000320EDE70468A14201D20520E8E7466831
:1015000001EB0234A642F8D30AB90420E0E7804692
:1015100001A81E4614460F46FFF7F6FE08B907203D
:10152000D6E701992B78C1F80080019A4E6002201D
:10153000390B148213F006049181107201D000203F
:10154000C6E703432B70FFF7FBFE2046C0E700BF52
:101550002C2A00205822002068220020044B195C0D
:101560004FF0A04201238B40C2F80C35704700BFFA
:10157000F45E0200044B195C4FF0A04201238B4043
:10158000C2F80835704700BFF45E020030B44FF077
:10159000A04303224FF400354FF480244FF4002081
:1015A0004FF48011C3F84427C3F84827C3F84C27E9
:1015B000C3F85027C3F80855C3F80845C3F8080511
:1015C000C3F8081530BC704710B51A4B1A6882B0C2
:1015D000A2B100221A601B6800934FF080430122E1
:1015E000154C0099C3F80823A368627033B10CCB83
:1015F0000020A2609847A368002BF8D10F4B1A680F
:10160000AAB100221A601B6801934FF080430222A6
:10161000094C0199C3F8082323690122A27033B150
:101620000CCB0120226198472369002BF8D102B02E
:1016300010BD00BF00010040982A002004010040B6
:1016400058B910B5054CA36833B10CCB0020A2608B
:101650009847A368002BF8D110BD7047982A002046
:1016600010B582B002A80023144C00F8013DFFF72A
:10167000C3F8237853B1E3689DF8070001330122D2
:10168000E360A270FFF7DEF802B010BD0C4A6360A1
:10169000E3601068A36010F0010023610AD002F03B
:1016A00075F920B94FF080430122C3F818250123B2
:1016B0002370E0E7072100F005F8F0E7982A002002
:1016C00000E100E0002810B418DB00F1604303F5EE
:1016D00061434901C9B283F80013C3B240098000D5
:1016E00000F1604000F5614003F01F0201239340C8
:1016F000C0F8803103605DF8044B7047C3B2044A00
:1017000003F00F0449012244C9B21176E6E700BF95
:10171000FCEC00E030B51D4C94F8545083B015B18A
:10172000082003B030BD4FF0FF33FF220721062011
:1017300023636363A363E36323646364A364E36475
:1017400023606360A360E36023616361A361E3617D
:10175000236284F850306362A36284F85230E362FB
:1017600084F8533084F85120FFF7ACFF084B094A46
:101770001D601B68019301984FF00043012128462A
:1017800084F85410C2F8043303B030BDAC2A0020F2
:101790007C61004000600040034B93F8540000302F
:1017A00018BF0120704700BFAC2A0020F0B55E4C86
:1017B000251895F93030002B01DB0820F0BD91F899
:1017C00003E0BEF1000F50D02368013300F0A68083
:1017D0000826012554F8253001334CD06B1C54F8F1
:1017E0002370013748D0AB1CB3423CD254F823706D
:1017F000013741D0EB1CB34235D254F82370013786
:101800003AD02B1DB3422ED254F82370013733D077
:101810006B1DB34227D254F8237001372CD0AB1D77
:10182000B34220D254F82370013725D0EB1DB342C8
:1018300019D254F8237001371ED005F10803B342C2
:1018400011D254F82370013716D005F10903B342C1
:1018500009D254F8237001370ED00A35B54202D2AE
:10186000E36A013358D00420F0BD236A01332DD040
:101870000C260925AEE72B4626185DB244F8232036
:1018800086F83050BEF1000F26D08B78A3B94A7885
:101890004FF0A04600F5E073920046F82320CB7885
:1018A000F3B9083D2C44097894F8502042EA81129B
:1018B00084F850201846F0BD830003F1A043D3F80C
:1018C000002722F00202C3F80027E8E7082685F87F
:1018D0003060334622623546234483F84800D4E71B
:1018E000AB0003F1804303F5C0430978D3F81045FA
:1018F00024F4473424F44074C3F810450202090468
:10190000D3F8100501F4403102F4F8520A430243BF
:10191000C3F810250020F0BD0B23ADE7002385F8A8
:10192000303022601D46B0E7AC2A0020F0B42E4DC6
:101930002E1882B096F93030072B1CDD2B4493F81B
:1019400048309B09032B41D0012B14BF4FF4403189
:101950004FF40031800000F1A040D0F8002722F4BD
:101960004032C0F80027D0F800370B43C0F80037EA
:1019700002B0F0BC7047DAB2072AF9D8980000F13B
:10198000804000F5C04003F140029200D0F81045BD
:1019900092B202F18042002744F0010402F5C042F5
:1019A000C0F810450197019817600029E0D096F91A
:1019B000302055F82220002ADAD001220B4902FA01
:1019C00003F3C1F8043302B0F0BC70474FF0A043FA
:1019D000D3F81035C34013F0010F0CBF4FF40031A2
:1019E0004FF44031B6E700BFAC2A00200060004051
:1019F000154B034493F93030072B17DCDAB2072A72
:101A000013D810B49A0002F1804202F5C0420F4C84
:101A1000D2F81005012120F0010001FA03F3C2F809
:101A20001005C4F808335DF8044B7047800000F1DE
:101A3000A040D0F8003723F44033C0F80037D0F886
:101A40000037C0F800377047AC2A00200060004023
:101A50004FF0A043D3F8103523FA00F000F0010056
:101A6000704700BF2DE9F04F87B00023CC4A0193A7
:101A70001168012900F00A821E46CA4B1A68012A21
:101A800000F0F681C84B1A68012A00F0E381C74BC9
:101A90001A68012A00F0D081C54B1A68012A00F0AB
:101AA000BD81C44B1A68012A00F0AA81C24B1A6892
:101AB000012A00F09781C14B1A68012A00F0848145
:101AC000BF4B1A68012A00F05E8116F0FF0F1AD092
:101AD000BC4F01250024A30003F180432E4203F5EF
:101AE000C0434FEA45050BD0D3F8100557F8242022
:101AF000D3F81015C0F30420C1F3014102B190479F
:101B00000134082CE7D1002E02DB07B0BDE8F08FCE
:101B100000224FF0FF33AB4C02920393012502AE3B
:101B200094F950104F1C2DD0C9B221F0C00006AB63
:101B30004FEAD00E03EB0E0701F0070317F80C2C49
:101B400005FA03F31A421DD02218890992F93020B0
:101B500054F82220002A00F0F080032900F0F080E1
:101B60004FEA800E0EF1A04E17F814CCDEF8007785
:101B70001CEA0303C7F3014940F0B880B9F1030F31
:101B800000F0D7814FF0030A4FF002094FF001082F
:101B9000002794F95110481C2DD0C9B221F0C00083
:101BA00006AB4FEAD00C03EB0C0E01F007031EF856
:101BB0000C2C05FA03F31A421DD02218890992F958
:101BC000302054F82220002A00F0CA80032900F0B7
:101BD000CA804FEA800C0CF1A04C1EF814BCDCF853
:101BE00000E71BEA030FCEF3014E40F09080BEF1F8
:101BF000030F00F08A8194F952104A1C2CD0C9B20C
:101C000021F0C00006AB4FEAD00C03EB0C0E01F044
:101C100007031EF80C2C05FA03F31A421CD02218F5
:101C2000890992F9302054F82220002A00F08F8090
:101C3000032900F08E804FEA800C0CF1A04C1EF8B6
:101C400014ACDCF800E71AEA030FCEF3014E6AD1B8
:101C5000BEF1030F00F0468194F953104B1C2CD0B9
:101C6000C9B221F0C00006AB4FEAD00E03EB0E0262
:101C700001F0070312F80CCC05FA03F31CEA030F7A
:101C80001BD004EB000C89099CF930C054F82C904F
:101C9000B9F1000F6ED003296ED04FEA800E0EF11D
:101CA000A04E12F814CCDEF800271CEA030FC2F392
:101CB000014211D1032A00F0F580002F3FF425AF37
:101CC0004FF0A043019AD3F810359A423FF41DAF6C
:101CD000029A0193039223E7022AEED1032900F02E
:101CE0004681B9F1000FE8D0C847E6E7B9F1020F25
:101CF0007FF448AF032900F043814FF0030A4FF00F
:101D000001080027002A3FF444AF904741E7BEF1A5
:101D1000020F7FF470AF032900F02C81002A3FF4FA
:101D20006AAF904767E7BEF1020F95D1032900F033
:101D30002481002A90D090478EE703297FF422AFB8
:101D400016F80EC04CEA030C06F80EC008E703298B
:101D500082D116F80CA04AEA030A06F80CA06AE73A
:101D600003297FF448AF16F80CB04BEA030B06F8D2
:101D70000CB02EE70329A0D116F80EC04CEA030CD4
:101D800006F80EC089E700221A601B6805934FF021
:101D9000A043059AD3F81035019346F0004694E627
:101DA0000061004004610040086100400C61004097
:101DB0001061004014610040186100401C61004047
:101DC0007C610040AC2A00206F4AD2F8042312063E
:101DD0007FF576AE00221A601B680493049B46F0E0
:101DE00080066DE6684AD2F8042351067FF563AE9B
:101DF00000221A601B680493049B46F040065AE6D2
:101E0000614AD2F8042390067FF550AE00221A6092
:101E10001B680493049B46F0200647E65A4AD2F812
:101E20000423D4067FF53DAE00221A601B6804939C
:101E3000049B46F0100634E6534AD2F804231507F3
:101E40007FF52AAE00221A601B680493049B46F0BB
:101E5000080621E64C4AD2F8042357077FF517AE4F
:101E600000221A601B680493049B46F004060EE6E9
:101E7000454AD2F8042392077FF504AE00221A6087
:101E80001B680493049B46F00206FBE53E49D1F82B
:101E9000046316F001063FF4F0AD13601368049379
:101EA000049BEAE503297FF41CAF4FF40032DEF80F
:101EB000003723F44033CEF80037DEF80037134301
:101EC000CEF80037B9F1000F01D047460CE74FF0CC
:101ED000A043019AD3F8103593427FF4F9AE07B0CE
:101EE000BDE8F08F03297FF424AF4FF40037DCF80E
:101EF000003723F44033CCF80037DCF800373B439D
:101F0000CCF800374746C84613E703297FF406AFED
:101F10004FF40037DCF8003723F44033CCF80037B7
:101F2000DCF800373B43CCF800374746C846D1467B
:101F3000F4E6032906D0CA461F464FF002094FF0C7
:101F40000108DFE64FF40037DEF8003723F44033B2
:101F5000CEF80037DEF800373B43CEF800374FF0BD
:101F6000040A4FF003094FF002080127CAE64FF4B4
:101F700040329CE74FF44037CCE74FF44037B6E7A8
:101F80004FF44037E0E700BF00600040F0B504794F
:101F9000714E6401331987B0DD7E15B1082007B09A
:101FA000F0BD4D7F1D770D686B1C0BD04FF0A04727
:101FB0000123AB40C7F808350B6803F5E073032530
:101FC00047F823504B685F1C06D003F5E0734FF0D1
:101FD000A045002745F82370037906EB43131B7FC8
:101FE000002B4CD003688D69C3F824550F7D4B7DC1
:101FF00005683B43C5F86C3503680F684D68C3F846
:102000000C75C3F814550B7D012B00F09A80331921
:1020100005465A600B693351EAB10379097F0268BA
:1020200006EB43131B7F002B65D1C2F81C31D2F89D
:102030001C712A680097009FC2F84431D2F84421ED
:102040002B6846480192019AC3F80403286840F3BC
:102050000730FFF737FB2B792A6806EB43131B7F0A
:10206000002B44D00823C2F800353444002001235B
:10207000E376E0752076A075A07607B0F0BD056820
:102080008F69C5F8247591F814E04D7D076845EA1D
:102090000E05C7F86C550568D1F800E04F68C5F823
:1020A0001475C5F80CE50D7D012DB0D18D686F1C40
:1020B00005D005F5E0754FF0A04747F82530CB680F
:1020C0005D1C0DD001254FF0A04705FA03F3C7F8BA
:1020D0000835CB6803F5E073032547F82350CB6838
:1020E00005688F68C5F80835C5F810758FE70423B3
:1020F000C2F80035B9E70023C2F81031D2F81071E8
:102100002A680297029FC2F82031D2F820712A680B
:102110000397039FC2F82431D2F824712A680497E8
:10212000049FC2F84431D2F844212B6805920C4830
:10213000059AC3F80403286840F30730FFF7C2FA92
:1021400089E78B685D1CBAD003F5E0734FF0A045BA
:10215000002745F82370B2E7042B0020800002001E
:1021600010030200F0B502793C4B04685201991843
:10217000097F00296CD00021C4F80015991849681E
:10218000B1B1017903EB4111097F002963D10168E5
:10219000334CC1F808430168324E090B4CB2640954
:1021A000203401F01F01012505FA01F146F8241041
:1021B0000179076803EB4111D7F80C65097FD7F85F
:1021C00014554FF0FF3EA9B3D7F80815D7F81045BE
:1021D000C7F80CE5C7F814E50068C0F808E5C0F8D2
:1021E00010E5771C06D006F5E0764FF0A0400227F8
:1021F00040F826706E1C06D005F5E0754FF0A04043
:10220000022640F82560651C06D004F5E0744FF006
:10221000A040022540F82450481C06D001F5E0718A
:102220004FF0A040022440F8214013440022DA7607
:102230005A60F0BDD7F80815D7F81045C7F814E56F
:10224000C7F80CE50068C0F808E5C0F810E5C8E775
:10225000C4F8001592E70168034C9AE7042B0020AC
:102260008402020000E100E010030200F0B50379EF
:10227000524C5B01E51887B02D7F3DB101F0604500
:10228000B5F1005F02D0102007B0F0BD23449E7D61
:1022900016B1112007B0F0BD9A7599609E8205793C
:1022A0006D016219137F13BB0168C1F81C31D1F8AD
:1022B0001C61016804960126049F8E600168D2F8B3
:1022C00008E0C1F81C31D1F81C310593059B968AB2
:1022D000938A5768B6B201331EF806609BB29382A8
:1022E000C1F81C65002F2FD0002007B0F0BD036897
:1022F0009168C3F82061D3F8207103680197019FAA
:10230000C3F85861D3F8586103680296967D029F1E
:10231000C3F84415C3F84865036801219960536800
:10232000002BE1D1036801E0002945D1D3F8202139
:10233000D3F85811002AF7D0002914BF0F2000202D
:102340002C440023A3759FE7967D938A9BB29E42FF
:1023500002F1140122D9016804E0938A9BB2B3F51B
:10236000807F03D0D1F81C31002BF6D0938A9BB22A
:10237000B3F5807FE9D0C1F81C71D1F81C3103930B
:10238000039BB2F814C0938A1FFA8CFC01331EF829
:102390000CC09BB29382C1F81CC5D6E70B889BB2D8
:1023A000B3F5807F08D00268D2F81C31002BFBD037
:1023B0000123D3600020C3E70F20C1E7042B0020D6
:1023C0000279044B03EB4213987D003018BF0120C3
:1023D000704700BF042B002070B5A54C237F8EB042
:1023E000002B73D1A34AD2F80413890546D4A14B1C
:1023F000D3F80423520704D5D3F80821002A40F06B
:10240000C9809C4BD3F81C21BAB1A28AA17D92B29B
:102410008A424FF00002C3F81C2180F0A880D3F854
:102420001C210692069AA18AA28AA06889B201326A
:10243000415C92B2A282C3F81C158E4BD3F84421A2
:10244000D2B10022C3F84421D3F84411A27E0491F2
:102450000499002A40F08880E37D6BB10023617EFF
:10246000E268E37501238DF830108DF828300B9267
:1024700094E80A000AA898470EB070BDD2F824115B
:102480000029B4D0C2F82431D2F82411A37E0791D8
:102490004FF401710798C2F808130BB90123536078
:1024A000744A02238DF82830D2F88034C2F8803480
:1024B000E07DE2680D9300238DF83000E37523760C
:1024C00021680B9263680AA898479AE7694BD3F88A
:1024D0002421002A40F09280D3F8101161B1C3F892
:1024E0001021D3F8101103910399D3F83C15E07D26
:1024F000C9B2884200F0A4805E4BD3F84421B2B147
:102500000022C3F84421D3F84401E17D01900198F1
:1025100069B1D3F83C35E1688DF8303001230B9177
:102520008DF82830E27594E80A000AA89847514BC4
:10253000D3F82021002A9FD00022C3F82021D3F80D
:102540002001A17D00900098002995D0D3F84C156A
:10255000A3688DF830100B938DF82820A27594E8AD
:102560000A000AA8984787E701221A6074E7D3F89F
:102570001C310593059B00293FF45FAFA3688DF8DC
:1025800030100B938DF82820A27594E80A000AA851
:10259000984752E7E27D002A6ED00022C3F8082156
:1025A000D3F808210892089AE168627ED3F81835BA
:1025B0008B54637EE27D0133DBB26376637E9342AC
:1025C0007FF41FAF237E002B6CD1A37E13B9294B60
:1025D00001225A60274AE06863684FF40171C2F82B
:1025E0000813627E8DF83020002501220B902168AF
:1025F000E5758DF828200AA8984702E70022C3F85D
:102600002421D3F82411029102218DF82810029977
:10261000D3F88014C3F880140D91D3F83C15E36807
:10262000E27522768DF830100B93216863680AA852
:102630009847104BD3F84421002A3FF478AF5FE766
:10264000217E11B3D3F80062E568E17526F020061B
:10265000C3F8006226698DF8300001238DF8283018
:10266000227621680B95E66063680AA8984743E7DD
:10267000042B002000200040C3F80821D3F80811E3
:1026800009910999D3F8183598E7E268E1750123B3
:102690008DF830008DF828300B9294E80A000AA8D3
:1026A000984729E7607EE5682169E37501220023E8
:1026B0008DF83000E160237663760B958DF8282045
:1026C00094E80A000AA898479BE600BF6DDF7047B0
:1026D00072DF704779DF70477DDF704764DF7047D6
:1026E0002DE9F04F85B00488DDF83880BDF83CA0B6
:1026F000B8F800500195002C57D099460023174692
:102700008B4605461C4603E02A880134A24228DD98
:102710006A6852F82400039000220DF10B0103A80F
:10272000FFF7DCFF064630BB9DF80B20BA42EBD129
:102730002BB3B8F80020D31953451BDC4A440DF1E4
:102740000B0103A80123FFF7C9FF98BBB8F80010DD
:102750009DF80B200A44A8F800202A880134A242E0
:10276000D6DC13B3B8F80030019A013B9B1A9BB238
:10277000FF2B17D90C26304605B0BDE8F08FB8F80E
:1027800000305A1C3B440233534592B2F2DCA8F8A5
:10279000002009F802B0B8F80020013292B2A8F87F
:1027A0000020CBE709F80230E5E70026304605B007
:1027B000BDE8F08F0646304605B0BDE8F08F00BF9B
:1027C0002DE9F04700231788138090F82D3084B04E
:1027D000144605460E46002B49D1AA78002A70D12E
:1027E000EA78002A2ED16A68A2B1D91CB94225D84C
:1027F000022192F90020F154238801339BB20A216F
:102800002380F154238801339BB22380F254238820
:10281000013323802B89002B40F02A812B8A002B47
:1028200040F03F812B8B002B40F054812A6A002A14
:1028300000F0A78021888B1DBB4262D90C2004B018
:10284000BDE8F087D91CB942F8D80221F154238899
:1028500001339BB201212380F15423880B449BB2A6
:102860002380F25423880B449BB22380BBE7082FBC
:10287000E4D902A8FFF72AFF0028E0D11388082234
:10288000CA54238801339BB21B222380CA54208858
:10289000013080B22080062208440DF1090102F0C7
:1028A000E5FD23889DF8082006339BB212F0FE0256
:1028B00018BF01222380F254238801339BB2238066
:1028C0008BE70433BB42B9D802A8FFF703FF002807
:1028D000B5D12388BDF808200321F15423880133A2
:1028E0009BB219212380F154238801339BB2F11844
:1028F0002380F254120A4A70238802339BB2238049
:102900006EE71388052B40F2AF806FF4486803EB45
:10291000080080B24FF27D3E704540F2A58050889D
:10292000052840F2A1806FF4486C84441FFA8CFCA7
:10293000F44540F299804FF6FF7E734504D0704510
:1029400002D0834200F29080052373542388013320
:102950009BB212212380F154238801339BB2238040
:102960001188F1543344090A5970238802339BB209
:1029700023805288F2543344120A5A702388023357
:102980002380D5F82480B8F1000F30D0B8F80410B7
:1029900020888A1C831C1344BB423FF64FAFFE2A9B
:1029A0003FF64CAF03313154238801339BB2FF22F1
:1029B0002380F254238801339BB22380B8F800208F
:1029C000F2543344120A5A702088023080B22080B8
:1029D000B8F804205AB1D8F80810002944D030447F
:1029E00002F044FDB8F8042023881344238095F8AE
:1029F0002C30002B40F08780287800283FF41FAF50
:102A00002B88012B30D023889A1CBA423FF616AF90
:102A1000012805D16978023119448F42FFF40EAFC5
:102A2000023FFB1A04A99BB221F8083DB018FFF73A
:102A300053FE00287FF403AF2A78022A00F0AF800B
:102A4000012A00F0B4800821FE2B3FF6F7AE228861
:102A50005D1CB5542288013292B22280B154228882
:102A6000013213442380EAE6072004B0BDE8F08772
:102A700005F1080802228DE89000404611463346D1
:102A8000FFF72EFE00287FF4DAAE8DE89000404676
:102A9000334610220621FFF723FE00283FF4BEAE86
:102AA000CDE605F110088DE890004046334602223D
:102AB0000321FFF715FE00287FF4C1AE8DE89000DA
:102AC0004046334610220721FFF70AFE00283FF454
:102AD000A9AEB4E605F118088DE8900040463346EB
:102AE00002221421FFF7FCFD00287FF4A8AE8DE838
:102AF00090004046334610221521FFF7F1FD0028D3
:102B00003FF494AE9BE6D5F82880B8F1000FABD027
:102B1000B8F804200232FE2A3FF690AE23884FF028
:102B200000094FF0160A0132F254238801339BB298
:102B3000238006F803A0238801339BB22380B8F8D2
:102B40000020F2543344120A5A70238802339BB295
:102B50002380B8F80410F0180A4661B1D8F808309C
:102B60001946002B80D002F081FCB8F8042023889D
:102B700013449BB2238009F1010995F82C205FFAD8
:102B800089F94A4509EB49087FF636AFAA6A02EB94
:102B90008808B8F804200232FE2AC4D94EE6BDF8EF
:102BA00008209342FFF44FAF134609214CE76A789F
:102BB0009342FFF448AF1346082145E72DE9F0435F
:102BC00095B01F230D46ADF80E300446002800F0E6
:102BD0008480C27853077CD590F82D300021ADF861
:102BE0000C10002B40F0DB8183780CAF002B40F001
:102BF00017821946032014AE31445F1C023316FAC3
:102C000087F74FF0020E16FA83F601F840EC83B214
:102C1000012107F8401CADF80C3006F8402C66681E
:102C2000002E00F08C80D81C1F2874D90C2015B001
:102C3000BDE8F083A76A002F4BD0BA880232FE2A83
:102C4000F4D8BDF80C304FF0000804AE4FF0160970
:102C50001AE002F00BFCBDF80C30BA8894F82C1086
:102C600013449BB2ADF80C3008F101085FFA88F804
:102C7000884508EB480280F0F080A76A07EB8207DE
:102C8000BA880232FE2AD1D80DF1500E9E44581C4B
:102C900001320DF1500C0EF8402C1CFA80F09A1CF9
:102CA00092B200F8409CADF80C203888B054324401
:102CB000000A50700433B7F804E09BB27246F01873
:102CC000ADF80C30BEF1000FCED0BB681946002B1A
:102CD000BFD1072015B0BDE8F083ADF80C00ADB151
:102CE000EB78002BF5D128460CA90DF10E02FFF769
:102CF00067FD0028EED19DF80E300CAA20469DF805
:102D00000C10FFF7E5FC15B0BDE8F0832B46ADF8DD
:102D10000E502A46F2E714AF591C9A1C17FA81F19B
:102D20003B4417FA82F296F90060ADF80C000227D6
:102D30000A2003F8407C01F8400C02F8406C23891B
:102D4000002B40F08F80238A002B40F0AB80238B38
:102D5000002B40F0C780226A002A42D0BDF80C3018
:102D6000991D1F293FF662AF10880528B1D96FF46D
:102D7000486C00EB0C06B6B24FF27D37BE42A8D9C4
:102D80005688052EA5D96FF4486EB6441FFA8EFEFC
:102D9000BE459ED94FF6FF77B84203D0BE4201D060
:102DA000B04296D814A8C7185E1C10FA86F64FF0E9
:102DB000050E981C07F840EC80B2122706F8407CFC
:102DC000ADF80C001788ADF80C1004AE311837546C
:102DD00004333F0A4F709BB25288F2541E44120AC9
:102DE0007270676AA7B3B888BDF80C30811C9A1C52
:102DF00056181F2E3FF61AAFFE293FF617AF14AE36
:102E00001E44591C0DF1500E1EFA81F1033006F8D4
:102E1000400C92B2FF2001F8400CADF80C2039882C
:102E200004AEB018B154090A41700433BA8898B29C
:102E3000ADF80C0062B1B96800293FF44AAF3044E4
:102E400002F014FBBDF80C30BA881344ADF80C3016
:102E500094F82C1000297FF4EDAE2378002B61D17B
:102E600004AC3CE703A904F1080704AE4FF01F08C7
:102E70000222009138463346CDF804801146FFF710
:102E80002FFC00287FF426AF03AB0093CDF804801D
:102E90003346384610220621FFF722FC00283FF473
:102EA00052AF17E703AA04F1100704AE4FF01F0852
:102EB000009238463346CDF8048002220321FFF702
:102EC0000FFC00287FF406AF03AB0093CDF804801D
:102ED0003346384610220721FFF702FC00283FF452
:102EE00036AFF7E603AA04F1180704AE4FF01F0847
:102EF000009238463346CDF8048002221421FFF7B1
:102F0000EFFB00287FF4E6AE03AB0093CDF804801E
:102F10003346384610221521FFF7E2FB00283FF424
:102F20001AAFD7E62288012A3FF4D3AEBDF80C20B1
:102F3000901C1F283FF67AAE012B04D1637803441E
:102F40001F2B3FF673AEC2F11D0314A99BB204AE52
:102F500021F8203D3044FFF7BFFB00287FF4BAAED4
:102F60002278022A00F08680012A00F08B80ADF8DA
:102F700030300820FE2B3FF659AEBDF80C2014ACC3
:102F8000511CA71814FA81F102321A44013307F8D0
:102F9000403C3446ADF80C2001F8400C9FE60CAFE5
:102FA0003846FFF793FB00287FF494AEBDF80C3051
:102FB00014A903F1010E9A1C11FA8EFE0B4492B271
:102FC00004AEB01808211B2603F8401CADF80C20F5
:102FD0000DF1310106220EF8406C02F047FABDF8FF
:102FE0000C209DF83010931D11F0FE019BB23BD1D7
:102FF00014A8034403F8401CD31DA2789BB2ADF87B
:103000000C304AB9E278002A3FF409AED81C1F28D8
:1030100019463FF60BAEEEE504331F2B3FF606AE26
:103020003846FFF757FB00287FF454AEBDF80C304C
:10303000BDF83010E278581C14AE16FA80F01E4429
:103040009F1C4FF0030E06F840ECBFB204AE4FF0E9
:10305000190E00F840EC0433F019F1559BB2090A3F
:10306000ADF80C304170CEE714A90B44012103F8F0
:10307000401CC1E7BDF830209342FFF478AF1346FF
:10308000092077E762789342FFF471AFADF8302002
:10309000134608206EE700BF75DF704776DF704784
:1030A0007ADF70477BDF7047184B18884FF6FF7345
:1030B00098422AD010B5164A164C1378217B01335A
:1030C000DBB2994282B013700CD2237C00211170C4
:1030D0008BB9636923B102A8002200F8042D984738
:1030E00002B010BD0C49FFF7D7FF0028F8D0A36944
:1030F000002BF4D1F4E73B21FFF7D0FF0028E8D004
:10310000A369002BE5D09847E3E77047262B002002
:10311000742B0020282B00206C2B002070B51E4B38
:103120001E4A5B881188994282B00FD852889A4211
:103130000CD31B4B5B6923B102A8012200F8042DBC
:103140009847184C0023237002B070BD154C2278AC
:1031500062B1134B5B69002BF4D002A8002200F887
:10316000042D98470023237002B070BD0C4D0E480B
:1031700069680678AB680D48002E18BF1946FDF740
:10318000A9FA0028DED0AB69002BDBD098470023DA
:10319000237002B070BD00BF642B00206C2B002098
:1031A000282B0020242B0020742B0020442B0020EF
:1031B000F8B505460FCD144C144F0FC4064695E8DC
:1031C0000700002384E807003B70B6B13068104B5D
:1031D000716803C3A3F10800FFF762FF90B90D4DBA
:1031E0000D4C0E4A0E4800234FF6FF762E802370BA
:1031F0001946BDE8F840FDF75BBA0548FFF752FFF6
:103200000028ECD0F8BD00BF282B0020242B002084
:103210006C2B0020262B0020742B0020A9300200EC
:10322000F85E020070B50388112B27D012D9122B3B
:1032300007D0502B47D1244CC288E3899A4230D022
:1032400070BD083003C8214B83E80300BDE870401F
:10325000FFF764BF102B35D11D491B4C1B4B1D4D77
:10326000E48900F110028088088092E803000022BF
:1032700083E803002A70002CE8D070BD1449154B78
:1032800015484FF6FF7400220C801A70FDF778FA8B
:103290000028D5D00C4B9B69002BD1D0BDE87040E5
:1032A0001847038A022BCBD1123000F017F8002800
:1032B000CCD10948FDF764FA0028C1D0A369002BDE
:1032C000ECD1BDE770BD70BD282B0020642B002021
:1032D000262B0020742B0020442B0020007800F0C7
:1032E000010070478FDF70479EDF7047ADDF70478A
:1032F000B8B110B41B2200234FF017148161046091
:10330000C0F80640C0F80E400271027342730275A5
:1033100042758372C3728374C3745DF8044B18469C
:1033200070470E20704700BFF0B58D88012D83B027
:1033300001D903B0F0BD0B88212B044674D01BD9F2
:103340003A2B00F0B180552B00F08880222B24D03E
:10335000EE00A3199B7A002BEBD034442846E18879
:10336000FFF7C2FF00285BD01128E2D002466C496B
:103370000120FCF7B5FADCE7102B24D0112BE7D1A4
:1033800000EBC50300211B224FF01710C3F8060005
:103390009972D9721A735A73CBE7EE0087190A7AB9
:1033A0007A738369002B39D000214DF67A2EADF85F
:1033B0000410ADF8025069468DF80420ADF800E025
:1033C0009847BB7AC7E7EE00871903793B73CB7B3D
:1033D000012B00F08680022B00F08C80F9883B895D
:1033E0008B42C0F08A803B7B7A7B9A4216D24FF0A8
:1033F000000E9BB2724669462846ADF80030ADF823
:103400000230ADF804E0ADF806E0FFF76BFF28B13D
:1034100003462A4643490120FCF7C0FABB7A9AE7E3
:103420000122A072E27284E7EE0087190B7A3A7BE0
:103430000020934228BF1346019002466946284661
:10344000ADF80030ADF80230FFF74CFF0028E5D0B2
:10345000024635490120FCF743FADFE7EE00CB884E
:103460008719172BF98838BF17238B4228BF0B46C3
:1034700000223B81BA722846FFF738FF002833D17B
:10348000FB7A002BCAD1A369002BC7D040F6772165
:103490003A89ADF80010ADF80250ADF80420694645
:1034A00020469847BB7A56E700EBC5064B89F28861
:1034B000934228BF1346172B38BF172333818269E5
:1034C0005AB1F17A49B140F67721ADF80010ADF864
:1034D0000250ADF80430694690470023F372B3728E
:1034E00027E70188F9807AE7024610490120FCF7B6
:1034F000F7F9C5E74188F98071E72846FFF7F4FE40
:1035000010B90123FB726EE7112802D10123BB72AF
:1035100069E7024602490120FCF7E2F963E700BFD0
:10352000FC5E0200585F020024600200CC5F0200D3
:103530000649074A074B9B1A03DD043BC858D05085
:10354000FBDC00F013F8FBF791FE0000E4640200DE
:103550006020002068220020FEE7FEE7FEE7FEE78D
:10356000FEE7FEE7FEE7FEE7FEE7FEE7F0B4BA4B54
:103570001A78062A1BD0B94AD2F8883043F470036F
:10358000C2F88830BFF34F8FBFF36F8F4FF0102317
:10359000D3F80022002AC0F22D81D3F80432002B88
:1035A000C0F22881AE4BAF4A1A60F0BC70470433BA
:1035B0001B681B07DFD1AC4B1B6803F0F002302AFD
:1035C00000F0088103F0E003402B00F00381A64BDC
:1035D0001B6803F0F003302B00F0EE80A24B1B6859
:1035E00003F0F002302A00F0D78003F0E003402B14
:1035F00000F0D2809C4B1B6803F0F003302B00F0EE
:10360000BB80994B1B6803F0F002302A00F0A080C9
:1036100003F0E003402B00F09B80934B1B6803F00A
:10362000F003302B00F086808F4B1B6803F0F00313
:10363000302B68D08C4B1B6803F0F003502B10D05C
:10364000894B1B6803F0F002302A03D003F0E0033B
:10365000402B90D1854B864A1B6803F04F031360C3
:1036600089E74FF08052834BD2F80414C3F8201539
:10367000D2F80814C3F82415D2F80C14C3F828158E
:10368000D2F81014C3F82C15D2F81414C3F830155E
:10369000D2F81814C3F83415D2F81C14C3F8401526
:1036A000D2F82014C3F84415D2F82414C3F84815EE
:1036B000D2F82814C3F84C15D2F82C14C3F85015BE
:1036C000D2F83014C3F85415D2F83414C3F8601586
:1036D000D2F83814C3F86415D2F83C14C3F868154E
:1036E000D2F840145C48C3F86C15D2F84414027840
:1036F000C3F87015062A7FF43EAF5F4B1B681A07AC
:103700007FF439AF9CE75D4E5D4C5E495E4B05270B
:10371000012500203F223760256008601A604E4B6B
:103720001B78062B7FF427AF534B1B6819077FF4D8
:1037300022AF7FE7484B554A1B780321062B1160C7
:103740007FF419AF4C4B1B6818077FF414AF6BE77D
:103750004FF080430022C3F80C21C3F81021C3F8B6
:1037600038253D4B1B78062B7FF405AF424B1B6879
:103770001C077FF400AF50E74549374ACB68127801
:1037800023F08073062ACB607FF4F5AE3A4B1B68BA
:103790001D077FF4F0AE34E73E4B2F4A1B681278CA
:1037A0003D49C3F34233062A0B60B8D1324B1B6844
:1037B0001E077FF4E0AE1DE7274B384A1B783849D7
:1037C0001160062B7FF4D7AE2B4B1B681F077FF4CD
:1037D000D2AE03E7334B204A1B6812783249C3F359
:1037E0000423062A0B60BCD1234B1B681B073FF444
:1037F000EEAEC0E62D4B0122C3F80425D3F8002419
:10380000002AFBD04FF0102315222849C3F80022CC
:10381000D1F80034002BFBD04FF010221521234BA0
:10382000C2F80412D3F80024002AFBD000221F495A
:10383000C3F80425D1F80034002BFBD0BFF34F8F21
:1038400006491B4BCA6802F4E0621343CB60BFF326
:103850004F8F00BFFDE700BFE00F00F000ED00E07C
:10386000CC2000200090D003E80F00F05802001098
:10387000E40E004000C00040E40F00F0105600408D
:10388000885600401856004014560040A0050040DD
:10389000F0ED00E0440200103C05004074C0074019
:1038A0000DF0ADBA240300104035014000E00140A6
:1038B0000400FA0548DF704710DF704760DF70478B
:1038C00061DF7047FCF794BA2DE9F047DFF8B0905C
:1038D000294DD9F80060DFF8AC80284FDFF8A8A0A8
:1038E000B6FA86F682B076092B7803F0FF04002B37
:1038F00036D101A8FFF7DEFF052834D010B3FCF75E
:1039000067FA4EBB2B7803F0FF063BB128E0FCF7CB
:103910005FFA002CE8D02B7801240BBB3B68B8F889
:103920000020ADF80420184601A9FFF7C9FF0528BB
:1039300014D00028EBD11846D9F800309847002C55
:10394000E9D1D1E70198FDF77BFEDAF8003073B1D9
:1039500001989847002ED5D00126C5E7002CFBD052
:1039600002B0BDE8F087002EFAD10124CAE7002E8C
:10397000C8D00126B8E700BF812B0020882B00208B
:10398000782B0020762B0020842B0020014B187808
:10399000704700BF802B002011B111F0030F01D040
:1039A00007207047F8B51A4F1A4E1B4D1B4C396053
:1039B00032802B602368DB0708D50123C4F88030F0
:1039C0001749FFF779FF30B12360F8BD1449FFF7BD
:1039D00073FF00B1F8BD134B01221A70FDF740FED2
:1039E0000E4A92F81633C3F34113012B0CD90E4B38
:1039F000986818B94FF480031360F8BD1A6842F450
:103A000080021A600020F8BD42F20200F8BD00BF3B
:103A1000882B0020762B00207C2B002000E100E08A
:103A2000C5380200802B0020F42C0020034618B17A
:103A3000024A0020136070470E207047782B002048
:103A400008B5094B1B6833B1984700B908BDBDE8FC
:103A50000840FCF7BDB9054B1B78002BF6D0BDE83C
:103A60000840FFF731BF00BF7C2B0020802B0020D7
:103A700082B0034B0193019B0360002002B07047AA
:103A80006020002010B5034682B002A81A6840F8F2
:103A9000042DFFF713FF019A1B68934204460BD1D4
:103AA00010B9204602B010BD02460D490120FBF7B7
:103AB00017FF204602B010BD0A490220FBF710FF95
:103AC0004FF08053019AD3F80C310749C2EB83229F
:103AD00002F100520220FBF703FF204602B010BDA6
:103AE000EC60020084600200B86002002DE9F04141
:103AF000684B1A6888B0002A3CD1674F97F82E307F
:103B0000002B45D1654B1A68002A5ED1644B1C68B6
:103B1000002C6AD17E699EB14FF000480125B6FAAB
:103B200086F2930003F58C7303F1804101F5E041C7
:103B300028FA02F2086826EA020620B9002EEED121
:103B400008B0BDE8F081A3F58C730C6083F004022B
:103B500009680491C2F38002DB088DF819208DF802
:103B600018308DF814503B68049A05A89847002E29
:103B7000D5D1E5E70022484F1A60196897F82E3032
:103B800000910099002B39D097F82F30002B4ED19F
:103B9000444B1A68002AB5D000221A6097F82D000D
:103BA00019687B8B019184B2A34201994ED85FD0F2
:103BB000384B3D4A002119601B680293012302998A
:103BC0001360364B1A68002AA0D000221A6008A899
:103BD0001B680393022100F80C1D3B6803993A749B
:103BE00098472F4B1C68002C94D000221A601B6849
:103BF0000593059B3A7408B0BDE8F081FA687868CF
:103C000039898DF814300690ADF81C10002A2CD09C
:103C10002648398B7A600122FB6079833981026002
:103C20003B6805A89847002387F82F3066E7FB68B4
:103C3000786839898DF814200690ADF81C10A3B16E
:103C4000398B7B60FA6079833981E9E73A89796851
:103C5000164D1B1B9BB292B2D21A01EB42027B8320
:103C6000C5F82C26C5F83006A2E700233B74D7E739
:103C7000FB684BB10D497A83012287F82F20C1F8E8
:103C80002C36C1F8300693E701227B8387F82F207A
:103C90008EE700BF047100408C2B002010710040A3
:103CA000147100400071004004700040007000403A
:103CB000A4DF70470A88502A04D10B464288C9887D
:103CC000914200D070471A8A012AFBD110B444698E
:103CD00034B101469A7C988823465DF8044B184716
:103CE0005DF8044B704700BF30B585B00D46044603
:103CF0008DF8072002A808220021FBF729FB0123E9
:103D000002AA6989ADF8083020460DF10704039432
:103D1000FFF7CEFF05B030BD0B88102B06D0112B5E
:103D200003D14FF6FF730380704770478B88038081
:103D3000704700BF76DF70477ADF70477FDF7047DC
:103D4000A8DF7047A9DF704769DF704766DF7047FB
:103D5000FCF73EB808B5037803B108BD054B3B211D
:103D60001888FFF7E7FF0028F7D0BDE80840FCF708
:103D70002FB800BFD02000200D281AD110B5032085
:103D80000C460D49FBF754FD0C4B0D491888224693
:103D9000FFF7AAFF30F008020DD043F20202904272
:103DA00009D043F20142904205D0BDE81040FCF733
:103DB0000FB8FCF70DB810BD40610200D020002004
:103DC000BC2B002010B50388132B84B0044678D098
:103DD0000ED9512B5ED041D9522B35D0562B0DD157
:103DE0001321A088FFF7A6FF40B1FBF7F1FF05E024
:103DF000102B36D0112B12D0012B44D02046FFF7C8
:103E000011FA21463448FFF755FF21463348FFF7A2
:103E10008BFA21463248FFF77FFF04B010BD3149CD
:103E20000320FBF705FD0120FDF7A4FB2E4B4FF609
:103E3000FF721A80FBF7B2FF08B1FBF7C9FF282118
:103E40002A4800F0F3FAD9E7274A002310881946D8
:103E50001A46FFF777FF0028D0D0C6E73B2BBFD02C
:103E6000CCE723490320FBF7E3FC0120FDF776FBB9
:103E70000020FDF77FFB1C4BA2881A80FBF778FF20
:103E80000028BBD0B1E700218088FFF75FFF002842
:103E9000B4D0AAE78379002BB0D0827B043A022AFF
:103EA000ACD8022B18BF01234FF4C1726946808839
:103EB0008DF80030ADF80420FFF742FF00289DD0B8
:103EC00093E7094A0023108885211A46FFF736FF39
:103ED000002893D089E700BFBC2B0020D42B002002
:103EE000D82C002090610200D0200020F02B002070
:103EF0007861020010B51F4B1F491A6886B006A8EA
:103F0000002340F8142D5022FFF746FD78BB06AC85
:103F1000002344F8103D2046FFF7AAFD20BB0C22E9
:103F2000002103A8FBF714FA012000238DF80C00F0
:103F300003A9029A8DF80D3040208DF80E30FFF75E
:103F400003FF70B92046FFF79DFD38B90B48FFF716
:103F50006DFD08B1FBF73CFF06B010BDFBF738FF65
:103F6000F4E7FBF735FFEDE7FBF732FFD7E7FBF7A9
:103F70002FFFCCE72C610200882C0020C53D0200F9
:103F800008B50020FBF738FC00B908BDBDE80840C3
:103F9000FBF71EBF70B588B0FFF7ACFF1D491E4888
:103FA00000F060FA01A808220021FBF7D1F91B4BB1
:103FB000019301A84FF0C8730293FFF7BDFE08B14B
:103FC000FBF706FF00211648FFF792F908B1FBF74F
:103FD000FFFE1C22002101A8FBF7BAF94FF42026AE
:103FE00000234FF4203503240E490F4A019301A802
:103FF000ADF812308DF81430029603958DF810400C
:1040000006910792FFF7D4F808B1FBF7E1FE08B07C
:1040100070BD00BF68610200F02B00205000A000BE
:10402000D42B0020553D0200513D0200F0B5ADF506
:10403000495D8FB0FDF7AAFAFCF778FA00287CD129
:10404000FFF79EFF40F2666201213D48FBF736FE16
:1040500000286FD10DF6AC06FFF79CFF06F526553C
:1040600038353446204604F22C4400F0DDF8AC42EA
:10407000F8D142F6B813334C334900220320F254EE
:10408000FBF7D6FB94E80F0005AD85E80F0011ADF6
:1040900085E80F000FCD42F6B917F519F0516960A8
:1040A000AA60EB6009AD85E80F000BAB93E8030055
:1040B0008DE8030015AB03934CF2010195E80C0069
:1040C000039800F055F821490320FBF7B1FB4CF2AF
:1040D0000F01039800F0C8F81D490320FBF7A8FB67
:1040E00094E80F000DAC84E80F000FAB93E80300D9
:1040F00094E80C008DE803004CF206010DF5906089
:1041000000F036F811490320FBF792FB1149032018
:10411000FBF78EFB2821104800F088F90F230DF1E2
:10412000130101220C488DF8133000F0BBF9FBF7A6
:104130009BFCFCE7FBF74CFE8CE7FBF749FE7FE7B7
:10414000D420002030610200A8610200CC6102008E
:10415000E861020000620200F02B0020014800F03C
:1041600051B900BFF02B0020A0DF704762DF70471D
:1041700082B0F0B5ADF2344D0DF5896484E80C00E1
:1041800005460F4600F11C0400F22C462046683418
:1041900000F08EF8A642F9D108AC0DF586662046EF
:1041A000683400F085F8A642F9D101AC2046062219
:1041B0000021FBF7CDF8042200210DF10A00FBF7E6
:1041C000C7F8102200210DF10E00FBF7C1F80DF524
:1041D00089630FCB84E80F000FCC05F10A04C5F802
:1041E0000A0061602046A260E36005F10801FFF764
:1041F000BDFFA8B92A46297A29714FF6FF73EF80CF
:10420000A91D22F8023B0120FFF7AEFF08B1FBF722
:10421000DFFD28460DF2344DBDE8F04002B0704796
:10422000FBF7D6FDE6E700BF70B5064600F11C04BB
:1042300000F22C452046683400F03AF8AC42F9D13F
:10424000062200213046FBF783F804220021B01D2E
:10425000FBF77EF81022002106F10A00FBF778F840
:104260000023B376304670BDF0B505460446867E21
:1042700055F8120FD4F80E30D4F80A2085B00F4646
:104280004FF0680E6968658802950EFB06466D461C
:1042900003C506F11C00394600F03AF8A07E431C25
:1042A000A37605B0F0BD00BFA2DF704762DF7047A4
:1042B00010B50422044600213430FBF749F82046AB
:1042C0001C220021FBF744F804F11C00032200210A
:1042D000FBF73EF804F1480003220021FBF738F811
:1042E00004F15C0008220021FBF732F804F1200001
:1042F00014220021FBF72CF804F14C0010220021BD
:10430000FBF726F80023A4F86430204610BD00BF58
:1043100082B02DE9F04383B00AAC84E80C000AAB0C
:1043200004460E460FCB04F1380585E80F00A6863B
:10433000284604F13601BDF83860FFF7B7FF0028C2
:1043400059D194F84A3001252B4365F3420304F117
:10435000200784F84A30384614220021FAF7F8FF83
:10436000617F237894F848C094F81CE094F8498061
:10437000258565F3030165F307110DF1080903F0C5
:10438000E50330466177A67F002165F3030C65F3F2
:10439000030E43F0120309F8041D08F0F00865F35A
:1043A000071C65F3071E65F3420604F11C016FF359
:1043B00007183A4604F1480504F1340723704FF416
:1043C00000736161A38584F848C084F81CE0A67777
:1043D00084F84980C4F830902762656204F15C0378
:1043E0002146FFF761FF08B1FBF7F2FC03B0BDE81F
:1043F000F04302B07047FBF7EBFCA2E773DF7047B6
:104400007CDF704738B53C2504462A460021FAF780
:104410009FFF2A4660190021FAF79AFF0023A4F8AB
:104420009030C4F89430204638BD00BF10B584B039
:104430000C46684600211022FAF78AFF00236846DE
:104440001946ADF80A408DF8003001938DF8083018
:10445000ADF80C30FFF7D2FF08B1FBF7B9FC04B0A0
:1044600010BD00BF70B582B001229DF8043002ACCF
:1044700062F3030362F30713064608460D4604F889
:10448000043D01F033F9294682B22046FFF7B8FF18
:1044900018B9C6F8945002B070BDFBF799FC02B091
:1044A00070BD00BFF8B500F17807154604460E460A
:1044B00038460C220021FAF74BFF0A2D19DD142D86
:1044C00028DD0A250A235922C4F88060A4F8782040
:1044D000A4F87C30676238460C220021FAF738FFD6
:1044E0000A3604F18403C4F88C60A4F8885023666B
:1044F00007E05923C4F88060A4F87C506762A4F8F0
:1045000078300623E37004F13C012046FEF756FBA9
:1045100018B9F8BD0A3DEDB2D4E7BDE8F840FBF7A5
:1045200057BC00BF03685A004CBF43F0004323F060
:1045300000431844704700BF61B32DE9F84F01F103
:10454000FF3A90460646D146002707EB090404EBE4
:10455000D4746410E50071190846FFF7E3FFA24523
:10456000834605F10800304409D0FFF7DBFFC3455F
:1045700000F1FF3005D8404509D2671CE5E7C34587
:1045800005D9A74202D004F1FF39DEE70021084631
:10459000BDE8F88F08467047012807D0022807D0E9
:1045A000044B00280CBF1846002070470248704793
:1045B000024870479D4C0200A14C0200A54C02002D
:1045C00030B5244B83B004468D1E7BB301A9284629
:1045D000AFF3008020B301992A46FFF7ADFF0146F3
:1045E000F0B1FFF79FFF4B68A064012B12D0002BA6
:1045F00001F1040020DBFFF795FF0023E064236551
:104600000368002B1CDBFFF78DFF00232061184699
:1046100003B030BD002323610523184603B030BD2D
:10462000002323610923184603B030BD0A490B4813
:10463000091AC9100191CFE70123E0642365DFE780
:10464000C3F30360FFF7A8FF0028206114BF002315
:104650000923DCE700000000E4640200A463020018
:104660000368DA0710B5044606D49B0700F148003A
:1046700009D500F051FC2368590709D51A070ED552
:10468000DB0613D510BD00F03FFC23685907F5D4B5
:1046900004F1D00000F048FC23681A07F0D404F5B8
:1046A000A87000F049FC2368DB06EBD404F5E87041
:1046B000BDE8104000F084BC036803B10344184611
:1046C000704700BF09207047704700BF70B50446AF
:1046D0000D4608E02B6C63612A46236921460120C0
:1046E0009847082808D1296C2046FFF769FF06463D
:1046F0000028EFD000F092FE0728FBD13046296C4D
:10470000FFF7E2FF281D00F0F3FB00BF2DE9F047A3
:104710000C1D054692460FCCADF5727D03AE0FC65B
:104720000FCC0FC60FCC0FC694E80F0002ACD5F823
:104730000C80D5F8189086E80F0000232846216CDD
:104740002360FFF73DFFBAF1000F074614BF0A26AA
:1047500009267FB1A36B46F010018DE810022A46AE
:10476000636401202B46C04778BB38460DF5727D47
:10477000BDE8F087236C6B614FF4F07221467AA894
:1047800000F074FE2B697AAA294630469847889B28
:1047900082468DE81002314663642A462B4601208A
:1047A000C04790B94FF4F0727AA9204600F05EFE3F
:1047B000BAF1080F06D1216C2846FFF701FF092640
:1047C0000746C6E7BAF1070F05D0092738460DF5A9
:1047D000727DBDE8F0873846216CFFF775FF03A8AE
:1047E00000F086FB406C7047F0B5CB6B0B640E1D80
:1047F0000F4604460FCEF9B001AD0FC50FCE0FC561
:104800000FCE0FC596E80F004FF0FF3685E80F007A
:10481000009606E023696A4621469847082805461F
:1048200008D110992046FFF7CBFE0028F2D00920CE
:1048300079B0F0BD6846FFF713FF062DF7D1394672
:104840002046FFF743FF00BF30B4DD6BC1608261DB
:1048500019461D64002230BC58E700BF70B5C66819
:1048600043690B6426B10122FFF750FF00F0D6FD2B
:1048700003690A4604460D46014602209847072868
:1048800007D0082803D129462046FFF71FFF00F074
:10489000C5FD3046296CFFF717FF281D00F028FBE7
:1048A000C2681AB1CA6B0A6400222FE79CE700BFF6
:1048B000704700BF836813B1014601201847704755
:1048C00000B5042907D8DFE801F00309060909004B
:1048D0000BB90F2A05D902205DF804FB01205DF811
:1048E00004FB00EB820218465368019A13605DF8DE
:1048F00004FB00BF10B584B0002303AC0A4600944B
:104900001946FFF7DDFF039804B010BD00B5042978
:1049100007D8DFE801F00309060909000BB90F2ADF
:1049200005D902205DF804FB01205DF804FB019924
:1049300000EB82020968516018465DF804FB00BF75
:1049400010B584B004AC002344F8042D0A4600944A
:104950001946FFF7DBFF04B010BD00BFF0B5D36B05
:104960001364151D07460E460FCDADF50F7D17AC30
:104970000FC40FCD0FC40FCD0FC495E80F004FF03B
:10498000FF3584E80F00169510E016A8FFF7D8FF52
:10499000314616A8B84716AA694678B9049B08207C
:1049A0009847052804460AD0092807D02699684662
:1049B000FFF706FE6A460C210028E6D0092416A857
:1049C000FFF74EFE20460DF50F7DF0BD2DE9F04FAF
:1049D0000D46C96C8BB00C1D09680791914608946F
:1049E00000F0030B1E46002B60D109020323079140
:1049F0008DF825608DF824302B6DBBF1020F08BFB8
:104A0000AC6B13F0010340D1019300F00803039352
:104A1000D4F80080B8F1000F39D0022E43D0B4F89A
:104A2000008067880434AB6C27F0010A0F214846E8
:104A30009A44FFF75FFF824533D828F001039A4478
:104A400050452CBF002001207F0007F0020708F02E
:104A5000010847EA0807012F3ED035D3022F1CD1A9
:104A6000236823F000420292BBF1000F76D128B1F7
:104A7000039900297ED0002A00F0A680002B77DB66
:104A8000029B013304EB8304C2E700230193022E4F
:104A90003EDDFFF717FE002840D009200BB0BDE82F
:104AA000F08F0020D0E767680834BCE7022BA3DC56
:104AB0000B0CDAB209048DF82530022304EB8204D2
:104AC00007918DF8243097E7BBF1000F02D0002842
