:020000022000DC
:103000000000012099950200C1950200C3950200BD
:10301000C5950200C7950200C99502000000000096
:10302000000000000000000000000000CB9502003E
:10303000CD95020000000000CF950200D19502005E
:10304000D3950200D3950200258D0200199002004D
:10305000D3950200D395020039820200D395020075
:10306000D3950200D3950200D3950200D3950200B8
:10307000D3950200D3950200D3950200D3950200A8
:10308000D3950200253F0200D3950200D39502009C
:10309000C53F0200D39502004D9B0200D39502006C
:1030A000D3950200D3950200D3950200D395020078
:1030B000D3950200D395020000000000000000003C
:1030C000D3950200D3950200D3950200D395020058
:1030D000D3950200D3950200D395020000000000B2
:1030E00000000000000000000000000000000000E0
:1030F00000000000000000000000000000000000D0
:1031000000000000000000000000000000000000BF
:1031100000000000000000000000000000000000AF
:10312000000000000000000000000000000000009F
:10313000000000000000000000000000000000008F
:10314000000000000000000000000000000000007F
:10315000000000000000000000000000000000006F
:10316000000000000000000000000000000000005F
:10317000000000000000000000000000000000004F
:10318000000000000000000000000000000000003F
:10319000000000000000000000000000000000002F
:1031A000000000000000000000000000000000001F
:1031B000000000000000000000000000000000000F
:1031C00000000000000000000000000000000000FF
:1031D00000000000000000000000000000000000EF
:1031E00000000000000000000000000000000000DF
:1031F00000000000000000000000000000000000CF
:1032000010B5054C237833B9044B13B10448AFF320
:1032100000800123237010BD242400200000000042
:10322000D4EA02000C4B43B10C480D4910B5AFF382
:1032300000800C48036823B910BD0A48036833B9FD
:103240007047094B002BF7D0BDE810401847064BDC
:10325000002BF5D0184700BF00000000D4EA0200A0
:10326000282400205023002000000000154B002BD4
:1032700008BF134B9D46A3F5803A00218B460F46AD
:103280001348144A121A07F038FF0F4B002B00D0D6
:1032900098470E4B002B00D09847002000210400D7
:1032A0000D000D48002802D00C48AFF3008007F055
:1032B000B7FE2000290006F0B9FE07F09DFE00BF12
:1032C00000000800000001200000000000000000D5
:1032D00024240020C861002000000000000000003D
:1032E000064B8B6004284FF00003CB604B609CBF03
:1032F000034B53F820300B60704700BF64CC0200D2
:1033000088CC0200C36800225A727047C368012249
:103310005A7270470129034604D0816891F83D1123
:10332000890704D500221846114604F091BA00B569
:1033300083B013685168054A019100920221044A42
:1033400003F0B6FF03B05DF804FB00BF20CB020022
:1033500014CB020070B4114D114E124A8A60AD1B9D
:103360000023ED08CB604B600DD00F4A5488A0427B
:1033700005D111E0D489A04202F10C0206D001333C
:103380009D42F7D100250D6070BC704706EBC3036A
:103390001D680D6070BC70473346F9E7D8EB02003A
:1033A00080EB020064CC0200A02300202DE9F04F46
:1033B000C3683B4DDFF80C815A7A1C7AA5EB0805EF
:1033C00087B00746ED08002A64D0364A364B0821FC
:1033D000384603F06DFF354A0821384603F068FF90
:1033E000002D3ED0324ADFF8E0A0DFF8E09004EB99
:1033F000440305EB4506059302EB860600242C4B9F
:103400001A4651888C4232D00C329642F9D1CC46C1
:10341000274900224888A04201F10C012FD0013237
:103420009542F7D100208646CB46002259888C422F
:1034300003F10C0318D001329542F7D100231D4A45
:103440001D49CDF804B0864588BF11460291CDF8DC
:1034500000C00134194A0821384603F029FFAC4264
:10346000CDD107B0BDE8F08F58F83230E7E7926869
:103470000599CA4002F007025AF822C0C8E708EBD3
:10348000C20292F806E07046032828BF03205AF8CB
:1034900020B0CAE70A4A022103F00AFF95E700BFFD
:1034A000D8EB0200FCCB0200F0CB02001CCC0200E7
:1034B000A0230020D8CB020018CC02004CCC020084
:1034C000DCCB020080EB020074CC0200D0CB020007
:1034D00001B970472DE9F04F85B0C36801910D46E1
:1034E00091468246834910681C7A072207F01FFE26
:1034F000002840F0E080012D00F0F0807E4E05466F
:103500000A2256F8041BD9F8040007F010FE60B137
:103510000135052DF4D1D9F80430784A50460221FE
:1035200005B0BDE8F04F03F0C3BEEBB20093019BC2
:10353000022B2AD1724E734B9B1BDB0822D00099C1
:10354000714DDFF8C8B104EB44024FF0070909FAE6
:1035500002F901F0070806EBC3076FEA090908FA48
:1035600002F8B379009CA3425A464FF0020150463C
:1035700080F0818056F8083B03F09AFEBE4205F1C8
:103580000C05EED105B0BDE8F08FFBD9009A4FF0E5
:10359000020B5C4B5A4E04EB44040721A140A3EB01
:1035A000060802F00702CB4302931346A34009EB3F
:1035B0008B0903934FEAD808D9F80070B8F1000FCF
:1035C00000F089803546002404E00134444505F1CB
:1035D00008051DD02022394656F8340007F0A7FD13
:1035E0000028F2D1A04515D0AB79009A93421DD2A4
:1035F0002B68464A0221504603F05AFE019B0BF10C
:10360000010B5B4509F10409D6D105B0BDE8F08F87
:103610003B4D0024D9F800703D4A3B4602215046FC
:1036200003F046FEAB79009A9342E1D3364B029AFF
:1036300004EB440403EB84040BF1010BA368134077
:10364000039A1343C3F3C202C3F382118A4238BF01
:103650000A4603F007018A4238BF0A46A360C3F353
:103660004221019B8A4238BF0A465B4509F10409A1
:103670006260A1D186E7AB6809EA030343EA080365
:10368000C3F3C202C3F382118A4238BF0A4603F071
:1036900007018A4238BF0A46C3F342218A4206F133
:1036A000080638BF0A46B742AB606A6005F10C05F0
:1036B0007FF457AF66E708221649D9F8000007F0F3
:1036C00036FD98B9019B0090012B3FF433AF4FF0CA
:1036D000010B02465DE74446094D9DE70E4A504600
:1036E000022105B0BDE8F04F03F0E2BDD9F800308B
:1036F0000A4A13E738CB020074CC02008CCB0200DC
:1037000080EB0200D8EB0200A0230020ACCB02002B
:1037100078CB020058CB020040CB020060CB020005
:103720002DE9F04F8B4C94E80C009A4285B03CD0C8
:103730000023C4F81834BFF34F8F6068A56800EA0F
:103740000506F31C04EB830114F823309F0702469F
:1037500010D10B884988C3F3891303EB911301330C
:103760001A4405EA0206F31C04EB830114F8233023
:103770009B07EED004EB8606531C2B40F66801969F
:1037800004EB8303F6B2DB68029306F00303022B1B
:1037900002F102090DD0012B00F085802368181A70
:1037A00018BF012005B0BDE8F08F002005B0BDE8CE
:1037B000F08FBDF806306848C3F3891ABAF1500F8C
:1037C000D046A8BF4FF0500868F38F1308F10801E6
:1037D000ADF8063002F048FEC6F3C20607460028E0
:1037E0005FD025EA090B0BF1010B02F085FE4FEAD1
:1037F0008B0B0023082201A9384602F0B5FED845FC
:1038000040F29B80BBF1000F00F0908005EA0901B7
:103810000331A8EB0B0504EB810108235A46384617
:10382000EDB202F0A1FE2A460BF108034B493846DF
:1038300002F09AFE0AF1030809EB9808D4F818344C
:10384000002B6ED1D4F81054CDB1DFF814916B7AFF
:1038500093B1029B2A7A03EB430309EB830302EB48
:1038600042029B68D34003F00703B342394628461F
:1038700002D32B681B6898476D68002DE7D1384646
:1038800002F04AFE04A8002300F80D3D01F018F8EC
:10389000D4F818340BB9C4F804809DF8030001F083
:1038A00035F860687AE7BDF804602B48C6F38313E7
:1038B000062B28BF0623991C63F389168900ADF8EF
:1038C000046002F0D1FDC6F3C20607460028E8D026
:1038D00002F012FE0023082201A9384602F044FE3D
:1038E000BDF8043013F4707F32D04FF0000B4FF06E
:1038F000080A05EA09010331534604EB8101042259
:10390000384602F031FEBDF804300BF1010BC3F371
:10391000831309F101085B450AF1040AC146E8D89E
:103920008CE7384602F0F8FD606837E74246082326
:103930000A49384602F018FE7CE705EA090103311E
:1039400004EB810142460823384602F00DFE71E780
:10395000C84673E74024002004CD02004C24002018
:10396000A02300202DE9F04F87B006AB0025574C6F
:1039700003F80D5D80461846A3680093019100F09E
:103980009FFFA0686768D4F80090C3190133A3EBC8
:103990000903032B5BD800F1010AAE46AAEB090A22
:1039A00004F5836C04F2144601255CE8003F43EA09
:1039B00005024CE8002191F0000FF6D156E8003FD7
:1039C00043EA050246E8002191F0000FF6D100EA33
:1039D000070B0BF1030304EB830114F823309B075F
:1039E0003A4611D10B884988C3F3891303EB91132D
:1039F00001331A4400EA020B0BF1030304EB8301C9
:103A000014F823309B07EDD004EB8B0B0232DBF86C
:103A10000C30039303F00303012B50D0022B06D18B
:103A2000BDF80E30C3F38913033302EB930256E85B
:103A3000003F03EA0E0146E8001B9BF0000FF6D1A1
:103A40000BB1626017460AEB0703032BADD909F1EE
:103A500002039DF80B00236000F058FF009800EA75
:103A600009030333012114F8232061F30102C8F391
:103A7000001161F3820268F3C50204F8232034F8D0
:103A8000232001996FF3891224F8232054F823206E
:103A900061F39F2244F8232009F1010909EA000398
:103AA00004EB830394F81C244FEA1841D9601AB13F
:103AB000FFF736FE0028FBD107B0BDE8F08FBDF858
:103AC0000C30C3F383131A44B1E700BF4024002035
:103AD0002DE9F04F89B008AB002503F80D5D5B4C74
:103AE0000291074618460392D4F8089000F0E8FEC9
:103AF00094E80041A06800EB0E030133A3EB080338
:103B0000042B5ED800F1010AAC46AAEB080A04F2C5
:103B10001446012501974E4F57E8003F43EA05023E
:103B200047E8002191F0000FF6D156E8003F43EA44
:103B3000050246E8002191F0000FF6D100EA0E0BD5
:103B40000BF1030304EB830114F823309F07724643
:103B500013D1019F0B884988C3F3891303EB911399
:103B600001331A4400EA020B0BF1030304EB830157
:103B700014F823309B07EDD0019704EB8B0B023236
:103B8000DBF80C30059303F00303012B58D0022B14
:103B900006D1BDF81630C3F38913033302EB930249
:103BA00056E8003F03EA0C0146E8001B9BF0000FBB
:103BB000F6D10BB1626096460AEB0E03042BAAD92C
:103BC000019F9DF8130008F10303236000F09EFE9F
:103BD00009EA08030333012114F82320C7F3001076
:103BE00061F3010260F3820267F3C50204F8232047
:103BF00034F8232061F3891224F82320029954F821
:103C0000232061F39F2244F8232008F1010303EAF3
:103C1000090308F1020804EB830308EA090904EB2D
:103C200089093F0C94F81C24DF60039BC9F80C3011
:103C30001AB1FFF775FD0028FBD109B0BDE8F08F80
:103C4000BDF81430C3F383131A44A9E740240020BD
:103C5000582800202DE9F04F89B008AE002506F85D
:103C60000D5D5F4C00903046039301910292D4F8B1
:103C7000089000F025FEA0686768D4F80080C3199A
:103C80000133A3EB0803052B5BD800F1010AAE4614
:103C9000AAEB080A04F5836C04F2144601255CE8DB
:103CA000003F43EA05024CE8002191F0000FF6D1F5
:103CB00056E8003F43EA050246E8002191F0000F74
:103CC000F6D107EA000B0BF1030304EB830114F8B0
:103CD00023309B073A4611D10B884988C3F38913D7
:103CE00003EB911301331A4400EA020B0BF10303B7
:103CF00004EB830114F823309B07EDD004EB8B0B0E
:103D00000232DBF80C30059303F00303012B60D083
:103D1000022B06D1BDF81630C3F38913033302EB2F
:103D2000930256E8003F03EA0E0146E8001B9BF0B1
:103D3000000FF6D10BB1626017460AEB0703052BA3
:103D4000ADD908F104039DF81300236000F0DEFDF7
:103D500009EA08030333009D14F82320012161F3CD
:103D60000102C5F3001161F3820265F3C50204F894
:103D7000232034F82320022161F3891224F8232020
:103D8000019954F8232061F39F2244F8232008F17D
:103D9000010208F1020302EA090204EB820203EACB
:103DA000090308F1030804EB830308EA0909280C56
:103DB000D06094F81C14029ADA6004EB8904039B27
:103DC000E36019B1FFF7ACFC0028FBD109B0BDE8F6
:103DD000F08FBDF81430C3F383131A44A1E700BF7A
:103DE0004024002038B5084BD3F81044012583F84F
:103DF0001C543CB12368657220465B689847646830
:103E0000002CF7D138BD00BF4024002000B585B09C
:103E100000230390194601AA44F20100ADF80430D2
:103E2000029300F003F805B05DF804FB10B5FFF74E
:103E3000D9FFFFF775FC0028FBD1154C636883B9E7
:103E4000144B1B68DB0722D4BFF34F8F1249134B6F
:103E5000CA6802F4E0621343CB60BFF34F8F00BF28
:103E6000FDE720880E49000440F00100FFF77AFDCD
:103E7000084B1B68DA070AD46368012BE4D9208851
:103E80000849000440F00200FFF76CFDDCE7FFDEAC
:103E9000A0230020F0ED00E000ED00E00400FA05B2
:103EA000A4CE0200B0CE020059B10AB90920704771
:103EB000531E1A40FAD1826001608380C2601046AE
:103EC00070470E20704700BF10B48468C268034674
:103ED0008088121B904203D204205DF8044B704787
:103EE000DA681C6802400020A154DA680132DA6006
:103EF0005DF8044B704700BF03468068DA68904263
:103F00000DD010B498689A881C6802400020A25C0A
:103F10000A709A6801329A605DF8044B7047052078
:103F2000704700BFF8B5204A204B0025C2F8405129
:103F3000C2F84451C2F84851C2F84C51C2F800517D
:103F4000C2F804511B6813B31949D2F804450A6832
:103F5000A41A1A6824F07F44A2422F4609D8197C7B
:103F6000DE69A41A154499B91EB133461A68A242F3
:103F7000F5D91049104A0B7812789A420DD00F49A2
:103F80000F4A41F823504FF48013C2F80031F8BDB6
:103F90001F745A6998699047E6E7531CDBB2022BFD
:103FA00008BF00230B70EAE700100140502A0020F0
:103FB0004C2A0020492A0020482A0020402A0020BC
:103FC00000E100E02DE9F04F7D4A7E491378097841
:103FD00099428BB03BD00133DBB27B490491022B79
:103FE0000D687A49069108BF00231370784A084685
:103FF00052F82310D0F80090049A6B18002423F094
:104000007F434E46AC461360204627462546AEB158
:1040100033688B4200F2ED81F4683760C91A1844A6
:10402000F3693CB10CEB000E2EF07F42F561B460F9
:10403000726035461E460124002EE9D12A46B1465B
:10404000002C40F0DB8201230793069B07E05F4BC7
:104050005D4A0492D3F80090069300220792D3F8A9
:1040600000A05C4BDFF874C11B780593049B1868B3
:1040700000234946CE460893D146099303934FF057
:10408000010B17469A46804637B37C68BD683B46AD
:10409000FF695148A4EB080222F07F42824258D8BF
:1040A00015441D60002283F810B05A609A60DA61EE
:1040B00000296ED00868854263D90C4603E0106879
:1040C000A8424FD21446E2692D1A002AF7D11D608A
:1040D000DA61E361002FD8D10297CDF804E09CF8B3
:1040E00001709CF800200025974200F08680104661
:1040F00000EB40000CEBC000541C9CF80230E2B214
:1041000004798CF80020934204BF8CF80050002200
:10411000022C83684ED0032C40D0012CE4D11E7CAD
:10412000002EE1D1C4685C6005699D604269DA6077
:1041300082699A61059A029FDDF804E0002AA8D0FE
:104140003446A4EB080224485E6022F07F4282429B
:10415000A6D9A8EB040424F07F44AC4208D22D1B5E
:104160001D609FE7401B10601D60DA61E361B1E7ED
:10417000002583F810B01D605D609D60DD6141B178
:104180000868451B0D609946D9614FF0010A194630
:104190007AE7994619464FF0010A75E70029A3D03E
:1041A0000022CB690A741946002BFAD199464FF0C8
:1041B000010A94E7D9B19942084615D110E100BF30
:1041C000482A0020492A00204C2A0020502A00209A
:1041D000402A00203C2A0020FEFF7F0030290020DA
:1041E000A34200F0E8802046C469002CF8D10E46B6
:1041F00097421D7431467FF47AAF4046D046CA4696
:10420000DDF80490B8F1000F40F0F481099B002B19
:1042100040F0ED81089B1BB17B4B9DF814201A7078
:10422000039B13B9494500F04C81002900F04E81F1
:10423000764C049BD4F804051B68754D0F682978EB
:10424000C21A22F07F420332002951D17149DFF8AE
:10425000C8C1DFF8C8E14FF48036C4F84463C4F83D
:1042600004634FF40036C1F880610E6001262660B9
:104270002F21DCF8004000BF00BF00BF00BF00BF1F
:1042800000BF00BF00BF74452FD000BF00BF00BFFC
:1042900000BF00BF00BF00BF00BF00BF00BF00BF26
:1042A00000BF00BF00BF00BF00BF00BF00BF00BF16
:1042B00000BF00BF00BF00BF00BF00BF00BF00BF06
:1042C00000BF00BF00BF00BF00BF00BF00BF00BFF6
:1042D00000BF00BF00BF00BF00BF00BF00BF00BFE6
:1042E00000BF00BF00BF00BF00BF0139C3D12E70A7
:1042F00097422CBFDB199B18444923F07F43C1F838
:104300004035D1F80425121A1B1A22F07F4223F0FF
:104310007F4303329A4248D9D1F804353E4AC1F866
:10432000403512683D492F2300BF00BF00BF00BFCA
:1043300000BF00BF00BF00BF8A422FD000BF00BF38
:1043400000BF00BF00BF00BF00BF00BF00BF00BF75
:1043500000BF00BF00BF00BF00BF00BF00BF00BF65
:1043600000BF00BF00BF00BF00BF00BF00BF00BF55
:1043700000BF00BF00BF00BF00BF00BF00BF00BF45
:1043800000BF00BF00BF00BF00BF00BF00BF00BF35
:1043900000BF00BF00BF00BF00BF00BF013BC3D1D3
:1043A0001C4B4FF40032C3F80021174A002313704E
:1043B0000BB0BDE8F08F834212D00E46DC69D3F813
:1043C00000E0C46134B12268724422609CF800208D
:1043D0009CF801700398B14218BF0120039007E7D1
:1043E000D1F81C90B9F1000F1AD04E464FF0010AD7
:1043F000E4E72A46B146002C60D15B1AC9F80030C8
:1044000001230793069B2AE63C2A00200010014066
:104410003D2A002000E100E0082100200024F400F3
:10442000784E794CC6F808B0784E4FF02F0E3668AB
:1044300000BF00BF00BF00BF00BF00BF00BF00BF84
:10444000A6422FD000BF00BF00BF00BF00BF00BF0B
:1044500000BF00BF00BF00BF00BF00BF00BF00BF64
:1044600000BF00BF00BF00BF00BF00BF00BF00BF54
:1044700000BF00BF00BF00BF00BF00BF00BF00BF44
:1044800000BF00BF00BF00BF00BF00BF00BF00BF34
:1044900000BF00BF00BF00BF00BF00BF00BF00BF24
:1044A00000BF00BFBEF1010EC2D1012634460896FE
:1044B000C8464E4605940994A2467FE706980660D2
:1044C0009BE7079B002B3FF470AFAEE64D4A504B85
:1044D0004E4E4D4C4FF480304FF400370125C3F859
:1044E0008070C2F848032F23C2F808035560306873
:1044F0001E4600BF00BF00BF00BF00BF00BF00BF1F
:1045000000BFA0422FD000BF00BF00BF00BF00BF50
:1045100000BF00BF00BF00BF00BF00BF00BF00BFA3
:1045200000BF00BF00BF00BF00BF00BF00BF00BF93
:1045300000BF00BF00BF00BF00BF00BF00BF00BF83
:1045400000BF00BF00BF00BF00BF00BF00BF00BF73
:1045500000BF00BF00BF00BF00BF00BF00BF00BF63
:1045600000BF00BF00BF013EC3D19560049A116037
:1045700000BF00BF00BF00BF00BF00BF00BF00BF43
:10458000A0422FD000BF00BF00BF00BF00BF00BFD0
:1045900000BF00BF00BF00BF00BF00BF00BF00BF23
:1045A00000BF00BF00BF00BF00BF00BF00BF00BF13
:1045B00000BF00BF00BF00BF00BF00BF00BF00BF03
:1045C00000BF00BF00BF00BF00BF00BF00BF00BFF3
:1045D00000BF00BF00BF00BF00BF00BF00BF00BFE3
:1045E00000BF00BF013BC3D10A4B1970DDE6049B3D
:1045F00018600FE6069BC3F800A007E6069B1E6046
:1046000021E500BF001001400024F4000821002033
:1046100000E100E03D2A0020F0B4564B564A574EC8
:10462000574C4FF480304FF400310125C2F8801010
:10463000C3F848032F21C3F808035D6030680E46B5
:1046400000BF00BF00BF00BF00BF00BF00BF00BF72
:10465000A0422FD000BF00BF00BF00BF00BF00BFFF
:1046600000BF00BF00BF00BF00BF00BF00BF00BF52
:1046700000BF00BF00BF00BF00BF00BF00BF00BF42
:1046800000BF00BF00BF00BF00BF00BF00BF00BF32
:1046900000BF00BF00BF00BF00BF00BF00BF00BF22
:1046A00000BF00BF00BF00BF00BF00BF00BF00BF12
:1046B00000BF00BF013EC3D19D6000BF00BF00BF6F
:1046C00000BF00BF00BF00BF00BFA0422FD000BF8F
:1046D00000BF00BF00BF00BF00BF00BF00BF00BFE2
:1046E00000BF00BF00BF00BF00BF00BF00BF00BFD2
:1046F00000BF00BF00BF00BF00BF00BF00BF00BFC2
:1047000000BF00BF00BF00BF00BF00BF00BF00BFB1
:1047100000BF00BF00BF00BF00BF00BF00BF00BFA1
:1047200000BF00BF00BF00BF00BF00BF00BF013916
:10473000C3D1144E144D154C1549164F002030703E
:10474000286020704FF48015E0240B260870487014
:104750008E7038701049C2F8805182F81443156089
:10476000C3F8080582F81143D3F804350B60F0BC98
:10477000704700BF0010014000E100E00821002068
:104780000024F4003D2A0020502A0020482A00205E
:1047900030290020492A00204C2A00202DE9F0432E
:1047A000264CA37883B01BB9082003B0BDE8F08382
:1047B0000028F9D0042903D8072003B0BDE8F0830E
:1047C0004369002BF0D0064602A8737C0025012B1C
:1047D00000F8015D0CBF8946A94690460F4600F0DF
:1047E0006FF86378A07821785A1CD2B2904208BF43
:1047F0002A4691421BD003EB430304EBC303012081
:104800000F4918719E60D1F804159DF80700D96012
:104810001F61C3F81490C3F81880627000F076F836
:10482000084B4FF480122846C3F80021BDE79DF8DD
:10483000070000F06BF80420B7E700BF3029002024
:104840000010014000E100E070B51B4CA37882B07D
:1048500013B9082002B070BD0028FAD04369002BBC
:10486000F7D0064602A8002500F8015D357400F077
:1048700027F86278A0782178531CDBB2984208BFF1
:104880002B46994212D002EB420204EBC2020221F3
:104890009DF8070096601171637000F037F8074BC0
:1048A0004FF480122846C3F80021D3E79DF8070093
:1048B00000F02CF80420CDE73029002000E100E0D2
:1048C00070B4EFF3108472B60D4B9A68AAB90D4913
:1048D0000D4E01259D60D1F8805035401D60C1F816
:1048E0008060D1F884505D604FF0FF33C1F88430B0
:1048F000027004B962B670BC704701230370F8E718
:10490000B861002000E100E0FC06FFBD094B9A6899
:1049100072B168B910B4EFF3108272B606491C6820
:104920000C605C684C60986002B962B65DF8044B3C
:10493000704700BFB861002000E100E0BAB1138801
:1049400099B10246014412F8010B5BBA9BB2434095
:10495000C3F30310434083EA03331BB2580100F44E
:10496000FF5043408A429BB2EDD1184670474FF644
:10497000FF73E5E7033080B240F2FD33984201D97E
:104980000920704730B4134B1C783CB95A891D89F3
:104990002A44024492B2B2F5806F0FD31A7D12B14D
:1049A000072030BC70479A8BDC8B2244024492B2C1
:1049B000B2F5806FF4D20124254600E02546AA0016
:1049C0002A4403EB82030C805A891044588100204A
:1049D000E7E700BF942A0020F0B5344C344D6788D7
:1049E0006268BE00F31905EB830383B0596801F5D3
:1049F0008050002A56D05388033302EB8302904242
:104A000034D91368013331D05388033302EB830365
:104A100098422BD34FF6FF7CB2F804E0E64517D05E
:104A2000B2F800E0BEF1000F12D062605388214D51
:104A30002148AE882968033300259BB200959B006E
:104A400001EB86010325257001F074FA03B0F0BD77
:104A500098420BD91A6801321A4607D0B3F802E01F
:104A60000EF1030E03EB8E039842D5D2F31905EB3A
:104A70008303DB686BB10F4D0F48296802270526B9
:104A800000230122AF80267003B0BDE8F04001F0A2
:104A900089BA094804250122257003B0BDE8F04019
:104AA00001F080BA01F10802A9E700BF782A0020CE
:104AB000942A00205C2B00208C2300202DE9F0415B
:104AC000436888464BB13B4AD468A34205D3126978
:104AD000934202D813F003054DD00023DFF8DCC069
:104AE000A8F800304FF0010E4FF6FF76DCF80470A6
:104AF000002207F580540837002A3AD05388033340
:104B000002EB83039C420DD80EF10103A8F800E0EC
:104B10001FFA83FEBEF1030F0CF1140CE6D1002046
:104B2000BDE8F0811A680132EED05A88033203EBF7
:104B300082029442E8D39D88B5420DD01D885DB1B4
:104B40009D6801688D421A46D6D11B4A436013897D
:104B500003810120BDE8F081A242D5D21368013360
:104B60001346D1D05588033502EB8502A242CBD83B
:104B7000E1E73B46C6E7104A048912899442ACD16A
:104B800004689A689442A8D10C484268934203D9B9
:104B900002F58052934207D382699342BFD902F54E
:104BA00080529342BBD20125A8F800500120BDE8F5
:104BB000F08100BF8C230020782A0020942A002056
:104BC0002DE9F04FDFF8F88289B007464FF6FF79FC
:104BD000D8F80040002C00F011812278531E052BDC
:104BE00000F2CB83DFE803F03845451A1A03002FA3
:104BF00040F0BD80A84C237B002B00F0D7812378A8
:104C00002773013B062B00F2B883DFE813F085021F
:104C1000CB0175015D01B6037202B401002F40F0B3
:104C2000A6802379012B00F0EF8103ADC0F0D6817F
:104C3000022B40F0748328461422002106F05DFA0E
:104C4000D8F8002004971378013B052B2FD8DFE814
:104C500003F05F506F63832B002F40F0AD8023790A
:104C6000032B00F2C080DFE813F00801F000B2006F
:104C7000D100A58A002F40F08280AE00DFF844A268
:104C8000A07D73190AEB830319895F6807EB81071D
:104C9000062800F27083DFE810F0430106021802D4
:104CA000C401D601EA01030205238DF80C307B4CC8
:104CB00004F1100654F8043B284603B19847A64275
:104CC000F8D1002376497748C8F8003001F07AFF20
:104CD000754B012253E8000FA0EB020143E80014DA
:104CE00094F0000FF6D100297FF472AF09B0BDE84F
:104CF000F08F01238DF80C301389ADF818309388AC
:104D0000ADF81A30D368059300238DF81C30CEE738
:104D100000238DF80C30CAE703238DF80C30D388BC
:104D2000ADF818301389ADF81A30D3680593BEE793
:104D300002238DF80C301389ADF818309388ADF844
:104D40001A30D3680593937DA3F10603B3FA83F376
:104D50005B098DF81C30AAE704238DF80C30D3884A
:104D6000ADF818300023ADF81A3005939FE703AD76
:104D700028461422002106F0C0F9012760E7DFF879
:104D800044A1E38805EB85050AEB850AC3F57F425C
:104D9000BAF80810BAF80A40FD3203330B44144441
:104DA00003AD28461422AAF808300021AAF80A40C8
:104DB000012706F0A2F943E700233C4C03AD194656
:104DC000284614226360012706F097F938E7384D2A
:104DD000384829680023237101220224AC8001F0A5
:104DE000E1F8002882D00023304C03AD1946284654
:104DF000142263600E2706F080F921E7284929482C
:104E000001F0B0FE0446C8F80000E6E6284D2A4A44
:104E100029682848DFF8ACA00026267108230096F0
:104E200001F088F81C4B2C685B88A98803EB83038E
:104E30000AEB83020AF8236053682B600223546054
:104E40001181AB800028CED150E7DFF878A09AF826
:104E50000030022B00F07A829AF81430022B00F016
:104E60008882124B03AD012200211A7028461422B9
:104E700059600F4606F041F9E2E60D4B0F4A1968FA
:104E80000C480123002523710823009501F052F8F6
:104E90000028A8D12AE700BF782A0020602A002035
:104EA000882A0020482B0020582B0020702A002040
:104EB0005C2B00208C230020C4CE0200CCCE02004C
:104EC000902A0020942A00206388DFF808A303EBCF
:104ED00083030AEB8305EB68002B00F04481B44B9D
:104EE000B448196802229A80052500230122257002
:104EF00001F058F8074611E06268AD48538885888C
:104F00000168AC4801EB85010333002500959BB295
:104F100003259B00257001F00DF80746FFB9E5E673
:104F200002230022A375042300923946E218A14807
:104F300001F000F800283FF4D9AE73190AEB83039F
:104F40000E271989E28835440AEB8505C2F57F43AF
:104F500068890332FD331144034429816B8103AD19
:104F600028461422002106F0C8F841F61D539F423E
:104F700008BF002764E68E4B8F4A19688D480023CE
:104F80000725009363602570082300F0D3FF0746D0
:104F9000C4E7874A61689388498803330B44022138
:104FA00093802170FFF718FD0746B7E72378072B9A
:104FB00000F2238101A252F823F000BF79510200D0
:104FC000FB510200FB510200934F0200D951020035
:104FD000774F0200774F0200A7510200022323718E
:104FE00003976F60AF60E368039328460DF10A01F1
:104FF000FFF764FD002840F07681394614222846E8
:1050000006F07BF80A271BE66C4B1B78002B40F060
:105010000981394608226A4806F06FF8022703AD75
:1050200009E6E388226963484FF0010E07F10C019D
:10503000002784F816E09B00009700F07BFF002813
:105040007FF47BAF52E65F4BA2691A6018460022DC
:105050005D495A60FFF732FD00287FF461AF03AD70
:1050600001461422284606F048F80A27E8E5564B80
:10507000544A1F8851684F48544A00234FF0060E87
:1050800084F816E00093042300F054FF00287FF416
:1050900054AF07EB87070AEB870501232B7425E63E
:1050A00041F61D574EE7032A14BF062305230022AD
:1050B000A375391D0092042304F108023D4800F055
:1050C00039FF00287FF439AF10E623693948002BF7
:1050D0000CBF012303230022A37507F108010092EE
:1050E000042304F10C0200F025FF00287FF425AF13
:1050F000FCE56588DFF8DCA0AB002B440AEB8305F8
:1051000000236968324A0093062508232948257040
:1051100000F010FF074601E7A37A5BB1DFF8B4A007
:10512000DAF80C300022A27223B99AF81020002A73
:1051300040F00781E37A5BB1DFF898A0DAF820301D
:105140000022E27223B99AF82430002B40F0F88054
:1051500003AD0021284614222170618061600F4652
:1051600005F0CBFF6CE56968124804250122257023
:1051700000F018FF0746D1E6DFF858A021899AF819
:1051800000309AF81420B3FA83F3B2FA82F20020C6
:105190005B09520901310125A372E272218160800D
:1051A00020732570B9E701232370A37AB5E700BF08
:1051B0005C2B00208C230020CCCE0200702A002023
:1051C0006C2B0020542A0020682B0020C0CE020047
:1051D000C4CE0200942A00206588DFF8C0A16B4885
:1051E000AB005A190AEB8202016857688688516041
:1051F00002210760168181807FE7013B062B00F2C8
:10520000BC8001A252F823F019510200A54F020000
:10521000F94E0200C94E02007B530200F350020017
:10522000774F02005A4EB588012D0ED8DFF86CA1D9
:1052300005EB85000AEB800003789BB10135ADB228
:10524000022DB58000F11400F6D10822002150484B
:1052500003AD05F052FF28461422002105F04DFF52
:105260000027EDE44168336801F5805201F1080E32
:10527000002B63D05988033103EB8101914201D3A4
:105280003760DBE70B680133FAD04B88033301EB5F
:1052900083039342F4D8B1F804C0CC4514D0B1F8DC
:1052A00000B0BBF1000F0FD0B4F806B03160E34599
:1052B0000B46DDD100230093364A3748042300F023
:1052C00039FE28B30E27AAE69342D9D219680131D4
:1052D0001946D5D0B3F802C00CF1030C03EB8C03D4
:1052E0009342CDD8D7E704992A4A8B88E3800B886C
:1052F0002381294800970423BDF80A4000F01AFED4
:10530000A0B139461422284605F0F7FE0E2797E48F
:1053100005EB85050AEB850501232B74E6E4394688
:105320002846142205F0E9FE0F2789E41B4B04EB05
:10533000840403EB840401232374D7E471469DE7BE
:1053400001236380FFF748FB0746E7E50023980049
:1053500018440AEB800300245968114A009408237A
:105360000AF820400C4800F0E5FD00287FF43BAD32
:10537000BCE40123EBE70F27E4E503AD2846142244
:10538000002105F0BAFE0F275AE400BF5C2B002075
:105390006C2B0020C0CE02008C230020942A002019
:1053A000C4CE02004068FFF70BBC00BF0C4B1A686C
:1053B000042A12D010B40B491C68012241F82400C1
:1053C00053E8001F01EB020043E8000494F0000FD3
:1053D000F6D100205DF8044B70470C20704700BFE9
:1053E000642B0020602A00202DE9F04FA24E327875
:1053F0008BB0002302F0FF01009106930593079301
:105400000893099372B19D4C04F1100554F8043BC4
:1054100005A803B19847A542F8D1002738460BB03C
:10542000BDE8F08F331D012253E8005F45EA020119
:1054300043E8001090F0000FF6D1002DEDD14FF0B1
:1054400010234FF080525B69116952698C4C581CD3
:1054500008BF02FB01F323618A49A3F540532046AC
:105460000022E36000F05EFD07460028D6D11C2331
:105470008C2285498548DFF8288201F0FBFAE36831
:10548000DFF820C2039703F5405201920322A3F1F3
:10549000040A0292BB46AE4623B1DAF804207C49E6
:1054A0008A421FD003F6FC70524602E0904200F0A0
:1054B000268152F8041F0131F8D002987549441E24
:1054C0000BEB8B02A4B201EB82010294714C4B6096
:1054D00003200BF1010B04F822001FFA8BFB03F5EC
:1054E00080505CE05A686C498A422FD001318A4270
:1054F000D8D1009A82B1674A664D0BEB8B0402EB60
:10550000840102200BF1010BDCF8002005F82400D7
:105510001FFA8BFB4A6008810221CCF80030ACF8FE
:1055200004109868013003F5805000F011810833B1
:105530005A88033203EB8204A0427ED24FF4806388
:10554000ACF8043008234EEA030E28E051484FEA35
:105550008B0404EB0B0200EB8205002100F8221003
:1055600002226B602A819968013103F5805010D0C6
:1055700008335988CF1C03EB8707B84280F094802A
:10558000444B5C4403EB840401224FF48063227497
:1055900023810BF1010B1FFA8BFB4EF0020E019AD7
:1055A00082420AF5805A03467FF476AF029B039F3E
:1055B000012B20D95FFA8EF5022D1CD0062D00F0AC
:1055C000B880C5B104A9314801F08EFA1C22044606
:1055D000002105F092FD002C00F0BC800123013D6C
:1055E00023700A2D0BD8DFE805F0250A250A220AC8
:1055F000220A1F081F000B2710E70223237104A9AA
:10560000224801F09FFA254B012253E8000F00EBDE
:10561000020143E8001494F0000FF6D100287FF453
:10562000FCAEFFF7CDFAF9E603232371E7E7012388
:105630002371E4E700232371E1E79C884FF6FF75AF
:10564000AC420AD01C8844B19C68D8F80050AC42E7
:1056500003D9C8F800405A8803320A4491B2ACF822
:1056600004105C88033403EB840398423CD802297D
:105670006ED0082367E700BF702A0020602A002050
:105680008C230020E0CE0200BC2A0020482B002002
:10569000DEC0ADDE942A0020FE011EF1582B002052
:1056A0008C2A00205C2B00209F884FF6FF794F4505
:1056B0001FD01F88EFB19F68D8F800904F4503D9DD
:1056C000C8F8007059882A890A44033292B22A81A4
:1056D0005988033103EB810398427FF65AAF19686A
:1056E00001317FF446AF54E71A6801327FF420AFEE
:1056F000BDE74FF001022A7459882A89E4E7DCF8F3
:1057000000204AB31849194D0BEB8B0201EB8200C4
:105710000221436001811448A5F802B00BF1010495
:1057200000F822101FFA84FB4EF0010E03F58050A2
:1057300035E70F4C01220023327004F1100573602D
:1057400054F8043B05A803B19847A542F8D164E694
:105750000423F8E6082761E60222ACF804200122BF
:10576000CCF800300092DFE7942A0020782A00204D
:10577000602A002068B161B12DE9F04182B00C4689
:1057800001A90546FFF79AF928B90A2002B0BDE839
:10579000F081052070476E68002206213046B6F879
:1057A00006807788FFF7CAF802AA791C22F8020D52
:1057B000890006F10800FFF7C1F8804501D00D20EF
:1057C000E4E7BDF804200B4B02EB820203EB8203FB
:1057D0000C33012253E8001F01EB020043E80007ED
:1057E00097F0000FF6D126606B680C3363600020E1
:1057F000AA72CBE7942A002050B110B582B00DF107
:1058000006010446FFF75AF920B90A2002B010BD7C
:1058100005207047BDF80630094A03EB830302EB0D
:105820008303DA6812B9062002B010BDA27A002AFA
:10583000F9D0DA680021013ADA600846A172E5E79A
:10584000942A00202DE9F0414A4B82B01B780022B7
:10585000ADF8022023B90224204602B0BDE8F08151
:1058600059B10A884FF6FF739A4201D04B8833B979
:105870000424204602B0BDE8F0810524ECE74B6823
:105880009B0701D00324E7E7B1F808800D460646E0
:1058900069464046FFF76EF804460028DCD101A9AE
:1058A000354801F021F91C220746214605F025FC68
:1058B000002F50D002233B70BDF80030BC75BB8276
:1058C0006B683B6101222D4B53E8000F00EB020196
:1058D00043E8001E9EF0000FF6D1F9602B883B8153
:1058E0006B88BB80A7F8068022460621381DFFF78B
:1058F00025F80DF10808042128F8060D07F10C0021
:105900004246FFF71BF8A968ADF80200890042463D
:105910006868FFF713F801A9034678811648ADF8C7
:10592000023001F00FF936B17460FA68144B32603E
:105930001B89B4723381134B012253E8000F00EB33
:10594000020143E8001595F0000FF6D1002883D13D
:10595000FFF736F980E7BDF800300B4A03EB83030D
:1059600002EB830208245389033BA3EB0808A2F847
:105970000A8071E7702A0020482B00208C2A002022
:10598000782A0020582B0020942A00202DE9F04787
:1059900082B050B1504B1B780022ADF802204BB9B9
:1059A0000224204602B0BDE8F0870524204602B05C
:1059B000BDE8F0870029F8D00A884FF6FF739A42B5
:1059C00001D04B8823B90424204602B0BDE8F087FB
:1059D0004B689B0701D00324E8E7B1F8089005461F
:1059E0000E4648466946FEF7C5FF04460028DDD14D
:1059F00001A93A4801F078F81C220746214605F033
:105A00007CFB002F59D003233B70BDF80030BC75E0
:105A1000BB8273683B614FF00108314B53E8001FB4
:105A200001EB080243E8002090F0000FF6D1FA6085
:105A300033883B817388BB804FF0040AA7F8069037
:105A400087F816A02B68BB61224607EB0A000621E7
:105A5000FEF774FF0DF10809514629F8060D07F10C
:105A60000C004A46FEF76AFFB168ADF802004A46EC
:105A700089007068FEF762FF0DEB0A01034678812A
:105A80001648ADF8023001F05DF86C60FA68154B0D
:105A90002A601B892B81AC72134B53E8002F02EB59
:105AA000080143E8001090F0000FF6D1002A7FF4BF
:105AB0007DAF2046FFF784F878E7BDF800300B4A49
:105AC00003EB830302EB830208245389033BA3EB1C
:105AD0000909A2F80A9069E7702A0020482B0020E3
:105AE0008C2A0020782A0020582B0020942A00209D
:105AF0001A4B1B780BB90220704728B370B582B0DF
:105B000001A90546164800F0EFFF1C2206460021B9
:105B100005F0F3FAD6B104230024337034712B68F6
:105B2000F36001A90E4801F00DF80E4B012253E875
:105B3000005F05EB020143E8001090F0000FF6D182
:105B400035B1204602B070BD052070470820F9E746
:105B50002846FFF735F82846F4E700BF702A0020F2
:105B6000482B0020582B0020194B1B780BB9022022
:105B7000704710B582B001A9164800F0B5FF1C228D
:105B80000446002105F0B9FABCB10623237001A92F
:105B9000104800F0D7FF104B1A7882B90F4B012242
:105BA00053E8004F04EB020143E8001090F0000FAF
:105BB000F6D13CB1002002B010BD0820FBE7012265
:105BC0001A73EBE72046FEF7FBFF2046F3E700BF22
:105BD000702A0020482B0020782A0020582B002013
:105BE0002E4B1B780BB90220704730B329B3F0B5A8
:105BF0008C88012C1FD82A4D04EB840305EB830508
:105C00004FF0000E4FF6FF772B786BB96A680B6880
:105C100002F58056002B3DD05A88033203EB8203F5
:105C20009E420CD8C1F800E00134A4B2022C8C8052
:105C300005F11405E8D10A20F0BD052070471A6867
:105C40000132EFD05A88033203EB82029642E9D345
:105C5000B3F804C0BC450ED0B3F800C0BCF1000FCF
:105C600009D00B609B6803600A680E4B42601B8979
:105C700003810020F0BD9642D4D913680133134646
:105C8000D0D0B2F802C00CF1030C02EB8C029642A9
:105C9000C8D3DDE702F10803C2E700BF702A002085
:105CA000942A0020782A00202DE9F043354C2478EE
:105CB00014B90220BDE8F08362B35BB3B3F804C04B
:105CC000BCF1010F23D8304F0CEB8C0407EB840799
:105CD0004FF6FF7E4FF000083C786CB91C687D6879
:105CE00005F58056002C4AD06588033504EB850401
:105CF000A64212D8C3F800800CF1010C1FFA8CFCEC
:105D0000BCF1020FA3F804C007F11407E4D10A2084
:105D1000BDE8F0830520BDE8F08325680135E9D0B2
:105D20006588033504EB8505AE42E3D3B4F80490EF
:105D3000F14515D0B4F80090B9F1000F10D01C60F7
:105D4000A5888542CBD125888D42C8D1A168116034
:105D500019680E4B51601B8913810020BDE8F08348
:105D6000B542C7D22C6801342C46C3D0B5F8029096
:105D700009F1030905EB8905AE42BBD3D6E705F16E
:105D80000804B5E7702A0020942A0020782A002011
:105D9000614B1B780BB9022070472DE9F04F044688
:105DA00085B0002800F08F8012220021DFF86C817E
:105DB000DFF86C9105F0A1F9218960886689ADF85A
:105DC000001003234246238000254FF0010C4FF6BC
:105DD000FF7E13895789D2F804A03B449BB2BAF1E5
:105DE000000F04D0DAF800704F4500F08A80278851
:105DF000013F278005EB850708EB87071E44D7F88E
:105E00000CA00099A78950446080B2F80AA066816E
:105E1000C3F580639BB251449F4238BFA381218167
:105E2000D2F804A0ADF80010DAF8081001310AF138
:105E300008030AF580573DD0BAF80AA00AF1030A10
:105E400003EB8A0A574527D3BDF800100392B3F835
:105E500004A0F2453FD0B3F800A0BAF1000F3AD049
:105E6000B4F804A00AF1010AA4F804A0B3F802A04F
:105E70000AF1030A03EB8A039F4228D91A68013208
:105E800025D0B3F802A00AF1030A03EB8A0A5745AA
:105E9000DDD2039AADF80010B4F80EB0B4F806A045
:105EA00084F810C0FB1A0BEBA3030AF1010AE3818B
:105EB000A4F806A00135022D02F1140289D10020B8
:105EC00005B0BDE8F08F052005B0BDE8F08F039A5E
:105ED000ADF80010EEE7B4F806B0B4F80EA00BF180
:105EE000010BA4F806B0B3F802B00AF1030ADA44D1
:105EF000A4F80EA0B3F802A00AF1030A03EB8A0388
:105F0000BAE7DAF8047007F16E6707F5FF37023772
:105F1000012F7FF66FAF6AE7702A0020942A0020D5
:105F2000DEC0ADDE20B119B101600B681146184723
:105F30000E2070472DE9F043DDF81C8050B14AB1C6
:105F4000D0F800E0BEF1000F07D01E4643B909208B
:105F5000BDE8F0830E20BDE8F0830820BDE8F083A3
:105F60004768D7F80490B3FBF9F709FB1737002F00
:105F7000EDD142EA0104A40702D01020BDE8F0836D
:105F8000C468A142F9D301F1FF3C04696644A6420A
:105F9000F3D8CDF81C80DEF80C40A446BDE8F043F1
:105FA000604700BF28B1F0B5066876B11AB909207C
:105FB000F0BD0E2070474768D7F800C00CF1FF37DE
:105FC0000F428E4603D01020F0BD0820F0BDC768F8
:105FD000B942F8D301F1FF3E04690CFB02E5A5428A
:105FE000F1D83469A446BDE8F040604729DF704726
:105FF00028DF70470846704700207047024B187A28
:10600000003018BF01207047102C0020034B187A75
:106010000122B0FA80F05A7440097047102C002019
:1060200008B510461A4605F043F8002008BD00BF29
:1060300008B514220021044805F05FF8034800F079
:1060400031FD002008BD00BF102C0020002C0020D6
:1060500038B50C4C012354E8002F42EA030144E810
:10606000001595F0000FF6D152B9074B436003F0CD
:1060700067FD1C2320748C220449054800F0FAFCBB
:10608000002038BD102C0020D4CE0200742B00203C
:10609000002C002030B5354C237A87B0002B51D02E
:1060A000334B1B68022222721A79002A2ED0012A51
:1060B00020D019688A68C2B1002205920392019229
:1060C00004929A680592032202921A79002A44D017
:1060D000012A07D1DA685B69049313030222039350
:1060E0008DF804208B6801A8984700232372636011
:1060F00007B030BDD8681A691044FFF779FFC8B1FE
:106100001128D6D10123237207B030BD9D695A6989
:10611000D9681869521BB2F5805F28BF4FF48052CE
:106120009208012A38BF012229442844FFF75EFF64
:106130000028E5D1237C002BE6D10146022000F0A7
:106140001DF8E1E70B490C4800F00CFD084B186006
:1061500003460028A6D16060D6E71A695B690392FE
:1061600001208DF804000493BCE700BF102C002030
:10617000282C0020242C0020002C002010B5354CA9
:10618000237A012B86B00AD0022B0CD1022810D022
:10619000032804D1E3680133082B1CD8E360637C37
:1061A0001BB103F065FC06B010BDFFF773FF06B02E
:1061B00010BD294B00221B68E2601A79002A3BD0EF
:1061C000012AECD11A69596901328A421A61E6D171
:1061D0000020207205E0204B00221B68E260227242
:1061E0000D2019688A6872B100220592039201920B
:1061F00004929A68029005921A79AAB1012A0AD0EB
:106200008B6801A898471549154800F0DBFC637CB2
:10621000002BC6D1C9E7DA685B6904931303022235
:1062200003938DF80420EBE71A695B690392012060
:106230008DF804000493E3E79A695969881AB0F568
:10624000805F94BF121802F5805291429A61A6D1E4
:10625000BEE700BF102C0020282C0020242C00209A
:10626000002C00202DE9F04383B081460E461B48E8
:1062700069461746984600F037FC50B304461C2286
:1062800000210125360B04F038FFE660C4F80090C9
:10629000C4F80880676169462571104800F052FC17
:1062A0000F4A131D53E8001F284643E8000494F0EA
:1062B000000FF7D10191019838B9547C34B9FFF738
:1062C000E9FE204603B0BDE8F083002003B0BDE83E
:1062D000F083042003B0BDE8F08300BF002C002051
:1062E000102C00202DE9F04383B0814688461C48DD
:1062F000694617461E4600F0F7FB60B304461C22B1
:1063000000210D4604F0F9FE0A9BA3606946C4F81B
:106310000090C4F81080E76066612571104800F0B5
:1063200011FC104901220B1D53E8000F144643E8ED
:10633000004696F0000FF7D10190019838B94C7CD7
:1063400034B9FFF7A7FE204603B0BDE8F083284626
:1063500003B0BDE8F083042003B0BDE8F08300BFC4
:10636000002C0020102C002000F0FD03012B00D099
:10637000704730B5384CA0F10100B0FA80F0237AB4
:106380004009002287B020746274002B48D0334B40
:106390001B68022222721A79002A2ED0012A18D0F4
:1063A00019688A6882B100220592039201920492D0
:1063B0009A680592032202921A79002A44D0012A8F
:1063C00039D08B6801A8984700232372636007B017
:1063D00030BDD8681A691044FFF70AFE28B11128A9
:1063E000DED10123237207B030BD237C002BFAD10C
:1063F00001460220FFF7C2FEF5E79D695A69D96898
:106400001869521BB2F5805F28BF4FF48052920882
:10641000012A38BF012229442844FFF7E7FDDDE7C0
:106420000F49104800F09EFB0C4B186003460028F3
:10643000AFD16060D7E7DA685B6904931303022287
:1064400003938DF80420BCE71A695B69039201206D
:106450008DF804000493B4E7102C0020282C0020B1
:10646000242C0020002C00202DE9F041B0F81080F1
:10647000CF1CA8F1040847440646B7FBF8F700F024
:10648000B1FB80B3FFB200250123013F0446A0F811
:10649000068006600571437128D0804609E0637963
:1064A000AF4203F101036371C8F800000660804643
:1064B0001CD0304600F096FB01350028EFD16679FC
:1064C000721E16D02346013082421B68FBD81F681B
:1064D0004EB1214600250C680135384600F0AAFB74
:1064E000AE422146F7D10020BDE8F0812046BDE84C
:1064F000F0812768EDE700BF10B40430012350E8B5
:10650000002F02EB030140E8001494F0000FF6D1D5
:106510005DF8044B704700BFF8B5021D012152E839
:10652000004FA4EB010342E8003595F0000FF6D1CF
:1065300013F0FF0300D0F8BD4579691E12D0024662
:10654000013399421268FBD81768002DF3D0014639
:1065500000240E680134384600F06CFBA542314639
:10656000F7D1F8BD0768F2E72DE9F843C688043390
:106570000F46B3FBF6F5904606FB1533044615B1FE
:10658000013D2468FCD1F51A454528BF4546B8F1C0
:10659000000F15D04FF000090433E018A8EB0508F0
:1065A0002A4607EB090104F083FD4645A944246807
:1065B00035464FF0000328BF4546B8F1000FEBD138
:1065C000BDE8F8832DE9F843C68804330F46B3FBD2
:1065D000F6F5904606FB1531044615B1013D2468D9
:1065E000FCD1751A454528BF4546B8F1000F15D0B6
:1065F0004FF0000904312144A8EB05082A4607EBB7
:10660000090004F055FD4645A944246835464FF07D
:10661000000128BF4546B8F1000FEBD1BDE8F88373
:1066200030B4184DA5F1F002AB1ADB1003EBD373B5
:106630005B1002EBC30152F83330984228BF0C467E
:1066400005D311E052F8333098420CD221468B1A10
:10665000DB1003EBD3735B10914202EBC304F1D860
:10666000094830BC70470D46984204D904F108022D
:10667000AA42D9D3F4E76068034B002808BF184644
:10668000EFE700BF04D0020000CF020010B40023E7
:10669000012401E0202B0AD004FA03F2024299B24D
:1066A00003F10103F6D008465DF8044B70474FF63E
:1066B000FF7108465DF8044B704700BF98B191B177
:1066C00030B40238002402E00134202C0AD030F823
:1066D000025F9542F8D1012233B10B6802FA04F44B
:1066E00023430B6030BC70470B6802FA04F423EAC2
:1066F00004030B60F6E700BF70B49DF80C60C0B1F6
:10670000B9B1B2B10238002402E00134202C10D01B
:1067100030F8025F9D42F8D1012303FA04F401EB43
:10672000820246B9E4430B68234041F8043B91429E
:10673000F9D170BC70470B68234341F8043B914288
:10674000F7D00B68234341F8043B9142F3D1F0E7C3
:10675000F0B491B100252B46012606FA03F4144249
:1067600005D000EB450431F81370A78001350133E3
:10677000202BF2D10560F0BC70470D460560F0BCDF
:10678000704700BF30B50478012C83B01FD010D300
:10679000022C0CD1C36826492648019301228DF8AA
:1067A000004002F07FF9244B68461B68984703B00D
:1067B00030BD22492248FDF79FFB28B302A80323DE
:1067C00000F8083D1C4B1B68984703B030BD436878
:1067D0001C4D19782846FDF777FBD8B9AA68EB68F5
:1067E0009A4206D002AB144A03F8080D1268184604
:1067F0009047A968EB68AA885B1A9A4212D2124B9A
:1068000001221A7003B030BD01220C49094802F080
:1068100093F8CCE7084B01908DF800401B68684660
:106820009847E6E701220249024802F03BF9BEE739
:10683000542C0020002100202C2C0020582C00205B
:10684000442C0020302C0020402C00202DE9F04367
:106850002F4C89B02260002952D00C4680468A888D
:106860002C4809689946FDF71FFB10B109B0BDE837
:10687000F083A289A1682848FDF716FB0028F5D10E
:10688000264D98F810E0D8F80C70D8F808600FCDB5
:106890006C460FC495E80F0098F8115002971EF14E
:1068A000000E18BF4FF0010E002D84E80F00D8F83D
:1068B0000050D8F804401A4A1A488DF81C9014BFAA
:1068C0000E2300238DF815306946D8F814308DF862
:1068D00014E0069303968DE8300001F041FF002894
:1068E000C4D1D8F80030104A01331070BED09DF8E2
:1068F0001D304BB101220D490A4802F0D3F8B5E72B
:10690000072009B0BDE8F083064802F0E5F9F1E799
:106910002C2C0020302C0020442C00200CD3020012
:106920008567020000210020402C0020542C00200C
:1069300010B501460C48FDF7C7FA044608B12046D9
:1069400010BD0A4802F0A2F80028F8D1084906480C
:10695000FDF7D2FA0028F2D1012205490348BDE82B
:10696000104001F0E9BF00BF442C002000210020AE
:10697000582C0020032801D907207047012A12D083
:10698000012917D008D30229F6D10D4B00EB4000A6
:10699000034400205A707047094B00EB4000034449
:1069A00000209A707047012901D00022E8E700F129
:1069B0000E02D2B200EB400301490020CA547047D6
:1069C0005C2C002010B50388102B08D0112B05D1AA
:1069D000264B18680138186038B110BD10BD234C23
:1069E000216881B10131216010BD01220221FFF730
:1069F000C1FF48B3072827D01D4B1B68002BECD0E4
:106A0000BDE81040184701220846FFF7B3FF48B120
:106A1000072807D0164B1B6803B19847216801313E
:106A2000216010BD072202210120FFF7A3FF08B15A
:106A30000728EFD1042202210020FFF79BFF002846
:106A4000ECD00728E6D1E9E7072202210120FFF771
:106A500091FF08B10728CFD1002108460A22FFF78D
:106A600089FF0028B9D00728C6D110BD6C2C0020A2
:106A7000682C002099B110B4B2FBF3F403FB14248A
:106A8000A4B21CB109205DF8044B704780E81200E5
:106A900084608281C38120465DF8044B70470E20DC
:106AA000704700BF82B050E8022FC188B2EB324F6E
:106AB0004FF0000317BF92B241EA014142EA01419F
:106AC00004E04268B2EB324F08BF012340E80212F3
:106AD000002AE8D18DF807309DF80730002B0CBF55
:106AE0001120002002B0704730B482B050E8013F5E
:106AF0009DB2C48925448489A54228BF2D1B0489E1
:106B0000A54202BFBFF32F8F002207E0C5EA0305AD
:106B100040E80154002CE9D14FF001028DF8032028
:106B20000193019B9DF803200B602AB10B8800683C
:106B3000184402B030BC704702F0FF03184602B0A0
:106B400030BC70470A884B889A4201D000207047B9
:106B500050E8012FC2EA024240E80123002BF7D19E
:106B60000120704730B482B050E8023F1FFAA3F50D
:106B7000C488A54202BFBFF32F8F00220DE0C48955
:106B800025448489A54228BF2D1BC3EA054540E85A
:106B90000254002CE8D14FF001028DF8032001933C
:106BA000019B9DF803200B602AB14B8800681844B4
:106BB00002B030BC704702F0FF03184602B030BC90
:106BC000704700BF0A884B889A4201D00020704766
:106BD00050E8022FC2EA224240E80223002BF7D1FC
:106BE00001207047F0B583B002AB002503F8015DCA
:106BF00004461846FDF764FE236861681A688A42F5
:106C000010D9511E19602168A3680E6812F8015C42
:106C10000A79278AE0689B1BDBB29A4207FB0505CD
:106C200038BF0B719DF80700FDF770FE284603B0D2
:106C3000F0BD00BF30B583B002AB002203F8012DD8
:106C4000054618460C46FDF73BFE2A681368591C9A
:106C50001160E9682A8A641AB4FBF2F41C709DF88A
:106C60000700FDF753FE03B030BD00BF2DE9F04330
:106C700005468068DFF89881DFF8989183B000249A
:106C80008022214694308DF8034004F036FA2869BA
:106C90005E4900F087FF286900F078FF4FF47A76AC
:106CA0006868036801221F690DF1030101ABB84751
:106CB000019BD3B19DF80320AB681B2A04F10101AD
:106CC00005D093F894001B28EAD1522A55D02344CA
:106CD000CCB2092C83F89420E2D9AB68002283F867
:106CE0009420042003B0BDE8F08340F2E733D8F8E5
:106CF000002000BF00BF00BF00BF00BF00BF00BF3B
:106D000000BF4A452FD000BF00BF00BF00BF00BF7B
:106D100000BF00BF00BF00BF00BF00BF00BF00BF7B
:106D200000BF00BF00BF00BF00BF00BF00BF00BF6B
:106D300000BF00BF00BF00BF00BF00BF00BF00BF5B
:106D400000BF00BF00BF00BF00BF00BF00BF00BF4B
:106D500000BF00BF00BF00BF00BF00BF00BF00BF3B
:106D600000BF00BF00BF013BC3D1013EB6B2002E41
:106D700096D10D2003B0BDE8F0832344002283F8B0
:106D80009420AE6896F895305B2B05D00B2086F8E2
:106D9000942003B0BDE8F08306F19507022304E0D8
:106DA0005FFA8EF3802B8AB22ED017F8014F02EBD8
:106DB0008201A4F130003B2C03F1010E00EB4101F4
:106DC000EED15FFA8EF318061ED4002002E088B2DE
:106DD000190619D4F41800EB800194F8944001339B
:106DE00004EB41013039DBB2002CF0D1FA2828BF86
:106DF000FA203072AB68FA2A88BFFA229A72AB681E
:106E0000002083F894006DE70C206BE754D3020058
:106E1000082100200024F400002900F0D8802DE98A
:106E2000F04F8B4687B0924606464C1E002700E086
:106E3000013704F01DF914F8013F1844437813F0AA
:106E40000803F5D101935FFA8AF30393584604F0DF
:106E500066F9B36893F80D80C01BA8EB0A0840459B
:106E60005ED90BEB0709002400E0013404F000F9BF
:106E700019F8013B18440AEB04014278120707EBAA
:106E8000040502D50A2B07D0A046B3685B7B994264
:106E9000EBD307EB08054446306900F077FEA4B158
:106EA00005AB4FF00008029599467068036807EB40
:106EB0000801DD6859444B462246A847059B984483
:106EC000FBB1E41A002CF0D1029D0BEB050400E0AD
:106ED000013504F0CDF814F8013B184443781B0742
:106EE000F6D43E4A3E49306900F05CFE039B0BB984
:106EF0002F46ABE71A463B49306900F053FE2F4658
:106F0000A4E7B2681378032BDCD092F83C31002B55
:106F1000FBD09DF8043082F83C31002CC5D1D3E77A
:106F20000BEB070188B11BF807300A2B0BEB0701AD
:106F30004ED00B46002403E013F8012F0A2A0FD08D
:106F40000134A04207EB0405F6D1306900F02AFEB7
:106F50003069224A224900F025FE07B0BDE8F08FD3
:106F6000306900F013FE4FF000080DF1140AA94635
:106F70007068036807EB0801DD68594453462246F0
:106F8000A847059BA3B19844E41A002CF0D14D46C4
:106F9000124A1349306900F005FE039B013523B105
:106FA0001A461049306900F0FDFD0BEB0501CCE7F6
:106FB000B2681378032BE8D092F83C31002BFBD059
:106FC0004FF0000382F83C31002CD1D1DFE770474D
:106FD00030693D4600F0DAFDDAE700BF38D3020041
:106FE00078D302007CD302000CB4F0B585B0816880
:106FF0000AAB91F83D2153F8045B01935307044613
:1070000002D5CB7B082B09D12946206901AA00F0C3
:1070100069FE05B0BDE8F04002B0704702220F31B2
:10702000684604F045F8A368DA7B082A0AD02B4AA0
:107030002B49029208220391DA73206929496A4494
:1070400000F0B0FD01AA2946206900F04BFE9DF832
:107050000030A268002B39D0D17B994214D01F494F
:1070600002916D200021332603F12F058DF80E00CB
:107070008DF80F108DF80C608DF80D50D3732069CA
:10708000184902AA00F08EFD9DF80130002BC0D0F7
:10709000A268117C9942BCD01B218DF808105B2797
:1070A000342603F12F056D2000218DF80C008DF89A
:1070B0000D108DF809708DF80A608DF80B5013745F
:1070C0002069084902AA00F06DFDA2E7D373206988
:1070D000054A044900F066FDD6E700BF1B5B313B63
:1070E00033376D0078D302003CD302002DE9F0471E
:1070F000804686B0544804F012F80446534804F021
:107100000EF8D8F8083052495B68524A1B68009163
:10711000241A08214046FFF767FFD8F808305B685B
:107120001868A4B2002800F08D8003F0F8FF85B243
:10713000474803F0F4FFD8F808305B6828445968E2
:1071400082B24046FFF768FE434A08214046FFF7F7
:107150004BFF3E4803F0E3FF02300444A4B23A4B35
:1071600000933E4A234608214046FFF73DFFE21CBC
:1071700092B23B494046FFF74FFED8F808305B68B3
:107180009F68002F54D0002528462E460FE07C68CB
:1071900060592C44B8B103F0C2FFB04205D926684B
:1071A000304616B103F0BBFF86B2103548463B7837
:1071B00000F10109002BEAD07B6802A998470298E8
:1071C00008B102ACE7E7B9F1010F31D0254ADFF889
:1071D0008C9008214046FFF707FF3B78B51C002440
:1071E000ADB24FEA041AD3B97B6853F80A209A4427
:1071F000F2B1082100922B464A464046FFF7F4FEC2
:10720000DAF80430721D1946404692B29BB1FFF77E
:1072100003FE3B7801344FEA041A002BE4D002A9A4
:107220007B6820469847029A12B10DF1080AE0E700
:1072300006B0BDE8F0870C4A0C49D8F8100000F001
:10724000B1FCE6E7054673E784D30200D8D5020017
:107250005CD30200B0D5020074D5020080D50200D4
:1072600088D502009CD5020038D3020078D30200F2
:10727000022910B504460BD020690A4A0A4900F0D9
:1072800091FC2069094A0849BDE8104000F08ABC19
:10729000836893F83D319B07EED5BDE81040FFF7BA
:1072A00025BF00BF40D3020078D3020044D30200C0
:1072B0000CB4F0B585B082680AAB044692F83D0183
:1072C00053F8046B0193430703D5D37B8B420D46E0
:1072D00009D13146206901AA00F004FD05B0BDE8DE
:1072E000F04002B0704702F10F016846022203F03D
:1072F000DFFEA368002D64D0DA7BAA4216D03320CB
:1073000005F12F016D220027DFF8C8E08DF80C0091
:107310008DF80D108DF80E208DF80F70CDF808E067
:10732000DD7320692A4902AA00F03CFC01AA31461B
:10733000206900F0D7FC9DF80030A268002B39D0FE
:10734000D17B994214D0234902916D20002133262C
:1073500003F12F058DF80E008DF80F108DF80C60DD
:107360008DF80D50D3732069194902AA00F01AFC58
:107370009DF80130002BB1D0A268117C9942ADD0AC
:107380001B218DF808105B27342603F12F056D2093
:1073900000218DF80C008DF80D108DF809708DF816
:1073A0000A608DF80B5013742069094902AA00F095
:1073B000F9FB93E7D3732069074A054900F0F2FB14
:1073C000D6E7DD732069044A014900F0EBFBADE725
:1073D00078D302001B5B313B3CD30200F0B501299E
:1073E00083B004461AD0836893F83D41A40727D49C
:1073F00002290AD8516813682A4A01910092022191
:10740000294AFFF755FF03B0F0BD5B68274A1B68A8
:10741000022103B0BDE8F040FFF74ABF8568FFF7DF
:1074200025FC90B1A368224A50215973A368182102
:1074300019732046042103B0BDE8F040FFF738BFC0
:1074400003B0BDE8F040FFF751BEA36819492069B9
:107450001F7A9E7AFA2200F0A5FB20691649FA22CB
:1074600000F0A0FB2046FFF701FC0028DAD1A3685A
:107470001A7A6A73A368D21B9B7A2B7312F0FF02ED
:107480000AD19B1B13F0FF02BDD020690B4903B04A
:10749000BDE8F04000F086BB0949206900F082FB9E
:1074A0002B7BEEE790D3020014CB0200F8D402004D
:1074B00014D502007CD3020060D3020068D302001E
:1074C00070D30200826892F83D31C3F3400383B960
:1074D000012908D110B4C2F82C31C3685DF8044BFF
:1074E000D86800F039BB5368034A1B680221FFF7D4
:1074F000DFBEFFF7FBBD00BFF8D4020030B48468E4
:1075000094F83D31C3F34002AAB901290CD162F3CA
:10751000C30384F83D31836893F83D1162F30001A1
:1075200083F83D1130BC70476368044A1B68022130
:1075300030BCFFF7BDBE30BCFFF7D8BDF8D40200A9
:1075400010B4826892F83D31C3F3400484B9012934
:1075500006D164F3820382F83D315DF8044B704735
:1075600053685DF8044B044A1B680221FFF7A0BE74
:107570005DF8044BFFF7BABDF8D40200826892F8B8
:107580003D3113F0020F0CD1012904D143F008035F
:1075900082F83D3170475368034A1B680221FFF7A8
:1075A00087BEFFF7A3BD00BFF8D40200F0B5836823
:1075B00093F83D41C4F3400487B08CBB012927D127
:1075C000D3F83451FDB1184F06462846002309224E
:1075D00003A9FEF7F7FF9DF81420B1682846013291
:1075E00094310923FEF7EEFFB368049D94330093B2
:1075F0003A462346082130460134FFF7F5FC0DB129
:10760000082CE2D1B368002283F8942007B0F0BDC3
:107610005B68064A1B680221FFF74AFE07B0F0BD0F
:10762000FFF764FD07B0F0BDECD40200F8D402000F
:1076300010B5826892F83D41A30784B026D4012991
:107640001BD1C3680446D86800F082FAE268A368D8
:10765000D268D3F82C3191680291C0B2642202FB47
:1076600000F2B2FBF1F2D2B20190009220460A4A37
:107670000821FFF7B9FC04B010BD5368074A1B6826
:10768000022104B0BDE81040FFF712BE04B0BDE80F
:107690001040FFF72BBD00BF98D40200F8D40200C1
:1076A000826892F83D3113F0020F0CD1012904D108
:1076B00043F0040382F83D3170475368034A1B6866
:1076C0000221FFF7F5BDFFF711BD00BFF8D402009E
:1076D00010B5826892F83D41A30716D401290CD158
:1076E00004460C4A0C49006900F05CFAA368502279
:1076F0005A73A36818221A7310BD5368074A1B688F
:107700000221BDE81040FFF7D3BDBDE81040FFF7F0
:10771000EDBC00BF4CD3020078D30200F8D40200C5
:1077200030B5836893F83D41A50783B018D402298A
:107730000DD81AD01249134B134A14F0080F08BF82
:107740000B46082103B0BDE83040FFF74DBC5B6835
:107750000E4A1B68022103B0BDE83040FFF7A8BD08
:1077600003B0BDE83040FFF7C1BC92E81800084AFA
:107770008DE81400074AFFF79BFD03B030BD00BF42
:10778000D4D4020030DE0200D8D40200F8D40200C3
:1077900090D3020014CB020070B5012982B00446D8
:1077A00019D0856895F83D61B30714D4022909D131
:1077B00092E818000B4A8DE814000B4AFFF778FD99
:1077C00002B070BD6B68094A1B68022102B0BDE8B7
:1077D0007040FFF76DBD204602B0BDE87040FFF776
:1077E00085BC00BF90D3020014CB0200F8D4020085
:1077F00010B5012982B0044614D002290B4617D0D7
:10780000826892F83D1189070CD4022B01D802B08E
:1078100010BD53680B4A1B68022102B0BDE810403E
:10782000FFF746BD204602B0BDE81040FFF75EBC42
:1078300092E81800044A8DE81400044AFFF738FD66
:1078400002B010BDF8D4020090D3020014CB0200A5
:107850002DE9F04F064689B0AF480D46174603F0B4
:107860005EFC0446AD4803F05AFCB368AC495B6863
:10787000AC4A1B680091241A08213046FFF7B4FB7C
:10788000B3685B681868A4B2002800F05F8103F059
:1078900046FC1FFA80F8A24803F041FCB3685B681D
:1078A000404482B259683046FFF7B6FA9E4A082132
:1078B0003046FFF799FB97B38DB305F104084FF0FD
:1078C000000922E0184603F02AFC824658F8040C0E
:1078D00008B103F024FC5044A0420FD9D8F80000AE
:1078E000002800F0178103F01AFC84B258F8040C49
:1078F00010B103F014FC80B20444A4B209F10109F0
:107900004F4508F10C0800F08A80D8F80030002BB1
:10791000D8D158F8040C0028F0D09A46D9E77F480F
:1079200003F0FDFB02300444A4B27B4B00937F4A7A
:10793000082130462346FFF757FBE21C92B27C49F0
:107940003046FFF769FAB3685B68D3F80880B8F18E
:10795000000F5BD0002528462F4610E0D8F80440E1
:1079600060592C44C8B103F0DAFB874205D227687E
:10797000384617B103F0D3FB87B21035484698F864
:10798000003000F10109002BE8D0D8F8043004A938
:107990009847049808B104ACE5E7B9F1010F35D078
:1079A000644ADFF8889108213046FFF71DFB98F8FC
:1079B0000030BD1C0024ADB24FEA041AE3B9D8F878
:1079C000043053F80A209A4402B3082100922B464F
:1079D0004A463046FFF708FBDAF804307A1D1946AC
:1079E000304692B2ABB1FFF717FA98F80030013485
:1079F0004FEA041A002BE2D004A9D8F8043020463C
:107A00009847049A12B10DF1100ADEE709B0BDE8FB
:107A1000F08F494A4949306900F0C4F8E5E73F482A
:107A200003F07DFB00F1020BA3441FFA8BFB3A4BE2
:107A300000930BF1030A5B463C4A082130461FFACB
:107A40008AFAFFF7D1FA524639493046FFF7E4F98E
:107A50000BF10203DBB2023B039300276B68002BA0
:107A600037D02A68002A37D02C4930468DE80600E6
:107A7000334A0821FFF7B8FA6868002843D003F0BA
:107A80004EFBC4B2286800283BD003F048FB5FFAE5
:107A900080F8224803F043FB039B1C1BA4EB08085F
:107AA000A8EB000010F0FF022FD13A2225493069DF
:107AB00000F078F8A9680137C9B152463046FFF79F
:107AC000ABF9B94505F10C053FF43DAF6B68002BF0
:107AD000C7D12B68002BEDD0009308215B46134AD9
:107AE0003046FFF781FAA96801370029E5D1124A2B
:107AF0001249306900F056F8B94505F10C05ADD1D1
:107B000021E78046C5E70446BCE70F49306900F02D
:107B100049F8CAE70446E9E684D30200D8D5020052
:107B20005CD30200B0D5020074D5020080D50200FB
:107B300088D502009CD5020038D3020078D3020019
:107B4000ACD5020034D302007CD302008046A2E60A
:107B500003689868704700BF036800229A60704706
:107B600001600B6843604A68934204BF002343608E
:107B7000704700BF436843B1026891680B4443609B
:107B80005268934204BF002343607047826802B981
:107B9000704710B50446436901680069984700239F
:107BA000A36010BD0EB400B582B0039929B102AA3A
:107BB00004AB42F8043D00F095F802B05DF804EB28
:107BC00003B070472DE9F84F1746B942884606467C
:107BD0001D46DDF828B00B9A7DD30B464FF0010906
:107BE000B3FBF7F39F4209F10109F9D9A94538BF61
:107BF000A94612F0010A02D1BBF1000F49D1B268C7
:107C0000012402E0013D07FB04F4012DFAD8B8FB82
:107C1000F4F18F42F7D9324D05E0B4FBF7F4A4B18B
:107C2000B8FBF4F1B268685C531CB36033689854D5
:107C3000B26873689A4204FB1188EED33046FFF7AE
:107C4000A5FFB4FBF7F4002CEAD1BAF1000F16D06F
:107C5000BBF1000F33D0CB4588BF20243ED9B36899
:107C60003268591CB160D454B26873689A420BF1FF
:107C7000FF3B06D2BBF1000F09D0D945EFD1BDE8DB
:107C8000F88F3046FFF782FFBBF1000FF5D1BDE85A
:107C9000F88F93071AD42024CB45B0D9B268336843
:107CA000511CB1609C54B26873689A420BF1FF3B5F
:107CB00007D2BBF1000FA3D0CB45F0D1A0E7BDE8C0
:107CC000F88F3046FFF762FFB268F2E7002D0CBF75
:107CD00030242024E0E74FF0010987E7BDE8F88F62
:107CE00058D80200002900F06F822DE9F04F0646B7
:107CF00085B093460C460B780DE0B2683168501C95
:107D0000B0608B54B26873689A4280F0D380237855
:107D1000002B00F0BA800134002B00F0B680252B38
:107D2000EBD14FF00008234614F8012B2D2A00F068
:107D3000BB80302A00F0BB802B2A00F0AD802A2ABD
:107D400000F0BC80A2F13005E9B2092998BF0133E7
:107D500002D9A9E1A1F130051C4613F8012BA2F1CB
:107D6000300005EB8501092802EB4101F2D92E2AEA
:107D700000F0B080002701E014F8012F02F0FB03AF
:107D8000682BF9D0253A532A7AD8DFE812F07A0125
:107D9000790079007900790079007900790079001B
:107DA000790079007900790079007900790079000B
:107DB00079007900790079007900790079007900FB
:107DC00079007900790079007900790079007900EB
:107DD00079007900790079007900790079007900DB
:107DE00079007900790079007900790079007900CB
:107DF000790079006A0179007900790079007900C9
:107E0000790079007900790079005501FC0079004A
:107E1000790079007900FC00790079007900790017
:107E200079007900540079007900CA007900BA001D
:107E3000790079006A01DBF80020131DCBF80030CF
:107E4000B368156831685A1CB2604FF03002CA54EA
:107E5000B3687268934280F0A0813268581C782120
:107E6000B060D154B26873689A4280F09281002267
:107E7000082301922946009310223046FFF7A2FE04
:107E800001342378002B7FF446AF337B002B40F086
:107E9000058105B0BDE8F08F234614F8012B2D2A8B
:107EA00048F004087FF445AF48F001083BE748F08C
:107EB000020838E73046FFF769FE28E7DBF80020C4
:107EC000111DCBF8001015685A782E2A03F1010411
:107ED0007FF450AF6278A2F13003092B04F1010462
:107EE0004FF000073FF64AAF07EB870702EB470763
:107EF00014F8012FA2F13003092BA7F13007F3D9B1
:107F00003CE7DBF800301A1DCBF800201968CDF8EB
:107F100004803B4600950A223046FFF753FE0134A9
:107F2000AFE7DBF800301A1DCBF8002018F0010F86
:107F3000D3F8009040F0BB80B9F1000F00F047810A
:107F4000484603F0ECF80746BD4240F2F180002DB0
:107F500000F0EE804FF0200805E0BD4200F0E88020
:107F6000002D00F0E580B3683268591CB16002F85A
:107F70000380B26873689A4205F1FF35EDD330464D
:107F8000FFF704FEE9E7DBF800301A1DCBF800200C
:107F9000D3F8009089EAE973A3EBE973092B4FF05A
:107FA000010A09DD8F4A82FB0312DB17C3EBA20330
:107FB000092B0AF1010AF5DCBA4538BFBA462DB3E0
:107FC000B9F1000F02DB18F0040F00D0013D18F0EA
:107FD000020F40F0F58018F0010F17D1002D00F0CE
:107FE000FE80AA4538BF202110D2B2683368501CE9
:107FF000B0609954B26873689A4205F1FF3580F019
:10800000E880002D00F0EB80AA45EED1B9F1000F19
:10801000C0F2C88018F0040F7BD108F00303022BD4
:1080200000F09A808DE820013B4649460A223046FE
:10803000FFF7C8FD013424E7DBF80020131DCBF85F
:108040000030B36831681278581CB060CA54B26806
:1080500073689A42FFF414AF3046FFF797FD01347E
:108060000FE7DBF800301A1DCBF800201968CDF8B7
:1080700004803B46009510223046FFF7A3FD0134F3
:10808000FFE6B3683268591CB1604FF02501D15446
:10809000B26873689A42DFD20134F2E6304605B026
:1080A000BDE8F04FFFF772BD1C4600255FE64F4666
:1080B000A7EB090817F8013B8BB1B2683168501C77
:1080C000B0608B54B26873689A42F1D33046FFF7C0
:1080D0005DFDA7EB090817F8013B002BEDD14545E5
:1080E0007FF6CEAE202705E045453FF4C9AE002D12
:1080F0003FF4C6AEB3683268591CB160D754B26859
:1081000073689A4205F1FF35EED33046FFF73EFD26
:10811000EAE7B2683368501C2B21B0609954B2680A
:1081200073689A42FFF479AF3046FFF72FFD74E78A
:1081300009F1FF3919F8013F002B3FF4A1AEB268F5
:108140003168501CB0608B54B26873689A42F1D3A6
:108150003046FFF71BFDEDE7002F7FF463AF002DE6
:1081600033D0AA45BFF45EAFB2683368511CB1602A
:108170004FF030019954B26873689A4205F1FF35A7
:1081800003D215B3AA45EFD14CE73046FFF7FEFC0A
:10819000F7E73046FFF7FAFC69E63046FFF7F6FCF2
:1081A000B3685AE6B2683368501C2D21B060995408
:1081B000B26873689A42C9F10009FFF42EAFB3E7C1
:1081C000002F3FF423AF06E7704700252AE74F460C
:1081D000BAE630460391FFF7D9FC039911E7002571
:1081E00014E700BF67666666002810B418DB00F16C
:1081F000604303F561434901C9B283F80013C3B278
:108200004009800000F1604000F5614003F01F026A
:1082100001239340C0F8803103605DF8044B704740
:10822000C3B2044A03F00F0449012244C9B21176D3
:10823000E6E700BFFCEC00E02DE9F04F87B000233B
:10824000CC4A01931168012900F00A821E46CA4BEC
:108250001A68012A00F0F681C84B1A68012A00F05A
:10826000E381C74B1A68012A00F0D081C54B1A6818
:10827000012A00F0BD81C44B1A68012A00F0AA81CE
:10828000C24B1A68012A00F09781C14B1A68012A73
:1082900000F08481BF4B1A68012A00F05E8116F05D
:1082A000FF0F1AD0BC4F01250024A30003F1804327
:1082B0002E4203F5C0434FEA45050BD0D3F8100515
:1082C00057F82420D3F81015C0F30420C1F301415E
:1082D00002B190470134082CE7D1002E02DB07B031
:1082E000BDE8F08F00224FF0FF33AB4C02920393B6
:1082F000012502AE94F950104F1C2DD0C9B221F0C7
:10830000C00006AB4FEAD00E03EB0E0701F00703E7
:1083100017F80C2C05FA03F31A421DD0221889090C
:1083200092F9302054F82220002A00F0F08003292E
:1083300000F0F0804FEA800E0EF1A04E17F814CC3A
:10834000DEF800771CEA0303C7F3014940F0B88068
:10835000B9F1030F00F0D7814FF0030A4FF0020983
:108360004FF00108002794F95110481C2DD0C9B2D4
:1083700021F0C00006AB4FEAD00C03EB0C0E01F06D
:1083800007031EF80C2C05FA03F31A421DD022181D
:10839000890992F9302054F82220002A00F0CA807E
:1083A000032900F0CA804FEA800C0CF1A04C1EF8A3
:1083B00014BCDCF800E71BEA030FCEF3014E40F0DB
:1083C0009080BEF1030F00F08A8194F952104A1C8C
:1083D0002CD0C9B221F0C00006AB4FEAD00C03EBA1
:1083E0000C0E01F007031EF80C2C05FA03F31A42D9
:1083F0001CD02218890992F9302054F82220002A32
:1084000000F08F80032900F08E804FEA800C0CF181
:10841000A04C1EF814ACDCF800E71AEA030FCEF308
:10842000014E6AD1BEF1030F00F0468194F953105A
:108430004B1C2CD0C9B221F0C00006AB4FEAD00EC5
:1084400003EB0E0201F0070312F80CCC05FA03F35C
:108450001CEA030F1BD004EB000C89099CF930C007
:1084600054F82C90B9F1000F6ED003296ED04FEA6A
:10847000800E0EF1A04E12F814CCDEF800271CEA94
:10848000030FC2F3014211D1032A00F0F580002F3F
:108490003FF425AF4FF0A043019AD3F810359A422C
:1084A0003FF41DAF029A0193039223E7022AEED113
:1084B000032900F04681B9F1000FE8D0C847E6E78C
:1084C000B9F1020F7FF448AF032900F043814FF068
:1084D000030A4FF001080027002A3FF444AF9047F9
:1084E00041E7BEF1020F7FF470AF032900F02C8149
:1084F000002A3FF46AAF904767E7BEF1020F95D1BB
:10850000032900F02481002A90D090478EE70329A8
:108510007FF422AF16F80EC04CEA030C06F80EC02A
:1085200008E7032982D116F80CA04AEA030A06F8E4
:108530000CA06AE703297FF448AF16F80CB04BEAA9
:10854000030B06F80CB02EE70329A0D116F80EC0D5
:108550004CEA030C06F80EC089E700221A601B687B
:1085600005934FF0A043059AD3F81035019346F0D8
:10857000004694E60061004004610040086100404C
:108580000C6100401061004014610040186100401F
:108590001C6100407C610040702C00206F4AD2F8C2
:1085A000042312067FF576AE00221A601B6804933E
:1085B000049B46F080066DE6684AD2F80423510613
:1085C0007FF563AE00221A601B680493049B46F09B
:1085D00040065AE6614AD2F8042390067FF550AE71
:1085E00000221A601B680493049B46F0200647E6AD
:1085F0005A4AD2F80423D4067FF53DAE00221A6011
:108600001B680493049B46F0100634E6534AD2F8E4
:10861000042315077FF52AAE00221A601B68049315
:10862000049B46F0080621E64C4AD2F8042357077B
:108630007FF517AE00221A601B680493049B46F076
:1086400004060EE6454AD2F8042392077FF504AEED
:1086500000221A601B680493049B46F00206FBE5A7
:108660003E49D1F8046316F001063FF4F0AD136003
:1086700013680493049BEAE503297FF41CAF4FF4CD
:108680000032DEF8003723F44033CEF80037DEF84E
:1086900000371343CEF80037B9F1000F01D0474639
:1086A0000CE74FF0A043019AD3F8103593427FF4C2
:1086B000F9AE07B0BDE8F08F03297FF424AF4FF483
:1086C0000037DCF8003723F44033CCF80037DCF80F
:1086D00000373B43CCF800374746C84613E7032929
:1086E0007FF406AF4FF40037DCF8003723F4403353
:1086F000CCF80037DCF800373B43CCF8003747466E
:10870000C846D146F4E6032906D0CA461F464FF0B4
:1087100002094FF00108DFE64FF40037DEF80037BA
:1087200023F44033CEF80037DEF800373B43CEF871
:1087300000374FF0040A4FF003094FF002080127F9
:10874000CAE64FF440329CE74FF44037CCE74FF491
:108750004037B6E74FF44037E0E700BF0060004025
:10876000F0B50479714E6401331987B0DD7E15B11F
:10877000082007B0F0BD4D7F1D770D686B1C0BD036
:108780004FF0A0470123AB40C7F808350B6803F54D
:10879000E073032547F823504B685F1C06D003F5B0
:1087A000E0734FF0A045002745F82370037906EBEE
:1087B00043131B7F002B4CD003688D69C3F82455ED
:1087C0000F7D4B7D05683B43C5F86C3503680F682A
:1087D0004D68C3F80C75C3F814550B7D012B00F0E0
:1087E0009A80331905465A600B693351EAB103790F
:1087F000097F026806EB43131B7F002B65D1C2F88B
:108800001C31D2F81C712A680097009FC2F84431CD
:10881000D2F844212B6846480192019AC3F8040318
:10882000286840F30730FFF7DFFC2B792A6806EB56
:1088300043131B7F002B44D00823C2F80035344477
:1088400000200123E376E0752076A075A07607B0BE
:10885000F0BD05688F69C5F8247591F814E04D7D69
:10886000076845EA0E05C7F86C550568D1F800E0C1
:108870004F68C5F81475C5F80CE50D7D012DB0D114
:108880008D686F1C05D005F5E0754FF0A04747F8DF
:108890002530CB685D1C0DD001254FF0A04705FAAF
:1088A00003F3C7F80835CB6803F5E073032547F8F1
:1088B0002350CB6805688F68C5F80835C5F8107572
:1088C0008FE70423C2F80035B9E70023C2F810315E
:1088D000D2F810712A680297029FC2F82031D2F8AC
:1088E00020712A680397039FC2F82431D2F82471BB
:1088F0002A680497049FC2F84431D2F844212B68B7
:1089000005920C48059AC3F80403286840F3073021
:10891000FFF76AFC89E78B685D1CBAD003F5E0734A
:108920004FF0A045002745F82370B2E7C82C00207F
:108930008000020010030200F0B50379524C5B0185
:10894000E51887B02D7F3DB101F06045B5F1005FBE
:1089500002D0102007B0F0BD23449E7D16B1112037
:1089600007B0F0BD9A7599609E8205796D01621914
:10897000137F13BB0168C1F81C31D1F81C61016879
:1089800004960126049F8E600168D2F808E0C1F8C1
:108990001C31D1F81C310593059B968A938A576840
:1089A000B6B201331EF806609BB29382C1F81C6513
:1089B000002F2FD0002007B0F0BD03689168C3F8E6
:1089C0002061D3F8207103680197019FC3F85861B3
:1089D000D3F8586103680296967D029FC3F8441548
:1089E000C3F848650368012199605368002BE1D101
:1089F000036801E0002945D1D3F82021D3F85811AC
:108A0000002AF7D0002914BF0F2000202C44002397
:108A1000A3759FE7967D938A9BB29E4202F1140153
:108A200022D9016804E0938A9BB2B3F5807F03D01A
:108A3000D1F81C31002BF6D0938A9BB2B3F5807F1E
:108A4000E9D0C1F81C71D1F81C310393039BB2F833
:108A500014C0938A1FFA8CFC01331EF80CC09BB221
:108A60009382C1F81CC5D6E70B889BB2B3F5807F13
:108A700008D00268D2F81C31002BFBD00123D36050
:108A80000020C3E70F20C1E7C82C00200279044B67
:108A900003EB4213987D003018BF0120704700BFE0
:108AA000C82C0020F0B403798A4E5B01F41888B01A
:108AB000257F45B101F06045B5F1005F54D010202D
:108AC00008B0F0BC70476568002D3FD13344DC7DB1
:108AD00054BBDA75D9605C761C7605796D01731923
